:020000040800F2
:10000000B810002035020008B52D0008292B000883
:100010004D2D0008F51400086D30000800000000A8
:10002000000000000000000000000000212E000879
:100030005D150008000000001D2E0008252E000898
:100040004F0200084F0200084F0200084F0200084C
:100050004F0200084F0200084F0200084F0200083C
:100060004F0200084F0200084F0200084F0200082C
:100070004F0200084F0200084F0200084F0200081C
:100080004F0200084F0200084F0200084F0200080C
:100090004F0200084F0200084F0200084F020008FC
:1000A0004F0200084F0200084F0200084F020008EC
:1000B0004F0200084F0200084F0200084F020008DC
:1000C0004F0200084F0200084F0200084F020008CC
:1000D0004F02000855300008613000084F02000848
:1000E0004F0200084F0200084F02000800F002F81B
:1000F00000F090F80AA090E8000C82448344AAF132
:100100000107DA4501D100F085F8AFF2090EBAE82F
:100110000F0013F0010F18BFFB1A43F0010318473B
:100120005C6900007C690000103A24BF78C878C17F
:10013000FAD8520724BF30C830C144BF04680C60ED
:10014000704700000023002400250026103A28BF35
:1001500078C1FBD8520728BF30C148BF0B60704739
:100160006E2900F06383702900F08D81662905F007
:10017000CB87652905F0C887672905F0C587612900
:1001800005F0C48703681B0A28BF41F08001692974
:1001900000F0FE80642900F0FB80752900F0F880F3
:1001A0006F2900F04B84782900F05981E92900F08B
:1001B000E583E42900F0E283F52900F0DF83EF29ED
:1001C00000F04884F82900F058810368DB0928BF53
:1001D00041F08001632900F06783732900F06C838C
:1001E000E32901F01D80F32901F0228000207047EF
:1001F0001FB501F073F804000020002105F06EFF28
:10020000401C60600020002105F052FFE0601FBD2F
:1002100010B510BD01F034F81146FFF7E9FF03F007
:100220009DFF01F011F903B4FFF7F2FF03BC01F0E9
:1002300059F900000948804709480047FEE7FEE7F2
:10024000FEE7FEE7FEE7FEE7FEE7FEE7FEE7FEE786
:1002500004480549054A064B70470000452F000831
:10026000ED000008B80A0020B8100020B80C0020EB
:10027000B80C00207CB51D4616460C00009007D037
:100280004142A14202D32044401E01E04FF0FF3022
:10029000064B7B442A4669460190304600F0DFFA5F
:1002A000002C02D0009A002111707CBDEF050000E7
:1002B0000FB41CB50C0007AA009007D04142A14220
:1002C00002D32044401E01E04FF0FF30074B7B4437
:1002D00069460190069800F0C2FA0021002C01D076
:1002E000009A11701CBC5DF814FB0000B3050000FF
:1002F00070B5044685690068C10601D5302600E066
:100300002026C00707D070BDD4E9012130469047B0
:10031000206A401C20626D1EF6D570BD70B5044683
:1003200085690078C00707D170BDD4E9012120207C
:100330009047206A401C20626D1EF6D570BD70B5D6
:100340000C460546012A05D02878800600D5EA69C2
:10035000002302E0012305E05B1C934202D2E05C33
:100360000028F9D1A869E618C01AA861286A1844BB
:1003700028622846FFF7BCFF04E0D5E9012114F804
:10038000010B9047B442F8D32846FFF7C7FF70BD72
:100390002DE9F0410646002410687529314616A55E
:1003A00010D000F0D8F9002802DA404213A507E087
:1003B00031688A0701D512A502E0490704D511A5C5
:1003C000012401E000F0D0F900210A2206F12407FF
:1003D00009E0B0FBF2FCB0FBF2F302FB1C00303092
:1003E00078541846491C0028F3D123462A46304643
:1003F000BDE8F04100F0C1B9000000002D00000090
:100400002B00000020000000F0B40D460188090513
:1004100002D5214C7C4402E01F4C7C440E34002168
:1004200000F1240608E002F00F071209E75D42EA36
:1004300003721B097754491C52EA0307F3D102786F
:100440000023120704D5702D06D009B10223113400
:100450002246F0BC00F091B901231034F8E770B5E2
:1004600004460D462146106800F07EF902462946F2
:100470002046BDE870400023C6E7D21D22F00703E6
:10048000D3E90023C0E70368126843F02003036048
:100490000823C3610023B7E7F85C00002DE9F05F93
:1004A000894604464FF0000ADFF874B1FB44C0F8F7
:1004B00020A02046E1688847002874D0252806D06F
:1004C000D4E901219047206A401C2062F1E7002610
:1004D0005F462046E16888472028054607DB312D26
:1004E00005D2781910F8200C08B10643F1E7B007DF
:1004F00001D526F00406C4F81CA00027C4F818A0F3
:100500002A2D09D0284605F0CBFD38B304EB870827
:10051000303DC8F8185019E059F8041B204604EB88
:1005200087029161E1688847012F054618D1E0698B
:10053000002820DA26F020061DE0D8F8180000EB8D
:10054000800005EB40003038C8F818002046E1680C
:100550008847054605F0A4FD0028EED1012F0AD0FA
:100560002E2D08D12046E16888477F1C0546022FC2
:1005700046F02006C4DBA069002803DA404246F0BA
:100580000106A061F00701D026F010066C2D0BD0FB
:10059000682D09D04C2D39D06A2D35D0742D35D029
:1005A0007A2D33D016E038E0E1682F4620468847A0
:1005B000B842054609D16C2F26D04FF48060E1681F
:1005C000064320468847054604E06C2F1AD04FF4B6
:1005D000807006430DB3A5F14100192802D82035DB
:1005E00046F400664A462946204626604E46FFF7F6
:1005F000B7FD80B101280BD0F61D26F0070000F1F1
:10060000080956E74020E4E78020D8E70020D6E735
:1006100006F104094DE7284652E7206ABDE8F09F3D
:10062000885C000010B5431C02E010F8011B71B19A
:100630008107FAD14FF0013202C88C1A8C4314EAB8
:10064000C211F9D0C01A0A0603D0C01E10BDC01ACC
:1006500010BD0A0401D0801E10BD0902FCD0401E4E
:1006600010BD032A40F2308010F0030C00F015801A
:1006700011F8013BBCF1020F624498BF11F801CBA5
:1006800000F8013B38BF11F8013BA2F1040298BF0A
:1006900000F801CB38BF00F8013B11F0030300F074
:1006A0002580083AC0F0088051F8043B083A51F818
:1006B00004CBA0E80810F5E7121D5CBF51F8043B1D
:1006C00040F8043BAFF30080D20724BF11F8013B90
:1006D00011F801CB48BF11F8012B24BF00F8013BF2
:1006E00000F801CB48BF00F8012B704710B5203A45
:1006F000C0F00B80B1E81850A0E81850B1E81850CD
:10070000A0E81850203ABFF4F5AF5FEA027C24BF9E
:10071000B1E81850A0E8185044BF18C918C0BDE887
:1007200010405FEA827C24BF51F8043B40F8043B50
:1007300008BF7047D20728BF31F8023B48BF11F805
:10074000012B28BF20F8023B48BF00F8012B70475F
:1007500070477047704709684A0501D540B2704735
:10076000C905FCD500B2704709684A0501D5C0B279
:100770007047C905FCD580B270472DE9F0470D469A
:1007800099469246044600F124080168880604D57B
:10079000E06921F01001216000E00120A84201DDA4
:1007A000471B00E00027A1697A1902EB0900081A2B
:1007B000A0612078C00602D42046FFF799FD0026EC
:1007C00008E0D4E901211AF806009047206A401C8D
:1007D000761C20624E45F4DB2078C0060AD5204600
:1007E000FFF786FD06E0D4E9012130209047206A1A
:1007F000401C2062381EA7F10107F4DC07E0D4E9B1
:10080000012118F805009047206A401C2062281E2C
:10081000A5F10105F3DC2046FFF780FD20780006F6
:1008200002D50220BDE8F0870120FBE711680268CD
:10083000006A530501D508700AE0D30501D5088088
:1008400006E0130603D5C217C1E9000200E0086004
:100850000120704701694A1C02610878704700B5A1
:100860008FB0CDE901310021059105497944CDE9E9
:10087000031011466846FFF711FE0FB000BD0000DF
:10088000E5FFFFFFD1E900239A4202D2531C0B601F
:100890001070704710B5436913B1AFF3008001E0E9
:1008A000FFF74DFD012010BD127800F124010A7000
:1008B00000224A700122EDE711684FF0FF32E9E7AC
:1008C0002DE9FF5F15468A460446DFF8AC80F84400
:1008D0000027D8E900103E46CDE9001010E03AF8B4
:1008E00016106A4602A800F0A7FC411C07D0217828
:1008F000890603D5E269391891420DD80744761C60
:100900002078800602D5E069B84205DDAE42E6DB1C
:100910003AF816000028E2D1A069C01BA061204669
:10092000FFF7E6FCD8E90010CDE90010002017E041
:100930003AF818106A4602A800F07EFCB0F1FF3FBA
:1009400081460BD000250DF1080B05E0D4E901210B
:100950001BF8050090476D1C4D45F7D308F10100C9
:10096000B0428046E4DB206A384420622046FFF72C
:10097000D5FCBDE8FF9F00007A5800002DE9F0414A
:100980008046D21D22F007020025D2E90002F52997
:1009900015A614D0011E72F1000106DA0023D0EB77
:1009A000030063EB020211A608E0D8F800108B07E1
:1009B00001D50FA602E0490701D50EA60125114673
:1009C000002408F1240704E000F04EF830323A55D4
:1009D000641C50EA0102F7D12B46324621464046BC
:1009E000BDE8F041FFF7C9BE000000002D00000087
:1009F0002B0000002000000030B4002100F124048E
:100A000008E002F00705D208303542EA4372DB08FD
:100A10006554491C52EA0305F3D10468002310A26F
:100A2000250708D504F020040C4304D0C469012331
:100A30000CA2641EC46130BCFFF79FBE10B5044613
:100A400021461068FFF790FE02462046BDE81040A0
:100A50000023D1E7D21D22F00701D1E90023CBE723
:100A6000000000003000000030B5B0F10A0271F162
:100A700000034FEA900E4EEA817EB0EB0E0061EB70
:100A800091014FEA101E4EEA017E10EB0E0041EB81
:100A900011114FEA102E4EEA016E10EB0E0041EBE1
:100AA00011214FEA104E4EEA014E10EB0E0041EBC1
:100AB0001141401841F100014FEAD00040EA417075
:100AC0004FEAD1014FEA810444EA907410EB8005AB
:100AD00044EB01046D1944EB0404521BA3414FF095
:100AE000000348BF0A3200D530BD401C41F100016F
:100AF00030BD2DE9FF4F0C461E464FF0FF378BB03F
:100B0000D2E90001DDF860800A908A46C1F30A55F7
:100B100005B93D46002108464FF00000BAF1000F2C
:100B200000F4400005DA00EB80004FF4400101EAD8
:100B300050004FEA9059B9F1010F00DDB9460A980B
:100B400050EA4A000ED044F61050A5F2FF35454356
:100B50002F14B8F1000F1ED07542291E1EDDC9F1F9
:100B600000021CE0B8F1010F4FF0000001D030216D
:100B700003E0F24305E02154401CB042FBDB304669
:100B80000022002121540B99C1F80880C1E90020FE
:100B90000FB0BDE8F08FBD1B6D1CDEE74A4600DAE2
:100BA000694206A800F0DEFB06AB93E8070003AB42
:100BB00083E8070050460A9904F096FE8DE8070086
:100BC000A0F500501F3800900398002D0ADD42F276
:100BD0001F014A460844002303A90390684605F014
:100BE000FFF809E0A0F500504A461F38002303A98A
:100BF0000390684605F009F98DE807000004000C31
:100C000003D04FF0FF30410800E01046B8F1000F6C
:100C100003D00022009215461EE0751E05D4FFF792
:100C200023FF303262556D1EF9D5B34601220843C9
:100C300002D000227F1C04E02078302801D100225D
:100C40007F1E002A099784D01DE0112D07DAFFF7D7
:100C50000BFF303262556D1C50EA0102F5D108439A
:100C600002D00098C8B10EE00021681E05E0235CA8
:100C7000625C63542254401E491C8142F7DBAB4640
:100C8000A81B401E0990002004F80B000B98099A3D
:100C9000C0F80880C0E9002B7AE711264FF0000861
:100CA00057E72DE9F04F88460446D21D22F0070190
:100CB00091B0D1E90001CDE90A0105F0DDF9024664
:100CC0000B98C00F01D02D2007E02068810701D5C7
:100CD0002B2002E0202101EAC000032A099001D064
:100CE000072A05DB03464146204600F0FBFA0BE1EC
:100CF0002078800601D5E06900E00620B8F1650F94
:100D0000814606D0B8F1660F18D0B8F1670F70D1E0
:100D100031E00020B9F1110F009001DB112301E057
:100D200009F101030AAA01A90CA8FFF7E2FEDDE917
:100D30000C70002609F10105834647E001204B466F
:100D400000904FF000470AAA01A90CA8FFF7D1FEB6
:100D5000DDE90DB00C995D46002610B909F10100DE
:100D60000D18B9EB050003D4C0F1FF3609F10105F8
:100D7000A5EB09002BE0B9F1010F01DA4FF00109F1
:100D80000020B9F1110F0090484601DD112300E069
:100D900003460AAA01A90CA8FFF7ABFEDDE90C7017
:100DA0004D4600268346207800070AD4AB4500DA7A
:100DB0005D4601A8012D04DD411911F8011C3029FF
:100DC00007D04F4502DA17F1040F04DA01208246FA
:100DD0000FE06D1EEEE7002F02DCED1B3E4403E04A
:100DE000781CA84200DD7D1CB81B00F1010A4FF001
:100DF00000472078000703D4AA4501DB4FF0FF3AF3
:100E00000021B7F1004F0DF143088DF8431024D0B5
:100E100002202B23002F01DA7F422D230A21021EFC
:100E2000A0F1010000DC5FB197FBF1FC97FBF1F250
:100E300001FB1C7C17460CF1300C08F801CDEEE7E5
:100E4000A8F1010003702188090501D5452100E0C2
:100E50006521A0F1010800F8011C09980FA9A1EB78
:100E60000807FF1D00B10120411901EBEA70A169DB
:100E70003844081A401EA0612078C00602D42046DB
:100E8000FFF736FA099828B1D4E901219047206A82
:100E9000401C20622078C00622D52046FFF728FAA1
:100EA0001EE0002E04DBB34502DD01A8805D00E0FA
:100EB0003020D4E901219047206A401C2062761C32
:100EC000AAF101005FEA000A0AD100F007FAC0683F
:100ED0000168405CD4E901219047206A401C2062EF
:100EE000281EA5F10105DCDC07E0D4E9012118F892
:100EF000010B9047206A401C2062381EA7F10107B1
:100F0000F3DC2046FFF70AFA032011B041E60000A7
:100F10002DE9F04F04460D46D21D22F0070089B09E
:100F2000D0E900974846394605F0A6F80246F80F82
:100F300001D02D2307E02068810701D52B2302E093
:100F4000202101EAC0038DF820300BB1012000E020
:100F50000020032A824601D0072A04DB29462046C6
:100F600000F0C0F93FE12078800601D40D2500E0B3
:100F7000E569C7F30A560D2D49DA00214FEA175BE0
:100F800008464FF00000002F00F4400007DA00EBA5
:100F900080004FF4400100EBD07001EA6000811541
:100FA000012901DD4FF0FF3100224FEA850CBCF131
:100FB000180F06D31346ACF118004FF08052C24010
:100FC00003E04FF4801323FA0CF30CF10C0CBCF18A
:100FD000200F04D3ACF1200C09FA0CF001E007FA61
:100FE0000CF000294FF0004801DD18B90FE00ED1D8
:100FF00040450CD319EB02095F4121B9404502D1AC
:101000009F4329EA0209BBEB175F00D0761C2088BA
:10101000000502D57B48784402E07A4878441938C4
:1010200008AA302302F80A30037C0AF10101002EDD
:101030000AF1020A53546A4602DC4FF0300101E023
:101040004FF031014FF001088DF8001002D0A6F2E8
:10105000FF3603E059EA470100D06B4E002D02DC59
:101060002178090704D54FF002082E218DF80110D0
:10107000C44600210BE0C7F303433F01C35C491C96
:101080006D1E02F80830052908F1010801DA002D6B
:10109000F1DC00210CE000EB1973491C1B786D1E7C
:1010A000082902F808304FEA091908F1010801DAA5
:1010B000002DF0DC21688B0602D516E0A8F10108AE
:1010C000E04505DD02EB080313F8013C302BF5D0B9
:1010D000B8F1000F09DD02EB080313F8013C2E2BD9
:1010E00003D1090701D4A8F10108002D05DD3E2137
:1010F00002F808106D1E08F10108407C002E02F86D
:10110000080008F1010804DA2D20764202F80800F0
:1011100002E02B2002F808000A214FF47A70864280
:1011200008F101080BDB96FBF0F3303302F80830CE
:1011300096FBF0F308F1010800FB136601E0642E52
:101140000CDB642096FBF0F3303302F8083096FB9A
:10115000F0F308F1010800FB136601E00A2E06DB3C
:1011600096FBF1F0303002F8080008F1010896FB18
:10117000F1F001FB1060303002F80800A16908F1BD
:10118000010808EB050202EB0A00081AA0612078AA
:10119000C00602D42046FFF7ABF8216A08AE01EB87
:1011A0000A00206204E0D4E9012116F8010B9047FF
:1011B000BAF1010AF7D22078C00602D52046FFF71F
:1011C00097F86E4609E016F8010B3E280FD0D4E9D7
:1011D00001219047206A401C2062B8F10108F2D238
:1011E0002046FFF79BF809B00320BDE8F08F206A86
:1011F0002844206203E0D4E90121302090476D1E8D
:10120000EBD3F8E74D51000002FCFFFF10B5436936
:1012100013B1AFF3008001E0FFF752FB012010BDD6
:10122000128800F1240182840022C2840122EDE7A9
:1012300011684FF0FF32E9E72DE9F04116460C4600
:10124000054600F043F8036893F80101012807D030
:10125000FF2C12D8185D80B101202C70BDE8F08100
:10126000D3F807013246214603F20713C718284670
:10127000BC46BDE8F041002360474FF0FF30EDE78A
:10128000754600F0EBF8AE4605006946534620F07F
:101290000700854618B020B5FEF7DAFFBDE820400C
:1012A0004FF000064FF000074FF000084FF0000B22
:1012B000AC46ACE8C009ACE8C009ACE8C009ACE891
:1012C000C00921F007018D467047000010B500F0FD
:1012D00005F8001D10BD00BF054E00000048704716
:1012E000300000202DE9F0411F4604460326016826
:1012F000072A01F4006004DB08B116A505E016A575
:1013000003E008B115A500E015A521F0100020604C
:10131000A069C01EA0610FB1401EA0612046FEF76B
:10132000E7FF4FB1D4E9012138469047206A401CBD
:101330002062C01C206206E0206AFAE7D4E901219D
:1013400015F8010B9047761EF8D22046FEF7E6FF0F
:10135000BDE8F0814E414E006E616E00494E460080
:10136000696E66002DE9F047814616468AB0354819
:1013700078440DC88DE80D0032487844801C03ACD9
:101380000DC884E80D0041F69B300844372190FBDE
:10139000F1F290FBF1F5A5F1800501FB12041B3C75
:1013A00002D56442012000E00020DFF898A08046CA
:1013B0000027FA44AAF1BE0A0EE0E0070AD032463E
:1013C000684607EB470101230AEB810104F01DFD8C
:1013D0008DE8070064107F1C002CEED1194F7F446C
:1013E000AE3F19E0E80715D007EB04100DF1180A1D
:1013F00090E80E008AE80E00C068F04201D198190A
:1014000008903246012306A903A804F0FEFC03ABB2
:1014100083E807006D10641C002DE3D14FF0010339
:1014200032466946B8F1000F03A802D004F0D8FC98
:1014300001E004F0EAFCC9E90001C9F808200AB09B
:10144000BDE8F087844E000010B50446AFF300807D
:101450002046BDE81040FEF7E6BE00000048704799
:10146000100000204FF0013C50F8042B51F8043BD1
:101470009A4221D1A2EB0C03934313EACC1317D168
:1014800050F8042B51F8043B9A4215D1A2EB0C03FF
:10149000934313EACC130BD150F8042B51F8043BBF
:1014A0009A4209D1A2EB0C03934313EACC13DBD08D
:1014B0004FF00000704700BFD01A01BAB1FA81F1B5
:1014C00001F0180122FA01F0CB40DBB2C0B2C01A21
:1014D000C1F120012CFA01F3D11A914311EAC31191
:1014E000E6D1704701491820ABBEFEE72600020096
:1014F0007047000082B0EFF3108072B641F2000036
:1015000040F64054C4F201004FF400510022C0F2F2
:101510000304002500F04AFB01950198A0421BD26C
:1015200000BF0198013001900198A04214D200BF81
:101530000198013001900198A0420DD200BF01989E
:10154000013001900198A04206D200BF01980130FD
:1015500001900198A042E3D301F0D2FD7047000052
:1015600082B0EFF3108072B641F2000040F64054B2
:10157000C4F201004FF400510022C0F20304002520
:1015800000F014FB01950198A0421BD200BF019806
:10159000013001900198A04214D200BF019801309F
:1015A00001900198A0420DD200BF01980130019036
:1015B0000198A04206D200BF019801300190019825
:1015C000A042E3D301F086FD70B542F20C0604465A
:1015D000C4F2020600F0F0FA3168C90718D1306889
:1015E000800644BF202030603068C00607D43069D0
:1015F000C00704D1306840075CBF002070BD306870
:10160000C00623D40020316849072BD434E000BF42
:10161000002C47D00546601C0ED13068C007DED0D4
:101620003068C0071CBF30685FEAC070D7D0306830
:10163000C007F2D1D3E700BF00F0BEFA401BA042C2
:1016400030D83068C007F7D1C9E700BF40F2682042
:10165000C2F20000C16941F00201C161102031688D
:10166000490709D540F26821C2F20001CA6940F079
:10167000040042F00102CA613169C90702D1306039
:10168000012070BD40F26821C2F20001CA6942F037
:101690000402CA61316921F0010131613060012029
:1016A00070BD00BF032070BD014690F821000228E4
:1016B00016D10868D1E90FC3026822F00E02026059
:1016C000026822F001020260012000FA03F2CCF865
:1016D000042081F821000020002281F8202070479A
:1016E000042088630120002281F820207047000038
:1016F00080B590F82110022924D10268116821F0E8
:101700000E0111602F211368C4F202018A4240F2D7
:101710000401C4F2020123F00103136016DD30233B
:10172000C4F202039A421DD04423C4F202039A4237
:101730001CD05823C4F202039A421DD14FF48033C7
:1017400022E000BF04218163012080BD0823C4F290
:1017500002039A420ED01C23C4F202039A420BD118
:10176000102311E04FF480730EE000BF4FF480535C
:101770000AE000BF012307E001F1680C4FF080731D
:10178000624508BF4FF480130B60012180F82110DF
:10179000426B002180F820100AB1904700210846D2
:1017A00080BD00002DE9F04381B040F26826C2F20E
:1017B0000006327E012A03D1022001B0BDE8F08389
:1017C000054601202C6830764CF250308846FFF7F1
:1017D000FBFE022C1CD100284ED1002042F2100446
:1017E000F061C4F20204206840F004002060206828
:1017F00040F0400020604CF25030FFF7E5FE2168D9
:1018000021F0040121600021317601B0BDE8F083B0
:1018100090BB4FF0FF30C8F80000D5E9027007EB2D
:101820008020874228D242F21004C4F202044FF012
:10183000000900BFC6F81C90206840F0020020603C
:101840006760206840F0400020604CF25030FFF7A5
:10185000BBFE216821F00201216098B9D5E902019F
:1018600007F5806700EB81208742E3D30020002149
:10187000317601B0BDE8F08301200021317601B05E
:10188000BDE8F083C8F800700021317601B0BDE8F2
:10189000F083000042F21001C4F20201086840F037
:1018A000800200200A6070472DE9F04F81B040F2BD
:1018B0006829C2F20009924699F81820012A03D13A
:1018C000022001B0BDE8F08F8046012089F81800A1
:1018D0004CF250309B460E46FFF776FEA0BB4046CA
:1018E00042F21007B8F1020F18BF0420C4F2020739
:1018F000B8F1010F08BF404645424FF000080024F0
:10190000C4F12001C9F81C802AFA04F00BFA01F195
:101910003A680843B4F1200158BF2BFA01F042F0B5
:101920000101396026F8020B4CF25030FFF74CFEF3
:101930003968013521F0010248F100013A6018B917
:10194000002904F11004DBD0002189F8181001B03F
:10195000BDE8F08F42F20400C4F20200C16809063B
:101960005CBF0020704740F22311C4F26751016050
:1019700048F6AB11CCF6EF510160C068C0B2C009A7
:10198000704700002DE9F04F82B00E68002E00F085
:10199000038141F20042C4F20102042340F2004EEE
:1019A000904208BF03234FF6FF7CC4F2010E009360
:1019B00000240123C1F2100C4FF0000A4FF000097F
:1019C00049E000BF012704F00C030F229A402BEAE4
:1019D000020207FA03F34FEA9A051A4346F8252054
:1019E000D1F804B040F20C455FEACB22DEF80820C3
:1019F00054BF22EA080242EA0802C4F20105CEF806
:101A000008202A685FEA8B2354BF22EA080242EAD0
:101A100008022A605FEA8B33DEF8042054BF22EA12
:101A2000080242EA08025FEACB33CEF80420DEF86F
:101A300000204FF0010354BF22EA080242EA0802E4
:101A4000CEF800200E680AF1010A36FA0AF204F113
:101A5000040400F0A18003FA0AF816EA080FF1D096
:101A60004E68664512DC122E56D8DFE806F0350BBC
:101A70004549555555555555555555555555554D3A
:101A8000510000BFD1F80C9046E000BF4FF6FF7246
:101A9000C1F2210296420FDC0022C1F211029642ED
:101AA0001AD00022C1F21202964215D00022C1F2D1
:101AB0002102964210D02FE00022C1F2220296426B
:101AC0000AD00022C1F23102964205D00022C1F2B2
:101AD0003202964220D100BF8A684AB1012A14BF5F
:101AE000C0F81480C0F810804FF0080914E000BF5F
:101AF0004FF0040910E000BFCA6802F108090BE0CA
:101B00004FF0000908E000BFCA6802F1040903E0D1
:101B1000CA6802F10C0900BF22460646BAF1080F56
:101B200024BF203A043637680F25954027EA05057B
:101B300009FA02F22A433260CA79D2067FF582AFEF
:101B400041F21803C4F202031A68AEF57E7642F041
:101B500001021A601A6802F001020192019A2AF049
:101B6000030256F802B040F60002C4F201029042AD
:101B700010D040F60042C4F2010290423FF422AF7E
:101B800041F20002C4F20102009F904208BF022706
:101B900019E700BF002716E702B0BDE8F08F00008C
:101BA0008068084018BF012070470000002A08BF65
:101BB000090401617047000040F69010C2F2000075
:101BC0000068704740F2000040F69011C2F2000039
:101BD000C2F2000100780A681044086070470000F3
:101BE00080B542F20000C4F20200016841F0100129
:101BF0000160032000F08EF80F2000F005F800F0DF
:101C000027F8002080BD000070B540F20006C2F247
:101C1000000640F208013278C2F200014FF47A73F4
:101C20000968B3FBF2F20446B1FBF2F1084600F09A
:101C300063FB0F2C4FF0010508D838B94FF0FF3087
:101C400021460022002500F039F87460284670BD56
:101C500082B041F21800C4F202000168022241F091
:101C600001010160016801F00101019101994168E0
:101C700041F080514160406800F080500090009831
:101C80000420C4F20100016862F31A61016002B02D
:101C900070470000002848BF7047C1B200F01F0025
:101CA000012202FA00F04EF20012CEF2000242EAE5
:101CB000D10121F0030108607047000010B54EF615
:101CC0000C5CCEF2000CDCF80030C3F3022E8EF078
:101CD0000704042C28BF0424BEF103034FF0FF3E89
:101CE0000EFA04F438BF0023A14399400EFA03F31F
:101CF0009A43114300F00F0200F160430901043AD6
:101D000003F564436244002848BF02F10C031970D4
:101D100010BD00004EF60C51CEF200010A684FF6DD
:101D2000FF031A4060F30A2242F0806040F0FD7029
:101D3000086070472DE9F04381B0002800F08580ED
:101D400042F20008C4F202080446D8F800000D462A
:101D500000F0070088420CD2D8F8000020F00700FD
:101D60002843C8F80000D8F8000000F00700A84297
:101D70006BD1206841F204098107C4F2020917D52A
:101D8000410705D5D9F8001041F4E061C9F8001009
:101D9000010705D5D9F8001041F46051C9F80010C9
:101DA000D9F80010A26821F0F0011143C9F8001021
:101DB000C00741D1D8F8000000F00700A8420CD9B4
:101DC000D8F8000020F007002843C8F80000D8F831
:101DD000000000F00700A84237D12068410707D56E
:101DE000D9F80010E26821F4E0611143C9F800104D
:101DF000000708D5D9F80000216920F4605040EAB6
:101E0000C100C9F80000D9F8002002F00C00082831
:101E100041F20020C0F27A0050D146F22A23C2F3E8
:101E20008341C0F60003595CD2033BD440F6001056
:101E3000C0F23D00484341E0606802280AD0012812
:101E40002AD159F8041C890308D4012001B0BDE847
:101E5000F08300BF59F8041C8901F6D5D9F80010A9
:101E600021F003010843C9F80000FFF7A5FE06466C
:101E700041F28837D9F80000616800F00C00B0EB3F
:101E8000810F97D0FFF798FE801BB842F2D903204C
:101E900001B0BDE8F08300BF59F8041C8907D4D510
:101EA000DCE700BFD9F8002046F22823C2F3404205
:101EB000C0F600039A5C4843B0FBF2F0D9F800107A
:101EC00046F21022C1F30311C0F60002515C40F249
:101ED000080220FA01F140F20400C2F2000000689A
:101EE000C2F200021160FFF78FFE002001B0BDE8D2
:101EF000F083000040F2080041F20401C2F2000049
:101F0000C4F202010068096846F22022C1F30221EE
:101F1000C0F60002515CC8407047000040F2080063
:101F200041F20401C2F20000C4F202010068096833
:101F300046F22022C1F3C221C0F60002515CC84023
:101F4000704700002DE9F04182B0002868D00446B7
:101F5000007841F20006C007C4F2020625D070687E
:101F600000F00C0004281BD0706800F00C0008285A
:101F700002D17068C00313D46068002800F0688143
:101F8000B0F5A02F00F07C81B0F5803F00F07C819F
:101F9000306820F480303060306820F4802076E1B2
:101FA0003068800301D56068D0B32078800718D5E9
:101FB000706810F00C0F07D0706800F00C00082853
:101FC0006ED17068C0036BD43068800702D5206979
:101FD000012825D13068616920F0F80040EAC1008D
:101FE0003060207800071FD42078400732D4E5699C
:101FF00095B1706800F00C00082840F08F80012D2A
:102000000ED07068216A00F480328A4208D1616A79
:1020100000F47010884203D1002002B0BDE8F081C6
:10202000012002B0BDE8F081A069002862D0002044
:10203000C4F242200121C0F88014FFF7BDFD05461F
:10204000706A800700F18C80FFF7B6FD401B022804
:10205000F6D92AE1F06910F0805808D1F06940F013
:102060008050F061F06900F080500090009847F2D5
:102070000007C4F200073868C00529D4386840F466
:1020800080703860FFF798FD054600BF3868C005CE
:102090001ED4FFF791FD401B6428F7D905E100BF6E
:1020A0002069002840F20000C4F2422000F0828043
:1020B00001210160FFF780FD054600BF3068800701
:1020C0003FF588AFFFF778FD401B0228F6D9ECE01A
:1020D000E068002800F08080052800F09780012843
:1020E00000F09880306A20F001003062306A20F001
:1020F000040092E00020C4F242200021C0F88014C5
:10210000FFF75AFD054600BF706A80077FF56CAF88
:10211000FFF752FD401B0228F6D9C6E00027C4F2A3
:10212000422700203866FFF747FD022D05460BD1F8
:102130003068800140F1BE80FFF73EFD401B022861
:102140004FF00300F4D968E7306880017FF564AF91
:10215000FFF732FD401B02284FF00300F4D95CE783
:1021600040F20800C2F20000006844F6D351C1F208
:102170006201A0FB0101480A019000BF00BF019865
:10218000411E002801913FF42FAF00BF0198411E6E
:10219000002801913FF428AF00BF0198411E00289C
:1021A00001913FF421AF00BF0198411E0028019129
:1021B000E4D119E700210160FFF7FEFC054600BFEE
:1021C000306880077FF50DAFFFF7F6FC401B022853
:1021D0004FF00300F4D920E7306A20F001003062AC
:1021E000306A20F004003062FFF7E6FC054641F259
:1021F000883700BF306A800720D5FFF7DDFC401B21
:10220000B8424FF00300F5D907E700BF306A40F04D
:1022100004003062306A40F001003062FFF7CCFC0D
:10222000054641F2883700BF306A800706D4FFF7C1
:10223000C3FC401BB842F7D937E000BFB8F1000F2C
:102240007FF4D5AEF06920F08050F061CFE600BF9A
:10225000306820F480303060306820F480203060B6
:10226000FFF7AAFC054600BF306880037FF59DAEEE
:10227000FFF7A2FC401B64284FF00300F4D9CCE622
:10228000306840F480203060306840F48030306046
:10229000FFF792FC054600BF306880033FF585AE2E
:1022A000FFF78AFC401B6428F6D9032002B0BDE882
:1022B000F08100BF206AB0F5803F05D17168A26847
:1022C00021F40031114371607168626A21F4741164
:1022D00011430843706001203866FFF76DFC044627
:1022E000306880013FF598AEFFF766FC001B0228BE
:1022F0004FF00300F4D990E6411E0020B0EB116FBF
:102300001CBF012070474EF21002CEF20002516055
:102310004EF62351CEF20001F0230B70072190609E
:10232000116070477047000070470000B0B582B080
:10233000044600680168C368426901F02F05202D3A
:1023400003F0200506D12DB1204602B0BDE8B04013
:1023500000F000BE5FEA017C1EBF02F0010E03F434
:10236000907212EB0E0253D1226B012A05D111F0AB
:10237000100218BF13F0100236D10A0622D513F04E
:1023800080021FD094F8411021293FD1A168B1F5F6
:10239000805F03D12169002900F07082216A4A1C04
:1023A000226209784160E18C01390A04E1842DD16F
:1023B000C16821F08001C160C16841F04001C16085
:1023C00002B0B0BD490621D513F040011ED0C1684E
:1023D00021F04001C1602021204684F8411002B064
:1023E000BDE8B04000F096BB002101910168019169
:1023F0004168019101994069400613D4A08DE18D97
:10240000E28D002A18BF884240F0BA8102B0B0BD08
:10241000CA0718BF13F4807240F0B6804A0700F173
:10242000B980BEE0E06B016849688AB2002AEDD04D
:10243000A38D9A42EAD2E1858069202800F09C8031
:10244000206850E8030F216820F4807041E80302FF
:10245000DAB1206850E8030F216820F4807041E869
:10246000030292B1206850E8030F216820F48070C5
:1024700041E803024AB1206850E8030F216820F4C4
:10248000807041E80302002ADAD1206850E8050F85
:10249000216820F0010041E80502DAB1206850E827
:1024A000050F216820F0010041E8050292B1206883
:1024B00050E8050F216820F0010041E805024AB10B
:1024C000206850E8050F216820F0010041E805026E
:1024D000002ADAD1206850E8050F216820F040007A
:1024E00041E80502DAB1206850E8050F216820F0C4
:1024F000400041E8050292B1206850E8050F2168CC
:1025000020F0400041E805024AB1206850E8050F7C
:10251000216820F0400041E80502002ADAD120209D
:1025200084F8420000202063206850E8030F2168EF
:1025300020F0100041E80302DAB1206850E8030FF0
:10254000216820F0100041E8030292B1206850E8B1
:10255000030F216820F0100041E803024AB120680F
:1025600050E8030F216820F0100041E80302002A20
:10257000DAD1E06BFFF798F802206063A08DE18D5F
:10258000401A81B2204674E1626C42F0010262643A
:102590004A0706D5BEF1000F03D0626C42F002027A
:1025A00062648A0706D5BEF1000F03D0626C42F068
:1025B00004026264BCF1000F09D545EA0E02B2FACA
:1025C00082F2520903D1626C42F008026264626CCA
:1025D000002A3FF41BAF11F0200118BF002D03D0DB
:1025E000204600F0B7FC20684069616C00F04000B4
:1025F00001F00801401800F0B58000BF206850E8E5
:10260000030F216820F4907041E80302BAB32068F8
:1026100050E8030F216820F4907041E8030272B380
:10262000206850E8030F216820F4907041E803020D
:102630002AB3206850E8030F216820F4907041E825
:102640000302002ADAD11AE0206850E8050F216859
:1026500020F0010041E80502DAB1206850E8050FDA
:10266000216820F0010041E8050292B1206850E89D
:10267000050F216820F0010041E805024AB12068F9
:1026800050E8050F216820F0010041E80502002A0A
:10269000DAD1206B012824D1206850E8030F21688B
:1026A00020F0100041E80302DAB1206850E8030F7F
:1026B000216820F0100041E8030292B1206850E840
:1026C000030F216820F0100041E803024AB120689E
:1026D00050E8030F216820F0100041E80302002AAF
:1026E000DAD1202084F8420000202063206840696D
:1026F00040063FD5206850E8050F216820F04000D3
:1027000041E80502DAB1206850E8050F216820F0A1
:10271000400041E8050292B1206850E8050F2168A9
:1027200020F0400041E805024AB1206850E8050F5A
:10273000216820F0400041E80502002ADAD1E06B70
:10274000C0B142F64971C0F600014163FEF7D0FF07
:1027500000283FF45BAEE06B416B02B0BDE8B040D7
:10276000084700BF2046FFF7DFFD0020606402B08D
:10277000B0BD00BF204602B0BDE8B040FFF7D4BDF9
:10278000401A216851E8031F226821F4907142E841
:102790000313DBB1216851E8031F226821F4907113
:1027A00042E8031393B1216851E8031F226821F422
:1027B000907142E803134BB1216851E8031F22686E
:1027C00021F4907142E80313002BDAD1216851E81B
:1027D000051F226821F0010142E80513DBB12168E1
:1027E00051E8051F226821F0010142E8051393B169
:1027F000216851E8051F226821F0010142E8051314
:102800004BB1216851E8051F226821F0010142E81F
:102810000513002BDAD1202184F842100021216316
:10282000216851E8031F226821F0100142E80313D8
:10283000DBB1216851E8031F226821F0100142E852
:10284000031393B1216851E8031F226821F010019E
:1028500042E803134BB1216851E8031F226821F0BD
:10286000100142E80313002BDAD1022281B2204684
:10287000626302B0BDE8B040FFF754BD216A31F891
:10288000022B6FF35F22426021628CE5002804BFB7
:102890000120704710B5044690F8410028B9002087
:1028A00084F84000204600F063F8242084F84100BA
:1028B0002068D4E90212C36823F40053C36003699B
:1028C00023F440531A430261D4E904231143C2683C
:1028D000194341F20C639A431143C1604169A269F3
:1028E00021F44071114343F60002C4F20102904208
:1028F000416103D0FFF7FEFA02E000BFFFF70EFBD5
:102900006268192148439100B0FBF1F048F21F5171
:10291000C5F2EB11A0FB01235A094FF69C73C0F6D8
:10292000FF7302FB0300322303EB0010A0FB010145
:10293000F02303EA5113206803EB0212C1F34311A1
:1029400011448160016921F490410161416921F0E4
:102950002A014161C16841F40051C1600020202179
:10296000606484F8411084F84210606310BD000078
:1029700070B586B0006844F20041C4F20001002640
:1029800088420596CDE9036602963BD043F60001E6
:10299000C4F2010188426BD141F21800C4F2020076
:1029A000016840F6000441F4804101600168C4F20E
:1029B000010401F4804101910199016802AD41F0E7
:1029C000040101600068294600F0040001900198AC
:1029D0004FF40070029002200390032005902046DF
:1029E000FEF7D0FF4FF4806002900020039001209A
:1029F000049020462946FEF7C5FF2520012100222C
:102A0000252430E041F21800C4F20200416840F68B
:102A1000000441F4003141604168C4F2010401F452
:102A2000003101910199016802AD41F0040101609A
:102A30000068294600F004000190019804200290EB
:102A400002200390032005902046FEF79BFF0820FC
:102A5000CDE90206204629460496FEF793FF26207C
:102A6000002100222624FFF729F92046FFF712F95A
:102A700006B070BD90F84230202B1CBF022070477A
:102A800000294FF0010318BF002A01D118467047F2
:102A900000230363816222218285C285436480F81A
:102AA00042100169006819B1C16841F48071C160C8
:102AB0004169002341F001014161C16841F02001F9
:102AC000C16018467047000010B5044602F082FD50
:102AD0002046BDE8104001F08FB90000034690F891
:102AE000410020281CBF0220704700294FF0010040
:102AF00018BF002A00D170471962002021219A8452
:102B0000DA84586483F841101968CA6842F0800278
:102B1000CA60704710B5044601F0DCFA2046BDE8F3
:102B2000104001F09DB9000082B0EFF3108072B642
:102B300041F2000040F64054C4F201004FF400514D
:102B40000022C0F203040025FFF730F80195019838
:102B5000A0421BD200BF0198013001900198A04211
:102B600014D200BF0198013001900198A0420DD20B
:102B700000BF0198013001900198A04206D200BF29
:102B80000198013001900198A042E3D300F0B8FA17
:102B90002DE9F04F85B041F21800C4F2020001683F
:102BA00040F6000441F01001016001684FF0020896
:102BB00001F01001019101990168C4F2010441F092
:102BC00020010160016804F5006701F02001019116
:102BD00001990168012241F00401016001684FF48C
:102BE000005601F004010191019901684FF00109BB
:102BF00041F008010160016801F0080101910199AB
:102C0000016841F001010160006800F001000190DD
:102C100001980420C4F20100016868F31A610160A0
:102C200038464FF40051FEF7C1FF20462021002214
:102C30004FF0000AFEF7BAFF20464FF41041002281
:102C40004FF4104BFEF7B2FF04F5806528464CF2B6
:102C500078010022FEF7AAFF01A880E8400601AE35
:102C600038463146CDF81080FEF78CFE1020CDE9B5
:102C7000010A20463146CDF80C90FEF783FE202055
:102C800001A981E8010620463146CDF81080FEF703
:102C900079FE20463146CDE901B9CDE903A8FEF71A
:102CA00071FE4FF46070CDE9010A28463146CDF837
:102CB0000C80FEF767FE4CF2780001A981E801065E
:102CC00028463146CDF81080FEF75CFE05B0BDE821
:102CD000F08F000080B540F2581043F60001C2F2B8
:102CE0000000C4F2010100234FF00C0C4FF4164217
:102CF00080E80E00C0E90333C0E905C3C361FFF7F4
:102D0000C5FD002808BF80BDBDE88040FEF728BC97
:102D100080B540F2A01044F20041C2F20000C4F2BB
:102D2000000100234FF00C0C4FF4E13280E80E005C
:102D3000C0E90333C0E905C3C361FFF7A7FD00285D
:102D400008BF80BDBDE88040FEF70ABC82B0EFF34B
:102D5000108072B641F2000040F64054C4F2010007
:102D60004FF400510022C0F203040025FEF71EFFBD
:102D700001950198A0421BD200BF0198013001903B
:102D80000198A04214D200BF01980130019001982F
:102D9000A0420DD200BF0198013001900198A042DD
:102DA00006D200BF0198013001900198A042E3D300
:102DB00000F0A6F982B0EFF3108072B641F2000085
:102DC00040F64054C4F201004FF400510022C0F21A
:102DD00003040025FEF7EAFE01950198A0421BD2EC
:102DE00000BF0198013001900198A04214D200BFA9
:102DF0000198013001900198A0420DD200BF0198C6
:102E0000013001900198A04206D200BF0198013024
:102E100001900198A042E3D300F072F970470000DE
:102E200070470000FEF7CEBEB0B590B0002501207F
:102E3000CDE90A55CDE90855059009904FF4E01009
:102E40004FF4803102240E9005A8CDE90615CDE996
:102E50000C41FFF777F8002842D10F208DE83100B0
:102E60004FF48060CDE9030568460221FEF762FF5A
:102E7000002804BF10B0B0BDEFF3108072B641F26D
:102E8000000040F64054C4F201004FF4005100220B
:102E9000C0F203040025FEF789FE0F950F98A042AB
:102EA0001CD200BF00BF0F9801300F900F98A042B6
:102EB00014D200BF0F9801300F900F98A0420DD28E
:102EC00000BF0F9801300F900F98A04206D200BFAC
:102ED0000F9801300F900F98A042E3D300F0FAF85A
:102EE000EFF3108072B641F2000040F64054C4F295
:102EF00001004FF400510022C0F20304FEF756FE19
:102F000000950098A042E9D200BF009801300090DF
:102F10000098A042E2D200BF0098013000900098D3
:102F2000A042DBD200BF0098013000900098A04280
:102F3000D4D200BF0098013000900098A042E3D3A3
:102F4000CCE7000070470000406A0021C185C184C1
:102F5000FFF7EAB981B090F84210222921D18368A5
:102F60000246B3F5805F09D152F8281F52F8183C89
:102F7000002B63D003685B680AE000BF52F8281F8B
:102F800013B90369002BF5D003685B6803F07F0376
:102F90000B70116801311160C18D01390A04C185BE
:102FA00002D001B0704700BF0168CA6822F0200259
:102FB000CA60CA6822F48072CA604A6922F00102BB
:102FC0004A61202180F8421000214163026B012AEE
:102FD0003CD10163016851E8031F026821F0100130
:102FE00042E80313DBB1016851E8031F026821F0D6
:102FF000100142E8031393B1016851E8031F02680E
:1030000021F0100142E803134BB1016851E8031F9E
:10301000026821F0100142E80313002BDAD10168A5
:103020000A68D20606D5002200920A680092496812
:1030300000910099818D01B0FFF774B90268526860
:103040006FF35F2221F8022B8162A5E701B0FFF741
:103050003BBD000040F25810C2F20000FFF766B915
:1030600040F2A010C2F20000FFF760B982B0EFF3A7
:10307000108072B641F2000040F64054C4F20100E4
:103080004FF400510022C0F203040025FEF78EFD2C
:1030900001950198A0421BD200BF01980130019018
:1030A0000198A04214D200BF01980130019001980C
:1030B000A0420DD200BF0198013001900198A042BA
:1030C00006D200BF0198013001900198A042E3D3DD
:1030D00000F016F84EF60C50BFF34F8FCEF2000002
:1030E0000168042201F4E061C0F2FA521143016068
:1030F000BFF34F8F00BF00BF00BF00BFFAE7000063
:103100004EF60C50BFF34F8FCEF200000168042240
:1031100001F4E061C0F2FA5211430160BFF34F8F36
:1031200000BF00BF00BF00BFFAE700002DE9F04F6D
:1031300083B08846014600284FF0000018BFB8F160
:10314000000F03D103B0BDE8F08F00BF40F60006CA
:103150000024C4F2010600254FF0000B4FF0000AD6
:103160000091CDF804800FE05FEA482048BF47F0A7
:103170007F47DDF80480002080F001000135BA446B
:103180004545834480F0FC80FEF716FD074600BFEE
:1031900030461021FEF704FD012807D1FEF70CFD93
:1031A000C01B0128F4D900270120E5E74FF00009F2
:1031B000002704E0B9F1170F09F1010974D2304674
:1031C00020210122B846FEF7F1FC8DF808409DF859
:1031D00008000B2828D800BF00BF9DF80800013068
:1031E0008DF808009DF808000B281DD800BF9DF839
:1031F000080001308DF808009DF808000B2813D84E
:1032000000BF9DF8080001308DF808009DF8080007
:103210000B2809D800BF9DF8080001308DF8080080
:103220009DF808000C28D7D3304610214FEA4807F4
:10323000FEF7B6FC012830464FF020014FF00002A7
:1032400008BF0137FEF7B2FC8DF809409DF8090070
:103250000B28AFD800BF9DF8090001308DF8090098
:103260009DF809000B28A5D800BF9DF80900013082
:103270008DF809009DF809000B289BD800BF9DF828
:10328000090001308DF809009DF809000B2891D83C
:1032900000BF9DF8090001308DF809009DF8090074
:1032A0000C28D7D386E700BF304620210122FEF745
:1032B0007DFC8DF80A409DF80A000B2828D800BF35
:1032C00000BF9DF80A0001308DF80A009DF80A0041
:1032D0000B281DD800BF9DF80A0001308DF80A00A8
:1032E0009DF80A000B2813D800BF9DF80A00013092
:1032F0008DF80A009DF80A000B2809D800BF9DF838
:103300000A0001308DF80A009DF80A000C28D7D376
:10331000304620210022FEF749FC8DF80B409DF835
:103320000B000B283FF620AF00BF9DF80B000130CB
:103330008DF80B009DF80B000B283FF615AF00BF72
:103340009DF80B0001308DF80B009DF80B000B2849
:103350003FF60AAF00BF9DF80B0001308DF80B005F
:103360009DF80B000B283FF6FFAE00BF9DF80B0049
:1033700001308DF80B009DF80B000C28D4D3F3E638
:103380005FEA0B600AD05FFA8BF09AFBF0F00099CD
:103390000860012003B0BDE8F08F00BF002003B03B
:1033A000BDE8F08F2DE9F04186B04FF600480027C8
:1033B00040A3012000210022C0F60008019701244B
:1033C00000F0B0FC40F28400C2F20000D0E91056D8
:1033D000FEF7C0FA02A801A90297CDE90484FEF71E
:1033E000E1F9002849D10120414644F63102002389
:1033F000FEF75AFA002840D108F10201012044F6F4
:1034000054320023FEF750FAB8BBB2B208F10401FF
:1034100001200023FEF748FA78BB320C08F10601C0
:1034200001200023FEF740FA38BBAAB208F10801D8
:1034300001200023FEF738FAF8B92A0C08F10A0136
:1034400001200023FEF730FAB8B941F2942186EA50
:103450000500CEF60E6180EA0105AAB208F10C0162
:1034600001200023FEF720FA38B92A0C08F10E01DA
:1034700001200023FEF718FA70B1FEF70BFA46F6AA
:103480001B11C0F6000113A302204FF4927200F04A
:1034900049FC06B0BDE8F081FEF7FCF915A3012058
:1034A00000210022CDF8008000F03CFC06B0BDE811
:1034B000F08100BF48583731312063616C69622068
:1034C000736176696E6720746F20466C6173682E35
:1034D0002E2E000048583731312063616C6962201C
:1034E000466C6173682073617665206661696C65FE
:1034F0006400000048583731312063616C696220F4
:10350000736176656420746F20466C6173683A203D
:1035100030782530386C580080B582B083288C46CE
:1035200000F21C81DFE810F08A009A00AE001A0158
:103530001A011A011A011A011A011A011A011A01B3
:103540001A011A011A011A011A011A011A011A01A3
:103550001A011A011A011A011A011A011A011A0193
:103560001A011A011A011A01C2001A011A011A01DC
:10357000C8001A011A011A011A011A011A011A01C6
:103580001A011A011A011A01CE00D400DA002C0126
:103590003201EE00FE001A011A011A011A011A0185
:1035A0001A011A011A011A011A011A011A011A0143
:1035B0001A011A011A011A011A011A011A011A0133
:1035C0001A011A011A011A011A011A011A011A0123
:1035D0001A011A011A011A011A011A011A011A0113
:1035E0001A011A011A011A011A011A011A011A0103
:1035F0001A011A011A011A011A011A011A011A01F3
:103600001A011A011A011A011A011A011A011A01E2
:103610001A011A011A011A011A011A011A011A01D2
:103620001A011A011A011A010E0184001401840002
:1036300002B0BDE8804001F0FBBE00BFBCF1010F4D
:1036400000F0D280BCF1000F40F0E08000F0C0FB41
:1036500046F25E33C0F60003C9E000BFBCF1000FC4
:1036600000F0A48046F2244146F27833C0F600010F
:10367000C0F6000302208922CDF800C000F052FB02
:1036800002B080BDBCF1000F00F0968046F22441EC
:1036900046F29B33C0F60001C0F6000302209122DF
:1036A000CDF800C000F03EFB02B080BD02B0BDE826
:1036B000804001F0E1B900BF02B0BDE8804001F0F8
:1036C00013BD00BF02B0BDE8804001F0ADBB00BF3C
:1036D00002B0BDE8804001F06BBC00BFBCF1000F40
:1036E00070D046F2244146F2BE33C0F60001C0F667
:1036F00000030220A922CDF800C000F013FB02B0A5
:1037000080BD00BFBCF1000F62D046F22441C0F67C
:1037100000014FA30220BD22CDF800C000F002FB43
:1037200002B080BDBCF1000F58D046F22441C0F673
:1037300000013EA30220C522CDF800C000F0F2FA3D
:1037400002B080BD02B0BDE8804001F0C9BE00BF3C
:1037500002B0BDE8804001F0FFBC00BF46F224414A
:1037600046F2FB330090C0F60001C0F600030220D1
:10377000DA22CDF804C000F0D5FA02B080BD00BF57
:10378000604602B0BDE8804001F0CCB8BCF1000F4B
:1037900036D046F22441C0F6000136A30220B522FD
:1037A000CDF800C000F0BEFA02B080BD02B0BDE8A6
:1037B000804000F079B900BF02B0BDE8804000F061
:1037C00095B800BF02B0BDE8804001F0B9BE00BFAF
:1037D00002B0BDE8804001F0A7BA00BF02B0BDE86A
:1037E000804001F08DBD00BF00F0FCFA2AA301204B
:1037F0000021002202B0BDE8804000F093BA00BF73
:1038000002B0BDE8804001F0EBB900BF46F22441B0
:1038100046F2E133C0F60001C0F600030220812227
:10382000CDF800C000F07EFA02B080BD556E6B6E20
:103830006F776E2076616C756520666F7220434DE0
:103840004420307833363A20307825303258000022
:10385000556E6B6E6F776E2076616C756520666F46
:103860007220434D4420307833353A20307825306B
:1038700032580000556E6B6E6F776E2076616C75F6
:103880006520666F7220434D4420307833343A20EF
:103890003078253032580000434D445F4C45445F3A
:1038A0004F4E3A2050433133204C4544204F4E0078
:1038B00080B500F0CBF943F65D40C0F6000000F0A3
:1038C000B9FA04A3012000210022BDE8804000F0E5
:1038D00029BA00BF53656174206E6F64652064650A
:1038E00062756720696E69740000000080B54CA3A2
:1038F00001200021002200F015FA46F22A33C0F61A
:10390000000301200021002200F00CFA46F20633E9
:10391000C0F6000301200021002200F003FA46F265
:10392000E443C0F6000301200021002200F0FAF970
:1039300046F23353C0F6000301200021002200F0BC
:10394000F1F946F24143C0F60003012000210022B4
:1039500000F0E8F946F25553C0F6000301200021BB
:10396000002200F0DFF946F27953C0F6000301208F
:103970000021002200F0D6F946F2E023C0F6000351
:1039800001200021002200F0CDF946F2FA53C0F6E2
:10399000000301200021002200F0C4F946F29B43FD
:1039A000C0F6000301200021002200F0BBF946F21E
:1039B000A253C0F6000301200021002200F0B2F95A
:1039C00046F20E53C0F6000301200021002200F051
:1039D000A9F946F26C43C0F6000301200021002241
:1039E00000F0A0F946F2D053C0F6000301200021F8
:1039F000002200F097F90EA301200021002200F020
:103A000091F914A301200021002200F08BF91CA3DE
:103A1000012000210022BDE8804000F083B900BFF2
:103A2000436F6D6D616E64204C6973743A000000E1
:103A30002020464620383120303020464620202D98
:103A40003E2053656E64205A696742656520504F79
:103A50004E47000020204646203832203030204695
:103A60004620202D3E205072696E74205A696742AC
:103A70006565206C696E6B20696E666F00000000E2
:103A80002020464620383320303020464620202D46
:103A90003E2053656E64205A696742656520504F29
:103AA0004E4720746573740010B546F23A20C0F694
:103AB000000000F00FFA40F2E814C2F2000446F2EF
:103AC000A32246F2C543C0F60002C0F6000320461A
:103AD0008021FCF7EDFB204600F0FCF946F2B7220E
:103AE00046F2CB23C0F60002C0F600032046802138
:103AF000FCF7DEFB204600F0EDF946F2672246F2C5
:103B0000DB23C0F60002C0F6000320468021FCF74C
:103B1000CFFB204600F0DEF946F2532246F208536E
:103B2000C0F60002C0F6000320468021FCF7C0FB6F
:103B3000204600F0CFF946F27B2246F24E33C0F623
:103B40000002C0F6000320468021FCF7B1FB2046AE
:103B500000F0C0F946F28F22C0F6000215A32046FD
:103B60008021FCF7A5FB204600F0B4F914A219A3AC
:103B700020468021FCF79CFB204600F0ABF918A200
:103B8000204680210123FCF793FB204600F0A2F998
:103B900018A2204680214FF4E133FCF789FB204630
:103BA00000F098F91AA000F095F921A0BDE81040A6
:103BB00000F090B94D617920203820323032360043
:103BC0004275696C642054696D652020203A202577
:103BD000730D0A0031343A35313A313700000000B4
:103BE000426F6F7420436F756E742020203A202539
:103BF000640D0A00446562756720554152542020C7
:103C0000203A205553415254322025640D0A0000B9
:103C100050726F746F636F6C20202020203A204612
:103C20004620434D4420444154412046460D0A005D
:103C30003D3D3D3D3D3D3D3D3D3D3D3D3D3D3D3DB4
:103C40003D3D3D3D3D3D0D0A0000000040F270004D
:103C5000C2F20000002101808170704770B592B0FF
:103C600040F27005C2F20005297803291DD8DFE86B
:103C700001F003070F1700BFFF281BD012B070BD63
:103C8000FF28FBD068700220287012B070BD00BF02
:103C9000FF280EBF0120A8700320287012B070BD4D
:103CA000FF280BD00FA000F015F90020287012B0EB
:103CB00070BD00BF0120287012B070BD6B78AC7869
:103CC00002AE0EA2304640210094FCF7F1FA3046D5
:103CD00000F000F96878A978FFF71EFC0020287032
:103CE00012B070BD5B44454255475D20496E766118
:103CF0006C6964206672616D650D0A005B44454223
:103D000055475D205258204652414D453A2046467F
:103D1000202530325820253032582046460D0A00E2
:103D200070470000002B08BF70472DE9F041D4B068
:103D30005AAD0DF1D00816460C4607464046802184
:103D40001A462B460395FCF795FA032F1CD8DFE89B
:103D500007F003050B0F00BF1AA200E016A204A88B
:103D600034ABC0210BE000BF00960EA202E000BF02
:103D700007A2009604A8C0212346CDF80480FCF7D2
:103D800097FA04A800F0A6F854B0BDE8F0417047D7
:103D90005B455252205D2025733A2564207C202506
:103DA000730D0A005B5741524E5D2025733A25641E
:103DB000207C2025730D0A005B494E464F5D20256F
:103DC000730D0A005B444247205D2025730D0A00F5
:103DD00041F20000C4F201004FF400510122FDF74E
:103DE000E5BE000041F20000C4F201004FF40051B2
:103DF0000022FDF7DBBE000080B5006844F2004100
:103E0000C4F20001884218BF80BD40F27400C2F2C3
:103E10000000816809B10078884740F2A01040F2A4
:103E20007401C2F20000C2F200010122BDE880402C
:103E3000FEF720BE40F27401C2F2000188607047B4
:103E400040F2740140F2A010C2F200010023C2F25D
:103E5000000001228B80CB804B70CB60FEF70ABE46
:103E6000B0B5006844F20041C4F20001884201D0BC
:103E7000B0BD00BF40F27404C2F2000400206070C4
:103E800060780028F4D1A088E1888842F0D0E088EA
:103E900040F28D51C2F200010A5C2146013001F866
:103EA000022F82B20025B5EB922F18BF0020E080D0
:103EB000012001F8010C40F2A010C2F20000012222
:103EC000FEF70CFE002808BFB0BD6570E068013049
:103ED000E060B0BD002804BF012070472DE9F0412B
:103EE0000446FCF79FFB40F27405C2F200054FF058
:103EF000010838B340F28D5C0021C2F2000C09E0E9
:103F0000EA684FF000080132EA6062B6013804F155
:103F1000010417D02378EFF3108272B6AA88013219
:103F200096B2B1EB962F18BF0022EE8897B2B74237
:103F3000E6D0AF880CF80730AA8062B6013804F1E9
:103F40000104E7D1687828B1B8FA88F04009400048
:103F5000BDE8F081A888E9888842F5D0E88840F279
:103F60008D51C2F200010A5C2946013001F8022F8E
:103F700082B20024B4EB922F18BF0020E880012009
:103F800001F8010C40F2A010C2F200000122FEF77D
:103F9000A5FD0028D8D06C70E8680130E860B8FA58
:103FA00088F040094000BDE8F081000040F2F402D2
:103FB000C2F20002C2E9030100201070507090703C
:103FC000D07010711081A2F80500704770B596B0DE
:103FD00014460246A4F1510010F1500F4FF00100B9
:103FE00076D3002974D040F2F406C2F20006F368DA
:103FF000002B6DD0FA208DF80000100A6D468DF868
:1040000001208DF80200281D22468DF80340FCF7A0
:1040100028FB6019F5210171EFF3108072B6B078BA
:10402000082803D362B6022016B070BD307856213E
:1040300040F2DD25621D4843C2F200052A54307863
:1040400000FB015069460130FCF70BFB3078013072
:1040500030703078082824BF00203070B0780130EC
:10406000B07062B6F4680CB1F07818B1002016B0E8
:1040700070BD00BFB0780028F8D094F84100202827
:10408000F4D17078562100FB015140F2882011F8DC
:10409000015BC2F200002A46FCF7E3FA707840F2B6
:1040A0008821013070707078C2F20001082824BFA6
:1040B00000207070B0782A460138B0700120F0708E
:1040C0002046FEF70BFD00284FF0000018BFF070EF
:1040D00016B070BD70B540F2F406C2F20006F46886
:1040E0001CB100682168884200D070BD0020F070CB
:1040F000F0780028F9D1B0780028F6D094F8410083
:10410000202818BF70BD707840F2DD21C2F2000196
:10411000562200FB021140F2882011F8015BC2F226
:1041200000002A46FCF79DFA707840F288210130A1
:1041300070707078C2F20001082824BF00207070EF
:10414000B0782A460138B0700120F0702046FEF7A2
:10415000C5FC00281CBF0020F07070BDFDF740FDBD
:10416000FEF762FEFEF714FDFEF7B4FDFEF7D0FD8C
:10417000FFF72EFEFFF79CFBFFF796FCFFF760FEB4
:1041800000F072F800F042F9FFF7CAFDFAE700000C
:10419000002808BF7047F0B581B0044600780128B8
:1041A00004D038B90126002206E000BF0026012213
:1041B00002E000BF0022002640F60045C4F20105DF
:1041C00028462021FDF7F2FC284640213246FDF723
:1041D000EDFC6078012803D030B90126002205E00B
:1041E0000026012202E000BF002200262846082106
:1041F000FDF7DCFC284610213246FDF7D7FCA078FD
:10420000012803D030B90126002205E00026012252
:1042100002E000BF00220026A5F5806738464FF473
:104220008051FDF7C3FC38464FF400413246FDF79C
:10423000BDFC20780026022803D0E0683228C8BFE1
:104240000126207C4FF480410138B0FA80F0420909
:104250002846FDF7ABFC28464FF40041324601B03A
:10426000BDE8F040FDF7A2BCB0B582B040F28405D5
:10427000C2F200050020A872E8722870A881A5F893
:104280000100C5E90400C5E90600C5E90800C5E963
:104290000A00C5F80300A5F80700C5E90C00C5E948
:1042A0000E00286440F600004FF60844C4F20100F6
:1042B00020210022C0F60004FDF778FC54F8080C19
:1042C00044F63101C4F6543188421BD154F8040C31
:1042D000D4E9001241F294234140CEF60E635940D6
:1042E0008A420FD16864206840A3286401202872A4
:1042F000012000210022FFF715FD46F24463C0F6BD
:10430000000313E042F68540CFF6FC7049F6DB610E
:10431000C5E91010012046F61B112872C0F60001F5
:1043200018A30220F722FFF7FDFC23A3D5E91040D4
:1043300000210090012000220194FFF7F3FC40F2DD
:104340005814C2F2000420460021FFF72FFE05F1A9
:10435000090120460122FEF78DFB46F2DA73C0F612
:104360000003012000210022FFF7DCFC46F6791350
:10437000C0F6000301200021002202B0BDE8B040D9
:10438000FFF7D0BC485837313120466C6173682044
:1043900063616C696220696E76616C69642C20755A
:1043A00073696E67206669726D77617265206465F6
:1043B0006661756C7473000048583731312064654C
:1043C0006661756C74206F66667365743D256C64F8
:1043D000207363616C653D256C6420636F756E743A
:1043E000732F672078313030000000004858373193
:1043F000312063616C6962206C6F61646564206662
:10440000726F6D20466C6173680000002DE9F04FFB
:104410008BB0FDF7D1FB0446FDF7CEFB40F28407DD
:10442000C2F20007796B0546401AC828C0F0128115
:1044300005A87D6301F0FAF8387900285CD097F878
:1044400048009DF81410884240F09C8097F849304D
:104450009DF81520934240F0958097F84A209DF8EA
:104460001660B24240F08E80B96B41F28836691A0C
:104470004FF0000CB142A7F805C0C0F0EB8010214E
:104480008DF82810811EB1FA81F14909012818BF61
:1044900048008DF82900981EB0FA80F04009012BE1
:1044A00018BF4300901EB0FA80F08DF82A30400902
:1044B000012A18BF42008DF82B200AA943F21E00E2
:1044C0000422FFF783FD002800F00C82F86A46F60C
:1044D0001B11013046F2F173F862C0F60001C0F61C
:1044E0000003022040F24722FFF71CFCBD6338792D
:1044F000012800F0B280FCE005AB0FCB3E4646F849
:10450000480F099806F1040C3061012026F8440C8C
:1045100000208CE80E0006F8420C3046FFF738FE0B
:1045200010208DF8280030787178831EB3FA83F359
:10453000B2785B09012818BF58008DF82900881E41
:10454000B0FA80F04009012918BF4100901EB0FA6E
:1045500080F08DF82A104009012A18BF42008DF81A
:104560002B200AA80421012201F03EF9022006F8BE
:10457000410C05F1780046E90450387901286CD0E7
:10458000B7E000BF7A79012A5AD197F85C208A42B5
:1045900056D197F85D209DF815309A4250D197F882
:1045A0005E309DF81660B3424AD1BB79022B03D826
:1045B00003F10103BB714DD1884240F02F8197F880
:1045C0004900904240F05F8197F84A109DF816002C
:1045D000814226D046F60006C0F6000646F2D57C9B
:1045E00000293346C0F6000C08BF634646F2CC7281
:1045F0000129C0F6000208BF1346002808BF66461E
:1046000001284FF0030008BF1646CDE9000346F627
:10461000A313C0F600030120002100220296FFF739
:1046200081FB05AB0FCB3E4646F8480F099806F1D3
:10463000040C306100208CE80E0026F8430C6CE777
:1046400005AE4FCE07F15C0C8CE84F0040F2011034
:10465000A7F80500387901284BD1F879002848D00F
:10466000F86B201A45D410208DF8140097F84800F4
:1046700097F84910831EB3FA83F397F84A205B0931
:10468000012818BF58008DF81500881EB0FA80F078
:104690004009012918BF4100901EB0FA80F08DF842
:1046A00016104009012A18BF42008DF8172005A9ED
:1046B00043F21E000422FFF789FC88B1F86A46F62F
:1046C0001B11013046F2F173F862C0F60001C0F62A
:1046D0000003022040F24722FFF724FB03E000BF63
:1046E000786901307861F8790138F87104F178005F
:1046F000F86340F6342840F694192024C2F20008EA
:104700000026C2F200094FF0020B4FF0030A08E046
:10471000B889797800F0FEFF3E70013C200600F079
:104720007980B87AF97A884200F07480F87A18F8BB
:104730000000F97A0131F97297F90B10B1F1FF3FDE
:10474000D8BFFE72BA69397801320629BA61E3D856
:10475000DFE801F0040C1018222E3400FA283BD1B7
:1047600001203880BE81BE70D7E700BFB88187F8CE
:1047700000B0D2E7B98987F800A041EA0020B881EB
:10478000CBE700BF7870513810F1510FBE702FD8B1
:10479000386A01303862BFE7B9787A784B1CDDB2ED
:1047A000BB70954209F8010024BF05203870B4E7BA
:1047B000F528ADD0786A01307862ADE7BA787978BB
:1047C000531CDDB28D42BB7009F80200A5D3386BD3
:1047D000421CB8893A639DE7411E01290CD801218A
:1047E00089F8000040F20620BE81B970388094E755
:1047F0000420387091E700BF10287FF48EAF0120AD
:10480000B870102089F8000040F20640BE81388060
:1048100083E700BF0BB0BDE8F08F00BF46F6000392
:10482000C0F600039DF8242046F2D57E00281E46DF
:10483000DDF820C0C0F6000E08BF764646F2CC7800
:104840000128C0F6000808BF4646002908BF734685
:10485000501E012908BF4346B0FA80F04FEA501EAF
:10486000CDE9006324A3012000210022CDF808C077
:10487000CDF80CE0FFF756FA9DF8152097F849009F
:1048800090423FF4A1AE46F60006C0F6000646F29E
:10489000D57C00283346C0F6000C08BF634646F2BC
:1048A000CC710128C0F6000108BF0B46002A08BFE2
:1048B00066460220012A08BF0E46CDE9000346F6EF
:1048C000A313C0F600030120002100220296FFF787
:1048D00029FA97F84A109DF8160081427FF47AAEC3
:1048E0009FE600BF7869BD6301307861387901289F
:1048F0003FF4B3AEFDE600BF5365617431206368D9
:10490000616E67653A202573202D3E2025732C208B
:104910007765696768743D256C64672C2069723D12
:1049200025750000B0B582B090B304460020019018
:1049300001A80121FEF7FAFB002843D040F28405CC
:10494000C2F20005297A0198002947D0696C884293
:1049500047D0401A04EB840148BF40424C00642118
:104960004843B0FBF4F025A3286401200021002275
:104970000094FFF7D7F92D6C27A301200021002216
:104980000095FFF7CFF9FEF70DFD02B0B0BD00BFF7
:1049900046F61B1146F22263C0F60001C0F6000382
:1049A00002204FF46772FFF7BDF946F65813C0F6C0
:1049B000000301200021002202B0BDE8B040FFF753
:1049C000B1B900BF46F61B11C0F6000122A30220B8
:1049D00040F2A232FFF7A6F902B0B0BD6864012030
:1049E000287246F61B11C0F6000113A302204FF4F3
:1049F0006A72FFF797F902B0B0BD00BF485837316F
:104A0000312063616C6962204F4B3A206B6E6F7787
:104A10006E3D256C7520670048583731312073632F
:104A2000616C653D256C6420636F756E74732F67D0
:104A30002078313030000000485837313120636130
:104A40006C6962206661696C65643A2064656C74A7
:104A5000612069732030000048583731312063618C
:104A60006C6962206661696C65643A204E4F545FE0
:104A7000524541445900000080B582B035A3012061
:104A800000210022FFF74EF946F21973C0F6000329
:104A9000012000210022FFF745F946F255734FF03F
:104AA000320CC0F60003012000210022CDF800C026
:104AB000FFF738F946F2AB73C0F60003012000217E
:104AC0000022FFF72FF946F28173C0F600030120A0
:104AD00000210022FFF726F946F28463C0F60003A6
:104AE000012000210022FFF71DF946F2B463C0F651
:104AF0000003012000210022FFF714F9C8204FF025
:104B0000030C009018A3012000210022CDF804C05E
:104B1000FFF708F941F2883046F6C70343F21E0C4E
:104B20000090C0F60003012000210022CDF804C04F
:104B3000FFF7F8F816A3012000210022FFF7F2F892
:104B40001BA301200021002202B0BDE88040FFF736
:104B5000E9B800BF53656174206E6F6465206861B9
:104B600072647761726500005365617420706F6CC8
:104B70006C3A202575206D732C20636F6E66697208
:104B80006D3D25752073616D706C657300000000CC
:104B90005A6967426565203A205553415254312085
:104BA0005041392F504131302033383430300000FB
:104BB000446562756720203A205553415254322093
:104BC0005041322F50413320313135323030204680
:104BD0004620434D442044415441204646000000B5
:104BE000B0B584B00020039003A80121FEF79EFA1F
:104BF00050B140F28404C2F20004217A03980129E2
:104C000012D1616C14E000BF46F61B1146F6031387
:104C1000C0F60001C0F60003022040F2BA32FFF7EE
:104C200081F804B0B0BD00BF01212172014660646B
:104C3000451A00901AA30120002100220195FFF7D8
:104C400071F8206C01280FDB6421002D48BF6D42F4
:104C5000694391FBF0F518A3012000210022009583
:104C6000FFF760F804B0B0BD46F61B1146F63B13E3
:104C7000C0F60001C0F6000302204FF47072FFF787
:104C800051F812A3012000210022FFF74BF817A3CF
:104C9000012000210022FFF745F804B0B0BD00BF9D
:104CA0004858373131207261773D256C6420646546
:104CB0006C74613D256C640048583731312077654C
:104CC000696768743D256C642067000054617265F3
:104CD00020656D70747920736561743A20464620B2
:104CE00033322030302046460000000043616C69BA
:104CF00062726174653A20707574206B6E6F776EA6
:104D0000207765696768742C2073656E6420464659
:104D1000203333204E4E2046462C204E4E3D31301F
:104D20006720756E6974730080B582B01BA3012083
:104D300000210022FEF7F6FF46F20473C0F60003DE
:104D4000012000210022FEF7EDFF46F26F63C0F65E
:104D50000003012000210022FEF7E4FF13A301203D
:104D600000210022FEF7DEFF16A301200021002211
:104D7000FEF7D8FF4FF0320C18A3012000210022CB
:104D8000CDF800C0FEF7CEFF1AA3012000210022BB
:104D900002B0BDE88040FEF7C5BF00BF5365617437
:104DA000204C4544206D61703A000000533320725E
:104DB00065643D5041313220677265656E3D5041FA
:104DC0003135000049522064657465637465642060
:104DD0004C45443D5042313400000000576569673E
:104DE0006874203E20256C6467204C45443D504249
:104DF00031350000465245453A20677265656E20A0
:104E00006F6E2C204F434355504945443A207265FC
:104E100064206F6E2C20554E4B4E4F574E3A2062F9
:104E20006F7468206F66660070B588B003A800F0E4
:104E3000FDFB9DF80C0002280AD146F61B11C0F6B6
:104E400000014CA3022040F24F32FEF76BFF1FE03F
:104E5000DDE9040532A30090012000210022019524
:104E6000FEF760FF40F28400C2F20000006C0128EF
:104E700008DB069D3AA30120002100220095FEF7E1
:104E800051FF05E02EA3012000210022FEF74AFF7A
:104E90009DF81C0046F26B640138B0FA80F0C0F651
:104EA00000044FEA501546F26D662046C0F6000633
:104EB00008BF304646F6D8130090C0F60003012024
:104EC000002100220195FEF72DFF9DF81D0046F6FA
:104ED000BB130138B0FA80F04FEA5015204608BFE6
:104EE00030460090C0F60003012000210022019509
:104EF000FEF718FF9DF81E0025A30138B0FA80F0D8
:104F00004FEA50154FF001004FF000014FF0000242
:104F100008BF344600940195FEF704FF08B070BD49
:104F20005365617431204858373131207261773DC3
:104F3000256C642064656C74613D256C6400000020
:104F40005365617431207765696768743A206E6FC4
:104F5000742063616C6962726174656400000000B2
:104F60005365617431207765696768743D256C64A9
:104F70002067000053656174312048583731312073
:104F80007261773A204E4F545F52454144590000B8
:104F9000536561743320504237207261773D257329
:104FA000206F636375706965643D257500000000BE
:104FB0002DE9F04389B004A800F038FB46F600065E
:104FC0009DF81000C0F6000646F2D5783146C0F6CE
:104FD0000008002808BF414646F2CC79C0F6000917
:104FE000012808BF49469DF82000079A0138B0FA09
:104FF00080F04509CDE9001229A3012000210022FB
:105000000295FEF78FFE9DF811003446002808BF78
:10501000444601282AA34FF001004FF000014FF051
:10502000000208BF4C460094FEF77CFE9DF812007B
:105030003746002808BF4746012824A34FF0010047
:105040004FF000014FF0000208BF4F460097FEF7F7
:1050500069FE9DF810009DF81110002833469DF858
:10506000122008BF4346012808BF4B46002930469E
:1050700008BF4046012908BF4846002A08BF4646E7
:10508000012A08BF4E46CDE9003013A301200021BC
:1050900000220296FEF746FE09B0BDE8F08300BF8D
:1050A00053656174313A2025732C207765696768F0
:1050B000743D256C64672C2069723D2575000000E5
:1050C00053656174323A20257300000053656174A2
:1050D000333A202573000000534541543A2025738C
:1050E0002C25732C2573000080B507A30120002117
:1050F0000022FEF717FE0FA3012000210022BDE8C9
:105100008040FEF70FBE00BF5553415254313A2044
:105110005A69674265652043433235333020706FEA
:10512000696E742D746F2D706F696E7420554152C5
:10513000540000005553415254323A204465627580
:105140006720554152542C20464620434D4420446C
:105150004154412046460000F0B587B046F23E7308
:10516000C0F600030120002100220027FEF7DAFD2F
:1051700043F21E0046F69B030190C0F60003012097
:10518000002100220097FEF7CDFD3DA30120002164
:105190000022FEF7C7FD44A3012000210022FEF7F4
:1051A000C1FD40F28405C2F20005D5E90401D5E94C
:1051B0000B240290CDE9001244A30120002100221B
:1051C0000394FEF7AFFD05F118041FCC04948DE89D
:1051D0000F0046F62023C0F6000301200021002224
:1051E000FEF7A0FDE87828B340F6E412C2F2000210
:1051F000E989431E157854789678D27808BF1C4602
:10520000E3B2022898BF3E46032898BF3A46CDE94C
:10521000025346F60803F6B2D7B2CDE90010C0F645
:10522000000301200021002204960597FEF77AFD75
:105230000DE000BF46F61B1146F66523C0F60001DF
:10524000C0F60003022040F23A32FEF76BFD46F64C
:105250006D0343F21E04C0F600030120002100226A
:105260000094FEF75FFD46F64203C0F600030120FE
:10527000002100220094FEF755FD07B0F0BD00BFED
:10528000554152543D555341525431205041392FCC
:10529000545820504131302F525820333834303058
:1052A00020384E31000000006672616D653D464158
:1052B00020414444524C204144445248204C454EE5
:1052C00020444154412046350000000054582063DA
:1052D0006F756E743D256C75205458206661696C3D
:1052E0003D256C75205258207061796C6F61642087
:1052F0006F6B3D256C75207261773D256C750000E4
:105300002DE9F04389B004AC204600F08FF9204627
:10531000FEF73EFF32A3012000210022FEF702FD2E
:105320009DF8100046F60004C0F6000446F2D57859
:1053300000282146C0F6000808BF414601289DF814
:10534000200046F2CC79A0F10100B0FA80F0C0F65E
:10535000000908BF4946079F4009CDE9001025A371
:105360000120002100220297FEF7DCFC9DF81100CD
:10537000224646F26B669DF82110002808BF42467F
:10538000C0F60006012808BF4A4646F26D6537465A
:10539000C0F60005012908BF2F4600921CA301207A
:1053A000002100220197FEF7BDFC9DF812009DF838
:1053B0002210002808BF4446012808BF4C46012996
:1053C00017A34FF001004FF000014FF0000208BF9B
:1053D0002E4600940196FEF7A5FC09B0BDE8F083C7
:1053E0004C45442073746174652072656672657300
:1053F0006865640053656174313D25732069723DB1
:105400002575207765696768743D256C64670000C1
:1054100053656174323D2573207261773D257300B9
:1054200053656174333D2573207261773D257300A8
:10543000B0B586B040F20C00C2F200000178022440
:105440004A1C02708DF817100DF1160143F21E0070
:1054500002228DF8164043F21E05FEF7B7FDA8B1F3
:1054600040F28400C2F20000C16A46F2F1730131D9
:10547000C16246F61B11C0F60001C0F6000302200F
:1054800040F24722FEF74EFC06B0B0BD40F2840069
:10549000C2F2000041699DF81620013146F6F8136A
:1054A0004161CDE90052C0F6000301200021002235
:1054B0000294FEF737FC9DF816009DF81750302136
:1054C0001E2246F2D663CDE900210290C0F6000309
:1054D0000120002100220395FEF724FC06B0B0BD98
:1054E00080B586B0684600F0A1F810208DF8140051
:1054F0009DF800009DF80110831EB3FA83F39DF818
:1055000002205B09012818BF58008DF81500881E7D
:10551000B0FA80F04009012918BF4100901EB0FA8E
:1055200080F08DF816104009012A18BF42008DF84E
:10553000172005A80421012200F056F906B080BD0D
:1055400080B582B00020019001A80321FDF7EEFD97
:10555000B0B1DDF804C040F28400C2F200000121C5
:10556000C0F844C001720CA3012000210022CDF834
:1055700000C0FEF7D7FBFDF715FF02B080BD00BFEE
:1055800046F61B11C0F600010AA3022040F28A323F
:10559000FEF7C8FB02B080BD485837313120746136
:1055A0007265204F4B3A206F66667365743D256CBB
:1055B00064000000485837313120746172652066FC
:1055C00061696C65643A204E4F545F5245414459BD
:1055D00000000000006843F60001C4F201018842A7
:1055E00018BF704740F28400C2F2000090F809C072
:1055F000827AC37A013252B222EAE2729A4203D12B
:10560000C1690131C16107E0837A40F63421C2F2F9
:10561000000101F803C0827200F1090140F2581044
:10562000C2F200000122FDF725BA0000F0B581B0FA
:1056300000286CD00027044640F60045C0E90177F9
:10564000C76068460121C4F201050097FDF76EFDB1
:1056500040F28406C2F2000630B1307A0099012887
:1056600006D1706C08E000BFC4E90177022022E097
:105670000120307208467164081AC4E90110316CC7
:1056800048BF4042012907DB6422504390FBF1F000
:10569000322805DC0EE000BF42F21071884209D3C7
:1056A00028464FF40071FCF77BFA012802D1012053
:1056B00001E000BF0020207028464FF40071FCF785
:1056C0006FFA207428464FF48071FCF769FA607411
:1056D00028468021FCF764FA617CA07422780139A5
:1056E0000138B1FA81F1B0FA80F049094009022A83
:1056F0006170A0700BD0306C012808DBA1686422B7
:10570000002948BF4942514391FBF0F0E06001B0ED
:10571000F0BD0000F0B585B0002963D040F28407E9
:10572000C2F2000740F694150C460646F88140F692
:10573000E410C2F20005F970C2F2000029462246C8
:10574000FAF7D4FF386900F10100386116B1B86A80
:105750000130B862022C45D32878012842D16878FC
:1057600002248DF813000DF1120143F21E000222F3
:105770008DF8124043F21E05FEF728FC70B1F86A5E
:1057800046F61B11013046F2F173F862C0F60001D3
:10579000C0F60003022040F2472221E078699DF81C
:1057A0001210013046F6F8137861CDE90051C0F6C9
:1057B00000030120002100220294FEF7B3FA9DF8B5
:1057C00012009DF8137030211E2246F2D663CDE9F7
:1057D00000210290C0F6000301200021002203975F
:1057E000FEF7A0FA05B0F0BD70B586B00D460446D0
:1057F000164643F21E0021462A46FEF7E7FBB8B1E3
:1058000040F28406C2F20006F06A46F61B11451CFF
:1058100046F2F173C0F60001C0F60003022040F228
:105820004722F56206B0BDE87040FEF77BBA00BFC4
:1058300040F28400C2F20000416901F101014161BE
:105840009EB3207843F21E0146F6F813CDE900100E
:10585000C0F600030120002100220295FEF762FA43
:10586000022D11D0042D20D12078E67830231E257A
:105870006178A278CDE9005302AB07C30CA30120E5
:105880000021002205960EE02078667830211E2245
:1058900046F2D663CDE900210290C0F60003012054
:1058A000002100220396FEF73DFA06B070BD00BF4E
:1058B0005A6967426565205458206672616D653A81
:1058C00020464120253032582025303258203034AF
:1058D00020253032582025303258202530325820AB
:1058E00025303258204635005FEA400C08BF91F061
:1058F000000F4FEA8C234FEAC12243EA51514FEA8D
:105900001C5018BF00F5F0404FEA300018BF41F0BE
:1059100000415FEA6C5C00F02980BCF1FF3F08BFEA
:1059200040F080407047130C06BF12044FF0100C7B
:105930004FF0000C130E04BF12020CF1080C130FF1
:1059400004BF12010CF1040C930F04BF92000CF180
:10595000020CD30F04BF52000CF1010C11464FF0A2
:105960000002A0F11F00A0EB0C00704711F0004FE7
:1059700008BF704731F000413FF4D5AF0B0C06BFB4
:1059800009044FF0100C4FF0000C0B0E04BF09027D
:105990000CF1080C0B0F04BF09010CF1040C8B0F68
:1059A00004BF89000CF1020CCB0F04BF49000CF1BD
:1059B000010CCCF1200322FA03F341EA030102FABD
:1059C0000CF2A0EB0C0000F10100704723F07F47C0
:1059D00020F07F4C80EA030000F00040ACEB0703AE
:1059E00003F57C5303F1FF032DE9804909B44FEA25
:1059F000144324EA03484FEA154B25EA0B4E0FF2F5
:105A0000042606EB13273E7803FB0667C7F500075D
:105A100007FB06F64FEAD64606F102064FEA543770
:105A200007FB066CCCF1005C4FEA1C472CEA074CE4
:105A30000CFB06F507FB06F404EB15464FEA961639
:105A400049085FEA320234BF00204FF000404FEABD
:105A5000D13706FB07FC4FEA1C4C0CFB0BF7D21BA3
:105A600003FB0CF761EB07010CFB0EF7B0EB0740F3
:105A700072EB17420CFB08F734BFA2EB0742B2EB04
:105A8000074261EB17414FEA0C444FEA910706FBCE
:105A900007FC4FEA1C4C0CFB0BF7B0EBC74072EB5A
:105AA000573203FB0CF734BFA2EBC742B2EBC7423D
:105AB00061EB57310CFB0EF7B0EBC70072EB57727E
:105AC0000CFB08F734BFA2EBC702B2EBC70261EBD5
:105AD00057714FEA816141EA92114FEA826242EACC
