:020000040800F2
:1000000048070020350200080D2800085527000881
:100010000928000809140008392900080000000018
:10002000000000000000000000000000152800088B
:100030000D1400080000000011280008192800080D
:100040004F0200084F0200084F0200084F0200084C
:100050004F0200084F0200084F0200084F0200083C
:100060004F0200084F0200084F0200084F0200082C
:100070004F0200084F0200084F0200084F0200081C
:100080004F0200084F0200084F0200084F0200080C
:100090004F0200084F0200084F0200084F020008FC
:1000A0004F0200084F0200084F0200084F020008EC
:1000B0004F0200084F0200084F0200084F020008DC
:1000C0004F0200084F0200084F0200084F020008CC
:1000D0004F0200084F0200082D2900084F020008B7
:1000E0004F0200084F0200084F02000800F002F81B
:1000F00000F090F80AA090E8000C82448344AAF132
:100100000107DA4501D100F085F8AFF2090EBAE82F
:100110000F0013F0010F18BFFB1A43F0010318473B
:10012000A8380000C8380000103A24BF78C878C149
:10013000FAD8520724BF30C830C144BF04680C60ED
:10014000704700000023002400250026103A28BF35
:1001500078C1FBD8520728BF30C148BF0B60704739
:100160006E2900F0EC82702900F08D81662903F081
:10017000AF82652903F0AC82672903F0A982612967
:1001800003F0A88203681B0A28BF41F08001692997
:1001900000F0FE80642900F0FB80752900F0F880F3
:1001A0006F2900F0D583782900F05981E92900F002
:1001B0006F83E42900F06C83F52900F06983EF294F
:1001C00000F0D283F82900F058810368DB0928BFCA
:1001D00041F08001632900F0F182732900F0F6827A
:1001E000E32900F0A787F32900F0AC8700207047CF
:1001F0001FB500F0FDFF04000020002103F052FABB
:10020000401C60600020002103F036FAE0601FBD52
:1002100010B510BD00F0BEFF1146FFF7E9FF02F078
:1002200009FE01F09BF803B4FFF7F2FF03BC01F0F5
:10023000E3F800000948804709480047FEE7FEE769
:10024000FEE7FEE7FEE7FEE7FEE7FEE7FEE7FEE786
:1002500004480549054A064B704700001D28000860
:10026000ED00000848010020480700204803002056
:10027000480300207CB51D4616460C00009007D0B0
:100280004142A14202D32044401E01E04FF0FF3022
:10029000064B7B442A4669460190304600F069FAD5
:1002A000002C02D0009A002111707CBD03050000D3
:1002B0000FB41CB50C0007AA009007D04142A14220
:1002C00002D32044401E01E04FF0FF30074B7B4437
:1002D00069460190069800F04CFA0021002C01D0EC
:1002E000009A11701CBC5DF814FB0000C7040000EC
:1002F00070B5044685690068C10601D5302600E066
:100300002026C00707D070BDD4E9012130469047B0
:10031000206A401C20626D1EF6D570BD70B5044683
:1003200085690078C00707D170BDD4E9012120207C
:100330009047206A401C20626D1EF6D570BD70B5D6
:100340000C460546012A05D02878800600D5EA69C2
:10035000002302E0012305E05B1C934202D2E05C33
:100360000028F9D1A869E618C01AA861286A1844BB
:1003700028622846FFF7BCFF04E0D5E9012114F804
:10038000010B9047B442F8D32846FFF7C7FF70BD72
:100390002DE9F0410646002410687529314616A55E
:1003A00010D000F061F9002802DA404213A507E0FE
:1003B00031688A0701D512A502E0490704D511A5C5
:1003C000012401E000F059F900210A2206F1240776
:1003D00009E0B0FBF2FCB0FBF2F302FB1C00303092
:1003E00078541846491C0028F3D123462A46304643
:1003F000BDE8F04100F04AB9000000002D00000007
:100400002B00000020000000F0B40D460188090513
:1004100002D5214C7C4402E01F4C7C440E34002168
:1004200000F1240608E002F00F071209E75D42EA36
:1004300003721B097754491C52EA0307F3D102786F
:100440000023120704D5702D06D009B10223113400
:100450002246F0BC00F01AB901231034F8E770B559
:1004600004460D462146106800F007F90246294669
:100470002046BDE870400023C6E7D21D22F00703E6
:10048000D3E90023C0E70368126843F02003036048
:100490000823C3610023B7E7C03200002DE9F05FF5
:1004A000894604464FF0000ADFF874B1FB44C0F8F7
:1004B00020A02046E1688847002874D0252806D06F
:1004C000D4E901219047206A401C2062F1E7002610
:1004D0005F462046E16888472028054607DB312D26
:1004E00005D2781910F8200C08B10643F1E7B007DF
:1004F00001D526F00406C4F81CA00027C4F818A0F3
:100500002A2D09D0284603F0AFF838B304EB87084A
:10051000303DC8F8185019E059F8041B204604EB88
:1005200087029161E1688847012F054618D1E0698B
:10053000002820DA26F020061DE0D8F8180000EB8D
:10054000800005EB40003038C8F818002046E1680C
:100550008847054603F088F80028EED1012F0AD01D
:100560002E2D08D12046E16888477F1C0546022FC2
:1005700046F02006C4DBA069002803DA404246F0BA
:100580000106A061F00701D026F010066C2D0BD0FB
:10059000682D09D04C2D39D06A2D35D0742D35D029
:1005A0007A2D33D016E038E0E1682F4620468847A0
:1005B000B842054609D16C2F26D04FF48060E1681F
:1005C000064320468847054604E06C2F1AD04FF4B6
:1005D000807006430DB3A5F14100192802D82035DB
:1005E00046F400664A462946204626604E46FFF7F6
:1005F000B7FD80B101280BD0F61D26F0070000F1F1
:10060000080956E74020E4E78020D8E70020D6E735
:1006100006F104094DE7284652E7206ABDE8F09F3D
:100620005032000010B5431C02E010F8011B71B1FC
:100630008107FAD14FF0013202C88C1A8C4314EAB8
:10064000C211F9D0C01A0A0603D0C01E10BDC01ACC
:1006500010BD0A0401D0801E10BD0902FCD0401E4E
:1006600010BD70477047704709684A0501D540B210
:100670007047C905FCD500B2704709684A0501D525
:10068000C0B27047C905FCD580B270472DE9F0476C
:100690000D4699469246044600F1240801688806F2
:1006A00004D5E06921F01001216000E00120A8429A
:1006B00001DD471B00E00027A1697A1902EB090060
:1006C000081AA0612078C00602D42046FFF710FE69
:1006D000002608E0D4E901211AF806009047206AB4
:1006E000401C761C20624E45F4DB2078C0060AD5FB
:1006F0002046FFF7FDFD06E0D4E9012130209047B8
:10070000206A401C2062381EA7F10107F4DC07E0D4
:10071000D4E9012118F805009047206A401C2062A6
:10072000281EA5F10105F3DC2046FFF7F7FD207830
:10073000000602D50220BDE8F0870120FBE7116822
:100740000268006A530501D508700AE0D30501D597
:10075000088006E0130603D5C217C1E9000200E0D5
:10076000086001207047000001694A1C0261087896
:10077000704700B58FB0CDE90131002105910549E1
:100780007944CDE9031011466846FFF787FE0FB0A4
:1007900000BD0000E5FFFFFFD1E900239A4202D22D
:1007A000531C0B601070704710B5436913B1AFF361
:1007B000008001E0FFF7C3FD012010BD127800F1B9
:1007C00024010A7000224A700122EDE711684FF0FF
:1007D000FF32E9E72DE9FF5F15468A460446DFF858
:1007E000AC80F8440027D8E900103E46CDE900105F
:1007F00010E03AF816106A4602A800F0A7FC411C67
:1008000007D02178890603D5E269391891420DD8BD
:100810000744761C2078800602D5E069B84205DDE1
:10082000AE42E6DB3AF816000028E2D1A069C01B10
:10083000A0612046FFF75CFDD8E90010CDE900106B
:10084000002017E03AF818106A4602A800F07EFC73
:10085000B0F1FF3F81460BD000250DF1080B05E0FC
:10086000D4E901211BF8050090476D1C4D45F7D3D5
:1008700008F10100B0428046E4DB206A384420627F
:100880002046FFF74BFDBDE8FF9F00002E2F000024
:100890002DE9F0418046D21D22F007020025D2E961
:1008A0000002F52915A614D0011E72F1000106DA26
:1008B0000023D0EB030063EB020211A608E0D8F896
:1008C00000108B0701D50FA602E0490701D50EA63F
:1008D00001251146002408F1240704E000F04EF839
:1008E00030323A55641C50EA0102F7D12B463246A9
:1008F00021464046BDE8F041FFF7C8BE00000000B9
:100900002D0000002B0000002000000030B400216A
:1009100000F1240408E002F00705D208303542EA6D
:100920004372DB086554491C52EA0305F3D104689D
:10093000002310A2250708D504F020040C4304D09E
:10094000C46901230CA2641EC46130BCFFF79EBEC3
:1009500010B5044621461068FFF78FFE0246204678
:10096000BDE810400023D1E7D21D22F00701D1E9F4
:100970000023CBE7000000003000000030B5B0F1EC
:100980000A0271F100034FEA900E4EEA817EB0EB4D
:100990000E0061EB91014FEA101E4EEA017E10EB52
:1009A0000E0041EB11114FEA102E4EEA016E10EBD2
:1009B0000E0041EB11214FEA104E4EEA014E10EBB2
:1009C0000E0041EB1141401841F100014FEAD00007
:1009D00040EA41704FEAD1014FEA810444EA907441
:1009E00010EB800544EB01046D1944EB0404521B29
:1009F000A3414FF0000348BF0A3200D530BD401C70
:100A000041F1000130BD2DE9FF4F0C461E464FF06D
:100A1000FF378BB0D2E90001DDF860800A908A468A
:100A2000C1F30A5505B93D46002108464FF00000C4
:100A3000BAF1000F00F4400005DA00EB80004FF43B
:100A4000400101EA50004FEA9059B9F1010F00DD71
:100A5000B9460A9850EA4A000ED044F61050A5F262
:100A6000FF3545432F14B8F1000F1ED07542291EE3
:100A70001EDDC9F100021CE0B8F1010F4FF00000CB
:100A800001D0302103E0F24305E02154401CB04284
:100A9000FBDB30460022002121540B99C1F808806D
:100AA000C1E900200FB0BDE8F08FBD1B6D1CDEE773
:100AB0004A4600DA694206A800F0DEFB06AB93E87E
:100AC000070003AB83E8070050460A9902F0EFF9EC
:100AD0008DE80700A0F500501F3800900398002D06
:100AE0000ADD42F21F014A460844002303A903908D
:100AF000684602F059FC09E0A0F500504A461F384C
:100B0000002303A90390684602F063FC8DE8070008
:100B10000004000C03D04FF0FF30410800E0104605
:100B2000B8F1000F03D00022009215461EE0751E9A
:100B300005D4FFF723FF303262556D1EF9D5B34659
:100B40000122084302D000227F1C04E020783028D4
:100B500001D100227F1E002A099784D01DE0112DAB
:100B600007DAFFF70BFF303262556D1C50EA0102C5
:100B7000F5D1084302D00098C8B10EE00021681EEC
:100B800005E0235C625C63542254401E491C814290
:100B9000F7DBAB46A81B401E0990002004F80B00B1
:100BA0000B98099AC0F80880C0E9002B7AE7112653
:100BB0004FF0000857E72DE9F04F88460446D21D54
:100BC00022F0070191B0D1E90001CDE90A0102F05C
:100BD00037FD02460B98C00F01D02D2007E020689A
:100BE000810701D52B2002E0202101EAC000032A61
:100BF000099001D0072A05DB03464146204600F054
:100C0000FBFA0BE12078800601D5E06900E00620C0
:100C1000B8F1650F814606D0B8F1660F18D0B8F16B
:100C2000670F70D131E00020B9F1110F009001DBA6
:100C3000112301E009F101030AAA01A90CA8FFF799
:100C4000E2FEDDE90C70002609F10105834647E06C
:100C500001204B4600904FF000470AAA01A90CA8BA
:100C6000FFF7D1FEDDE90DB00C995D46002610B905
:100C700009F101000D18B9EB050003D4C0F1FF36EE
:100C800009F10105A5EB09002BE0B9F1010F01DA2B
:100C90004FF001090020B9F1110F0090484601DD25
:100CA000112300E003460AAA01A90CA8FFF7ABFE36
:100CB000DDE90C704D4600268346207800070AD4F3
:100CC000AB4500DA5D4601A8012D04DD411911F89C
:100CD000011C302907D04F4502DA17F1040F04DA5E
:100CE000012082460FE06D1EEEE7002F02DCED1BB7
:100CF0003E4403E0781CA84200DD7D1CB81B00F1D7
:100D0000010A4FF000472078000703D4AA4501DB11
:100D10004FF0FF3A0021B7F1004F0DF143088DF875
:100D2000431024D002202B23002F01DA7F422D23F1
:100D30000A21021EA0F1010000DC5FB197FBF1FC6B
:100D400097FBF1F201FB1C7C17460CF1300C08F804
:100D500001CDEEE7A8F1010003702188090501D556
:100D6000452100E06521A0F1010800F8011C099867
:100D70000FA9A1EB0807FF1D00B10120411901EBEC
:100D8000EA70A1693844081A401EA0612078C006A4
:100D900002D42046FFF7ACFA099828B1D4E9012122
:100DA0009047206A401C20622078C00622D5204649
:100DB000FFF79EFA1EE0002E04DBB34502DD01A81A
:100DC000805D00E03020D4E901219047206A401C7A
:100DD0002062761CAAF101005FEA000A0AD100F045
:100DE00007FAC0680168405CD4E901219047206A95
:100DF000401C2062281EA5F10105DCDC07E0D4E9D7
:100E0000012118F8010B9047206A401C2062381E0F
:100E1000A7F10107F3DC2046FFF780FA032011B0A9
:100E200041E600002DE9F04F04460D46D21D22F0A8
:100E3000070089B0D0E900974846394602F000FC27
:100E40000246F80F01D02D2307E02068810701D565
:100E50002B2302E0202101EAC0038DF820300BB1E2
:100E6000012000E00020032A824601D0072A04DB8B
:100E70002946204600F0C0F93FE12078800601D4E1
:100E80000D2500E0E569C7F30A560D2D49DA00216A
:100E90004FEA175B08464FF00000002F00F44000B7
:100EA00007DA00EB80004FF4400100EBD07001EA5C
:100EB00060008115012901DD4FF0FF3100224FEA6A
:100EC000850CBCF1180F06D31346ACF118004FF097
:100ED0008052C24003E04FF4801323FA0CF30CF16C
:100EE0000C0CBCF1200F04D3ACF1200C09FA0CF06F
:100EF00001E007FA0CF000294FF0004801DD18B9B5
:100F00000FE00ED140450CD319EB02095F4121B926
:100F1000404502D19F4329EA0209BBEB175F00D08D
:100F2000761C2088000502D57B48784402E07A4888
:100F30007844193808AA302302F80A30037C0AF1F1
:100F40000101002E0AF1020A53546A4602DC4FF0F6
:100F5000300101E04FF031014FF001088DF8001031
:100F600002D0A6F2FF3603E059EA470100D06B4EEB
:100F7000002D02DC2178090704D54FF002082E214C
:100F80008DF80110C44600210BE0C7F303433F0175
:100F9000C35C491C6D1E02F80830052908F10108E0
:100FA00001DA002DF1DC00210CE000EB1973491C83
:100FB0001B786D1E082902F808304FEA091908F15C
:100FC000010801DA002DF0DC21688B0602D516E05D
:100FD000A8F10108E04505DD02EB080313F8013C28
:100FE000302BF5D0B8F1000F09DD02EB080313F840
:100FF000013C2E2B03D1090701D4A8F10108002DD3
:1010000005DD3E2102F808106D1E08F10108407C44
:10101000002E02F8080008F1010804DA2D207642BB
:1010200002F8080002E02B2002F808000A214FF421
:101030007A70864208F101080BDB96FBF0F330333F
:1010400002F8083096FBF0F308F1010800FB136684
:1010500001E0642E0CDB642096FBF0F3303302F8E1
:10106000083096FBF0F308F1010800FB136601E07D
:101070000A2E06DB96FBF1F0303002F8080008F18A
:10108000010896FBF1F001FB1060303002F8080017
:10109000A16908F1010808EB050202EB0A00081A31
:1010A000A0612078C00602D42046FFF721F9216A0A
:1010B00008AE01EB0A00206204E0D4E9012116F831
:1010C000010B9047BAF1010AF7D22078C00602D589
:1010D0002046FFF70DF96E4609E016F8010B3E2891
:1010E0000FD0D4E901219047206A401C2062B8F15A
:1010F0000108F2D22046FFF711F909B00320BDE83C
:10110000F08F206A2844206203E0D4E901213020D6
:1011100090476D1EEBD3F8E70128000002FCFFFFAB
:1011200010B5436913B1AFF3008001E0FFF752FB44
:10113000012010BD128800F1240182840022C284A3
:101140000122EDE711684FF0FF32E9E72DE9F041A8
:1011500016460C46054600F043F8036893F8010173
:10116000012807D0FF2C12D8185D80B101202C7007
:10117000BDE8F081D3F807013246214603F2071398
:10118000C7182846BC46BDE8F041002360474FF031
:10119000FF30EDE7754600F0EBF8AE460500694616
:1011A000534620F00700854618B020B5FFF750F8E9
:1011B000BDE820404FF000064FF000074FF0000858
:1011C0004FF0000BAC46ACE8C009ACE8C009ACE895
:1011D000C009ACE8C00921F007018D467047000046
:1011E00010B500F005F8001D10BD00BFB9240000C7
:1011F00000487047300000202DE9F0411F460446AA
:1012000003260168072A01F4006004DB08B116A573
:1012100005E016A503E008B115A500E015A521F02D
:1012200010002060A069C01EA0610FB1401EA06127
:101230002046FFF75DF84FB1D4E9012138469047C9
:10124000206A401C2062C01C206206E0206AFAE787
:10125000D4E9012115F8010B9047761EF8D22046FB
:10126000FFF75CF8BDE8F0814E414E006E616E0004
:10127000494E4600696E66002DE9F04781461646E4
:101280008AB0354878440DC88DE80D00324878445E
:10129000801C03AC0DC884E80D0041F69B30084467
:1012A000372190FBF1F290FBF1F5A5F1800501FBF0
:1012B00012041B3C02D56442012000E00020DFF84C
:1012C00098A080460027FA44AAF1BE0A0EE0E00783
:1012D0000AD03246684607EB470101230AEB810139
:1012E00002F077F88DE8070064107F1C002CEED127
:1012F000194F7F44AE3F19E0E80715D007EB041003
:101300000DF1180A90E80E008AE80E00C068F0425D
:1013100001D1981908903246012306A903A802F0CA
:1013200058F803AB83E807006D10641C002DE3D16F
:101330004FF0010332466946B8F1000F03A802D00E
:1013400002F032F801E002F044F8C9E90001C9F8FE
:1013500008200AB0BDE8F0873825000010B5044623
:10136000AFF300802046BDE81040FEF75CBF0000F0
:1013700000487047100000204FF0013C50F8042B4B
:1013800051F8043B9A4221D1A2EB0C03934313EA98
:10139000CC1317D150F8042B51F8043B9A4215D1C5
:1013A000A2EB0C03934313EACC130BD150F8042B9C
:1013B00051F8043B9A4209D1A2EB0C03934313EA80
:1013C000CC13DBD04FF00000704700BFD01A01BA39
:1013D000B1FA81F101F0180122FA01F0CB40DBB241
:1013E000C0B2C01AC1F120012CFA01F3D11A914305
:1013F00011EAC311E6D1704701491820ABBEFEE7E0
:101400002600020070470000FEE700007047000061
:10141000EFF3108072B600BFFEE70000014690F8BF
:101420002100022816D10868D1E90FC3026822F012
:101430000E020260026822F001020260012000FA3E
:1014400003F2CCF8042081F821000020002281F86A
:1014500020207047042088630120002281F820208A
:101460007047000080B590F82110022924D102684D
:10147000116821F00E0111602F211368C4F20201DE
:101480008A4240F20401C4F2020123F00103136016
:1014900016DD3023C4F202039A421DD04423C4F265
:1014A00002039A421CD05823C4F202039A421DD16F
:1014B0004FF4803322E000BF04218163012080BD0E
:1014C0000823C4F202039A420ED01C23C4F2020382
:1014D0009A420BD1102311E04FF480730EE000BF4D
:1014E0004FF480530AE000BF012307E001F1680CCC
:1014F0004FF08073624508BF4FF480130B600121E9
:1015000080F82110426B002180F820100AB190472A
:101510000021084680BD00002DE9F04F82B00E6822
:10152000002E00F0038141F20042C4F201020423C4
:1015300040F2004E904208BF03234FF6FF7CC4F2F6
:10154000010E009300240123C1F2100C4FF0000A99
:101550004FF0000949E000BF012704F00C030F22FF
:101560009A402BEA020207FA03F34FEA9A051A435C
:1015700046F82520D1F804B040F20C455FEACB22B2
:10158000DEF8082054BF22EA080242EA0802C4F248
:101590000105CEF808202A685FEA8B2354BF22EAAF
:1015A000080242EA08022A605FEA8B33DEF8042070
:1015B00054BF22EA080242EA08025FEACB33CEF8BF
:1015C0000420DEF800204FF0010354BF22EA080295
:1015D00042EA0802CEF800200E680AF1010A36FA43
:1015E0000AF204F1040400F0A18003FA0AF816EAF2
:1015F000080FF1D04E68664512DC122E56D8DFE88F
:1016000006F0350B454955555555555555555555C4
:101610005555554D510000BFD1F80C9046E000BF24
:101620004FF6FF72C1F2210296420FDC0022C1F296
:10163000110296421AD00022C1F21202964215D02F
:101640000022C1F22102964210D02FE00022C1F206
:10165000220296420AD00022C1F23102964205D0FF
:101660000022C1F23202964220D100BF8A684AB1FC
:10167000012A14BFC0F81480C0F810804FF0080988
:1016800014E000BF4FF0040910E000BFCA6802F187
:1016900008090BE04FF0000908E000BFCA6802F13A
:1016A000040903E0CA6802F10C0900BF224606469D
:1016B000BAF1080F24BF203A043637680F25954049
:1016C00027EA050509FA02F22A433260CA79D206EE
:1016D0007FF582AF41F21803C4F202031A68AEF537
:1016E0007E7642F001021A601A6802F0010201924D
:1016F000019A2AF0030256F802B040F60002C4F242
:101700000102904210D040F60042C4F20102904221
:101710003FF422AF41F20002C4F20102009F904266
:1017200008BF022719E700BF002716E702B0BDE88F
:10173000F08F0000002A08BF090401617047000013
:1017400040F24010C2F200000068704740F2000012
:1017500040F24011C2F20000C2F2000100780A68B3
:10176000104408607047000080B542F20000C4F2E7
:101770000200016841F010010160032000F08EF8C2
:101780000F2000F005F800F027F8002080BD0000D1
:1017900070B540F20006C2F2000640F2080132784D
:1017A000C2F200014FF47A730968B3FBF2F2044607
:1017B000B1FBF2F1084600F063FB0F2C4FF001057E
:1017C00008D838B94FF0FF3021460022002500F03C
:1017D00039F87460284670BD82B041F21800C4F236
:1017E00002000168022241F001010160016801F07C
:1017F000010101910199416841F0805141604068C7
:1018000000F08050009000980420C4F201000168AC
:1018100062F31A61016002B070470000002848BFFF
:101820007047C1B200F01F00012202FA00F04EF230
:101830000012CEF2000242EAD10121F00301086059
:101840007047000010B54EF60C5CCEF2000CDCF8D0
:101850000030C3F3022E8EF00704042C28BF0424AA
:10186000BEF103034FF0FF3E0EFA04F438BF00232D
:10187000A14399400EFA03F39A43114300F00F027B
:1018800000F160430901043A03F56443624400280F
:1018900048BF02F10C03197010BD00004EF60C5148
:1018A000CEF200010A684FF6FF031A4060F30A22E5
:1018B00042F0806040F0FD70086070472DE9F04311
:1018C00081B0002800F0858042F20008C4F20208CE
:1018D0000446D8F800000D4600F0070088420CD2FC
:1018E000D8F8000020F007002843C8F80000D8F816
:1018F000000000F00700A8426BD1206841F2040903
:101900008107C4F2020917D5410705D5D9F800109F
:1019100041F4E061C9F80010010705D5D9F80010BD
:1019200041F46051C9F80010D9F80010A26821F004
:10193000F0011143C9F80010C00741D1D8F80000E8
:1019400000F00700A8420CD9D8F8000020F00700EA
:101950002843C8F80000D8F8000000F00700A842AB
:1019600037D12068410707D5D9F80010E26821F483
:10197000E0611143C9F80010000708D5D9F800004C
:10198000216920F4605040EAC100C9F80000D9F88C
:10199000002002F00C00082841F20020C0F27A007A
:1019A00050D143F2F273C2F38341C0F60003595C95
:1019B000D2033BD440F60010C0F23D00484341E062
:1019C000606802280AD001282AD159F8041C89032A
:1019D00008D4012001B0BDE8F08300BF59F8041C11
:1019E0008901F6D5D9F8001021F003010843C9F8A0
:1019F0000000FFF7A5FE064641F28837D9F800003F
:101A0000616800F00C00B0EB810F97D0FFF798FEF3
:101A1000801BB842F2D9032001B0BDE8F08300BFBB
:101A200059F8041C8907D4D5DCE700BFD9F8002099
:101A300043F2F073C2F34042C0F600039A5C48439D
:101A4000B0FBF2F0D9F8001043F2D872C1F30311E1
:101A5000C0F60002515C40F2080220FA01F140F2A7
:101A60000400C2F200000068C2F200021160FFF739
:101A70008FFE002001B0BDE8F083000040F20800B6
:101A800041F20401C2F20000C4F2020100680968D8
:101A900043F2E872C1F30221C0F60002515CC84073
:101AA0007047000040F2080041F20401C2F2000059
:101AB000C4F202010068096843F2E872C1F3C2216E
:101AC000C0F60002515CC840704700002DE9F041AB
:101AD00082B0002868D00446007841F20006C007B2
:101AE000C4F2020625D0706800F00C0004281BD058
:101AF000706800F00C00082802D17068C00313D48D
:101B00006068002800F06881B0F5A02F00F07C81AB
:101B1000B0F5803F00F07C81306820F48030306088
:101B2000306820F4802076E13068800301D5606859
:101B3000D0B32078800718D5706810F00C0F07D04C
:101B4000706800F00C0008286ED17068C0036BD478
:101B50003068800702D52069012825D13068616985
:101B600020F0F80040EAC1003060207800071FD460
:101B70002078400732D4E56995B1706800F00C0018
:101B8000082840F08F80012D0ED07068216A00F483
:101B900080328A4208D1616A00F47010884203D111
:101BA000002002B0BDE8F081012002B0BDE8F08164
:101BB000A069002862D00020C4F242200121C0F8B0
:101BC0008014FFF7BDFD0546706A800700F18C8028
:101BD000FFF7B6FD401B0228F6D92AE1F06910F0A4
:101BE000805808D1F06940F08050F061F06900F051
:101BF00080500090009847F20007C4F20007386850
:101C0000C00529D4386840F480703860FFF798FD2B
:101C1000054600BF3868C0051ED4FFF791FD401B84
:101C20006428F7D905E100BF2069002840F20000D0
:101C3000C4F2422000F0828001210160FFF780FDA4
:101C4000054600BF306880073FF588AFFFF778FD95
:101C5000401B0228F6D9ECE0E068002800F0808004
:101C6000052800F09780012800F09880306A20F065
:101C700001003062306A20F0040092E00020C4F2DB
:101C800042200021C0F88014FFF75AFD054600BF2E
:101C9000706A80077FF56CAFFFF752FD401B02288A
:101CA000F6D9C6E00027C4F2422700203866FFF7C5
:101CB00047FD022D05460BD13068800140F1BE8002
:101CC000FFF73EFD401B02284FF00300F4D968E700
:101CD000306880017FF564AFFFF732FD401B0228BA
:101CE0004FF00300F4D95CE740F20800C2F20000B4
:101CF000006844F6D351C1F26201A0FB0101480A19
:101D0000019000BF00BF0198411E002801913FF4DF
:101D10002FAF00BF0198411E002801913FF428AF6A
:101D200000BF0198411E002801913FF421AF00BF80
:101D30000198411E00280191E4D119E700210160BA
:101D4000FFF7FEFC054600BF306880077FF50DAF4A
:101D5000FFF7F6FC401B02284FF00300F4D920E700
:101D6000306A20F001003062306A20F004003062F6
:101D7000FFF7E6FC054641F2883700BF306A80076E
:101D800020D5FFF7DDFC401BB8424FF00300F5D92A
:101D900007E700BF306A40F004003062306A40F06C
:101DA00001003062FFF7CCFC054641F2883700BFE6
:101DB000306A800706D4FFF7C3FC401BB842F7D94E
:101DC00037E000BFB8F1000F7FF4D5AEF06920F026
:101DD0008050F061CFE600BF306820F48030306082
:101DE000306820F480203060FFF7AAFC054600BF71
:101DF000306880037FF59DAEFFF7A2FC401B64288E
:101E00004FF00300F4D9CCE6306840F48020306015
:101E1000306840F480303060FFF792FC054600BF28
:101E2000306880033FF585AEFFF78AFC401B6428CD
:101E3000F6D9032002B0BDE8F08100BF206AB0F5FA
:101E4000803F05D17168A26821F4003111437160AF
:101E50007168626A21F474111143084370600120B3
:101E60003866FFF76DFC0446306880013FF598AE98
:101E7000FFF766FC001B02284FF00300F4D990E640
:101E8000411E0020B0EB116F1CBF012070474EF2C5
:101E90001002CEF2000251604EF62351CEF2000144
:101EA000F0230B70072190601160704770470000AD
:101EB00070470000B0B582B0044600680168C3688E
:101EC000426901F02F05202D03F0200506D12DB128
:101ED000204602B0BDE8B04000F0A8BC5FEA017C3B
:101EE0001EBF02F0010E03F4907212EB0E0253D1EA
:101EF000226B012A05D111F0100218BF13F0100255
:101F000036D10A0622D513F080021FD094F8411072
:101F100021293FD1A168B1F5805F03D12169002952
:101F200000F07082216A4A1C226209784160E18CCB
:101F300001390A04E1842DD1C16821F08001C1601A
:101F4000C16841F04001C16002B0B0BD490621D571
:101F500013F040011ED0C16821F04001C160202172
:101F6000204684F8411002B0BDE8B04000F0F0BB5C
:101F70000021019101680191416801910199406935
:101F8000400613D4A08DE18DE28D002A18BF88424F
:101F900040F0BA8102B0B0BDCA0718BF13F4807216
:101FA00040F0B6804A0700F1B980BEE0E06B0168FE
:101FB00049688AB2002AEDD0A38D9A42EAD2E1851F
:101FC0008069202800F09C80206850E8030F216879
:101FD00020F4807041E80302DAB1206850E8030F72
:101FE000216820F4807041E8030292B1206850E833
:101FF000030F216820F4807041E803024AB1206891
:1020000050E8030F216820F4807041E80302002AA1
:10201000DAD1206850E8050F216820F0010041E87E
:102020000502DAB1206850E8050F216820F00100B0
:1020300041E8050292B1206850E8050F216820F0C0
:10204000010041E805024AB1206850E8050F216807
:1020500020F0010041E80502002ADAD1206850E8AA
:10206000050F216820F0400041E80502DAB1206840
:1020700050E8050F216820F0400041E8050292B1C8
:10208000206850E8050F216820F0400041E8050273
:102090004AB1206850E8050F216820F0400041E86F
:1020A0000502002ADAD1202084F8420000202063B3
:1020B000206850E8030F216820F0100041E8030277
:1020C000DAB1206850E8030F216820F0100041E8E1
:1020D000030292B1206850E8030F216820F010003D
:1020E00041E803024AB1206850E8030F216820F05C
:1020F000100041E80302002ADAD1E06BFFF78EF905
:1021000002206063A08DE18D401A81B2204674E107
:10211000626C42F0010262644A0706D5BEF1000F0C
:1021200003D0626C42F0020262648A0706D5BEF1F7
:10213000000F03D0626C42F004026264BCF1000F35
:1021400009D545EA0E02B2FA82F2520903D1626C55
:1021500042F008026264626C002A3FF41BAF11F087
:10216000200118BF002D03D0204600F05FFB20683F
:102170004069616C00F0400001F00801401800F077
:10218000B58000BF206850E8030F216820F49070EC
:1021900041E80302BAB3206850E8030F216820F435
:1021A000907041E8030272B3206850E8030F216881
:1021B00020F4907041E803022AB3206850E8030F2E
:1021C000216820F4907041E80302002ADAD11AE075
:1021D000206850E8050F216820F0010041E8050261
:1021E000DAB1206850E8050F216820F0010041E8CD
:1021F000050292B1206850E8050F216820F0010027
:1022000041E805024AB1206850E8050F216820F036
:10221000010041E80502002ADAD1206B012824D10F
:10222000206850E8030F216820F0100041E8030205
:10223000DAB1206850E8030F216820F0100041E86F
:10224000030292B1206850E8030F216820F01000CB
:1022500041E803024AB1206850E8030F216820F0EA
:10226000100041E80302002ADAD1202084F842005D
:10227000002020632068406940063FD5206850E870
:10228000050F216820F0400041E80502DAB120681E
:1022900050E8050F216820F0400041E8050292B1A6
:1022A000206850E8050F216820F0400041E8050251
:1022B0004AB1206850E8050F216820F0400041E84D
:1022C0000502002ADAD1E06BC0B142F62101C0F666
:1022D00000014163FFF7C6F800283FF45BAEE06BF6
:1022E000416B02B0BDE8B040084700BF2046FFF791
:1022F000DFFD0020606402B0B0BD00BF204602B028
:10230000BDE8B040FFF7D4BD401A216851E8031F73
:10231000226821F4907142E80313DBB1216851E88F
:10232000031F226821F4907142E8031393B12168DE
:1023300051E8031F226821F4907142E803134BB166
:10234000216851E8031F226821F4907142E80313C9
:10235000002BDAD1216851E8051F226821F0010124
:1023600042E80513DBB1216851E8051F226821F01E
:10237000010142E8051393B1216851E8051F226865
:1023800021F0010142E805134BB1216851E8051F16
:10239000226821F0010142E80513002BDAD1202147
:1023A00084F8421000212163216851E8031F22684C
:1023B00021F0100142E80313DBB1216851E8031F4B
:1023C000226821F0100142E8031393B1216851E81B
:1023D000031F226821F0100142E803134BB121686A
:1023E00051E8031F226821F0100142E80313002B7B
:1023F000DAD1022281B22046626302B0BDE8B04069
:10240000FFF754BD216A31F8022B6FF35F2242605F
:1024100021628CE5002804BF0120704710B50446F6
:1024200090F8410028B9002084F84000204600F0D0
:1024300063F8242084F841002068D4E90212C368BC
:1024400023F40053C360036923F440531A43026129
:10245000D4E904231143C268194341F20C639A433F
:102460001143C1604169A26921F44071114343F6EF
:102470000002C4F201029042416103D0FFF7FEFA6C
:1024800002E000BFFFF70EFB62681921484391008C
:10249000B0FBF1F048F21F51C5F2EB11A0FB012394
:1024A0005A094FF69C73C0F6FF7302FB03003223F8
:1024B00003EB0010A0FB0101F02303EA5113206895
:1024C00003EB0212C1F3431111448160016921F44D
:1024D00090410161416921F02A014161C16841F4E3
:1024E0000051C16000202021606484F8411084F80C
:1024F0004210606310BD000070B586B040F6000465
:10250000C4F201040068A4F5444100268842049600
:1025100002D006B070BD00BF41F21800C4F2020044
:10252000416802AD41F400314160416801F400317D
:1025300001910199016841F0040101600068294698
:1025400000F0040001900198042002900220039002
:10255000032005902046FEF7DFFF0820CDE90206A4
:10256000204629460496FEF7D7FF262000210022A8
:10257000FFF768F92620FFF751F906B070BD00009B
:1025800090F84230202B1CBF0220704700294FF0EA
:10259000010318BF002A01D11846704700230363C6
:1025A000816222218285C285436480F842100169DC
:1025B000006819B1C16841F48071C16041690023AC
:1025C00041F001014161C16841F02001C16018463C
:1025D0007047000000F0F6BB2DE9F041044690F88A
:1025E000410020281CBF0220BDE8F0810D460029D3
:1025F0004FF0010000F0AA801646002A08BFBDE88F
:10260000F081002060642120984684F84100FFF7A3
:1026100097F8A684E684A1680646B1F5805F02D1EA
:102620002069002862D02F460025E08C002861D068
:1026300018F1010018D0B8F1000F37D1216808E077
:1026400017F8010B4860E08C0138E084E08C00282A
:1026500051D00868000673D5002FF1D135F8020B70
:1026600000276FF35F20EDE7216802E008680006AD
:1026700009D40868000606D4086800065CBF08682C
:102680005FEA0060F2D51FB117F8010B05E000BF4B
:1026900035F8020B00276FF35F204860E08C0138AB
:1026A000E084E08C0028E4D125E000BF216800BF71
:1026B0000868000608D4FFF743F8801B404541D85E
:1026C0002168C868F4E700BF17B117F8010B04E0F0
:1026D00035F8020B00276FF35F204860E08C01386B
:1026E000E084E08C0028E3D105E000BF0027E08C07
:1026F00000289DD12168086840061FD4B8F1000F5A
:102700001ED018F101000FD10868400616D40868E1
:10271000400613D40868400610D4086840064FF0FD
:102720000000F1D50FE000BFFFF70AF8801B40451D
:1027300008D82068C16800684006F5D5002002E08E
:10274000FEF7FEFF0320202184F84110BDE8F08150
:1027500070470000FEE7000070B584B041F2180039
:10276000C4F20200016841F2000441F0100101606E
:102770000168C4F2010401F01001009100990168A0
:10278000002241F02001016001684FF4005501F082
:102790002001009100990168002641F004010160C8
:1027A00000684FF4005100F00400009000982046AB
:1027B000FEF7C0FF0120CDE9010602200390694623
:1027C00020460095FEF7A8FE04B070BD80B540F22B
:1027D000740044F20041C2F20000C4F20001002380
:1027E0004FF00C0C4FF4E13280E80E00C0E90333E7
:1027F000C0E905C3C361FFF70DFE002808BF80BD17
:10280000BDE88040FEF704BEFEE70000FEE70000E2
:102810007047000070470000FEF798BF7047000047
:10282000406A0021C185C184FFF742BB81B090F8A6
:102830004210222921D183680246B3F5805F09D175
:1028400052F8281F52F8183C002B63D003685B68CD
:102850000AE000BF52F8281F13B90369002BF5D016
:1028600003685B6803F07F030B701168013111602E
:10287000C18D01390A04C18502D001B0704700BF83
:102880000168CA6822F02002CA60CA6822F4807215
:10289000CA604A6922F001024A61202180F8421090
:1028A00000214163026B012A3CD10163016851E8B8
:1028B000031F026821F0100142E80313DBB1016835
:1028C00051E8031F026821F0100142E8031393B19D
:1028D000016851E8031F026821F0100142E8031368
:1028E0004BB1016851E8031F026821F0100142E872
:1028F0000313002BDAD101680A68D20606D500223C
:1029000000920A680092496800910099818D01B097
:10291000FFF7CCBA026852686FF35F2221F8022BEE
:102920008162A5E701B0FFF755BE000040F27400D8
:10293000C2F20000FFF7BEBAFEE7000080B5022831
:102940000ED0012810D098B901293BD000293DD1E3
:1029500000F024FA43F69103C0F600033AE000BF0A
:1029600061B120A336E000BF41B328A332E000BF2D
:1029700043F6B503C0F600032CE000BF43F60200A7
:10298000C0F6000000F042FA43F66B00C0F600000B
:1029900000F03CFA43F64500C0F6000000F036FABD
:1029A00043F6E800C0F6000000F030FA43F60E10DF
:1029B000C0F60000BDE8804000F028BABDE88040C5
:1029C00000F05CB800F0F4F91AA303E043F6CF037B
:1029D000C0F60003012000210022BDE8804000F085
:1029E00087B900BF5B44454255475D20556E6B6E0D
:1029F0006F776E2076616C756520666F7220434D2F
:102A00004420307830320D0A000000005B4445421B
:102A100055475D20556E6B6E6F776E2076616C75D5
:102A20006520666F7220434D4420307830310D0AA6
:102A3000000000005B44454255475D20434D445F24
:102A40004C45445F4F4E3A2050433133204C45446F
:102A5000204F4E0D0A00000080B500F0CFF804A30F
:102A6000012000210022BDE8804000F041B900BFF4
:102A700053797374656D20626F6F7400B0B543F65F
:102A80001A04C0F60004204600F0C0F940F2BC056C
:102A9000C2F2000543F65A1243F6A813C0F600022C
:102AA000C0F6000328468021FDF702FC284600F00E
:102AB000ADF943F66E1243F68213C0F60002C0F67B
:102AC000000328468021FDF7F3FB284600F09EF91D
:102AD00043F63212C0F6000221A328468021FDF7FA
:102AE000E7FB284600F092F943F6461243F69813A6
:102AF000C0F60002C0F6000328468021FDF7D8FB8F
:102B0000284600F083F918A21CA328468021FDF76F
:102B1000CFFB284600F07AF91BA220A3284680218B
:102B2000FDF7C6FB284600F071F91FA22846802158
:102B30000123FDF7BDFB284600F068F91FA22846D7
:102B400080214FF4E133FDF7B3FB284600F05EF936
:102B500021A000F05BF92046BDE8B04000F056B976
:102B60004B656E746F0000004275696C64204461AF
:102B700074652020203A2025730D0A0041707220D0
:102B800032382032303236004275696C6420546924
:102B90006D652020203A2025730D0A0031313A342A
:102BA000323A343400000000426F6F7420436F7576
:102BB0006E742020203A2025640D0A004465627559
:102BC0006720554152542020203A205553415254F9
:102BD000322025640D0A000050726F746F636F6CB1
:102BE00020202020203A20464620434D44205641B4
:102BF0004C55452046460D0A0000000040F270008A
:102C0000C2F20000002101808170704770B592B05F
:102C100040F27005C2F20005297803291DD8DFE8CB
:102C200001F003070F1700BFFF281BD012B070BDC3
:102C3000FF28FBD068700220287012B070BD00BF62
:102C4000FF280EBF0120A8700320287012B070BDAD
:102C5000FF280BD00FA000F0D9F80020287012B088
:102C600070BD00BF0120287012B070BD6B78AC78C9
:102C700002AE0EA2304640210094FDF719FB30460B
:102C800000F0C4F86878A978FFF758FE0020287093
:102C900012B070BD5B44454255475D20496E766178
:102CA0006C6964206672616D650D0A005B44454283
:102CB00055475D205258204652414D453A204646E0
:102CC000202530325820253032582046460D0A0043
:102CD000006844F20041C4F20001884218BF704706
:102CE00040F23C10C2F200000078FFF78FBF0000F6
:102CF000002B08BF70472DE9F041D4B05AAD0DF15B
:102D0000D00816460C460746404680211A462B46F8
:102D10000395FDF7AFFA032F1CD8DFE807F0030592
:102D20000B0F00BF1AA200E016A204A834ABC0210A
:102D30000BE000BF00960EA202E000BF07A20096C3
:102D400004A8C0212346CDF80480FDF7B1FA04A8F9
:102D500000F05CF854B0BDE8F04170475B4552525A
:102D6000205D2025733A2564207C2025730D0A0000
:102D70005B5741524E5D2025733A2564207C202507
:102D8000730D0A005B494E464F5D2025730D0A0006
:102D90005B444247205D2025730D0A0041F200008C
:102DA000C4F201004FF400510122FEF7C3BC000041
:102DB00041F20000C4F201004FF400510022FEF77E
:102DC000B9BC000080B5016844F20042C4F20002C0
:102DD000914218BF80BDFFF77BFF40F2740040F2C4
:102DE0003C11C2F20000C2F200010122BDE88040A5
:102DF000FFF7C6BB40F2740040F23C11C2F2000083
:102E0000C2F200010122FFF7BBBB0000002808BF8F
:102E1000704710B50446FDF705FC82B240F274001D
:102E2000C2F2000021464FF0FF33BDE81040FFF72B
:102E3000D3BB000090B0FEF797FC00240120CDE941
:102E40000B44CDE9094406900A904FF4E0104FF48A
:102E5000803102250F9006A8CDE90714CDE90D5168
:102E6000FEF734FE20B1EFF3108072B6FEE700BF2C
:102E70000F20CDE901054FF48060CDE9040401A8DD
:102E800002210394FEF71AFD20B1EFF3108072B611
:102E9000FEE700BFFFF760FCFFF798FCFFF77EFF3F
:102EA000FFF7DAFDFFF7EAFDFFF7A4FFFEE75FEAB1
:102EB000400C08BF91F0000F4FEA8C234FEAC1226B
:102EC00043EA51514FEA1C5018BF00F5F0404FEA59
:102ED000300018BF41F000415FEA6C5C00F02980CF
:102EE000BCF1FF3F08BF40F080407047130C06BFA5
:102EF00012044FF0100C4FF0000C130E04BF12021E
:102F00000CF1080C130F04BF12010CF1040C930F09
:102F100004BF92000CF1020CD30F04BF52000CF15D
:102F2000010C11464FF00002A0F11F00A0EB0C00B5
:102F3000704711F0004F08BF704731F000413FF477
:102F4000D5AF0B0C06BF09044FF0100C4FF0000C6E
:102F50000B0E04BF09020CF1080C0B0F04BF090192
:102F60000CF1040C8B0F04BF89000CF1020CCB0F89
:102F700004BF49000CF1010CCCF1200322FA03F349
:102F800041EA030102FA0CF2A0EB0C0000F101008F
:102F90007047000023F07F4720F07F4C80EA030059
:102FA00000F00040ACEB070303F57C5303F1FF0393
:102FB0002DE9804909B44FEA144324EA03484FEA53
:102FC000154B25EA0B4E0FF2042606EB13273E782D
:102FD00003FB0667C7F5000707FB06F64FEAD64670
:102FE00006F102064FEA543707FB066CCCF1005C91
:102FF0004FEA1C472CEA074C0CFB06F507FB06F4CE
:1030000004EB15464FEA961649085FEA320234BFD0
:1030100000204FF000404FEAD13706FB07FC4FEA93
:103020001C4C0CFB0BF7D21B03FB0CF761EB0701ED
:103030000CFB0EF7B0EB074072EB17420CFB08F7E6
:1030400034BFA2EB0742B2EB074261EB17414FEAF4
:103050000C444FEA910706FB07FC4FEA1C4C0CFBA3
:103060000BF7B0EBC74072EB573203FB0CF734BFE2
:10307000A2EBC742B2EBC74261EB57310CFB0EF734
:10308000B0EBC70072EB57720CFB08F734BFA2EB32
:10309000C702B2EBC70261EB57714FEA816141EAA7
:1030A00092114FEA826242EA90124FEA806004EB8A
:1030B000CC04039F4FEAD13706FB07FC4FEA1C4CB8
:1030C0000CFB0BF7D21B03FB0CF761EB07010CFBAE
:1030D0000EF7B0EB074072EB17420CFB08F734BF5A
:1030E000A2EB0742B2EB074261EB17414FEA8C5566
:1030F00004EB9C244FEA910706FB07FC4FEA1C4CAB
:103100000CFB0BF7B0EBC74072EB573203FB0CF72D
:1031100034BFA2EBC742B2EBC74261EB57310CFBA5
:103120000EF7B0EBC70072EB57720CFB08F734BF19
:10313000A2EBC702B2EBC70261EB57714FEA8161A4
:1031400041EA92114FEA826242EA90124FEA8060AD
:1031500015EB4C2544F100044FEAD13706FB07FC80
:103160004FEA1C4C0CFB0BF7D21B03FB0CF761EB7B
:1031700007010CFB0EF7B0EB074072EB17420CFB9C
:1031800008F734BFA2EB0742B2EB074261EB1741ED
:103190004FEA813141EA92414FEA823242EA90425B
:1031A0004FEA80304FEA0C7615EB1C1544F1000411
:1031B00048EA03434EEA0B484FF0000EB2EB080C0E
:1031C00071EB030724BF624639464EEB0E0E4FF0FB
:1031D000000B0018524149414BEB0B0BB2EB080CB2
:1031E00071EB03077BF1000B24BF624639464EEBBF
:1031F0000E0E4FF0000B0018524149414BEB0B0BE8
:10320000B2EB080C71EB03077BF1000B24BF6246A5
:1032100039464EEB0E0E51EA020718BF46F0010682
:1032200016EB0E7655F1000254F1000103D5BDE80E
:103230008901BDE80088BDE88901BDE80048B619EC
:10324000524141EB0101A3F10103704780807F7E71
:103250007D7C7B7A7978777676757473727171700C
:103260006F6E6E6D6C6C6B6A6A69686867666665BE
:103270006464636362616160605F5F5E5E5D5D5C4C
:103280005C5B5B5A5A5959585857575656555555BD
:103290005454535352525251515050504F4F4F4E1D
:1032A0004E4D4D4D4C4C4C4B4B4B4A4A4A4949496B
:1032B00048484847474747464646454545444444AD
:1032C0004443434343424242424141419C46002BD6
:1032D00030D477002BD04FEA37071CB503B44FF03A
:1032E00010004FF01001BAF1000F06D0BCF1000F32
:1032F000DCBF40F0080040F008014FF000000FBCB8
:10330000BDE810400BF1010BBBF1010F08BF5FEAF4
:10331000170722BF12F1010211F101014FF0004124
:1033200043F1000300F0004043EA00007047F9D386
:103330005708D0E746EA06464FEA164613F1400F13
:103340001FDD13F1200FDFBF16430A460021203393
:103350005B42BED0C3F1200746EA06464FEA164656
:1033600002FA07F746EA070622FA03F2C3F120073A
:1033700001FA07F742EA070221FA03F14FF00003CE
:10338000A7E746EA020646EA06464FEA164646EA36
:103390000106BCBF46EA0646360C4FF000034FF06C
:1033A00000024FF0000194E72DE9804C70B49A467A
:1033B000934691E8380007C831EA400C48BF34EA28
:1033C000430C03D5FFF7E6FDFFF780FFF0BCBDE837
:1033D000008C2DE9804C70B49A46934691E83800F1
:1033E00007C810F0804F08BF13F0804F03D100F0E2
:1033F00005F8FFF76BFFF0BCBDE8008C20F07F47BD
:1034000023F07F4C80EA030000F0004007EB0C0340
:10341000A3F57C53A3F1FE0392F0000F00F0B380FC
:1034200095F0000F00F077802DE901494FEA114037
:1034300021EA00484FEA144624EA064700FB06FC4E
:1034400008FB06F607FB08F818EB06484CEB164C91
:1034500000FB07F718EB07484CEB17404FEA124BFD
:1034600022EA0B4E4FEA154625EA06470BFB06FCFF
:103470000EFB06F607FB0EFE1EEB064E4CEB164C43
:103480000BFB07F71EEB074E4CEB174B18EB0B082B
:1034900040F1000018EB0E0B58EB000840F1000063
:1034A0008F1A4FF000014FF000063CBFC943661B66
:1034B00014BFB5EB040C00213CBFC943F61B4FEA17
:1034C000174427EA04454FEA1C472CEA074C04FB43
:1034D000076205FB07F70CFB05F616EB074642EB08
:1034E000174204FB0CFC16EB0C4642EB1C421BEB98
:1034F000060658EB020241414EEA8E0E46EA9E064F
:1035000001D5BDE80189B619524141EB0101A3F192
:103510000103BDE801894FEA144524EA05464FEA54
:10352000114721EA074C05FB07F406FB07F70CFBE4
:1035300006F111EB074144EB174405FB0CFC11EBC2
:103540000C4144EB1C444FEA124722EA074C05FBAE
:1035500007F206FB07F70CFB06F616EB074642EBF5
:10356000174205FB0CFC16EB0C4642EB1C456A1897
:1035700054F1000148BF7047B619524141EB0101B7
:10358000A3F10103704795F0000F37D04FEA1142C5
:1035900021EA02464FEA144724EA074C02FB07F1EE
:1035A00006FB07F70CFB06F414EB074441EB17414D
:1035B00002FB0CFC14EB0C4441EB1C414FEA154799
:1035C00025EA074C02FB07F506FB07F70CFB06F69E
:1035D00016EB074645EB174502FB0CFC16EB0C46B9
:1035E00045EB1C42121951F1000148BF7047B61952
:1035F000524141EB0101A3F1010370474FEA144529
:1036000024EA05464FEA114721EA074C05FB07F17A
:1036100006FB07F70CFB06F212EB074241EB1741E2
:1036200005FB0CFC12EB0C4251EB1C414FF0000669
:1036300048BF7047921841EB0101A3F101037047A5
:10364000490050EAC12018BF04204A0D18BF40F0BD
:10365000010040F2FF72B2EB515F08BF40F0020080
:10366000012808BF0520704730380A2801D2012000
:10367000704700207047000010B500290AD0087874
:10368000002807D005487844FDF776FE002801D0D1
:10369000002010BD0248784410BD00006203000005
:1036A0005A03000010B500290AD00878002807D076
:1036B00005487844FDF760FE002801D0002010BDC9
:1036C0000248784410BD0000520300004A03000085
:1036D000FDF771BAFDF7A6BB3031323334353637DA
:1036E0003839414243444546403058003031323346
:1036F0003435363738396162636465664030780046
:1037000004000008000000000000000200010000AA
:1037100010000000000000000000000030313233D3
:1037200034353637383961626364656678700030E5
:1037300031323334353637383941424344454658BF
:103740005000000002400000000000A00000000047
:1037500005400000000000C8000000000C40000010
:103760000000409C00000000194000000020BCBE8A
:103770000000000034400000BFC91B8E00000004A0
:10378000B5400000504BCFD06607E2CF01000000EB
:103790006C4100003E8251AADFEEA7340100000018
:1037A000D9420000DCB5A0E23A301F97FFFFFFFFCF
:1037B000B4450000FD25A0C8E9A3C14FFFFFFFFFEE
:1037C000FF3F00000000008000000000FF3F0000FD
:1037D0000000008000000000000000000000000069
:1037E00001020304060708090000000001020304A7
:1037F000010202030405060708090A0B0C0D0E0F4F
:1038000010105B44454255475D20436F6D6D616EFE
:1038100064204C6973743A0D0A003D3D3D3D3D3DC9
:103820003D3D3D3D3D3D3D3D3D3D3D3D3D3D3D3DC8
:103830003D3D3D3D3D3D3D3D3D3D3D3D3D3D3D3DB8
:103840003D3D0D0A002020464620303020303120FA
:10385000464620202D3E205475726E204F4E20206B
:1038600050433133204C45440D0A00202046462069
:10387000303020303020464620202D3E20547572B6
:103880006E204F46462050433133204C45440D0AAC
:10389000005B44454255475D20434D445F4C4544E1
:1038A0005F4F46463A2050433133204C4544204F29
:1038B00046460D0A005B44454255475D20556E6BF8
:1038C0006E6F776E20636F6D6D616E640D0A005BC5
:1038D00044454255475D20556E6B6E6F776E2020D4
:1038E00076616C75650D0A00202046462030312037
:1038F000303020464620202D3E205072696E7420C4
:1039000073797374656D20696E666F0D0A002020EF
:10391000464620303220303020464620202D3E20A2
:103920005072696E7420746869732068656C700DDC
:103930000A00417574686F72202020202020203AF0
:103940002025730D0A0053747564656E7420494414
:103950002020203A2025730D0A0050726F6A65639B
:1039600074204E616D65203A2025730D0A0046696A
:10397000726D7761726520526F6C653A2025730D08
:103980000A004D61696E20436F6E74726F6C6C65D6
:10399000722053544D333200544F444F5F535455AB
:1039A00044454E545F4944004C696272617279200B
:1039B00053656174204D616E6167656D656E74203D
:1039C00053797374656D0000183B000800000020F7
:1039D0001000000028010008283B0008100000200B
:1039E00038070000440100081C00000043000000EC
:1039F000F8FFFFFF0C0000000E0000000F000000A9
:103A00002E0000001001000043000000F8FFFFFF3F
:103A100000404040404040404040414141414140E1
:103A20004040404040404040404040404040404096
:103A30004005020202020202020202020202020225
:103A4000022020202020202020202002020202022A
:103A50000202909090909090101010101010101082
:103A6000101010101010101010101010020202028E
:103A700002028888888888880808080808080808D2
:103A800008080808080808080808080802020202CE
:103A900040000000000000000000000000000000E6
:103AA0000000000000000000000000000000000016
:103AB0000000000000000000000000000000000006
:103AC00000000000000000000000000000000000F6
:103AD00000000000000000000000000000000000E6
:103AE00000000000000000000000000000000000D6
:103AF00000000000000000000000000000000000C6
:103B000000000000000000000000000000000000B5
:103B10000000000000000000010000001000000094
:083B200000127A000000000011
:04000005080000ED02
:00000001FF
