:020000040800F2
:10000000C80A002035020008552E0008512C0008AF
:10001000512E0008F51400088D2F00080000000084
:100020000000000000000000000000005D2E00083D
:10003000F914000800000000592E0008612E000885
:100040004F0200084F0200084F0200084F0200084C
:100050004F0200084F0200084F0200084F0200083C
:100060004F0200084F0200084F0200084F0200082C
:100070004F0200084F0200084F0200084F0200081C
:100080004F0200084F0200084F0200084F0200080C
:100090004F0200084F0200084F0200084F020008FC
:1000A0004F0200084F0200084F0200084F020008EC
:1000B0004F0200084F0200084F0200084F020008DC
:1000C0004F0200084F0200084F0200084F020008CC
:1000D0004F020008752F0008812F00084F0200080A
:1000E0004F0200084F0200084F02000800F002F81B
:1000F00000F090F80AA090E8000C82448344AAF132
:100100000107DA4501D100F085F8AFF2090EBAE82F
:100110000F0013F0010F18BFFB1A43F0010318473B
:100120002477000044770000103A24BF78C878C1D3
:10013000FAD8520724BF30C830C144BF04680C60ED
:10014000704700000023002400250026103A28BF35
:1001500078C1FBD8520728BF30C148BF0B60704739
:100160006E2900F03183702900F08D81662906F038
:10017000BD85652906F0BA85672906F0B78561292E
:1001800006F0B68503681B0A28BF41F08001692983
:1001900000F0FE80642900F0FB80752900F0F880F3
:1001A0006F2900F01984782900F05981E92900F0BD
:1001B000B383E42900F0B083F52900F0AD83EF2983
:1001C00000F01684F82900F058810368DB0928BF85
:1001D00041F08001632900F03583732900F03A83F0
:1001E000E32901F01D80F32901F0228000207047EF
:1001F0001FB501F073F804000020002106F060FD37
:10020000401C60600020002106F044FDE0601FBD3E
:1002100010B510BD01F034F81146FFF7E9FF05F005
:1002200099FB01F011F903B4FFF7F2FF03BC01F0F1
:1002300059F900000948804709480047FEE7FEE7F2
:10024000FEE7FEE7FEE7FEE7FEE7FEE7FEE7FEE786
:1002500004480549054A064B70470000652E000812
:10026000ED000008C8040020C80A0020C8060020CD
:10027000C80600207CB51D4616460C00009007D02D
:100280004142A14202D32044401E01E04FF0FF3022
:10029000064B7B442A4669460190304600F0ADFA91
:1002A000002C02D0009A002111707CBD8B0500004B
:1002B0000FB41CB50C0007AA009007D04142A14220
:1002C00002D32044401E01E04FF0FF30074B7B4437
:1002D00069460190069800F090FA0021002C01D0A8
:1002E000009A11701CBC5DF814FB00004F05000063
:1002F00070B5044685690068C10601D5302600E066
:100300002026C00707D070BDD4E9012130469047B0
:10031000206A401C20626D1EF6D570BD70B5044683
:1003200085690078C00707D170BDD4E9012120207C
:100330009047206A401C20626D1EF6D570BD70B5D6
:100340000C460546012A05D02878800600D5EA69C2
:10035000002302E0012305E05B1C934202D2E05C33
:100360000028F9D1A869E618C01AA861286A1844BB
:1003700028622846FFF7BCFF04E0D5E9012114F804
:10038000010B9047B442F8D32846FFF7C7FF70BD72
:100390002DE9F0410646002410687529314616A55E
:1003A00010D000F0A6F9002802DA404213A507E0B9
:1003B00031688A0701D512A502E0490704D511A5C5
:1003C000012401E000F09EF900210A2206F1240731
:1003D00009E0B0FBF2FCB0FBF2F302FB1C00303092
:1003E00078541846491C0028F3D123462A46304643
:1003F000BDE8F04100F08FB9000000002D000000C2
:100400002B00000020000000F0B40D460188090513
:1004100002D5214C7C4402E01F4C7C440E34002168
:1004200000F1240608E002F00F071209E75D42EA36
:1004300003721B097754491C52EA0307F3D102786F
:100440000023120704D5702D06D009B10223113400
:100450002246F0BC00F05FB901231034F8E770B514
:1004600004460D462146106800F04CF90246294624
:100470002046BDE870400023C6E7D21D22F00703E6
:10048000D3E90023C0E70368126843F02003036048
:100490000823C3610023B7E7DC6800002DE9F05FA3
:1004A000894604464FF0000ADFF874B1FB44C0F8F7
:1004B00020A02046E1688847002874D0252806D06F
:1004C000D4E901219047206A401C2062F1E7002610
:1004D0005F462046E16888472028054607DB312D26
:1004E00005D2781910F8200C08B10643F1E7B007DF
:1004F00001D526F00406C4F81CA00027C4F818A0F3
:100500002A2D09D0284606F0BDFB38B304EB870836
:10051000303DC8F8185019E059F8041B204604EB88
:1005200087029161E1688847012F054618D1E0698B
:10053000002820DA26F020061DE0D8F8180000EB8D
:10054000800005EB40003038C8F818002046E1680C
:100550008847054606F096FB0028EED1012F0AD009
:100560002E2D08D12046E16888477F1C0546022FC2
:1005700046F02006C4DBA069002803DA404246F0BA
:100580000106A061F00701D026F010066C2D0BD0FB
:10059000682D09D04C2D39D06A2D35D0742D35D029
:1005A0007A2D33D016E038E0E1682F4620468847A0
:1005B000B842054609D16C2F26D04FF48060E1681F
:1005C000064320468847054604E06C2F1AD04FF4B6
:1005D000807006430DB3A5F14100192802D82035DB
:1005E00046F400664A462946204626604E46FFF7F6
:1005F000B7FD80B101280BD0F61D26F0070000F1F1
:10060000080956E74020E4E78020D8E70020D6E735
:1006100006F104094DE7284652E7206ABDE8F09F3D
:100620006C68000010B5431C02E010F8011B71B1AA
:100630008107FAD14FF0013202C88C1A8C4314EAB8
:10064000C211F9D0C01A0A0603D0C01E10BDC01ACC
:1006500010BD0A0401D0801E10BD0902FCD0401E4E
:1006600010BD032A40F2308010F0030C00F015801A
:1006700011F8013BBCF1020F624498BF11F801CBA5
:1006800000F8013B38BF11F8013BA2F1040298BF0A
:1006900000F801CB38BF00F8013B11F0030300F074
:1006A000B181083AC0F0088051F8043B083A51F88B
:1006B00004CBA0E80810F5E7121D5CBF51F8043B1D
:1006C00040F8043BAFF30080D20724BF11F8013B90
:1006D00011F801CB48BF11F8012B24BF00F8013BF2
:1006E00000F801CB48BF00F8012B704770477047F6
:1006F000704709684A0501D540B27047C905FCD565
:1007000000B2704709684A0501D5C0B27047C905F3
:10071000FCD580B270472DE9F0470D4699469246C8
:10072000044600F124080168880604D5E06921F038
:100730001001216000E00120A84201DD471B00E01C
:100740000027A1697A1902EB0900081AA061207834
:10075000C00602D42046FFF7CBFD002608E0D4E90E
:1007600001211AF806009047206A401C761C20627E
:100770004E45F4DB2078C0060AD52046FFF7B8FDC9
:1007800006E0D4E9012130209047206A401C206215
:10079000381EA7F10107F4DC07E0D4E9012118F8BD
:1007A00005009047206A401C2062281EA5F1010523
:1007B000F3DC2046FFF7B2FD2078000602D50220C8
:1007C000BDE8F0870120FBE711680268006A530565
:1007D00001D508700AE0D30501D5088006E01306AC
:1007E00003D5C217C1E9000200E00860012070478C
:1007F00001694A1C02610878704700B58FB0CDE9E5
:1008000001310021059105497944CDE903101146D4
:100810006846FFF743FE0FB000BD0000E5FFFFFF95
:10082000D1E900239A4202D2531C0B60107070472A
:1008300010B5436913B1AFF3008001E0FFF77FFD0E
:10084000012010BD127800F124010A7000224A70C4
:100850000122EDE711684FF0FF32E9E72DE9FF5F74
:1008600015468A460446DFF8AC80F8440027D8E9EC
:1008700000103E46CDE9001010E03AF816106A4626
:1008800002A800F0D9FC411C07D02178890603D5C5
:10089000E269391891420DD80744761C2078800609
:1008A00002D5E069B84205DDAE42E6DB3AF8160053
:1008B0000028E2D1A069C01BA0612046FFF718FD07
:1008C000D8E90010CDE90010002017E03AF8181020
:1008D0006A4602A800F0B0FCB0F1FF3F81460BD0A1
:1008E00000250DF1080B05E0D4E901211BF80500F6
:1008F00090476D1C4D45F7D308F10100B04280468A
:10090000E4DB206A384420622046FFF707FDBDE89B
:10091000FF9F0000C26400002DE9F0418046D21D17
:1009200022F007020025D2E90002F52915A614D00D
:10093000011E72F1000106DA0023D0EB030063EB25
:10094000020211A608E0D8F800108B0701D50FA607
:1009500002E0490701D50EA601251146002408F141
:10096000240704E000F080F830323A55641C50EA65
:100970000102F7D12B46324621464046BDE8F04100
:10098000FFF7C9BE000000002D0000002B00000092
:100990002000000030B4002100F1240408E002F03F
:1009A0000705D208303542EA4372DB086554491C1A
:1009B00052EA0305F3D10468002310A2250708D5E5
:1009C00004F020040C4304D0C46901230CA2641E6B
:1009D000C46130BCFFF79FBE10B5044621461068C5
:1009E000FFF790FE02462046BDE810400023D1E705
:1009F000D21D22F00701D1E90023CBE7000000005F
:100A00003000000010B5203AC0F00B80B1E818505B
:100A1000A0E81850B1E81850A0E81850203ABFF4E8
:100A2000F5AF5FEA027C24BFB1E81850A0E8185087
:100A300044BF18C918C0BDE810405FEA827C24BFDB
:100A400051F8043B40F8043B08BF7047D20728BF69
:100A500031F8023B48BF11F8012B28BF20F8023BB8
:100A600048BF00F8012B704730B5B0F10A0271F1B0
:100A700000034FEA900E4EEA817EB0EB0E0061EB70
:100A800091014FEA101E4EEA017E10EB0E0041EB81
:100A900011114FEA102E4EEA016E10EB0E0041EBE1
:100AA00011214FEA104E4EEA014E10EB0E0041EBC1
:100AB0001141401841F100014FEAD00040EA417075
:100AC0004FEAD1014FEA810444EA907410EB8005AB
:100AD00044EB01046D1944EB0404521BA3414FF095
:100AE000000348BF0A3200D530BD401C41F100016F
:100AF00030BD2DE9FF4F0C461E464FF0FF378BB03F
:100B0000D2E90001DDF860800A908A46C1F30A55F7
:100B100005B93D46002108464FF00000BAF1000F2C
:100B200000F4400005DA00EB80004FF4400101EAD8
:100B300050004FEA9059B9F1010F00DDB9460A980B
:100B400050EA4A000ED044F61050A5F2FF35454356
:100B50002F14B8F1000F1ED07542291E1EDDC9F1F9
:100B600000021CE0B8F1010F4FF0000001D030216D
:100B700003E0F24305E02154401CB042FBDB304669
:100B80000022002121540B99C1F80880C1E90020FE
:100B90000FB0BDE8F08FBD1B6D1CDEE74A4600DAE2
:100BA000694206A800F0DEFB06AB93E8070003AB42
:100BB00083E8070050460A9905F088FC8DE8070095
:100BC000A0F500501F3800900398002D0ADD42F276
:100BD0001F014A460844002303A90390684605F014
:100BE000F1FE09E0A0F500504A461F38002303A992
:100BF0000390684605F0FBFE8DE807000004000C3A
:100C000003D04FF0FF30410800E01046B8F1000F6C
:100C100003D00022009215461EE0751E05D4FFF792
:100C200023FF303262556D1EF9D5B34601220843C9
:100C300002D000227F1C04E02078302801D100225D
:100C40007F1E002A099784D01DE0112D07DAFFF7D7
:100C50000BFF303262556D1C50EA0102F5D108439A
:100C600002D00098C8B10EE00021681E05E0235CA8
:100C7000625C63542254401E491C8142F7DBAB4640
:100C8000A81B401E0990002004F80B000B98099A3D
:100C9000C0F80880C0E9002B7AE711264FF0000861
:100CA00057E72DE9F04F88460446D21D22F0070190
:100CB00091B0D1E90001CDE90A0105F0CFFF02466C
:100CC0000B98C00F01D02D2007E02068810701D5C7
:100CD0002B2002E0202101EAC000032A099001D064
:100CE000072A05DB03464146204600F0FBFA0BE1EC
:100CF0002078800601D5E06900E00620B8F1650F94
:100D0000814606D0B8F1660F18D0B8F1670F70D1E0
:100D100031E00020B9F1110F009001DB112301E057
:100D200009F101030AAA01A90CA8FFF7E2FEDDE917
:100D30000C70002609F10105834647E001204B466F
:100D400000904FF000470AAA01A90CA8FFF7D1FEB6
:100D5000DDE90DB00C995D46002610B909F10100DE
:100D60000D18B9EB050003D4C0F1FF3609F10105F8
:100D7000A5EB09002BE0B9F1010F01DA4FF00109F1
:100D80000020B9F1110F0090484601DD112300E069
:100D900003460AAA01A90CA8FFF7ABFEDDE90C7017
:100DA0004D4600268346207800070AD4AB4500DA7A
:100DB0005D4601A8012D04DD411911F8011C3029FF
:100DC00007D04F4502DA17F1040F04DA01208246FA
:100DD0000FE06D1EEEE7002F02DCED1B3E4403E04A
:100DE000781CA84200DD7D1CB81B00F1010A4FF001
:100DF00000472078000703D4AA4501DB4FF0FF3AF3
:100E00000021B7F1004F0DF143088DF8431024D0B5
:100E100002202B23002F01DA7F422D230A21021EFC
:100E2000A0F1010000DC5FB197FBF1FC97FBF1F250
:100E300001FB1C7C17460CF1300C08F801CDEEE7E5
:100E4000A8F1010003702188090501D5452100E0C2
:100E50006521A0F1010800F8011C09980FA9A1EB78
:100E60000807FF1D00B10120411901EBEA70A169DB
:100E70003844081A401EA0612078C00602D42046DB
:100E8000FFF736FA099828B1D4E901219047206A82
:100E9000401C20622078C00622D52046FFF728FAA1
:100EA0001EE0002E04DBB34502DD01A8805D00E0FA
:100EB0003020D4E901219047206A401C2062761C32
:100EC000AAF101005FEA000A0AD100F007FAC0683F
:100ED0000168405CD4E901219047206A401C2062EF
:100EE000281EA5F10105DCDC07E0D4E9012118F892
:100EF000010B9047206A401C2062381EA7F10107B1
:100F0000F3DC2046FFF70AFA032011B041E60000A7
:100F10002DE9F04F04460D46D21D22F0070089B09E
:100F2000D0E900974846394605F098FE0246F80F8A
:100F300001D02D2307E02068810701D52B2302E093
:100F4000202101EAC0038DF820300BB1012000E020
:100F50000020032A824601D0072A04DB29462046C6
:100F600000F0C0F93FE12078800601D40D2500E0B3
:100F7000E569C7F30A560D2D49DA00214FEA175BE0
:100F800008464FF00000002F00F4400007DA00EBA5
:100F900080004FF4400100EBD07001EA6000811541
:100FA000012901DD4FF0FF3100224FEA850CBCF131
:100FB000180F06D31346ACF118004FF08052C24010
:100FC00003E04FF4801323FA0CF30CF10C0CBCF18A
:100FD000200F04D3ACF1200C09FA0CF001E007FA61
:100FE0000CF000294FF0004801DD18B90FE00ED1D8
:100FF00040450CD319EB02095F4121B9404502D1AC
:101000009F4329EA0209BBEB175F00D0761C2088BA
:10101000000502D57B48784402E07A4878441938C4
:1010200008AA302302F80A30037C0AF10101002EDD
:101030000AF1020A53546A4602DC4FF0300101E023
:101040004FF031014FF001088DF8001002D0A6F2E8
:10105000FF3603E059EA470100D06B4E002D02DC59
:101060002178090704D54FF002082E218DF80110D0
:10107000C44600210BE0C7F303433F01C35C491C96
:101080006D1E02F80830052908F1010801DA002D6B
:10109000F1DC00210CE000EB1973491C1B786D1E7C
:1010A000082902F808304FEA091908F1010801DAA5
:1010B000002DF0DC21688B0602D516E0A8F10108AE
:1010C000E04505DD02EB080313F8013C302BF5D0B9
:1010D000B8F1000F09DD02EB080313F8013C2E2BD9
:1010E00003D1090701D4A8F10108002D05DD3E2137
:1010F00002F808106D1E08F10108407C002E02F86D
:10110000080008F1010804DA2D20764202F80800F0
:1011100002E02B2002F808000A214FF47A70864280
:1011200008F101080BDB96FBF0F3303302F80830CE
:1011300096FBF0F308F1010800FB136601E0642E52
:101140000CDB642096FBF0F3303302F8083096FB9A
:10115000F0F308F1010800FB136601E00A2E06DB3C
:1011600096FBF1F0303002F8080008F1010896FB18
:10117000F1F001FB1060303002F80800A16908F1BD
:10118000010808EB050202EB0A00081AA0612078AA
:10119000C00602D42046FFF7ABF8216A08AE01EB87
:1011A0000A00206204E0D4E9012116F8010B9047FF
:1011B000BAF1010AF7D22078C00602D52046FFF71F
:1011C00097F86E4609E016F8010B3E280FD0D4E9D7
:1011D00001219047206A401C2062B8F10108F2D238
:1011E0002046FFF79BF809B00320BDE8F08F206A86
:1011F0002844206203E0D4E90121302090476D1E8D
:10120000EBD3F8E7315D000002FCFFFF10B5436946
:1012100013B1AFF3008001E0FFF720FB012010BD08
:10122000128800F1240182840022C2840122EDE7A9
:1012300011684FF0FF32E9E72DE9F04116460C4600
:10124000054600F043F8036893F80101012807D030
:10125000FF2C12D8185D80B101202C70BDE8F08100
:10126000D3F807013246214603F20713C718284670
:10127000BC46BDE8F041002360474FF0FF30EDE78A
:10128000754600F0EBF8AE4605006946534620F07F
:101290000700854618B020B5FEF7DAFFBDE820400C
:1012A0004FF000064FF000074FF000084FF0000B22
:1012B000AC46ACE8C009ACE8C009ACE8C009ACE891
:1012C000C00921F007018D467047000010B500F0FD
:1012D00005F8001D10BD00BFE95900000048704727
:1012E000300000202DE9F0411F4604460326016826
:1012F000072A01F4006004DB08B116A505E016A575
:1013000003E008B115A500E015A521F0100020604C
:10131000A069C01EA0610FB1401EA0612046FEF76B
:10132000E7FF4FB1D4E9012138469047206A401CBD
:101330002062C01C206206E0206AFAE7D4E901219D
:1013400015F8010B9047761EF8D22046FEF7E6FF0F
:10135000BDE8F0814E414E006E616E00494E460080
:10136000696E66002DE9F047814616468AB0354819
:1013700078440DC88DE80D0032487844801C03ACD9
:101380000DC884E80D0041F69B300844372190FBDE
:10139000F1F290FBF1F5A5F1800501FB12041B3C75
:1013A00002D56442012000E00020DFF898A08046CA
:1013B0000027FA44AAF1BE0A0EE0E0070AD032463E
:1013C000684607EB470101230AEB810105F00FFB9B
:1013D0008DE8070064107F1C002CEED1194F7F446C
:1013E000AE3F19E0E80715D007EB04100DF1180A1D
:1013F00090E80E008AE80E00C068F04201D198190A
:1014000008903246012306A903A805F0F0FA03ABC1
:1014100083E807006D10641C002DE3D14FF0010339
:1014200032466946B8F1000F03A802D005F0CAFAA7
:1014300001E005F0DCFAC9E90001C9F808200AB0AA
:10144000BDE8F087685A000010B50446AFF300808D
:101450002046BDE81040FEF7E6BE00000048704799
:10146000100000204FF0013C50F8042B51F8043BD1
:101470009A4221D1A2EB0C03934313EACC1317D168
:1014800050F8042B51F8043B9A4215D1A2EB0C03FF
:10149000934313EACC130BD150F8042B51F8043BBF
:1014A0009A4209D1A2EB0C03934313EACC13DBD08D
:1014B0004FF00000704700BFD01A01BAB1FA81F1B5
:1014C00001F0180122FA01F0CB40DBB2C0B2C01A21
:1014D000C1F120012CFA01F3D11A914311EAC31191
:1014E000E6D1704701491820ABBEFEE72600020096
:1014F00070470000FEE7000070470000EFF3108027
:1015000072B600BFFEE7000070B542F20C0604465A
:10151000C4F2020600F00CFB3168C90718D130682C
:10152000800644BF202030603068C00607D4306990
:10153000C00704D1306840075CBF002070BD306830
:10154000C00623D40020316849072BD434E000BF03
:10155000002C47D00546601C0ED13068C007DED095
:101560003068C0071CBF30685FEAC070D7D03068F1
:10157000C007F2D1D3E700BF00F0DAFA401BA04267
:1015800030D83068C007F7D1C9E700BF40F240400B
:10159000C2F20000C16941F00201C161102031684E
:1015A000490709D540F24041C2F20001CA6940F042
:1015B000040042F00102CA613169C90702D13060FA
:1015C000012070BD40F24041C2F20001CA6942F000
:1015D0000402CA61316921F00101316130600120EA
:1015E00070BD00BF032070BD014690F821000228A5
:1015F00016D10868D1E90FC3026822F00E0202601A
:10160000026822F001020260012000FA03F2CCF825
:10161000042081F821000020002281F8202070475A
:10162000042088630120002281F8202070470000F8
:1016300080B590F82110022924D10268116821F0A8
:101640000E0111602F211368C4F202018A4240F298
:101650000401C4F2020123F00103136016DD3023FC
:10166000C4F202039A421DD04423C4F202039A42F8
:101670001CD05823C4F202039A421DD14FF4803388
:1016800022E000BF04218163012080BD0823C4F251
:1016900002039A420ED01C23C4F202039A420BD1D9
:1016A000102311E04FF480730EE000BF4FF480531D
:1016B0000AE000BF012307E001F1680C4FF08073DE
:1016C000624508BF4FF480130B60012180F82110A0
:1016D000426B002180F820100AB190470021084693
:1016E00080BD0000B0B5044600F022FA054640F285
:1016F0000000C2F200000078611C18BF044400BF63
:1017000000F016FA401BA042FAD3B0BD2DE9F04319
:1017100081B040F24046C2F20006327E012A03D177
:10172000022001B0BDE8F083054601202C68307628
:101730004CF250308846FFF7E7FE022C1CD10028FF
:101740004ED1002042F21004F061C4F2020420687D
:1017500040F004002060206840F0400020604CF21F
:101760005030FFF7D1FE216821F0040121600021F3
:10177000317601B0BDE8F08390BB4FF0FF30C8F880
:101780000000D5E9027007EB8020874228D242F2A0
:101790001004C4F202044FF0000900BFC6F81C9008
:1017A000206840F0020020606760206840F0400040
:1017B00020604CF25030FFF7A7FE216821F00201B3
:1017C000216098B9D5E9020107F5806700EB812017
:1017D0008742E3D300200021317601B0BDE8F083D9
:1017E00001200021317601B0BDE8F083C8F8007017
:1017F0000021317601B0BDE8F083000042F2100113
:10180000C4F20201086840F0800200200A607047BC
:101810002DE9F04F81B040F24049C2F200099246F2
:1018200099F81820012A03D1022001B0BDE8F08FF9
:101830008046012089F818004CF250309B460E4635
:10184000FFF762FEA0BB404642F21007B8F1020F5C
:1018500018BF0420C4F20207B8F1010F08BF4046C8
:1018600045424FF000080024C4F12001C9F81C8053
:101870002AFA04F00BFA01F13A680843B4F12001A6
:1018800058BF2BFA01F042F00101396026F8020B33
:101890004CF25030FFF738FE3968013521F0010273
:1018A00048F100013A6018B9002904F11004DBD0B6
:1018B000002189F8181001B0BDE8F08F42F2040051
:1018C000C4F20200C16809065CBF0020704740F204
:1018D0002311C4F26751016048F6AB11CCF6EF5109
:1018E0000160C068C0B2C009704700002DE9F04F28
:1018F00082B00E68002E00F0038141F20042C4F273
:101900000102042340F2004E904208BF03234FF629
:10191000FF7CC4F2010E009300240123C1F2100CDD
:101920004FF0000A4FF0000949E000BF012704F022
:101930000C030F229A402BEA020207FA03F34FEA44
:101940009A051A4346F82520D1F804B040F20C4518
:101950005FEACB22DEF8082054BF22EA080242EAFE
:101960000802C4F20105CEF808202A685FEA8B233A
:1019700054BF22EA080242EA08022A605FEA8B3377
:10198000DEF8042054BF22EA080242EA08025FEAB5
:10199000CB33CEF80420DEF800204FF0010354BF13
:1019A00022EA080242EA0802CEF800200E680AF194
:1019B000010A36FA0AF204F1040400F0A18003FAE5
:1019C0000AF816EA080FF1D04E68664512DC122EAE
:1019D00056D8DFE806F0350B454955555555555550
:1019E000555555555555554D510000BFD1F80C90E2
:1019F00046E000BF4FF6FF72C1F2210296420FDCB3
:101A00000022C1F2110296421AD00022C1F2120243
:101A1000964215D00022C1F22102964210D02FE04A
:101A20000022C1F2220296420AD00022C1F2310203
:101A3000964205D00022C1F23202964220D100BF68
:101A40008A684AB1012A14BFC0F81480C0F8108017
:101A50004FF0080914E000BF4FF0040910E000BF88
:101A6000CA6802F108090BE04FF0000908E000BF66
:101A7000CA6802F1040903E0CA6802F10C0900BF58
:101A800022460646BAF1080F24BF203A04363768CA
:101A90000F25954027EA050509FA02F22A4332602C
:101AA000CA79D2067FF582AF41F21803C4F202036D
:101AB0001A68AEF57E7642F001021A601A6802F0EA
:101AC00001020192019A2AF0030256F802B040F690
:101AD0000002C4F20102904210D040F60042C4F26B
:101AE000010290423FF422AF41F20002C4F201022F
:101AF000009F904208BF022719E700BF002716E7A2
:101B000002B0BDE8F08F00008068084018BF0120D7
:101B100070470000C26802EA0103914341EA0341B1
:101B200001617047002A08BF090401617047000085
:101B300040F26040C2F200000068704740F20000CE
:101B400040F26041C2F20000C2F2000100780A686F
:101B5000104408607047000080B542F20000C4F2F3
:101B60000200016841F010010160032000F08EF8CE
:101B70000F2000F005F800F027F8002080BD0000DD
:101B800070B540F20006C2F2000640F20801327859
:101B9000C2F200014FF47A730968B3FBF2F2044613
:101BA000B1FBF2F1084600F063FB0F2C4FF001058A
:101BB00008D838B94FF0FF3021460022002500F048
:101BC00039F87460284670BD82B041F21800C4F242
:101BD00002000168022241F001010160016801F088
:101BE000010101910199416841F0805141604068D3
:101BF00000F08050009000980420C4F201000168B9
:101C000062F31A61016002B070470000002848BF0B
:101C10007047C1B200F01F00012202FA00F04EF23C
:101C20000012CEF2000242EAD10121F00301086065
:101C30007047000010B54EF60C5CCEF2000CDCF8DC
:101C40000030C3F3022E8EF00704042C28BF0424B6
:101C5000BEF103034FF0FF3E0EFA04F438BF002339
:101C6000A14399400EFA03F39A43114300F00F0287
:101C700000F160430901043A03F56443624400281B
:101C800048BF02F10C03197010BD00004EF60C5154
:101C9000CEF200010A684FF6FF031A4060F30A22F1
:101CA00042F0806040F0FD70086070472DE9F0431D
:101CB00081B0002800F0858042F20008C4F20208DA
:101CC0000446D8F800000D4600F0070088420CD208
:101CD000D8F8000020F007002843C8F80000D8F822
:101CE000000000F00700A8426BD1206841F204090F
:101CF0008107C4F2020917D5410705D5D9F80010AC
:101D000041F4E061C9F80010010705D5D9F80010C9
:101D100041F46051C9F80010D9F80010A26821F010
:101D2000F0011143C9F80010C00741D1D8F80000F4
:101D300000F00700A8420CD9D8F8000020F00700F6
:101D40002843C8F80000D8F8000000F00700A842B7
:101D500037D12068410707D5D9F80010E26821F48F
:101D6000E0611143C9F80010000708D5D9F8000058
:101D7000216920F4605040EAC100C9F80000D9F898
:101D8000002002F00C00082841F20020C0F27A0086
:101D900050D146F60E63C2F38341C0F60003595C8E
:101DA000D2033BD440F60010C0F23D00484341E06E
:101DB000606802280AD001282AD159F8041C890336
:101DC00008D4012001B0BDE8F08300BF59F8041C1D
:101DD0008901F6D5D9F8001021F003010843C9F8AC
:101DE0000000FFF7A5FE064641F28837D9F800004B
:101DF000616800F00C00B0EB810F97D0FFF798FE00
:101E0000801BB842F2D9032001B0BDE8F08300BFC7
:101E100059F8041C8907D4D5DCE700BFD9F80020A5
:101E200046F60C63C2F34042C0F600039A5C484396
:101E3000B0FBF2F0D9F8001046F6F452C1F30311EA
:101E4000C0F60002515C40F2080220FA01F140F2B3
:101E50000400C2F200000068C2F200021160FFF745
:101E60008FFE002001B0BDE8F083000040F20800C2
:101E700041F20401C2F20000C4F2020100680968E4
:101E800046F60462C1F30221C0F60002515CC8406C
:101E90007047000040F2080041F20401C2F2000065
:101EA000C4F202010068096846F60462C1F3C22167
:101EB000C0F60002515CC840704700002DE9F041B7
:101EC00082B0002868D00446007841F20006C007BE
:101ED000C4F2020625D0706800F00C0004281BD064
:101EE000706800F00C00082802D17068C00313D499
:101EF0006068002800F06881B0F5A02F00F07C81B8
:101F0000B0F5803F00F07C81306820F48030306094
:101F1000306820F4802076E13068800301D5606865
:101F2000D0B32078800718D5706810F00C0F07D058
:101F3000706800F00C0008286ED17068C0036BD484
:101F40003068800702D52069012825D13068616991
:101F500020F0F80040EAC1003060207800071FD46C
:101F60002078400732D4E56995B1706800F00C0024
:101F7000082840F08F80012D0ED07068216A00F48F
:101F800080328A4208D1616A00F47010884203D11D
:101F9000002002B0BDE8F081012002B0BDE8F08170
:101FA000A069002862D00020C4F242200121C0F8BC
:101FB0008014FFF7BDFD0546706A800700F18C8034
:101FC000FFF7B6FD401B0228F6D92AE1F06910F0B0
:101FD000805808D1F06940F08050F061F06900F05D
:101FE00080500090009847F20007C4F2000738685C
:101FF000C00529D4386840F480703860FFF798FD38
:10200000054600BF3868C0051ED4FFF791FD401B90
:102010006428F7D905E100BF2069002840F20000DC
:10202000C4F2422000F0828001210160FFF780FDB0
:10203000054600BF306880073FF588AFFFF778FDA1
:10204000401B0228F6D9ECE0E068002800F0808010
:10205000052800F09780012800F09880306A20F071
:1020600001003062306A20F0040092E00020C4F2E7
:1020700042200021C0F88014FFF75AFD054600BF3A
:10208000706A80077FF56CAFFFF752FD401B022896
:10209000F6D9C6E00027C4F2422700203866FFF7D1
:1020A00047FD022D05460BD13068800140F1BE800E
:1020B000FFF73EFD401B02284FF00300F4D968E70C
:1020C000306880017FF564AFFFF732FD401B0228C6
:1020D0004FF00300F4D95CE740F20800C2F20000C0
:1020E000006844F6D351C1F26201A0FB0101480A25
:1020F000019000BF00BF0198411E002801913FF4EC
:102100002FAF00BF0198411E002801913FF428AF76
:1021100000BF0198411E002801913FF421AF00BF8C
:102120000198411E00280191E4D119E700210160C6
:10213000FFF7FEFC054600BF306880077FF50DAF56
:10214000FFF7F6FC401B02284FF00300F4D920E70C
:10215000306A20F001003062306A20F00400306202
:10216000FFF7E6FC054641F2883700BF306A80077A
:1021700020D5FFF7DDFC401BB8424FF00300F5D936
:1021800007E700BF306A40F004003062306A40F078
:1021900001003062FFF7CCFC054641F2883700BFF2
:1021A000306A800706D4FFF7C3FC401BB842F7D95A
:1021B00037E000BFB8F1000F7FF4D5AEF06920F032
:1021C0008050F061CFE600BF306820F4803030608E
:1021D000306820F480203060FFF7AAFC054600BF7D
:1021E000306880037FF59DAEFFF7A2FC401B64289A
:1021F0004FF00300F4D9CCE6306840F48020306022
:10220000306840F480303060FFF792FC054600BF34
:10221000306880033FF585AEFFF78AFC401B6428D9
:10222000F6D9032002B0BDE8F08100BF206AB0F506
:10223000803F05D17168A26821F4003111437160BB
:102240007168626A21F474111143084370600120BF
:102250003866FFF76DFC0446306880013FF598AEA4
:10226000FFF766FC001B02284FF00300F4D990E64C
:10227000411E0020B0EB116F1CBF012070474EF2D1
:102280001002CEF2000251604EF62351CEF2000150
:10229000F0230B70072190601160704770470000B9
:1022A00070470000B0B582B0044600680168C3689A
:1022B000426901F02F05202D03F0200506D12DB134
:1022C000204602B0BDE8B04000F0D4BD5FEA017C1A
:1022D0001EBF02F0010E03F4907212EB0E0253D1F6
:1022E000226B012A05D111F0100218BF13F0100261
:1022F00036D10A0622D513F080021FD094F841107F
:1023000021293FD1A168B1F5805F03D1216900295E
:1023100000F07082216A4A1C226209784160E18CD7
:1023200001390A04E1842DD1C16821F08001C16026
:10233000C16841F04001C16002B0B0BD490621D57D
:1023400013F040011ED0C16821F04001C16020217E
:10235000204684F8411002B0BDE8B04000F076BCE1
:102360000021019101680191416801910199406941
:10237000400613D4A08DE18DE28D002A18BF88425B
:1023800040F0BA8102B0B0BDCA0718BF13F4807222
:1023900040F0B6804A0700F1B980BEE0E06B01680A
:1023A00049688AB2002AEDD0A38D9A42EAD2E1852B
:1023B0008069202800F09C80206850E8030F216885
:1023C00020F4807041E80302DAB1206850E8030F7E
:1023D000216820F4807041E8030292B1206850E83F
:1023E000030F216820F4807041E803024AB120689D
:1023F00050E8030F216820F4807041E80302002AAE
:10240000DAD1206850E8050F216820F0010041E88A
:102410000502DAB1206850E8050F216820F00100BC
:1024200041E8050292B1206850E8050F216820F0CC
:10243000010041E805024AB1206850E8050F216813
:1024400020F0010041E80502002ADAD1206850E8B6
:10245000050F216820F0400041E80502DAB120684C
:1024600050E8050F216820F0400041E8050292B1D4
:10247000206850E8050F216820F0400041E805027F
:102480004AB1206850E8050F216820F0400041E87B
:102490000502002ADAD1202084F8420000202063BF
:1024A000206850E8030F216820F0100041E8030283
:1024B000DAB1206850E8030F216820F0100041E8ED
:1024C000030292B1206850E8030F216820F0100049
:1024D00041E803024AB1206850E8030F216820F068
:1024E000100041E80302002ADAD1E06BFFF77CF824
:1024F00002206063A08DE18D401A81B2204674E114
:10250000626C42F0010262644A0706D5BEF1000F18
:1025100003D0626C42F0020262648A0706D5BEF103
:10252000000F03D0626C42F004026264BCF1000F41
:1025300009D545EA0E02B2FA82F2520903D1626C61
:1025400042F008026264626C002A3FF41BAF11F093
:10255000200118BF002D03D0204600F08BFC20681E
:102560004069616C00F0400001F00801401800F083
:10257000B58000BF206850E8030F216820F49070F8
:1025800041E80302BAB3206850E8030F216820F441
:10259000907041E8030272B3206850E8030F21688D
:1025A00020F4907041E803022AB3206850E8030F3A
:1025B000216820F4907041E80302002ADAD11AE081
:1025C000206850E8050F216820F0010041E805026D
:1025D000DAB1206850E8050F216820F0010041E8D9
:1025E000050292B1206850E8050F216820F0010033
:1025F00041E805024AB1206850E8050F216820F043
:10260000010041E80502002ADAD1206B012824D11B
:10261000206850E8030F216820F0100041E8030211
:10262000DAB1206850E8030F216820F0100041E87B
:10263000030292B1206850E8030F216820F01000D7
:1026400041E803024AB1206850E8030F216820F0F6
:10265000100041E80302002ADAD1202084F8420069
:10266000002020632068406940063FD5206850E87C
:10267000050F216820F0400041E80502DAB120682A
:1026800050E8050F216820F0400041E8050292B1B2
:10269000206850E8050F216820F0400041E805025D
:1026A0004AB1206850E8050F216820F0400041E859
:1026B0000502002ADAD1E06BC0B142F66961C0F6CA
:1026C00000014163FEF7B4FF00283FF45BAEE06B0E
:1026D000416B02B0BDE8B040084700BF2046FFF79D
:1026E000DFFD0020606402B0B0BD00BF204602B034
:1026F000BDE8B040FFF7D4BD401A216851E8031F80
:10270000226821F4907142E80313DBB1216851E89B
:10271000031F226821F4907142E8031393B12168EA
:1027200051E8031F226821F4907142E803134BB172
:10273000216851E8031F226821F4907142E80313D5
:10274000002BDAD1216851E8051F226821F0010130
:1027500042E80513DBB1216851E8051F226821F02A
:10276000010142E8051393B1216851E8051F226871
:1027700021F0010142E805134BB1216851E8051F22
:10278000226821F0010142E80513002BDAD1202153
:1027900084F8421000212163216851E8031F226858
:1027A00021F0100142E80313DBB1216851E8031F57
:1027B000226821F0100142E8031393B1216851E827
:1027C000031F226821F0100142E803134BB1216876
:1027D00051E8031F226821F0100142E80313002B87
:1027E000DAD1022281B22046626302B0BDE8B04075
:1027F000FFF754BD216A31F8022B6FF35F2242606C
:1028000021628CE5002804BF0120704710B5044602
:1028100090F8410028B9002084F84000204600F0DC
:1028200063F8242084F841002068D4E90212C368C8
:1028300023F40053C360036923F440531A43026135
:10284000D4E904231143C268194341F20C639A434B
:102850001143C1604169A26921F44071114343F6FB
:102860000002C4F201029042416103D0FFF7FEFA78
:1028700002E000BFFFF70EFB626819214843910098
:10288000B0FBF1F048F21F51C5F2EB11A0FB0123A0
:102890005A094FF69C73C0F6FF7302FB0300322304
:1028A00003EB0010A0FB0101F02303EA51132068A1
:1028B00003EB0212C1F3431111448160016921F459
:1028C00090410161416921F02A014161C16841F4EF
:1028D0000051C16000202021606484F8411084F818
:1028E0004210606310BD000070B586B0006844F20D
:1028F0000041C4F20001002688420596CDE9036636
:10290000029647D044F60001C4F20001884279D013
:1029100043F60001C4F20101884240F0A58041F273
:102920001800C4F20200016840F6000441F480413E
:1029300001600168C4F2010401F480410191019930
:10294000016802AD41F0040101600068294600F011
:102950000400019001984FF400700290022003904F
:10296000032005902046FEF7C1FF4FF480600290DF
:102970000020CDE9030020462946FEF7B7FF2520B9
:1029800001210022FFF756F92520FFF73FF906B095
:1029900070BD00BF41F21800C4F20200416840F669
:1029A000000441F4003141604168C4F2010401F4C3
:1029B000003101910199016802AD41F0040101600B
:1029C0000068294600F0040001900198042002905C
:1029D00002200390032005902046FEF787FF082081
:1029E000CDE90206204629460496FEF77FFF262001
:1029F00000210022FFF71EF92620FFF707F906B095
:102A000070BD00BF41F21800C4F20200416802AD7F
:102A100041F480214160416801F4802101910199D4
:102A2000016841F0080101600068294600F00800D3
:102A3000019001984FF480600290022003900320DF
:102A4000059040F60000C4F2010000F580642046C5
:102A5000FEF74CFF4FF4006002900020CDE9030028
:102A600020462946FEF742FF06B070BD90F842307E
:102A7000202B1CBF0220704700294FF0010318BF14
:102A8000002A01D118467047002303638162222186
:102A90008285C285436480F842100169006819B1DB
:102AA000C16841F48071C1604169002341F00101B6
:102AB0004161C16841F02001C160184670470000C3
:102AC00010B5044602F0F8FE2046BDE8104002F0C2
:102AD0009FB900002DE9F041044690F841002028FC
:102AE0001CBF0220BDE8F0810D4600294FF0010017
:102AF00000F0AA801646002A08BFBDE8F081002039
:102B000060642120984684F84100FFF711F8A684FC
:102B1000E684A1680646B1F5805F02D120690028ED
:102B200062D02F460025E08C002861D018F101000A
:102B300018D0B8F1000F37D1216808E017F8010B61
:102B40004860E08C0138E084E08C002851D00868AF
:102B5000000673D5002FF1D135F8020B00276FF373
:102B60005F20EDE7216802E00868000609D40868E4
:102B7000000606D4086800065CBF08685FEA0060CB
:102B8000F2D51FB117F8010B05E000BF35F8020BB5
:102B900000276FF35F204860E08C0138E084E08C10
:102BA0000028E4D125E000BF216800BF08680006C6
:102BB00008D4FEF7BDFF801B404541D82168C86896
:102BC000F4E700BF17B117F8010B04E035F8020B6A
:102BD00000276FF35F204860E08C0138E084E08CD0
:102BE0000028E3D105E000BF0027E08C00289DD13C
:102BF0002168086840061FD4B8F1000F1ED018F1F4
:102C000001000FD10868400616D40868400613D4A6
:102C10000868400610D4086840064FF00000F1D55F
:102C20000FE000BFFEF784FF801B404508D82068F6
:102C3000C16800684006F5D5002002E0FEF778FF85
:102C40000320202184F84110BDE8F0817047000086
:102C5000FEE700002DE9F04F85B041F21800C4F204
:102C60000200016840F6000541F0100101600168B2
:102C7000C4F2010501F0100101910199016805F507
:102C8000006741F0200101600168012201F020018C
:102C90000191019901684FF4005641F0040101606F
:102CA00001684FF0010801F00401019101990168E8
:102CB00041F00801016000684FF4005100F0080085
:102CC000019001983846FEF72DFF2846102100227A
:102CD0004FF00009FEF726FF2846A02100224FF002
:102CE000A00BFEF71FFF05F5806420464CF2213152
:102CF0000022FEF717FF20464FF443510122FEF752
:102D000011FF01A880E8400301AE4FF0020A3846E7
:102D10003146CDF810A0FEF7E9FD28463146CDE951
:102D20000189CDF80C80FEF7E1FD102001A981E8B2
:102D3000010728463146FEF7D9FD032728463146CC
:102D4000CDE901B8CDF80C900497FEF7CFFD4020F7
:102D5000CDE9010928463146CDF80C90FEF7C6FDB5
:102D60004FF2213001A981E8010720463146FEF7E4
:102D7000BDFDC02001901120CDE90208204631465A
:102D80000497FEF7B3FD20463146CDE901A9CDF801
:102D90000C80FEF7ABFD05B0BDE8F08F80B540F2CA
:102DA000E01043F60001C2F20000C4F2010100236A
:102DB0004FF00C0C4FF4E13280E80E00C0E9033311
:102DC000C0E905C3C361FFF71DFD002808BF80BD32
:102DD000BDE88040FEF792BB80B540F2282044F267
:102DE0000041C2F20000C4F2000100234FF00C0CBD
:102DF0004FF4E13280E80E00C0E90333C0E905C3B7
:102E0000C361FFF7FFFC002808BF80BDBDE880401C
:102E1000FEF774BB80B540F2702044F60001C2F2A8
:102E20000000C4F2000100234FF00C0C4FF4E1321B
:102E300080E80E00C0E90333C0E905C3C361FFF7B2
:102E4000E1FC002808BF80BDBDE88040FEF756BB0E
:102E5000FEE70000FEE7000070470000704700003A
:102E6000FEF76CBE70470000406A0021C185C18436
:102E7000FFF716BA81B090F84210222921D1836859
:102E80000246B3F5805F09D152F8281F52F8183C6A
:102E9000002B63D003685B680AE000BF52F8281F6C
:102EA00013B90369002BF5D003685B6803F07F0357
:102EB0000B70116801311160C18D01390A04C1859F
:102EC00002D001B0704700BF0168CA6822F020023A
:102ED000CA60CA6822F48072CA604A6922F001029C
:102EE0004A61202180F8421000214163026B012ACF
:102EF0003CD10163016851E8031F026821F0100111
:102F000042E80313DBB1016851E8031F026821F0B6
:102F1000100142E8031393B1016851E8031F0268EE
:102F200021F0100142E803134BB1016851E8031F7F
:102F3000026821F0100142E80313002BDAD1016886
:102F40000A68D20606D5002200920A6800924968F3
:102F500000910099818D01B0FFF7A0B90268526815
:102F60006FF35F2221F8022B8162A5E701B0FFF722
:102F7000A7BD000040F2E010C2F20000FFF792B9D6
:102F800040F22820C2F20000FFF78CB9FEE70000F3
:102F9000B0B582B040F6000440F29C05C4F20104D2
:102FA000C2F2000504F5006128464FF400520023E8
:102FB00001F0E8FB4FF0140C05F11400214601224A
:102FC0000023CDF800C000F02FF905F128002146BC
:102FD0001022012302B0BDE8B04000F0ABB9000000
:102FE00010B540F29C04C2F20004204601F004FC3B
:102FF00004F1140000F032F904F12800BDE810409B
:1030000000F0D4B9F0B581B040F600440546C4F2F2
:1030100001040026002704E06D00072F07F10107D7
:1030200066D2E8B2C20920468021FEF77BFD204629
:1030300040210122FEF776FD8DF801609DF8010028
:103040001D2823D89DF8010001308DF801009DF85E
:1030500001001D281AD89DF8010001308DF80100EB
:103060009DF801001D2811D89DF8010001308DF850
:1030700001009DF801001D2808D89DF801000130CD
:103080008DF801009DF801001E28DBD32046402169
:103090000022FEF747FD8DF802609DF802001D2812
:1030A000BAD800BF9DF8020001308DF802009DF8EB
:1030B00002001D28B0D89DF8020001308DF80200F2
:1030C0009DF802001D28A7D89DF8020001308DF858
:1030D00002009DF802001D289ED89DF802000130D4
:1030E0008DF802009DF802001E28DBD394E700BF94
:1030F000204680210122FEF715FD204640210122B5
:10310000FEF710FD00208DF803009DF803001D2838
:1031100024D800BF9DF8030001308DF803009DF80E
:1031200003001D281AD89DF8030001308DF8030014
:103130009DF803001D2811D89DF8030001308DF87B
:1031400003009DF803001D2808D89DF803000130F6
:103150008DF803009DF803001E28DBD32046802154
:10316000FEF7D2FC0546204640210022FEF7DAFC9D
:10317000B5FA85F0400901B0F0BD000040F2B8207A
:10318000C2F2000000687047F0B585B04FF6004508
:10319000C0F600052868696801264A1C531C1446BD
:1031A00008BF01248A4244F24321C4F6543138BF97
:1031B0003446884240F2B820C2F200004FF00007C7
:1031C00018BF0124046002970097FEF777FB01A85F
:1031D00069460197CDE90356FEF798FA20B1FEF74C
:1031E0000DFB05B0F0BD00BF44F24322C4F65432DB
:1031F000022029460023FEF70BFB0028EFD1291DF2
:10320000022022460023FEF703FBFEF7F7FA05B083
:10321000F0BD0000014600284FF0000008BF7047D5
:103220004A7A487210467047002808BF7047DDF898
:1032300000C00160002182808371BCF1000F08BFD3
:103240004FF0140CA0F807104172C0E9031C70473E
:10325000002814BFC079002070470000F0B581B08D
:10326000F0B104460068A188FEF74EFCA779054638
:10327000C01BB0FA80F0460902F08CFA217AB14204
:1032800010D1D4E9030102F087FA48B1E079B042E5
:1032900006D0012803D1BD421CBF01206072E67137
:1032A00001B0F0BD2672E06001B0F0BD002808BF9B
:1032B0007047B0B501250446002908BF6421057296
:1032C0000020C4E9031002F065FA60612068A1885B
:1032D000A279E571BDE8B040FEF724BC002808BF24
:1032E0007047B0B500294FF00105044608BF6421BE
:1032F000002A08BF4FF4C8720572C0E9031202F039
:1033000049FA60612068A188A279E571BDE8B04002
:10331000FEF708BC002808BF7047034680799988EB
:10332000B0FA80F0420918684FF0000CA3F807C00B
:10333000FEF7F8BB002808BF704710B54FF0000E2D
:103340008446016082808371A0F807E064204FF416
:10335000C874CCE90304B3FA83F043090846114664
:103360001A46CCF814E0BDE81040FEF7DBBB0000C5
:10337000002808BF7047034680799988B0FA80F02A
:10338000420918684FF0000CA3F807C0FEF7CABB4B
:10339000002808BF70470346006899889A794FF063
:1033A000010CA3F807C0FEF7BDBB0000B0B5D0B359
:1033B0000446007AB8B302F0EDF92169A1B1E279CF
:1033C0000546606912B3E16802F0E6F958B3A179E5
:1033D0000020E071B1FA81F22068A1885209FEF75D
:1033E000A1FB6561B0BD00BFE168606902F0D4F97E
:1033F000C8B1A0790023B0FA80F042092068A18802
:10340000A4F80730BDE8B040FEF78CBB02F0C4F969
:10341000002808BFB0BD2068A188A2790123E3710C
:10342000FEF780FB6561B0BDB0B584B0421E8F2A47
:103430008C4600F2A181DFE812F091009F00B100FC
:10344000C300D100E300F70009012B013D014F014A
:10345000630177018D019F019F019F019F019F01E2
:103460009F019F019F019F019F019F019F019F015C
:103470009F019F019F019F01B101BF01E301030271
:1034800011021F029F019F019F019F019F019F0148
:103490009F019F019F019F012D023B029F019F0100
:1034A0009F019F019F019F019F019F019F019F011C
:1034B0009F019F019F019F01490257029F019F01A8
:1034C0009F019F019F019F019F019F019F019F01FC
:1034D0009F019F019F019F0167029F019F019F0123
:1034E0009F019F019F019F019F019F019F019F01DC
:1034F0009F019F019F019F01750283029F019F0110
:103500009F019F019F019F019F019F019F019F01BB
:103510009F019F019F019F0191029F02AD029F01A8
:103520009F019F019F019F019F019F019F019F019B
:103530009F019F019F019F01BB02C702D3029F0110
:103540009F019F019F019F019F019F019F019F017B
:103550009F019F019F019F01DF0200BF47F2FE1301
:10356000C0F6000301200021002201F075F904B02B
:10357000BDE8B04000F0A4BA47F2A103C0F60003D2
:1035800001200021002201F067F940F29C00C2F204
:10359000000004B0BDE8B04001F020B947F2840358
:1035A000C0F6000301200021002201F055F940F28D
:1035B0009C00C2F2000004B0BDE8B04001F0FEB8CB
:1035C00047F20933C0F6000301200021002201F078
:1035D00043F904B0BDE8B04000F0B8BD47F217139E
:1035E000C0F6000301200021002201F035F940F26D
:1035F0009C00C2F2000004B0BDE8B04001F018B970
:1036000047F21003C0F6000301200021002201F060
:1036100023F940F29C00C2F200004FF4FA7104B0AA
:10362000BDE8B04001F090B847F21523C0F60003A2
:1036300001200021002201F00FF940F29C00C2F2AB
:10364000000004B0BDE8B04001F090B847F2CE13DE
:10365000C0F6000301200021002201F0FDF840F235
:10366000B004C2F200042046FFF7F2FD05462046F2
:10367000FFF7D0FD044647F249330095C0F600033A
:10368000012000210022019401F0E6F804B0B0BD51
:1036900047F2AD03C0F6000301200021002201F033
:1036A000DBF840F2C400C2F2000004B0BDE8B04054
:1036B000FFF76EBE47F29103C0F600030120002120
:1036C000002201F0C9F840F2C400C2F2000004B0C8
:1036D000BDE8B040FFF74CBE47F29F23C0F60003A1
:1036E00001200021002201F0B7F840F2C400C2F22C
:1036F0000000322104B0BDE8B040FFF7D7BD00BFE5
:1037000047F28823C0F6000301200021002201F0C7
:10371000A3F840F2C400C2F20000C82104B0BDE822
:10372000B040FFF7C3BD00BF46F6EA73C0F6000322
:1037300001200021002201F08FF840F2C400C2F203
:10374000000064214FF4C87204B0BDE8B040FFF738
:10375000C5BD00BF47F22923C0F6000301200021A8
:10376000002201F079F840F2C400C2F2000004B077
:10377000BDE8B040FFF7CEBD47F2E40147F2BC031D
:103780000090C0F60001C0F600030220F622CDF83A
:1037900004C001F061F804B0B0BD00BF47F2B5232A
:1037A000C0F6000301200021002201F055F804B00A
:1037B000BDE8B04000F026BE47F22D03C0F600037E
:1037C00001200021002201F047F840F29C04C2F2DF
:1037D0000004204601F02CF8204600F0CDFFAEA1F9
:1037E000AEA547F25723002808BF0D46C0F60003D8
:1037F000012000210022009501F02EF804B0B0BD98
:1038000047F24803C0F6000301200021002201F026
:1038100023F847F2E40147F26313C0F60001C0F653
:1038200000030220992201F017F840F2C400C2F20E
:103830000000502104B0BDE8B040FFF737BD00BF25
:1038400047F2B313C0F6000301200021002201F06B
:1038500003F804B0BDE8B04000F02ABF47F272237D
:10386000C0F6000301200021002200F0F5FF04B0A3
:10387000BDE8B04000F0DEBE47F2EE23C0F6000324
:1038800001200021002200F0E7FF04B0BDE8B040B5
:1038900000F03ABD47F2E513C0F600030120002115
:1038A000002200F0D9FF04B0BDE8B04000F08EBEA9
:1038B00047F2D823C0F6000301200021002200F0C7
:1038C000CBFF04B0BDE8B04000F074BE47F21B333C
:1038D000C0F6000301200021002200F0BDFF04B06B
:1038E000BDE8B04001F0C0BB47F26B03C0F6000377
:1038F00001200021002200F0AFFF0DF10B0001F0CC
:10390000D5FC04B0B0BD00BF47F23033C0F60003B1
:1039100001200021002200F09FFF04B0BDE8B0406C
:1039200001F058BA47F22713C0F600030120002126
:10393000002200F091FF04B0BDE8B04000F03EBAB4
:1039400047F24213C0F6000301200021002200F0DC
:1039500083FF04B0BDE8B04000F0C6BA47F2FD03F3
:10396000C0F6000301200021002200F075FF04B022
:10397000BDE8B04001F0BCBD47F29913C0F60003AA
:1039800001200021002200F067FF04B0BDE8B04034
:1039900001F012BE47F24023C0F6000301200021CF
:1039A000002200F059FF04B0BDE8B04001F032BE83
:1039B00031A301200021002200F04EFF04B0BDE839
:1039C000B04001F049BF00BF22A301200021002226
:1039D00000F042FF04B0BDE8B04001F0E9BE00BF16
:1039E00014A301200021002200F036FF04B0BDE83E
:1039F000B04001F025BF00BF05A301200021002237
:103A000000F02AFF04B0BDE8B04000F063BB00BF87
:103A1000434D4420307839303A2055534152543385
:103A200020455350333253332074657374205458F7
:103A300000000000434D4420307838323A2055537E
:103A400041525431205A69674265652050494E47BA
:103A500000000000434D4420307838313A2055535F
:103A600041525431205A6967426565207265636529
:103A70006E74205258000000434D44203078383096
:103A80003A20555341525431205A696742656520A6
:103A900074657374205458004F4646004F4E000022
:103AA0007047000080B501F04BFA43F22940C0F6A0
:103AB000000001F0D3FABDE88040FFF7F1BF00003D
:103AC00010B582B046F6D760C0F6000001F0EEF9FE
:103AD00040F2BC24C2F2000446F6FC6246F649738A
:103AE000C0F60002C0F6000320468021FCF7E0FB90
:103AF000204601F0DBF946F60B7246F63373C0F64A
:103B00000002C0F6000320468021FCF7D1FB2046CE
:103B100001F0CCF946F6ED6246F62C73C0F60002D1
:103B2000C0F6000320468021FCF7C2FB204601F0CE
:103B3000BDF946F61A720FF2740CC0F600021EA30D
:103B400020468021CDF800C0FCF7B2FB204601F0F2
:103B5000ADF91CA21FA320468021FCF7A9FB20463B
:103B600001F0A4F91DA221A320468021FCF7A0FBAF
:103B7000204601F09BF9FFF701FB03461FA22046F8
:103B80008021FCF795FB204601F090F91FA220460A
:103B900080214FF4E133FCF78BFB204601F086F9DE
:103BA00024A002B0BDE8104001F080B930393A33AA
:103BB000383A34300000000041707220323920322F
:103BC00030323600417574686F7220203A202573B8
:103BD0000D0A00004B656E746F000000537475642D
:103BE000656E74203A2025730D0A0000544F444F2F
:103BF0005F53545544454E545F494400426F6F74BF
:103C0000202020203A20256C750D0A00446562753D
:103C1000672020203A205553415254322025642CED
:103C200020464620434D4420444154412046460D01
:103C30000A0000003D3D3D3D3D3D3D3D3D3D3D3D9E
:103C40003D3D3D3D3D3D3D0D0A000000B0B582B01B
:103C5000FDF76EFF044601F03DF90DF1070001F09C
:103C600001F958B90DF107059DF80700214601F04B
:103C700075F9284601F0F6F80028F5D002B0B0BD7D
:103C80002DE9F04186B0802002F0FCF980468220C8
:103C900002F0F8F90546842002F0F4F90646862081
:103CA00002F0F0F90746882002F0ECF904468C2077
:103CB00002F0E8F9010901EB810100F00F0000EBCF
:103CC0004100632842D8210901EB810104F00F0271
:103CD00002EB4101A1F10D0212F10C0F36D33A09AA
:103CE00002EB820207F00F0303EB4202A2F1200372
:103CF00013F11F0F2AD3C6F3011303EB830306F05E
:103D00000F0707EB4303172B20D82F0907EB870773
:103D100005F00F0606EB47073B2F17D8C8F302162E
:103D200006EB860608F00F0505EB46063C2E0DD285
:103D30008DE88F000CA301200021002205960124AC
:103D400000F08AFD204606B0BDE8F08147F2D2714E
:103D5000C0F6000112A30220932200F07DFD002492
:103D6000204606B0BDE8F08144533133303220693B
:103D70006E69743A204F4B2C2074696D653D32306A
:103D8000253032752D253032752D253032752025A0
:103D90003032753A253032753A25303275000000E0
:103DA00044533133303220696E69743A20494E569B
:103DB000414C49445F54494D450000002DE9F04114
:103DC00086B0802002F05EF98046822002F05AF927
:103DD0000546842002F056F90646862002F052F984
:103DE0000746882002F04EF904468C2002F04AF97A
:103DF000010901EB810100F00F0000EB4100632895
:103E000040D8210901EB810104F00F0202EB4101CE
:103E1000A1F10D0212F10C0F34D33A0902EB820228
:103E200007F00F0303EB4202A2F1200313F11F0F6F
:103E300028D3C6F3011303EB830306F00F0707EB48
:103E40004303172B1ED82F0907EB870705F00F0632
:103E500006EB47063B2E15D8C8F3021707EB87077A
:103E600008F00F0505EB47073C2F0BD28DE84F00FC
:103E70000AA3012000210022059700F0EDFC06B006
:103E8000BDE8F08147F2D271C0F600010FA3022015
:103E9000A12206B0BDE8F04100F0DEBC445331334E
:103EA00030322074696D653A203230253032752DFC
:103EB000253032752D2530327520253032753A2562
:103EC0003032753A253032750000000044533133EA
:103ED00030322074696D653A20494E56414C494450
:103EE0005F54494D4500000010B540F60044C4F24F
:103EF0000104204620210022FDF714FE2046012166
:103F00000022FDF70FFE204620210122FDF70AFEC8
:103F10008E2002F0D3F9002002F0D0F920462021B3
:103F20000022FDF7FFFD204620210022FDF7FAFDCB
:103F3000204601210022FDF7F5FD20462021012227
:103F4000FDF7F0FD802002F0B9F9002002F0B6F98B
:103F5000204620210022FDF7E5FD204620210022F9
:103F6000FDF7E0FD204601210022FDF7DBFD2046A4
:103F700020210122FDF7D6FD822002F09FF9342096
:103F800002F09CF9204620210022FDF7CBFD2046BF
:103F900020210022FDF7C6FD204601210022FDF769
:103FA000C1FD204620210122FDF7BCFD842002F046
:103FB00085F9122002F082F9204620210022FDF727
:103FC000B1FD204620210022FDF7ACFD2046012155
:103FD0000022FDF7A7FD204620210122FDF7A2FDCA
:103FE000862002F06BF9282002F068F92046202193
:103FF0000022FDF797FD204620210022FDF792FDCB
:10400000204601210022FDF78DFD204620210122BE
:10401000FDF788FD882002F051F9042002F04EF9E6
:10402000204620210022FDF77DFD20462021002290
:10403000FDF778FD204601210022FDF773FD2046A3
:1040400020210122FDF76EFD8C2002F037F9262099
:1040500002F034F9204620210022FDF763FD2046BE
:1040600020210022FDF75EFD204601210022FDF700
:1040700059FD204620210122FDF754FD8E2002F03B
:104080001DF9802002F01AF9204620210022FDF7B8
:1040900049FD04A3012000210022BDE8104000F0EA
:1040A000DBBB00BF4453313330322074657374205E
:1040B00074696D65207772697474656E3A20323068
:1040C00032362D30342D32382031323A33343A30D2
:1040D0003000000080B582B040F27020C2F20000D3
:1040E0000CA119226423FEF7F5FC47F6200147F6E0
:1040F000020CC0F60001C0F6000C002808BF8C4678
:104100000BA3012000210022CDF800C000F0A4FB89
:1041100002B080BD53544D33325F4D41494E5F452F
:104120005350333253335F544553540D0A0000004B
:104130005553415254332045535033325333207436
:104140006573742054583A2025730000B0B592B0BE
:1041500047F25C43C0F6000301200021002200F07A
:104160007BFB40F29C00C2F2000000F005FB40A186
:1041700040A547F21773002808BF0D46C0F600039C
:10418000012000210022009500F066FB47F2C443A5
:10419000C0F6000301200021002200F05DFBFDF7C6
:1041A000C7FC44F6D351C1F26201A0FB010147F202
:1041B00000738D09C0F60003012000210022009544
:1041C00000F04AFB2FA047F24C732BA50090C0F6DD
:1041D0000003012000210022019500F03DFB00F0CA
:1041E0000FFE02AC03462AA220464021FCF760F8ED
:1041F00047F26075C0F600050120002100222B4621
:10420000009400F029FB00F027FE034625A220467B
:104210004021FCF74DF80120002100222B4600949C
:1042200000F01AFB00F086FE034624A2204640213F
:10423000FCF73EF80120002100222B46009400F0FC
:104240000BFB00F071FE034622A220464021FCF742
:104250002FF80120002100222B46009400F0FCFAE8
:1042600022A301200021002200F0F6FA12B0B0BD16
:104270004F4646004F4E000030393A33383A343317
:104280000000000041707220323920323032360096
:1042900052582072696E6720617661696C20203AFD
:1042A000202575005258206F766572666C6F7720F6
:1042B0002020203A20256C750000000054696D65AF
:1042C0006F75742064726F707320203A20256C75AE
:1042D000000000004572726F722064726F7073206C
:1042E0002020203A20256C75000000003D3D3D3D1A
:1042F0003D3D3D3D3D3D3D3D3D3D3D3D3D3D3D3DEE
:104300003D3D3D3D3D3D3D0080B547F29473C0F6D7
:10431000000301200021002200F09EFA47F215431D
:10432000C0F6000301200021002200F095FA47F2B8
:10433000C133C0F6000301200021002200F08CFAF6
:1043400047F26373C0F6000301200021002200F051
:1043500083FA47F29843C0F60003012000210022AF
:1043600000F07AFA47F2D853C0F60003012000218A
:10437000002200F071FA08A301200021002200F0C1
:104380006BFA47F20E51C0F6000110A3022044223E
:10439000BDE8804000F060BA4750494F2053746533
:1043A000707065723A205042382F5042392F504277
:1043B00031342F50423135206F757470757473200D
:1043C00064656661756C74204C4F57005365617469
:1043D0002073656E736F72204750494F3A207069A1
:1043E0006E73206E6F7420636F6E6669726D6564A4
:1043F0003B206E6F7420696E697469616C697A65BF
:1044000064000000B0B582B047F27843C0F6000304
:1044100001200021002200F01FFA42A30120002108
:10442000002200F019FA47F24F53C0F600030120B2
:104430000021002200F010FA47F28A53C0F6000370
:1044400001200021002200F007FA47F26C63C0F659
:10445000000301200021002200F0FEF947F20E5572
:10446000C0F6000547F2B663C0F6000302202946F5
:104470004F2200F0F1F947F2E443C0F600030120B7
:104480000021002200F0E8F92CA3012000210022E5
:1044900000F0E2F930A301200021002200F0DCF955
:1044A00034A301200021002200F0D6F947F2A834FD
:1044B00047F22B73C0F60004C0F600030120002170
:1044C0000022009400F0C8F947F2086447F23673FE
:1044D000C0F60004C0F60003012000210022009471
:1044E00000F0BAF947F28E3447F24173C0F6000487
:1044F000C0F60003012000210022009400F0ACF976
:1045000047F23463C0F6000302202946192200F066
:10451000A3F920A301200021002202B0BDE8B04091
:1045200000F09AB94D43552020203A2053544D3382
:104530003246313033433854360000004F4C454446
:10454000203A205042362F50423720736F667477DE
:1045500061726520493243004453313330323A208E
:104560005042302F5042312F504235204750494F52
:1045700000000000537465707065723A2050423834
:104580002F5042392F504231342F5042313520477D
:1045900050494F003D3D3D3D3D3D3D3D3D3D3D3D57
:1045A0003D3D3D3D3D3D3D3D3D3D3D3D3D3D3D3D3B
:1045B0003D3D3D0047F20E5147F22F53C0F600013A
:1045C000C0F600030220902200F046B980B547F201
:1045D0000E5147F22F53C0F60001C0F6000302202F
:1045E0007D2200F039F904A3012000210022BDE85A
:1045F000804000F031B900BF536574204150505FD6
:10460000534541545F53454E534F525F50494E53AB
:104610005F434F4E4649524D45443D3120616674DB
:10462000657220776972696E6720636F6E66697262
:104630006D65640080B582B047F2A83C47F22B73E9
:10464000C0F6000CC0F60003012000210022CDF8C6
:1046500000C000F001F947F2086C47F23673C0F66B
:10466000000CC0F60003012000210022CDF800C09C
:1046700000F0F2F847F28E3C47F24173C0F6000CAE
:10468000C0F60003012000210022CDF800C000F098
:10469000E3F847F20E5147F23463C0F60001C0F66A
:1046A00000030220192202B0BDE8804000F0D4B817
:1046B00080B582B040F60000C4F201000121FDF790
:1046C00023FA0FA10FF2400C012808BF8C460FA35C
:1046D000012000210022CDF800C000F0BDF840F21A
:1046E000B000C2F20000FEF7B3FD84460EA3012025
:1046F00000210022CDF800C000F0AEF802B080BD6D
:1047000048494748000000004C4F570042757474F8
:104710006F6E2050413020726177206C6576656C39
:104720003A20257300000000427574746F6E2050AB
:104730004130206C6F676963616C207072657373C0
:1047400065643A2025750000002808BF704710B541
:1047500004460120002908BF4FF4FA712072E1607D
:1047600001F018F82061BDE81040704700281CBF18
:104770000021017270470000002814BFC07900209A
:1047800070470000002808BF704780B54FF0000E4A
:104790008446016082808371A0F807E04FF4FA70CC
:1047A000CCF80C00B3FA83F04309084611461A46C8
:1047B000CCF810E0BDE88040FDF7B4B9002808BF90
:1047C0007047034680799988B0FA80F042091868EA
:1047D0004FF0000CA3F807C0FDF7A4B9002808BFEC
:1047E00070470346006899889A794FF0010CA3F846
:1047F00007C0FDF797B90000B0B5B8B10446007A1C
:10480000A0B100F0C7FF0546D4E90310490800F045
:10481000C3FF002808BFB0BD2068A188FDF77AF962
:10482000E0792561B0FA80F04009E071B0BD000088
:10483000002808BF704710B504460068A188002210
:104840002272FDF767F9E079B0FA80F04009E07173
:10485000BDE8104070470000002B08BF7047F0B55E
:10486000D3B058AC17460D46064633A880211A46E9
:1048700023460294FBF7FEFC032E00F29080DFE853
:1048800006F003050B4300BF54A200E050A203A8AA
:1048900033ABC0217EE000BF002D69D0A81C01E031
:1048A000851C043010F8021C2F2909D05C2907D080
:1048B000002961D010F8011C2F2906D10EE000BF9D
:1048C000451E10F8011C2F2908D05C2906D00029AC
:1048D00052D001782F2905D10CE000BF05460178A0
:1048E0002F2907D05C2905D0002945D041782F29F0
:1048F00004D1D5E7451C41782F29D1D05C29CFD0F0
:104900000029CED138E000BFD5B3A81C02E000BF1B
:10491000851C043010F8021C2F2907D05C2905D013
:1049200091B310F8011C2F2905D10BE0451E10F89A
:10493000011C2F2906D05C2904D029B301782F2926
:1049400004D10BE0054601782F2907D05C2905D05A
:10495000D1B141782F2905D1DAE700BF451C417854
:104960002F29D5D05C29D3D00029D2D10CE000BFAB
:1049700047F26D35C0F60005009510A206E000BFB5
:1049800047F26D35C0F6000507A2009503A833ABCA
:10499000C0210197FBF78CFC03A800F087FA53B005
:1049A000BDE8F040704700BF5B455252205D2025B6
:1049B00073202825733A2564290D0A005B5741525C
:1049C0004E5D202573202825733A2564290D0A00A1
:1049D0005B494E464F5D2025730D0A005B444247FC
:1049E000205D2025730D0A0010B500F03DFB00F09E
:1049F0006BF8FFF745F900F0A9FD00F099FF47F6C5
:104A00000703C0F60003012000210022FFF724FF66
:104A100047F62304C0F6000409A30220214612220F
:104A2000FFF71AFF14A3012000210022FFF714FF53
:104A300019A3022021461522BDE81040FFF70CBF44
:104A40005A6967426565206D6F64756C652F6E6588
:104A500074776F726B207374617475733A2070652C
:104A60006E64696E67207265616C206C696E6B2084
:104A7000746573740000000055534152543320454F
:104A8000535033325333205541525420696E697468
:104A90003A204F4B0000000045535033325333202F
:104AA00070656572207374617475733A2070656EF9
:104AB00064696E67207265616C206C696E6B20742E
:104AC0006573740000F0DABE10B50020AE2101F06D
:104AD00009F804460020202101F004F804400020D9
:104AE000102100F0FFFF04400020B02100F0FAFF89
:104AF00004400020C82100F0F5FF04400020002100
:104B000000F0F0FF04400020102100F0EBFF044013
:104B10000020402100F0E6FF04400020812100F049
:104B2000E1FF044000207F2100F0DCFF0440002072
:104B3000A12100F0D7FF04400020A62100F0D2FF01
:104B400004400020A82100F0CDFF044000203F21B8
:104B500000F0C8FF04400020A42100F0C3FF04407F
:104B60000020D32100F0BEFF04400020002100F00F
:104B7000B9FF04400020D52100F0B4FF044000201C
:104B8000802100F0AFFF04400020D92100F0AAFFEF
:104B900004400020F12100F0A5FF04400020DA21AC
:104BA00000F0A0FF04400020122100F09BFF044011
:104BB0000020DB2100F096FF04400020402100F09F
:104BC00091FF044000208D2100F08CFF0440002064
:104BD000142100F087FF04400020AF2100F082FF85
:104BE0002040C00700F0C2800020B021002400F067
:104BF00079FF0020002100F075FF0020102100F057
:104C000071FF00BF4020002100F06CFF601C44B227
:104C1000B4F1FF3FF6DC0020B121002400F062FF78
:104C20000020002100F05EFF0020102100F05AFF5C
:104C30004020002100F056FF601C44B2B4F1FF3F59
:104C4000F6DC0020B221002400F04CFF00200021FF
:104C500000F048FF0020102100F044FF4020002118
:104C600000F040FF601C44B2B4F1FF3FF6DC0020CE
:104C7000B321002400F036FF0020002100F032FFB5
:104C80000020102100F02EFF4020002100F02AFF1C
:104C9000601C44B2B4F1FF3FF6DC0020B4210024D4
:104CA00000F020FF0020002100F01CFF0020102158
:104CB00000F018FF4020002100F014FF601C44B2F7
:104CC000B4F1FF3FF6DC0020B521002400F00AFF1C
:104CD0000020002100F006FF0020102100F002FF5C
:104CE0004020002100F0FEFE601C44B2B4F1FF3F02
:104CF000F6DC0020B621002400F0F4FE00200021A4
:104D000000F0F0FE0020102100F0ECFE4020002119
:104D100000F0E8FE601C44B2B4F1FF3FF6DC002076
:104D2000B721002400F0DEFE0020002100F0DAFEB2
:104D30000020102100F0D6FE4020002100F0D2FE1D
:104D4000601C44B2B4F1FF3FF6DC0CA10120012449
:104D500000F06AFE0CA1032000F066FE0CA3012007
:104D600000210022FFF778FD204610BD0CA114A3FE
:104D70000220AD22FFF770FD002010BD53544D33CB
:104D800032204D41494E000076302E372E31000042
:104D90004F4C454420696E69743A204F4B00000027
:104DA0002E2E2F6B746C69622F6B745F6D6F647540
:104DB0006C65732F6B745F6F6C65642E630000000D
:104DC0004F4C454420696E69743A2041434B5F461D
:104DD00041494C0080B5FFF777FE04A30120002174
:104DE0000022BDE88040FFF737BD00BF4F4C45446F
:104DF000207465737420746578742073656E740014
:104E000040F28800C2F20000083000F0FFBA000053
:104E100010B5006844F20041C4F20001884218BF96
:104E200010BD40F28804C2F20004204610F8081BAE
:104E300000F03AFB10B160680130606040F2282059
:104E400040F28801C2F20000C2F200010122BDE876
:104E50001040FDF70BBE000040F28800C2F20000D7
:104E600040687047014640F28800C2F200000830F6
:104E700000F0E6BA10B540F28804C2F2000440F235
:104E80003C3104F10800C2F200014FF4807200F0DE
:104E9000FBFA002340F22820C2F200002146012242
:104EA0006360BDE81040FDF7E1BD000010B568B1DA
:104EB0000446FBF7B7FB58B182B240F22820C2F299
:104EC000000021466423FDF705FE10BD012010BD42
:104ED000002010BD10B584B040F27004C2F200048E
:104EE0002178F9B1E268A0EB020CBCF1640F19D390
:104EF0002079A279CDE9001046F6C77146F66873AD
:104F00000292C0F60001C0F6000302205F22CDF835
:104F10000CC0FFF7A1FC2169002020702071A07156
:104F2000481C206104B010BD40F27000C2F20000C5
:104F30004069704740F27000C2F20000006970479B
:104F400040F27000C2F20000002101700171817115
:104F5000C0E90211C0E904117047000010B582B029
:104F600040F27004C2F200042278032A0AD8844670
:104F7000DFE802F0020C1620BCF1FF0F30D002B0C7
:104F800010BD00BF0020207002B010BDBCF1FF0FAB
:104F900028D084F804C00220207002B010BD00BFE9
:104FA000BCF1FF0F1CD084F806C00320207002B0B3
:104FB00010BD00BFBCF1FF0F18D046F6C771C0F698
:104FC000000115A30220AC22CDF800C0FFF744FC7D
:104FD0006069013060610020207002B010BD00BF28
:104FE00001202070E16002B010BD00BFA26812B1C4
:104FF0002079A1799047207994F806C0009010A3F9
:10500000012000210022CDF804C0FFF725FC00207C
:10501000207002B010BD00BF496E76616C696420DB
:105020006672616D653A20657870656374656420A9
:1050300046462C20676F74203078253032580000A7
:105040005258204652414D453A204646202530329E
:1050500058202530325820464600000040F27001AA
:10506000C2F2000188607047B0B582B040F60044DB
:10507000C4F2010420464FF400510122FCF752FD16
:105080000520FCF72FFB20464FF480510022FCF74F
:1050900049FD022000F012FE0F2000F00FFE204616
:1050A0004FF480510122FCF73DFD3220FCF71AFB42
:1050B00020464FF480510022FCF734FD542000F0CC
:1050C000FDFD8D2000F0FAFD20464FF480510122B5
:1050D000FCF728FD20464FF480510022FCF722FD0A
:1050E000562000F0EBFD3E2000F0E8FD20464FF496
:1050F00080510122FCF716FD20464FF4805100221A
:10510000FCF710FD5A2000F0D9FD1E2000F0D6FD5E
:1051100020464FF480510122FCF704FD20464FF455
:1051200080510022FCF7FEFC582000F0C7FD002053
:1051300000F0C4FD20464FF480510122FCF7F2FC40
:1051400020464FF480510022FCF7ECFC2A2000F0AE
:10515000B5FD402000F0B2FD20464FF48051012201
:10516000FCF7E0FC20464FF480510022FCF7DAFC0B
:10517000222000F0A3FD3D2000F0A0FD20464FF4CA
:1051800080510122FCF7CEFC20464FF480510022D2
:10519000FCF7C8FCA82000F091FD002000F08EFD77
:1051A000054620464FF480510122FCF7BBFCA807BE
:1051B00026D120464FF480510022FCF7B3FCA820F2
:1051C00000F07CFD002000F079FD054620464FF4FC
:1051D00080510122FCF7A6FC20464FF480510022AA
:1051E00045F00305FCF79EFC282000F067FD2846EB
:1051F00000F064FD20464FF480510122FCF792FC40
:1052000020464FF480510022FCF78CFCEE2000F089
:1052100055FD002000F052FD054620464FF4805118
:105220000122FCF77FFC05F16F00C0B201280BD80A
:1052300016A301200021002200950124FFF70CFB9A
:10524000204602B0B0BD00BF47F26F31C0F600018A
:1052500004A30220A5220095FFF7FEFA00242046B1
:1052600002B0B0BD524335323220696E69743A20C3
:1052700050524F42455F4641494C2C20766572732F
:10528000696F6E3D30782530325800005243353218
:105290003220696E69743A204F4B2C207665727308
:1052A000696F6E3D3078253032580000F0B589B016
:1052B0000446262040F600458DF8230042F2930074
:1052C000C4F20105ADF820000020CDE90600082752
:1052D00028464FF4805100228DF81770FCF722FC0D
:1052E0001A2000F0EBFC072000F0E8FC28464FF401
:1052F00080510122FCF716FC0DF116060DF123007A
:1053000006AA0DF117030121009600F05FFDD8B346
:1053100028464FF4805100228DF81770FCF702FCEC
:105320001A2000F0CBFC002000F0C8FC28464FF407
:1053300080510122FCF7F6FB08A806AA0DF117031D
:105340000221009600F042FD30B39DF817000428BA
:1053500022D99DF818009DF819109DF81A209DF883
:105360001B309DF81C7020706170A270E370277173
:105370008DE88F000FA30120002100220124FFF7F8
:105380006BFA204609B0F0BD47F26F31C0F600015C
:1053900018A30220B32206E047F26F31C0F60001E5
:1053A0000EA30220BA22FFF757FA0024204609B0C4
:1053B000F0BD00BF5243353232205549443A2025D2
:1053C00030325820253032582025303258202530B0
:1053D0003258204243433D25303258005243353243
:1053E00032205549442072656164206661696C65AC
:1053F000640000005243353232206E6F20636172C8
:1054000064206465746563746564000020B101689C
:1054100011B18188022903D2002080B2704700BFF9
:10542000C28803899A4205D20289C088891A084431
:1054300080B27047C1880089081A80B270470000A6
:1054400070B1D0F800C0BCF1000F09D04FF0FF32AE
:10545000C1B18388022B15D3C28803899A4203D134
:105460004FF0FF30704700BF02891CF802200A701D
:105470000189838801311FFA81FC00229C4528BFE5
:105480001146018110467047002818BF002901D13C
:10549000704700BF022A38BF704701600021828038
:1054A000C18001817047000080B5A8B1D0F800E04C
:1054B000BEF1000F10D08388022B0DD3C28802F1F9
:1054C000010C1FFA8CF29A4228BF4FF0000C02899F
:1054D0001FFA8CF3934203D14FF0FF3080BD00BF21
:1054E000C2880EF80210A0F806C0002080BD00009F
:1054F00080B508A3012000210022FFF7ADF90020AC
:1055000000F062FE0AA3012000210022BDE88040D5
:10551000FFF7A2B95374657070657220666F727779
:105520006172642074657374207374617274000016
:105530005374657070657220666F72776172642053
:105540007465737420646F6E6500000010B540F6DA
:105550000044C4F2010420464FF480710022FCF79D
:10556000E1FA20464FF400710022FCF7DBFA2046F6
:105570004FF480410022FCF7D5FA20464FF4004159
:105580000022FCF7CFFA04A3012000210022BDE88D
:105590001040FFF761B900BF5374657070657220E9
:1055A000696E69743A2053544F502C20636F696CB4
:1055B00073206F666600000080B508A301200021FB
:1055C0000022FFF749F9012000F0FEFD0AA30120A7
:1055D00000210022BDE88040FFF73EB9537465709A
:1055E0007065722072657665727365207465737478
:1055F000207374617274000053746570706572205A
:1056000072657665727365207465737420646F6E5D
:105610006500000010B540F60044C4F201042046C5
:105620004FF480710022FCF77DFA20464FF40071A0
:105630000022FCF777FA20464FF480410022FCF765
:1056400071FA20464FF400410022FCF76BFA47F252
:10565000F273C0F60003012000210022BDE81040D3
:10566000FFF7FAB840F23F11C2F2000100200870C3
:1056700040F24011C2F20001C1E90000C1E902009C
:105680000874C1E90500C1E9070081F82400C1E9F7
:105690000A00C1E90C0081F83800C1E90F00C1E936
:1056A000110081F84C0081F86000C1E91400C1E9E3
:1056B0001600C1E91900C1E91B0081F87400C1E9B5
:1056C0001E00C1E9200081F88800C1E92300C1E97A
:1056D000250081F89C00704770B500294FF0FF331A
:1056E00018BF002A02D1184670BD00BF40F23F1417
:1056F000C2F200042378072B84BF4FF0FF3070BD47
:1057000040F2401603EB8303C2F2000606EB83056A
:1057100046F82300C5E9011200F03CF82178002387
:1057200001EB810206EB8202D06001201074481C5C
:105730002070184670BD0000F0B581B040F23F15F2
:10574000C2F20005287818B340F24010C2F20000FF
:1057500000F10806002705E028780137874206F1A6
:10576000140615D2307A0028F6D056F8040C00281A
:10577000F2D000F00FF8D6E900120446104600F00F
:105780000BF80028E8D056F8040C74608047E3E773
:1057900001B0F0BDFCF7CCB9B0B50C460546FCF73E
:1057A000C7F9411B0020A14228BF0120B0BD000065
:1057B00080B582B040F2DC00C2F20000C17859B17D
:1057C00000F1030C09A3012000210022CDF800C044
:1057D000FFF742F802B080BD0AA113A302205522B0
:1057E00002B0BDE88040FFF737B800BF5A69674292
:1057F000656520726563656E742052583A20257382
:10580000000000002E2E2F6B746C69622F6B745F8A
:105810006D6F64756C65732F6B745F756172745F07
:105820006C696E6B732E63005A696742656520521E
:10583000582062756666657220656D707479000027
:1058400001A000F0BFBD00BF4D41494E2C50494E54
:10585000472C310D0A00000001A000F0B3BD00BFCD
:1058600053544D33325F4D41494E5F5A494742458B
:10587000455F544553540D0A0000000080B582B0C6
:1058800040F2DC00C2F20000417859B100214170C1
:1058900000F1030C04A3012000210022CDF800C078
:1058A000FEF7DAFF02B080BD5A6967426565205293
:1058B000583A202573000000B0B5006843F6000197
:1058C000C4F20101884218BFB0BD40F2DC04C2F24C
:1058D0000004A0780D2801D00A2811D12078E8B161
:1058E000207840F26441C2F2000100250D54207876
:1058F000421CE01CFAF7B5FE0120607025700DE037
:1059000021785E2908D821784A1C227040F264422E
:10591000C2F20002505401E00020207040F2E0107A
:10592000A11CC2F200000122BDE8B040FDF79EB804
:1059300040F2DC01C2F20001002340F2E01001F865
:10594000023BC2F20000012201F8013C4B70FDF75E
:105950008DB8000090B0FCF7FFF800240120CDE9DD
:105960000B44CDE9094406900A904FF4E0104FF43F
:10597000803102250F9006A8CDE90714CDE90D511D
:10598000FCF79CFA20B1EFF3108072B6FEE700BF7F
:105990000F20CDE901054FF48060CDE9040401A892
:1059A00002210394FCF782F920B1EFF3108072B664
:1059B000FEE700BFFDF74EF9FDF7F0F9FDF70CFA31
:1059C000FDF728FAFDF7E0FBFEF76CF8FEF778F834
:1059D000FFF750FAFFF708F8FDF7DAFA40F29C00FB
:1059E000C2F20000FEF7EAFEFFF73CFE43F64D412F
:1059F00009A0C0F600010122FFF76EFE42F6E17138
:105A000007A0C0F600010A22FFF766FEFFF75AF86A
:105A1000FFF792FEFAE700BF646562756700000059
:105A20006170705F696F0000F0B581B050380C464E
:105A3000C1B2002000F056F80020002100F052F81A
:105A40000020102100F04EF82078002844D046F6BF
:105A50001E650134C0F6000520A61FE000EB8000A3
:105A60002844A0F5A0773978402000F03BF87978F9
:105A7000402000F037F8B978402000F033F8F9788A
:105A8000402000F02FF83979402000F02BF840201A
:105A9000002100F027F814F8010BE8B1A0F1410152
:105AA0001929DBD9A0F16101192905D800EB800083
:105AB0002844A0F5F077D6E7A0F13001092905D8F0
:105AC00000EB80002844A0F16907CCE72F462E2880
:105AD00008BF3746C7E700BF01B0F0BD00606000F7
