:020000040800F2
:10000000000C002035020008F12E0008A12C000889
:10001000ED2E0008451500082930000800000000FA
:10002000000000000000000000000000F92E0008A1
:100030004915000800000000F52E0008FD2E0008FC
:100040004F0200084F0200084F0200084F0200084C
:100050004F0200084F0200084F0200084F0200083C
:100060004F0200084F0200084F0200084F0200082C
:100070004F0200084F0200084F0200084F0200081C
:100080004F0200084F0200084F0200084F0200080C
:100090004F0200084F0200084F0200084F020008FC
:1000A0004F0200084F0200084F0200084F020008EC
:1000B0004F0200084F0200084F0200084F020008DC
:1000C0004F0200084F0200084F0200084F020008CC
:1000D0004F020008113000081D3000084F020008D0
:1000E0004F0200084F0200084F02000800F002F81B
:1000F00000F090F80AA090E8000C82448344AAF132
:100100000107DA4501D100F085F8AFF2090EBAE82F
:100110000F0013F0010F18BFFB1A43F0010318473B
:1001200054A6000074A60000103A24BF78C878C115
:10013000FAD8520724BF30C830C144BF04680C60ED
:10014000704700000023002400250026103A28BF35
:1001500078C1FBD8520728BF30C148BF0B60704739
:100160006E2900F05883702900F08D81662909F00E
:10017000D382652909F0D082672909F0CD826129EF
:1001800009F0CC8203681B0A28BF41F0800169296D
:1001900000F0FE80642900F0FB80752900F0F880F3
:1001A0006F2900F04184782900F05981E92900F095
:1001B000DB83E42900F0D883F52900F0D583EF290B
:1001C00000F03E84F82900F058810368DB0928BF5D
:1001D00041F08001632900F05D83732900F06283A0
:1001E000E32901F04580F32901F04A80002070479F
:1001F0001FB501F09BF804000020002109F076FAF9
:10020000401C60600020002109F05AFAE0601FBD28
:1002100010B510BD01F05CF81146FFF7E9FF06F0DC
:1002200093F801F039F903B4FFF7F2FF03BC01F0D2
:1002300081F900000948804709480047FEE7FEE7CA
:10024000FEE7FEE7FEE7FEE7FEE7FEE7FEE7FEE786
:1002500004480549054A064B70470000012F000875
:10026000ED00000800060020000C0020000800201F
:10027000000800207CB51D4616460C00009007D0F3
:100280004142A14202D32044401E01E04FF0FF3022
:10029000064B7B442A4669460190304600F0D5FA69
:1002A000002C02D0009A002111707CBDDB050000FB
:1002B0000FB41CB50C0007AA009007D04142A14220
:1002C00002D32044401E01E04FF0FF30074B7B4437
:1002D00069460190069800F0B8FA0021002C01D080
:1002E000009A11701CBC5DF814FB00009F05000013
:1002F00070B5044685690068C10601D5302600E066
:100300002026C00707D070BDD4E9012130469047B0
:10031000206A401C20626D1EF6D570BD70B5044683
:1003200085690078C00707D170BDD4E9012120207C
:100330009047206A401C20626D1EF6D570BD70B5D6
:100340000C460546012A05D02878800600D5EA69C2
:10035000002302E0012305E05B1C934202D2E05C33
:100360000028F9D1A869E618C01AA861286A1844BB
:1003700028622846FFF7BCFF04E0D5E9012114F804
:10038000010B9047B442F8D32846FFF7C7FF70BD72
:100390002DE9F0410646002410687529314616A55E
:1003A00010D000F0CDF9002802DA404213A507E092
:1003B00031688A0701D512A502E0490704D511A5C5
:1003C000012401E000F0C5F900210A2206F124070A
:1003D00009E0B0FBF2FCB0FBF2F302FB1C00303092
:1003E00078541846491C0028F3D123462A46304643
:1003F000BDE8F04100F0B6B9000000002D0000009B
:100400002B00000020000000F0B40D460188090513
:1004100002D5214C7C4402E01F4C7C440E34002168
:1004200000F1240608E002F00F071209E75D42EA36
:1004300003721B097754491C52EA0307F3D102786F
:100440000023120704D5702D06D009B10223113400
:100450002246F0BC00F086B901231034F8E770B5ED
:1004600004460D462146106800F073F902462946FD
:100470002046BDE870400023C6E7D21D22F00703E6
:10048000D3E90023C0E70368126843F02003036048
:100490000823C3610023B7E7089300002DE9F05F4C
:1004A000894604464FF0000ADFF874B1FB44C0F8F7
:1004B00020A02046E1688847002874D0252806D06F
:1004C000D4E901219047206A401C2062F1E7002610
:1004D0005F462046E16888472028054607DB312D26
:1004E00005D2781910F8200C08B10643F1E7B007DF
:1004F00001D526F00406C4F81CA00027C4F818A0F3
:100500002A2D09D0284609F0D3F838B304EB870820
:10051000303DC8F8185019E059F8041B204604EB88
:1005200087029161E1688847012F054618D1E0698B
:10053000002820DA26F020061DE0D8F8180000EB8D
:10054000800005EB40003038C8F818002046E1680C
:100550008847054609F0ACF80028EED1012F0AD0F3
:100560002E2D08D12046E16888477F1C0546022FC2
:1005700046F02006C4DBA069002803DA404246F0BA
:100580000106A061F00701D026F010066C2D0BD0FB
:10059000682D09D04C2D39D06A2D35D0742D35D029
:1005A0007A2D33D016E038E0E1682F4620468847A0
:1005B000B842054609D16C2F26D04FF48060E1681F
:1005C000064320468847054604E06C2F1AD04FF4B6
:1005D000807006430DB3A5F14100192802D82035DB
:1005E00046F400664A462946204626604E46FFF7F6
:1005F000B7FD80B101280BD0F61D26F0070000F1F1
:10060000080956E74020E4E78020D8E70020D6E735
:1006100006F104094DE7284652E7206ABDE8F09F3D
:100620009892000010B5431C02E010F8011B71B154
:100630008107FAD14FF0013202C88C1A8C4314EAB8
:10064000C211F9D0C01A0A0603D0C01E10BDC01ACC
:1006500010BD0A0401D0801E10BD0902FCD0401E4E
:1006600010BD032A40F2308010F0030C00F015801A
:1006700011F8013BBCF1020F624498BF11F801CBA5
:1006800000F8013B38BF11F8013BA2F1040298BF0A
:1006900000F801CB38BF00F8013B11F0030300F074
:1006A000D981083AC0F0088051F8043B083A51F863
:1006B00004CBA0E80810F5E7121D5CBF51F8043B1D
:1006C00040F8043BAFF30080D20724BF11F8013B90
:1006D00011F801CB48BF11F8012B24BF00F8013BF2
:1006E00000F801CB48BF00F8012B70474FF0000223
:1006F00000B5134694469646203922BFA0E80C5018
:10070000A0E80C50B1F12001BFF4F7AF090728BFF2
:10071000A0E80C5048BF0CC05DF804EB890028BF6E
:1007200040F8042B08BF704748BF20F8022B11F097
:10073000804F18BF00F8012B704770477047704713
:1007400009684A0501D540B27047C905FCD500B219
:10075000704709684A0501D5C0B27047C905FCD584
:1007600080B270472DE9F0470D46994692460446FF
:1007700000F124080168880604D5E06921F0100121
:10078000216000E00120A84201DD471B00E00027B6
:10079000A1697A1902EB0900081AA0612078C00645
:1007A00002D42046FFF7A4FD002608E0D4E9012189
:1007B0001AF806009047206A401C761C20624E45BD
:1007C000F4DB2078C0060AD52046FFF791FD06E04D
:1007D000D4E9012130209047206A401C2062381E55
:1007E000A7F10107F4DC07E0D4E9012118F80500BE
:1007F0009047206A401C2062281EA5F10105F3DC09
:100800002046FFF78BFD2078000602D50220BDE8C8
:10081000F0870120FBE711680268006A530501D5E3
:1008200008700AE0D30501D5088006E0130603D559
:10083000C217C1E9000200E0086001207047000013
:1008400001694A1C02610878704700B58FB0CDE994
:1008500001310021059105497944CDE90310114684
:100860006846FFF71BFE0FB000BD0000E5FFFFFF6D
:10087000D1E900239A4202D2531C0B6010707047DA
:1008800010B5436913B1AFF3008001E0FFF757FDE6
:10089000012010BD127800F124010A7000224A7074
:1008A0000122EDE711684FF0FF32E9E72DE9FF5F24
:1008B00015468A460446DFF8AC80F8440027D8E99C
:1008C00000103E46CDE9001010E03AF816106A46D6
:1008D00002A800F0D9FC411C07D02178890603D575
:1008E000E269391891420DD80744761C20788006B9
:1008F00002D5E069B84205DDAE42E6DB3AF8160003
:100900000028E2D1A069C01BA0612046FFF7F0FCDF
:10091000D8E90010CDE90010002017E03AF81810CF
:100920006A4602A800F0B0FCB0F1FF3F81460BD050
:1009300000250DF1080B05E0D4E901211BF80500A5
:1009400090476D1C4D45F7D308F10100B042804639
:10095000E4DB206A384420622046FFF7DFFCBDE874
:10096000FF9F00009E8E00002DE9F0418046D21DC1
:1009700022F007020025D2E90002F52915A614D0BD
:10098000011E72F1000106DA0023D0EB030063EBD5
:10099000020211A608E0D8F800108B0701D50FA6B7
:1009A00002E0490701D50EA601251146002408F1F1
:1009B000240704E000F080F830323A55641C50EA15
:1009C0000102F7D12B46324621464046BDE8F041B0
:1009D000FFF7C8BE000000002D0000002B00000043
:1009E0002000000030B4002100F1240408E002F0EF
:1009F0000705D208303542EA4372DB086554491CCA
:100A000052EA0305F3D10468002310A2250708D594
:100A100004F020040C4304D0C46901230CA2641E1A
:100A2000C46130BCFFF79EBE10B504462146106875
:100A3000FFF78FFE02462046BDE810400023D1E7B5
:100A4000D21D22F00701D1E90023CBE7000000000E
:100A50003000000010B5203AC0F00B80B1E818500B
:100A6000A0E81850B1E81850A0E81850203ABFF498
:100A7000F5AF5FEA027C24BFB1E81850A0E8185037
:100A800044BF18C918C0BDE810405FEA827C24BF8B
:100A900051F8043B40F8043B08BF7047D20728BF19
:100AA00031F8023B48BF11F8012B28BF20F8023B68
:100AB00048BF00F8012B704730B5B0F10A0271F160
:100AC00000034FEA900E4EEA817EB0EB0E0061EB20
:100AD00091014FEA101E4EEA017E10EB0E0041EB31
:100AE00011114FEA102E4EEA016E10EB0E0041EB91
:100AF00011214FEA104E4EEA014E10EB0E0041EB71
:100B00001141401841F100014FEAD00040EA417024
:100B10004FEAD1014FEA810444EA907410EB80055A
:100B200044EB01046D1944EB0404521BA3414FF044
:100B3000000348BF0A3200D530BD401C41F100011E
:100B400030BD2DE9FF4F0C461E464FF0FF378BB0EE
:100B5000D2E90001DDF860800A908A46C1F30A55A7
:100B600005B93D46002108464FF00000BAF1000FDC
:100B700000F4400005DA00EB80004FF4400101EA88
:100B800050004FEA9059B9F1010F00DDB9460A98BB
:100B900050EA4A000ED044F61050A5F2FF35454306
:100BA0002F14B8F1000F1ED07542291E1EDDC9F1A9
:100BB00000021CE0B8F1010F4FF0000001D030211D
:100BC00003E0F24305E02154401CB042FBDB304619
:100BD0000022002121540B99C1F80880C1E90020AE
:100BE0000FB0BDE8F08FBD1B6D1CDEE74A4600DA92
:100BF000694206A800F0DEFB06AB93E8070003ABF2
:100C000083E8070050460A9908F076F98DE8070056
:100C1000A0F500501F3800900398002D0ADD42F225
:100C20001F014A460844002303A90390684608F0C0
:100C3000DFFB09E0A0F500504A461F38002303A956
:100C40000390684608F0E9FB8DE807000004000CFB
:100C500003D04FF0FF30410800E01046B8F1000F1C
:100C600003D00022009215461EE0751E05D4FFF742
:100C700023FF303262556D1EF9D5B3460122084379
:100C800002D000227F1C04E02078302801D100220D
:100C90007F1E002A099784D01DE0112D07DAFFF787
:100CA0000BFF303262556D1C50EA0102F5D108434A
:100CB00002D00098C8B10EE00021681E05E0235C58
:100CC000625C63542254401E491C8142F7DBAB46F0
:100CD000A81B401E0990002004F80B000B98099AED
:100CE000C0F80880C0E9002B7AE711264FF0000811
:100CF00057E72DE9F04F88460446D21D22F0070140
:100D000091B0D1E90001CDE90A0108F0BDFC02462D
:100D10000B98C00F01D02D2007E02068810701D576
:100D20002B2002E0202101EAC000032A099001D013
:100D3000072A05DB03464146204600F0FBFA0BE19B
:100D40002078800601D5E06900E00620B8F1650F43
:100D5000814606D0B8F1660F18D0B8F1670F70D190
:100D600031E00020B9F1110F009001DB112301E007
:100D700009F101030AAA01A90CA8FFF7E2FEDDE9C7
:100D80000C70002609F10105834647E001204B461F
:100D900000904FF000470AAA01A90CA8FFF7D1FE66
:100DA000DDE90DB00C995D46002610B909F101008E
:100DB0000D18B9EB050003D4C0F1FF3609F10105A8
:100DC000A5EB09002BE0B9F1010F01DA4FF00109A1
:100DD0000020B9F1110F0090484601DD112300E019
:100DE00003460AAA01A90CA8FFF7ABFEDDE90C70C7
:100DF0004D4600268346207800070AD4AB4500DA2A
:100E00005D4601A8012D04DD411911F8011C3029AE
:100E100007D04F4502DA17F1040F04DA01208246A9
:100E20000FE06D1EEEE7002F02DCED1B3E4403E0F9
:100E3000781CA84200DD7D1CB81B00F1010A4FF0B0
:100E400000472078000703D4AA4501DB4FF0FF3AA2
:100E50000021B7F1004F0DF143088DF8431024D065
:100E600002202B23002F01DA7F422D230A21021EAC
:100E7000A0F1010000DC5FB197FBF1FC97FBF1F200
:100E800001FB1C7C17460CF1300C08F801CDEEE795
:100E9000A8F1010003702188090501D5452100E072
:100EA0006521A0F1010800F8011C09980FA9A1EB28
:100EB0000807FF1D00B10120411901EBEA70A1698B
:100EC0003844081A401EA0612078C00602D420468B
:100ED000FFF70EFA099828B1D4E901219047206A5A
:100EE000401C20622078C00622D52046FFF700FA79
:100EF0001EE0002E04DBB34502DD01A8805D00E0AA
:100F00003020D4E901219047206A401C2062761CE1
:100F1000AAF101005FEA000A0AD100F007FAC068EE
:100F20000168405CD4E901219047206A401C20629E
:100F3000281EA5F10105DCDC07E0D4E9012118F841
:100F4000010B9047206A401C2062381EA7F1010760
:100F5000F3DC2046FFF7E2F9032011B041E6000080
:100F60002DE9F04F04460D46D21D22F0070089B04E
:100F7000D0E900974846394608F086FB0246F80F4C
:100F800001D02D2307E02068810701D52B2302E043
:100F9000202101EAC0038DF820300BB1012000E0D0
:100FA0000020032A824601D0072A04DB2946204676
:100FB00000F0C0F93FE12078800601D40D2500E063
:100FC000E569C7F30A560D2D49DA00214FEA175B90
:100FD00008464FF00000002F00F4400007DA00EB55
:100FE00080004FF4400100EBD07001EA60008115F1
:100FF000012901DD4FF0FF3100224FEA850CBCF1E1
:10100000180F06D31346ACF118004FF08052C240BF
:1010100003E04FF4801323FA0CF30CF10C0CBCF139
:10102000200F04D3ACF1200C09FA0CF001E007FA10
:101030000CF000294FF0004801DD18B90FE00ED187
:1010400040450CD319EB02095F4121B9404502D15B
:101050009F4329EA0209BBEB175F00D0761C20886A
:10106000000502D57B48784402E07A487844193874
:1010700008AA302302F80A30037C0AF10101002E8D
:101080000AF1020A53546A4602DC4FF0300101E0D3
:101090004FF031014FF001088DF8001002D0A6F298
:1010A000FF3603E059EA470100D06B4E002D02DC09
:1010B0002178090704D54FF002082E218DF8011080
:1010C000C44600210BE0C7F303433F01C35C491C46
:1010D0006D1E02F80830052908F1010801DA002D1B
:1010E000F1DC00210CE000EB1973491C1B786D1E2C
:1010F000082902F808304FEA091908F1010801DA55
:10110000002DF0DC21688B0602D516E0A8F101085D
:10111000E04505DD02EB080313F8013C302BF5D068
:10112000B8F1000F09DD02EB080313F8013C2E2B88
:1011300003D1090701D4A8F10108002D05DD3E21E6
:1011400002F808106D1E08F10108407C002E02F81C
:10115000080008F1010804DA2D20764202F80800A0
:1011600002E02B2002F808000A214FF47A70864230
:1011700008F101080BDB96FBF0F3303302F808307E
:1011800096FBF0F308F1010800FB136601E0642E02
:101190000CDB642096FBF0F3303302F8083096FB4A
:1011A000F0F308F1010800FB136601E00A2E06DBEC
:1011B00096FBF1F0303002F8080008F1010896FBC8
:1011C000F1F001FB1060303002F80800A16908F16D
:1011D000010808EB050202EB0A00081AA06120785A
:1011E000C00602D42046FFF783F8216A08AE01EB5F
:1011F0000A00206204E0D4E9012116F8010B9047AF
:10120000BAF1010AF7D22078C00602D52046FFF7CE
:101210006FF86E4609E016F8010B3E280FD0D4E9AE
:1012200001219047206A401C2062B8F10108F2D2E7
:101230002046FFF773F809B00320BDE8F08F206A5D
:101240002844206203E0D4E90121302090476D1E3C
:10125000EBD3F8E70D87000002FCFFFF10B54369F0
:1012600013B1AFF3008001E0FFF720FB012010BDB8
:10127000128800F1240182840022C2840122EDE759
:1012800011684FF0FF32E9E72DE9F04116460C46B0
:10129000054600F043F8036893F80101012807D0E0
:1012A000FF2C12D8185D80B101202C70BDE8F081B0
:1012B000D3F807013246214603F20713C718284620
:1012C000BC46BDE8F041002360474FF0FF30EDE73A
:1012D000754600F0EBF8AE4605006946534620F02F
:1012E0000700854618B020B5FEF7B2FFBDE82040E4
:1012F0004FF000064FF000074FF000084FF0000BD2
:10130000AC46ACE8C009ACE8C009ACE8C009ACE840
:10131000C00921F007018D467047000010B500F0AC
:1013200005F8001D10BD00BFC583000000487047D0
:10133000200100202DE9F0411F46044603260168E4
:10134000072A01F4006004DB08B116A505E016A524
:1013500003E008B115A500E015A521F010002060FC
:10136000A069C01EA0610FB1401EA0612046FEF71B
:10137000BFFF4FB1D4E9012138469047206A401C95
:101380002062C01C206206E0206AFAE7D4E901214D
:1013900015F8010B9047761EF8D22046FEF7BEFFE7
:1013A000BDE8F0814E414E006E616E00494E460030
:1013B000696E66002DE9F047814616468AB03548C9
:1013C00078440DC88DE80D0032487844801C03AC89
:1013D0000DC884E80D0041F69B300844372190FB8E
:1013E000F1F290FBF1F5A5F1800501FB12041B3C25
:1013F00002D56442012000E00020DFF898A080467A
:101400000027FA44AAF1BE0A0EE0E0070AD03246ED
:10141000684607EB470101230AEB810107F0FDFF56
:101420008DE8070064107F1C002CEED1194F7F441B
:10143000AE3F19E0E80715D007EB04100DF1180ACC
:1014400090E80E008AE80E00C068F04201D19819B9
:1014500008903246012306A903A807F0DEFF03AB7C
:1014600083E807006D10641C002DE3D14FF00103E9
:1014700032466946B8F1000F03A802D007F0B8FF62
:1014800001E007F0CAFFC9E90001C9F808200AB065
:10149000BDE8F0874484000010B50446AFF3008037
:1014A0002046BDE81040FEF7BEBE00000048704771
:1014B000000100204FF0013C50F8042B51F8043B90
:1014C0009A4221D1A2EB0C03934313EACC1317D118
:1014D00050F8042B51F8043B9A4215D1A2EB0C03AF
:1014E000934313EACC130BD150F8042B51F8043B6F
:1014F0009A4209D1A2EB0C03934313EACC13DBD03D
:101500004FF00000704700BFD01A01BAB1FA81F164
:1015100001F0180122FA01F0CB40DBB2C0B2C01AD0
:10152000C1F120012CFA01F3D11A914311EAC31140
:10153000E6D1704701491820ABBEFEE72600020045
:1015400070470000FEE7000070470000EFF31080D6
:1015500072B600BFFEE7000070B542F20C0604460A
:10156000C4F2020600F00CFB3168C90718D13068DC
:10157000800644BF202030603068C00607D4306940
:10158000C00704D1306840075CBF002070BD3068E0
:10159000C00623D40020316849072BD434E000BFB3
:1015A000002C47D00546601C0ED13068C007DED045
:1015B0003068C0071CBF30685FEAC070D7D03068A1
:1015C000C007F2D1D3E700BF00F0DAFA401BA04217
:1015D00030D83068C007F7D1C9E700BF40F2785073
:1015E000C2F20000C16941F00201C16110203168FE
:1015F000490709D540F27851C2F20001CA6940F0AA
:10160000040042F00102CA613169C90702D13060A9
:10161000012070BD40F27851C2F20001CA6942F067
:101620000402CA61316921F0010131613060012099
:1016300070BD00BF032070BD014690F82100022854
:1016400016D10868D1E90FC3026822F00E020260C9
:10165000026822F001020260012000FA03F2CCF8D5
:10166000042081F821000020002281F8202070470A
:10167000042088630120002281F8202070470000A8
:1016800080B590F82110022924D10268116821F058
:101690000E0111602F211368C4F202018A4240F248
:1016A0000401C4F2020123F00103136016DD3023AC
:1016B000C4F202039A421DD04423C4F202039A42A8
:1016C0001CD05823C4F202039A421DD14FF4803338
:1016D00022E000BF04218163012080BD0823C4F201
:1016E00002039A420ED01C23C4F202039A420BD189
:1016F000102311E04FF480730EE000BF4FF48053CD
:101700000AE000BF012307E001F1680C4FF080738D
:10171000624508BF4FF480130B60012180F821104F
:10172000426B002180F820100AB190470021084642
:1017300080BD0000B0B5044600F022FA054640F234
:101740000000C2F200000078611C18BF044400BF12
:1017500000F016FA401BA042FAD3B0BD2DE9F043C9
:1017600081B040F27856C2F20006327E012A03D1DF
:10177000022001B0BDE8F083054601202C683076D8
:101780004CF250308846FFF7E7FE022C1CD10028AF
:101790004ED1002042F21004F061C4F2020420682D
:1017A00040F004002060206840F0400020604CF2CF
:1017B0005030FFF7D1FE216821F0040121600021A3
:1017C000317601B0BDE8F08390BB4FF0FF30C8F830
:1017D0000000D5E9027007EB8020874228D242F250
:1017E0001004C4F202044FF0000900BFC6F81C90B8
:1017F000206840F0020020606760206840F04000F0
:1018000020604CF25030FFF7A7FE216821F0020162
:10181000216098B9D5E9020107F5806700EB8120C6
:101820008742E3D300200021317601B0BDE8F08388
:1018300001200021317601B0BDE8F083C8F80070C6
:101840000021317601B0BDE8F083000042F21001C2
:10185000C4F20201086840F0800200200A6070476C
:101860002DE9F04F81B040F27859C2F2000992465A
:1018700099F81820012A03D1022001B0BDE8F08FA9
:101880008046012089F818004CF250309B460E46E5
:10189000FFF762FEA0BB404642F21007B8F1020F0C
:1018A00018BF0420C4F20207B8F1010F08BF404678
:1018B00045424FF000080024C4F12001C9F81C8003
:1018C0002AFA04F00BFA01F13A680843B4F1200156
:1018D00058BF2BFA01F042F00101396026F8020BE3
:1018E0004CF25030FFF738FE3968013521F0010223
:1018F00048F100013A6018B9002904F11004DBD066
:10190000002189F8181001B0BDE8F08F42F2040000
:10191000C4F20200C16809065CBF0020704740F2B3
:101920002311C4F26751016048F6AB11CCF6EF51B8
:101930000160C068C0B2C009704700002DE9F04FD7
:1019400082B00E68002E00F0038141F20042C4F222
:101950000102042340F2004E904208BF03234FF6D9
:10196000FF7CC4F2010E009300240123C1F2100C8D
:101970004FF0000A4FF0000949E000BF012704F0D2
:101980000C030F229A402BEA020207FA03F34FEAF4
:101990009A051A4346F82520D1F804B040F20C45C8
:1019A0005FEACB22DEF8082054BF22EA080242EAAE
:1019B0000802C4F20105CEF808202A685FEA8B23EA
:1019C00054BF22EA080242EA08022A605FEA8B3327
:1019D000DEF8042054BF22EA080242EA08025FEA65
:1019E000CB33CEF80420DEF800204FF0010354BFC3
:1019F00022EA080242EA0802CEF800200E680AF144
:101A0000010A36FA0AF204F1040400F0A18003FA94
:101A10000AF816EA080FF1D04E68664512DC122E5D
:101A200056D8DFE806F0350B4549555555555555FF
:101A3000555555555555554D510000BFD1F80C9091
:101A400046E000BF4FF6FF72C1F2210296420FDC62
:101A50000022C1F2110296421AD00022C1F21202F3
:101A6000964215D00022C1F22102964210D02FE0FA
:101A70000022C1F2220296420AD00022C1F23102B3
:101A8000964205D00022C1F23202964220D100BF18
:101A90008A684AB1012A14BFC0F81480C0F81080C7
:101AA0004FF0080914E000BF4FF0040910E000BF38
:101AB000CA6802F108090BE04FF0000908E000BF16
:101AC000CA6802F1040903E0CA6802F10C0900BF08
:101AD00022460646BAF1080F24BF203A043637687A
:101AE0000F25954027EA050509FA02F22A433260DC
:101AF000CA79D2067FF582AF41F21803C4F202031D
:101B00001A68AEF57E7642F001021A601A6802F099
:101B100001020192019A2AF0030256F802B040F63F
:101B20000002C4F20102904210D040F60042C4F21A
:101B3000010290423FF422AF41F20002C4F20102DE
:101B4000009F904208BF022719E700BF002716E751
:101B500002B0BDE8F08F00008068084018BF012087
:101B600070470000C26802EA0103914341EA034161
:101B700001617047002A08BF090401617047000035
:101B800040F29850C2F200000068704740F2000036
:101B900040F29851C2F20000C2F2000100780A68D7
:101BA000104408607047000080B542F20000C4F2A3
:101BB0000200016841F010010160032000F08EF87E
:101BC0000F2000F005F800F027F8002080BD00008D
:101BD00070B540F20006C2F2000640F20801327809
:101BE000C2F200014FF47A730968B3FBF2F20446C3
:101BF000B1FBF2F1084600F063FB0F2C4FF001053A
:101C000008D838B94FF0FF3021460022002500F0F7
:101C100039F87460284670BD82B041F21800C4F2F1
:101C200002000168022241F001010160016801F037
:101C3000010101910199416841F080514160406882
:101C400000F08050009000980420C4F20100016868
:101C500062F31A61016002B070470000002848BFBB
:101C60007047C1B200F01F00012202FA00F04EF2EC
:101C70000012CEF2000242EAD10121F00301086015
:101C80007047000010B54EF60C5CCEF2000CDCF88C
:101C90000030C3F3022E8EF00704042C28BF042466
:101CA000BEF103034FF0FF3E0EFA04F438BF0023E9
:101CB000A14399400EFA03F39A43114300F00F0237
:101CC00000F160430901043A03F5644362440028CB
:101CD00048BF02F10C03197010BD00004EF60C5104
:101CE000CEF200010A684FF6FF031A4060F30A22A1
:101CF00042F0806040F0FD70086070472DE9F043CD
:101D000081B0002800F0858042F20008C4F2020889
:101D10000446D8F800000D4600F0070088420CD2B7
:101D2000D8F8000020F007002843C8F80000D8F8D1
:101D3000000000F00700A8426BD1206841F20409BE
:101D40008107C4F2020917D5410705D5D9F800105B
:101D500041F4E061C9F80010010705D5D9F8001079
:101D600041F46051C9F80010D9F80010A26821F0C0
:101D7000F0011143C9F80010C00741D1D8F80000A4
:101D800000F00700A8420CD9D8F8000020F00700A6
:101D90002843C8F80000D8F8000000F00700A84267
:101DA00037D12068410707D5D9F80010E26821F43F
:101DB000E0611143C9F80010000708D5D9F8000008
:101DC000216920F4605040EAC100C9F80000D9F848
:101DD000002002F00C00082841F20020C0F27A0036
:101DE00050D149F63A03C2F38341C0F60003595C6F
:101DF000D2033BD440F60010C0F23D00484341E01E
:101E0000606802280AD001282AD159F8041C8903E5
:101E100008D4012001B0BDE8F08300BF59F8041CCC
:101E20008901F6D5D9F8001021F003010843C9F85B
:101E30000000FFF7A5FE064641F28837D9F80000FA
:101E4000616800F00C00B0EB810F97D0FFF798FEAF
:101E5000801BB842F2D9032001B0BDE8F08300BF77
:101E600059F8041C8907D4D5DCE700BFD9F8002055
:101E700049F63803C2F34042C0F600039A5C484377
:101E8000B0FBF2F0D9F8001049F62002C1F30311BB
:101E9000C0F60002515C40F2080220FA01F140F263
:101EA0000400C2F200000068C2F200021160FFF7F5
:101EB0008FFE002001B0BDE8F083000040F2080072
:101EC00041F20401C2F20000C4F202010068096894
:101ED00049F63002C1F30221C0F60002515CC8404D
:101EE0007047000040F2080041F20401C2F2000015
:101EF000C4F202010068096849F63002C1F3C22148
:101F0000C0F60002515CC840704700002DE9F04166
:101F100082B0002868D00446007841F20006C0076D
:101F2000C4F2020625D0706800F00C0004281BD013
:101F3000706800F00C00082802D17068C00313D448
:101F40006068002800F06881B0F5A02F00F07C8167
:101F5000B0F5803F00F07C81306820F48030306044
:101F6000306820F4802076E13068800301D5606815
:101F7000D0B32078800718D5706810F00C0F07D008
:101F8000706800F00C0008286ED17068C0036BD434
:101F90003068800702D52069012825D13068616941
:101FA00020F0F80040EAC1003060207800071FD41C
:101FB0002078400732D4E56995B1706800F00C00D4
:101FC000082840F08F80012D0ED07068216A00F43F
:101FD00080328A4208D1616A00F47010884203D1CD
:101FE000002002B0BDE8F081012002B0BDE8F08120
:101FF000A069002862D00020C4F242200121C0F86C
:102000008014FFF7BDFD0546706A800700F18C80E3
:10201000FFF7B6FD401B0228F6D92AE1F06910F05F
:10202000805808D1F06940F08050F061F06900F00C
:1020300080500090009847F20007C4F2000738680B
:10204000C00529D4386840F480703860FFF798FDE7
:10205000054600BF3868C0051ED4FFF791FD401B40
:102060006428F7D905E100BF2069002840F200008C
:10207000C4F2422000F0828001210160FFF780FD60
:10208000054600BF306880073FF588AFFFF778FD51
:10209000401B0228F6D9ECE0E068002800F08080C0
:1020A000052800F09780012800F09880306A20F021
:1020B00001003062306A20F0040092E00020C4F297
:1020C00042200021C0F88014FFF75AFD054600BFEA
:1020D000706A80077FF56CAFFFF752FD401B022846
:1020E000F6D9C6E00027C4F2422700203866FFF781
:1020F00047FD022D05460BD13068800140F1BE80BE
:10210000FFF73EFD401B02284FF00300F4D968E7BB
:10211000306880017FF564AFFFF732FD401B022875
:102120004FF00300F4D95CE740F20800C2F200006F
:10213000006844F6D351C1F26201A0FB0101480AD4
:10214000019000BF00BF0198411E002801913FF49B
:102150002FAF00BF0198411E002801913FF428AF26
:1021600000BF0198411E002801913FF421AF00BF3C
:102170000198411E00280191E4D119E70021016076
:10218000FFF7FEFC054600BF306880077FF50DAF06
:10219000FFF7F6FC401B02284FF00300F4D920E7BC
:1021A000306A20F001003062306A20F004003062B2
:1021B000FFF7E6FC054641F2883700BF306A80072A
:1021C00020D5FFF7DDFC401BB8424FF00300F5D9E6
:1021D00007E700BF306A40F004003062306A40F028
:1021E00001003062FFF7CCFC054641F2883700BFA2
:1021F000306A800706D4FFF7C3FC401BB842F7D90A
:1022000037E000BFB8F1000F7FF4D5AEF06920F0E1
:102210008050F061CFE600BF306820F4803030603D
:10222000306820F480203060FFF7AAFC054600BF2C
:10223000306880037FF59DAEFFF7A2FC401B642849
:102240004FF00300F4D9CCE6306840F480203060D1
:10225000306840F480303060FFF792FC054600BFE4
:10226000306880033FF585AEFFF78AFC401B642889
:10227000F6D9032002B0BDE8F08100BF206AB0F5B6
:10228000803F05D17168A26821F40031114371606B
:102290007168626A21F4741111430843706001206F
:1022A0003866FFF76DFC0446306880013FF598AE54
:1022B000FFF766FC001B02284FF00300F4D990E6FC
:1022C000411E0020B0EB116F1CBF012070474EF281
:1022D0001002CEF2000251604EF62351CEF2000100
:1022E000F0230B7007219060116070477047000069
:1022F00070470000B0B582B0044600680168C3684A
:10230000426901F02F05202D03F0200506D12DB1E3
:10231000204602B0BDE8B04000F0FABD5FEA017CA3
:102320001EBF02F0010E03F4907212EB0E0253D1A5
:10233000226B012A05D111F0100218BF13F0100210
:1023400036D10A0622D513F080021FD094F841102E
:1023500021293FD1A168B1F5805F03D1216900290E
:1023600000F07082216A4A1C226209784160E18C87
:1023700001390A04E1842DD1C16821F08001C160D6
:10238000C16841F04001C16002B0B0BD490621D52D
:1023900013F040011ED0C16821F04001C16020212E
:1023A000204684F8411002B0BDE8B04000F076BC91
:1023B00000210191016801914168019101994069F1
:1023C000400613D4A08DE18DE28D002A18BF88420B
:1023D00040F0BA8102B0B0BDCA0718BF13F48072D2
:1023E00040F0B6804A0700F1B980BEE0E06B0168BA
:1023F00049688AB2002AEDD0A38D9A42EAD2E185DB
:102400008069202800F09C80206850E8030F216834
:1024100020F4807041E80302DAB1206850E8030F2D
:10242000216820F4807041E8030292B1206850E8EE
:10243000030F216820F4807041E803024AB120684C
:1024400050E8030F216820F4807041E80302002A5D
:10245000DAD1206850E8050F216820F0010041E83A
:102460000502DAB1206850E8050F216820F001006C
:1024700041E8050292B1206850E8050F216820F07C
:10248000010041E805024AB1206850E8050F2168C3
:1024900020F0010041E80502002ADAD1206850E866
:1024A000050F216820F0400041E80502DAB12068FC
:1024B00050E8050F216820F0400041E8050292B184
:1024C000206850E8050F216820F0400041E805022F
:1024D0004AB1206850E8050F216820F0400041E82B
:1024E0000502002ADAD1202084F84200002020636F
:1024F000206850E8030F216820F0100041E8030233
:10250000DAB1206850E8030F216820F0100041E89C
:10251000030292B1206850E8030F216820F01000F8
:1025200041E803024AB1206850E8030F216820F017
:10253000100041E80302002ADAD1E06BFFF77CF8D3
:1025400002206063A08DE18D401A81B2204674E1C3
:10255000626C42F0010262644A0706D5BEF1000FC8
:1025600003D0626C42F0020262648A0706D5BEF1B3
:10257000000F03D0626C42F004026264BCF1000FF1
:1025800009D545EA0E02B2FA82F2520903D1626C11
:1025900042F008026264626C002A3FF41BAF11F043
:1025A000200118BF002D03D0204600F0B1FC2068A8
:1025B0004069616C00F0400001F00801401800F033
:1025C000B58000BF206850E8030F216820F49070A8
:1025D00041E80302BAB3206850E8030F216820F4F1
:1025E000907041E8030272B3206850E8030F21683D
:1025F00020F4907041E803022AB3206850E8030FEA
:10260000216820F4907041E80302002ADAD11AE030
:10261000206850E8050F216820F0010041E805021C
:10262000DAB1206850E8050F216820F0010041E888
:10263000050292B1206850E8050F216820F00100E2
:1026400041E805024AB1206850E8050F216820F0F2
:10265000010041E80502002ADAD1206B012824D1CB
:10266000206850E8030F216820F0100041E80302C1
:10267000DAB1206850E8030F216820F0100041E82B
:10268000030292B1206850E8030F216820F0100087
:1026900041E803024AB1206850E8030F216820F0A6
:1026A000100041E80302002ADAD1202084F8420019
:1026B000002020632068406940063FD5206850E82C
:1026C000050F216820F0400041E80502DAB12068DA
:1026D00050E8050F216820F0400041E8050292B162
:1026E000206850E8050F216820F0400041E805020D
:1026F0004AB1206850E8050F216820F0400041E809
:102700000502002ADAD1E06BC0B142F60571C0F6CD
:1027100000014163FEF7B4FF00283FF45BAEE06BBD
:10272000416B02B0BDE8B040084700BF2046FFF74C
:10273000DFFD0020606402B0B0BD00BF204602B0E3
:10274000BDE8B040FFF7D4BD401A216851E8031F2F
:10275000226821F4907142E80313DBB1216851E84B
:10276000031F226821F4907142E8031393B121689A
:1027700051E8031F226821F4907142E803134BB122
:10278000216851E8031F226821F4907142E8031385
:10279000002BDAD1216851E8051F226821F00101E0
:1027A00042E80513DBB1216851E8051F226821F0DA
:1027B000010142E8051393B1216851E8051F226821
:1027C00021F0010142E805134BB1216851E8051FD2
:1027D000226821F0010142E80513002BDAD1202103
:1027E00084F8421000212163216851E8031F226808
:1027F00021F0100142E80313DBB1216851E8031F07
:10280000226821F0100142E8031393B1216851E8D6
:10281000031F226821F0100142E803134BB1216825
:1028200051E8031F226821F0100142E80313002B36
:10283000DAD1022281B22046626302B0BDE8B04024
:10284000FFF754BD216A31F8022B6FF35F2242601B
:1028500021628CE5002804BF0120704710B50446B2
:1028600090F8410028B9002084F84000204600F08C
:1028700063F8242084F841002068D4E90212C36878
:1028800023F40053C360036923F440531A430261E5
:10289000D4E904231143C268194341F20C639A43FB
:1028A0001143C1604169A26921F44071114343F6AB
:1028B0000002C4F201029042416103D0FFF7FEFA28
:1028C00002E000BFFFF70EFB626819214843910048
:1028D000B0FBF1F048F21F51C5F2EB11A0FB012350
:1028E0005A094FF69C73C0F6FF7302FB03003223B4
:1028F00003EB0010A0FB0101F02303EA5113206851
:1029000003EB0212C1F3431111448160016921F408
:1029100090410161416921F02A014161C16841F49E
:102920000051C16000202021606484F8411084F8C7
:102930004210606310BD000070B586B0006844F2BC
:102940000041C4F20001002688420596CDE90366E5
:10295000029647D044F60001C4F20001884279D0C3
:1029600043F60001C4F20101884240F0A58041F223
:102970001800C4F20200016840F6000441F48041EE
:1029800001600168C4F2010401F4804101910199E0
:10299000016802AD41F0040101600068294600F0C1
:1029A0000400019001984FF40070029002200390FF
:1029B000032005902046FEF7C1FF4FF4806002908F
:1029C0000020CDE9030020462946FEF7B7FF252069
:1029D00001210022FFF756F92520FFF73FF906B045
:1029E00070BD00BF41F21800C4F20200416840F619
:1029F000000441F4003141604168C4F2010401F473
:102A0000003101910199016802AD41F004010160BA
:102A10000068294600F0040001900198042002900B
:102A200002200390032005902046FEF787FF082030
:102A3000CDE90206204629460496FEF77FFF2620B0
:102A400000210022FFF71EF92620FFF707F906B044
:102A500070BD00BF41F21800C4F20200416802AD2F
:102A600041F480214160416801F480210191019984
:102A7000016841F0080101600068294600F0080083
:102A8000019001984FF4806002900220039003208F
:102A9000059040F60000C4F2010000F58064204675
:102AA000FEF74CFF4FF4006002900020CDE90300D8
:102AB00020462946FEF742FF06B070BD90F842302E
:102AC000202B1CBF0220704700294FF0010318BFC4
:102AD000002A01D118467047002303638162222136
:102AE0008285C285436480F842100169006819B18B
:102AF000C16841F48071C1604169002341F0010166
:102B00004161C16841F02001C16018467047000072
:102B100010B5044603F0CAFB2046BDE8104002F0A1
:102B200071BE00002DE9F041044690F841002028D4
:102B30001CBF0220BDE8F0810D4600294FF00100C6
:102B400000F0AA801646002A08BFBDE8F0810020E8
:102B500060642120984684F84100FFF711F8A684AC
:102B6000E684A1680646B1F5805F02D1206900289D
:102B700062D02F460025E08C002861D018F10100BA
:102B800018D0B8F1000F37D1216808E017F8010B11
:102B90004860E08C0138E084E08C002851D008685F
:102BA000000673D5002FF1D135F8020B00276FF323
:102BB0005F20EDE7216802E00868000609D4086894
:102BC000000606D4086800065CBF08685FEA00607B
:102BD000F2D51FB117F8010B05E000BF35F8020B65
:102BE00000276FF35F204860E08C0138E084E08CC0
:102BF0000028E4D125E000BF216800BF0868000676
:102C000008D4FEF7BDFF801B404541D82168C86845
:102C1000F4E700BF17B117F8010B04E035F8020B19
:102C200000276FF35F204860E08C0138E084E08C7F
:102C30000028E3D105E000BF0027E08C00289DD1EB
:102C40002168086840061FD4B8F1000F1ED018F1A3
:102C500001000FD10868400616D40868400613D456
:102C60000868400610D4086840064FF00000F1D50F
:102C70000FE000BFFEF784FF801B404508D82068A6
:102C8000C16800684006F5D5002002E0FEF778FF35
:102C90000320202184F84110BDE8F0817047000036
:102CA000FEE700002DE9F04F85B041F21800C4F2B4
:102CB0000200016840F6000941F01001016001685E
:102CC0004FF0020801F01001019101990168C4F26E
:102CD000010941F020010160016809F5006A01F075
:102CE0002001019101990168012241F00401016074
:102CF00001684FF4005601F0040101910199016847
:102D0000012541F008010160016801F0080101910D
:102D10000199016841F001010160006800F00100C3
:102D2000019001980420C4F20100016868F31A615F
:102D3000016050464FF40051FEF71CFF4846102139
:102D400000220027FEF716FF4846A02100224FF080
:102D5000A00BFEF70FFF09F5806420464CF22131ED
:102D60000022FEF707FF20464FF443510122FEF7F1
:102D700001FFCDE9016501AE50463146CDE903784A
:102D8000FEF7DCFD48463146CDE901570395FEF7D5
:102D9000D5FD49F60210CDE90107484631460395B5
:102DA000FEF7CCFD1820CDE90107204631460395FA
:102DB000FEF7C4FD4FF48040CDE90107504631468F
:102DC0000395FEF7BBFD102001A981E8A10148464B
:102DD0003146FEF7B3FD4FF0030A48463146CDE9D0
:102DE00001B50397CDF810A0FEF7A8FD4020CDE96E
:102DF0000107484631460397FEF7A0FD4FF2213008
:102E000001A981E8A10120463146FEF797FDC020C7
:102E10000190112002A981E8210420463146FEF7E5
:102E20008DFD20463146CDE901870395FEF786FDED
:102E300005B0BDE8F08F000080B540F2183043F6D1
:102E40000001C2F20000C4F2010100234FF00C0C9B
:102E50004FF4E13280E80E00C0E90333C0E905C356
:102E6000C361FFF7F7FC002808BF80BDBDE88040C4
:102E7000FEF76CBB80B540F2603044F20041C2F214
:102E80000000C4F2000100234FF00C0C4FF4E132BB
:102E900080E80E00C0E90333C0E905C3C361FFF752
:102EA000D9FC002808BF80BDBDE88040FEF74EBBBE
:102EB00080B540F2A83044F60001C2F20000C4F22E
:102EC000000100234FF00C0C4FF4E13280E80E00BB
:102ED000C0E90333C0E905C3C361FFF7BBFC0028A9
:102EE00008BF80BDBDE88040FEF730BBFEE70000B4
:102EF000FEE700007047000070470000FEF746BE86
:102F000070470000406A0021C185C184FFF7F0B915
:102F100081B090F84210222921D183680246B3F58E
:102F2000805F09D152F8281F52F8183C002B63D05B
:102F300003685B680AE000BF52F8281F13B90369F1
:102F4000002BF5D003685B6803F07F030B701168FA
:102F500001311160C18D01390A04C18502D001B06F
:102F6000704700BF0168CA6822F02002CA60CA68C0
:102F700022F48072CA604A6922F001024A6120216B
:102F800080F8421000214163026B012A3CD10163A9
:102F9000016851E8031F026821F0100142E80313A1
:102FA000DBB1016851E8031F026821F0100142E81B
:102FB000031393B1016851E8031F026821F0100167
:102FC00042E803134BB1016851E8031F026821F086
:102FD000100142E80313002BDAD101680A68D20617
:102FE00006D5002200920A68009249680091009973
:102FF000818D01B0FFF77AB9026852686FF35F22E2
:1030000021F8022B8162A5E701B0FFF781BD000026
:1030100040F21830C2F20000FFF76CB940F26030A5
:10302000C2F20000FFF766B9FEE7000070B588B095
:1030300040F2DA16C2F20006B17840F20C054B1EDF
:103040000022022B26A3C2F2000538BF01225B5CDE
:103050006C5C18B19C4238BF621C03E0944288BF8C
:10306000631E1A46481C6A54D4B200901EA3012065
:1030700000210022019402F08DF90220F07002F08C
:10308000C1FA4AF29F11C0F60001002002F092FB43
:10309000B07849F60411C0F6000151F820302E5CDA
:1030A0004AF24F220DF10E04C0F600022046122112
:1030B0000096FDF7FDF80120214602F07BFB4AF265
:1030C000AD11C0F60001022002F074FB4AF28E112D
:1030D000C0F60001032002F06DFB08B070BD00BF18
:1030E000630C1F173B3B000054696D6520536574EA
:1030F000206669656C642025752076616C75652095
:103100002530327500000000B0B582B040F60004F2
:1031100040F28C15C4F20104C2F2000504F500610E
:1031200028464FF40052002302F0CAF84FF0140C66
:1031300005F11400214601220023CDF800C000F063
:10314000EBFA05F1280021461022012302B0BDE868
:10315000B04000F067BB000010B540F28C14C2F222
:103160000004204602F0E6F804F1140000F0EEFA44
:1031700004F12800BDE8104000F090BB2DE9F041BB
:1031800088B040F2DA18C2F20008054688F800005C
:10319000471E4AF26510FAB2C0F600000C4688F8E5
:1031A0000110072A014608D8C2EBC20140F21402FE
:1031B000C2F2000202EB810189684AF26A124AF205
:1031C000BE16C0F60002022C08BF1046C0F600066C
:1031D0004AF20923012C18BF06460091C0F60003ED
:1031E000012000210022019602F0D4F8012D08BF31
:1031F000022C13D0012C40F0EF80072F00F2EC805E
:10320000DFE807F004142638467E9E5E002088F82A
:10321000040008B0BDE8F04105F0BEBC002088F80D
:10322000030008B0BDE8F04104F0E2B898F80300EC
:10323000012840F0AB8098F80410002900F0A68027
:10324000481E88F8040008B0BDE8F04105F0A4BCB1
:1032500098F80300012840F09D8098F80410022996
:1032600000F29880481C88F8040008B0BDE8F041DE
:1032700005F092BC98F80300022840F0AD8098F861
:103280000200411E002808BF052188F8021011E045
:1032900098F80300022840F09F8098F802004AF650
:1032A000AB2101304143890C01EB4101A0EB41000E
:1032B00088F8020008B0BDE8F04105F0D9BC00BFB5
:1032C000042088F8030002F09DF94AF20801C0F6D4
:1032D0000001002002F06EFA4AF25A11C0F6000115
:1032E000012002F067FA4AF27811C0F600010220CC
:1032F00002F060FA4AF2F413C0F600033EE000BFA9
:1033000098F803000138032866D8DFE800F0034B83
:103310005D6300BF98F80400022861D0012800F026
:103320007F80002840F0B8806EA301200021002299
:1033300002F030F803F0D4FD08B0BDE8F08100BF22
:10334000032088F8030002F05DF949F6A371C0F686
:103350000001002002F02EFA4AF25A11C0F60001D4
:10336000012002F027FA4AF27811C0F6000102208B
:1033700002F020FA4AF2CC13C0F60003012000212B
:10338000002208B0BDE8F04102F004B8022823D1C1
:10339000012002E002281FD1002008B0BDE8F04162
:1033A000FFF744BE40F20C00C2F200000188D0F8E2
:1033B0000200ADF80C10CDF80E0003A803F02AFFB0
:1033C00008B0BDE8F08100BF03F0B2FA08B0BDE874
:1033D000F08100BF03F0CAFB08B0BDE8F08100BF78
:1033E000032088F8030002F00DF949F6A371C0F636
:1033F0000001002002F0DEF94AF25A11C0F6000185
:10340000012002F0D7F94AF27811C0F6000102203B
:1034100002F0D0F94AF2CC13C0F600035AE000BF24
:103420004FF40070A8F8020002F0ECF84AF29F1185
:10343000C0F60001002002F0BDF998F8020049F63C
:103440000411C0F6000151F8203040F20C01C2F224
:1034500000010F5C4AF24F2203ACC0F60002204686
:1034600012210097FCF724FF0120214602F0A2F967
:103470004AF2AD11C0F60001022002F09BF94AF2B7
:103480008E11C0F60001032002F094F94AF22B23BA
:10349000C0F600031EE000BF042088F8030002F01D
:1034A000B1F84AF20801C0F60001002002F082F9EA
:1034B0004AF25A11C0F60001012002F07BF94AF2EB
:1034C0007811C0F60001022002F074F94AF2F413F8
:1034D000C0F6000301200021002201F05BFF08B0CC
:1034E000BDE8F0814D656E753A20436172642054E9
:1034F00065737400F0B581B040F600440546C4F22F
:1035000001040026002704E06D00072F07F10107E2
:1035100066D2E8B2C20920468021FEF72BFB204686
:1035200040210122FEF726FB8DF801609DF8010085
:103530001D2823D89DF8010001308DF801009DF869
:1035400001001D281AD89DF8010001308DF80100F6
:103550009DF801001D2811D89DF8010001308DF85B
:1035600001009DF801001D2808D89DF801000130D8
:103570008DF801009DF801001E28DBD32046402174
:103580000022FEF7F7FA8DF802609DF802001D2870
:10359000BAD800BF9DF8020001308DF802009DF8F6
:1035A00002001D28B0D89DF8020001308DF80200FD
:1035B0009DF802001D28A7D89DF8020001308DF863
:1035C00002009DF802001D289ED89DF802000130DF
:1035D0008DF802009DF802001E28DBD394E700BF9F
:1035E000204680210122FEF7C5FA20464021012213
:1035F000FEF7C0FA00208DF803009DF803001D2897
:1036000024D800BF9DF8030001308DF803009DF819
:1036100003001D281AD89DF8030001308DF803001F
:103620009DF803001D2811D89DF8030001308DF886
:1036300003009DF803001D2808D89DF80300013001
:103640008DF803009DF803001E28DBD3204680215F
:10365000FEF782FA0546204640210022FEF78AFA4C
:10366000B5FA85F0400901B0F0BD000040F2F0303D
:10367000C2F2000000687047F0B585B04FF6004513
:10368000C0F600052868696801264A1C531C1446C8
:1036900008BF01248A4244F24321C4F6543138BFA2
:1036A0003446884240F2F030C2F200004FF000078A
:1036B00018BF0124046002970097FEF727F901A8BC
:1036C00069460197CDE90356FEF748F820B1FEF7A9
:1036D000BDF805B0F0BD00BF44F24322C4F6543239
:1036E000022029460023FEF7BBF80028EFD1291D50
:1036F000022022460023FEF7B3F8FEF7A7F805B034
:10370000F0BD0000014600284FF0000008BF7047E0
:103710004A7A487210467047002808BF7047DDF8A3
:1037200000C00160002182808371BCF1000F08BFDE
:103730004FF0140CA0F807104172C0E9031C704749
:10374000002814BFC079002070470000F0B581B098
:10375000F0B104460068A188FEF7FEF9A779054696
:10376000C01BB0FA80F0460902F00EFD217AB1428A
:1037700010D1D4E9030102F009FD48B1E079B0426B
:1037800006D0012803D1BD421CBF01206072E67142
:1037900001B0F0BD2672E06001B0F0BD002808BFA6
:1037A0007047B0B501250446002908BF64210572A1
:1037B0000020C4E9031002F0E7FC60612068A188E2
:1037C000A279E571BDE8B040FEF7D4B9002808BF82
:1037D0007047B0B500294FF00105044608BF6421C9
:1037E000002A08BF4FF4C8720572C0E9031202F044
:1037F000CBFC60612068A188A279E571BDE8B0408A
:10380000FEF7B8B9002808BF704703468079998849
:10381000B0FA80F0420918684FF0000CA3F807C016
:10382000FEF7A8B9002808BF704710B54FF0000E8A
:103830008446016082808371A0F807E064204FF421
:10384000C874CCE90304B3FA83F04309084611466F
:103850001A46CCF814E0BDE81040FEF78BB9000022
:10386000002808BF7047034680799988B0FA80F035
:10387000420918684FF0000CA3F807C0FEF77AB9A8
:10388000002808BF70470346006899889A794FF06E
:10389000010CA3F807C0FEF76DB90000B0B5D0B3B6
:1038A0000446007AB8B302F06FFC2169A1B1E27955
:1038B0000546606912B3E16802F068FC58B3A1796B
:1038C0000020E071B1FA81F22068A1885209FEF768
:1038D00051F96561B0BD00BFE168606902F056FC56
:1038E000C8B1A0790023B0FA80F042092068A1880D
:1038F000A4F80730BDE8B040FEF73CB902F046FC42
:10390000002808BFB0BD2068A188A2790123E37117
:10391000FEF730F96561B0BDB0B584B0421EB62A7D
:103920008C4600F2BD81DFE812F0B700C500D70079
:10393000E900F70009011D012F014F016101730129
:1039400083019301A901BB01BB01BB01BB01BB0109
:10395000BB01BB01BB01BB01BB01BB01BB01BB0187
:10396000BB01BB01BB01BB01CB01D901FF011F02A0
:103970002D023B02BB01BB01BB01BB01BB01BB0173
:10398000BB01BB01BB01BB0149025702BB01BB012B
:10399000BB01BB01BB01BB01BB01BB01BB01BB0147
:1039A000BB01BB01BB01BB0165027302BB01BB01D3
:1039B000BB01BB01BB01BB01BB01BB01BB01BB0127
:1039C000BB01BB01BB01BB018302BB01BB01BB014E
:1039D000BB01BB01BB01BB01BB01BB01BB01BB0107
:1039E000BB01BB01BB01BB0191029F02AD02B3024F
:1039F000B902BF02C502CB02D102E302BB01BB0187
:103A0000BB01BB01BB01BB01F102FF020D03BB0106
:103A1000BB01BB01BB01BB01BB01BB01BB01BB01C6
:103A2000BB01BB01BB01BB011B0329033703BB0166
:103A3000BB01BB01BB01BB01BB01BB01BB01BB01A6
:103A4000BB01BB01BB01BB014503BB01BB01BB010A
:103A5000BB01BB01BB01BB01BB01BB01BB01BB0186
:103A6000BB01BB01BB01BB01530361036F037B03BC
:103A700089039703A503BB01BB01BB01BB01BB01CC
:103A8000BB01BB01BB01BB01B303C103CF03DD031A
:103A9000EB03F70303040F0449F63D53C0F600039C
:103AA00001200021002201F075FC04B0BDE8B04007
:103AB00000F0B2BB49F61F33C0F60003012000211D
:103AC000002201F067FC40F28C10C2F2000004B04A
:103AD000BDE8B04001F020BC49F6C923C0F60003A0
:103AE00001200021002201F055FC40F28C10C2F2AE
:103AF000000004B0BDE8B04001F0FEBB49F69F6392
:103B0000C0F6000301200021002201F043FC04B0B4
:103B1000BDE8B04001F0B8B849F6F833C0F600038C
:103B200001200021002201F035FC40F28C10C2F28D
:103B3000000004B0BDE8B04001F018BC49F65523C0
:103B4000C0F6000301200021002201F023FC40F216
:103B50008C10C2F200004FF4FA7104B0BDE8B0401E
:103B600001F090BB49F65453C0F600030120002138
:103B7000002201F00FFC40F28C10C2F2000004B0F1
:103B8000BDE8B04001F090BB49F6F243C0F6000337
:103B900001200021002201F0FDFB40F2A014C2F23E
:103BA00000042046FFF7CCFD05462046FFF7AAFD9E
:103BB000044649F679730095C0F600030120002100
:103BC00000220194ACE000BF49F62B33C0F600039D
:103BD00001200021002201F0DDFB40F2B410C2F20E
:103BE000000004B0BDE8B040FFF74ABE49F6D62356
:103BF000C0F6000301200021002201F0CBFB40F2BF
:103C0000B410C2F2000004B0BDE8B040FFF728BE17
:103C100049F6FC53C0F6000301200021002201F008
:103C2000B9FB40F2B410C2F20000322196E000BFAE
:103C300049F6E553C0F6000301200021002201F0FF
:103C4000A9FB40F2B410C2F20000C82186E000BF18
:103C500049F62F23C0F6000301200021002201F0C5
:103C600099FB40F2B410C2F2000064214FF4C87214
:103C700004B0BDE8B040FFF7A9BD00BF49F66853E6
:103C8000C0F6000301200021002201F083FB40F276
:103C9000B410C2F2000004B0BDE8B040FFF7B2BDFE
:103CA00049F6C53149F63A330090C0F60001C0F636
:103CB0000003022040F2C512CDF804C030E000BF7E
:103CC00049F61263C0F6000301200021002201F032
:103CD00061FB04B0BDE8B04001F032B949F672238F
:103CE000C0F6000301200021002201F053FB40F246
:103CF0008C14C2F20004204601F038FB204601F08B
:103D0000D9FA0FF2EC410FF2EC4549F69653002830
:103D100008BF0D46C0F600030120002100220095D7
:103D200001F038FB04B0B0BD49F68D23C0F60003A6
:103D300001200021002201F02DFB49F6C53149F692
:103D40008743C0F60001C0F600030220FB2201F009
:103D500021FB40F2B410C2F20000502104B0BDE8D3
:103D6000B040FFF71BBD00BF49F6D743C0F60003C4
:103D700001200021002201F00DFB04B0BDE8B0409D
:103D800001F034BA49F6B153C0F600030120002116
:103D9000002201F0FFFA04B0BDE8B04001F0E8B93C
:103DA00049F68463C0F6000301200021002201F0DF
:103DB000F1FA04B0BDE8B04001F044B849F624532C
:103DC000C0F6000301200021002201F0E3FA04B054
:103DD000BDE8B04001F098B949F64F63C0F6000362
:103DE00001200021002201F0D5FA04B0BDE8B04066
:103DF00001F07EB949F6B163C0F60003012000214D
:103E0000002201F0C7FA04B0BDE8B04001F026BEC0
:103E100049F6B023C0F6000301200021002201F082
:103E2000B9FA0DF10B0001F03BFF04B0B0BD00BFCB
:103E300049F66073C0F6000301200021002201F062
:103E4000A9FA04B0BDE8B04001F0BEBC49F6084391
:103E5000C0F6000301200021002201F09BFA04B00B
:103E6000BDE8B04000F056BB49F66643C0F600031B
:103E700001200021002201F08DFA04B0BDE8B0401D
:103E800000F0D0BD604604B0BDE8B04004F046BECE
:103E9000604604B0BDE8B04004F0C2BD604604B066
:103EA000BDE8B04004F000BD604604B0BDE8B040DD
:103EB00004F03ABD604604B0BDE8B04004F072BD05
:103EC000604604B0BDE8B04004F0EABD49F64143A5
:103ED000C0F6000301200021002201F05BFA40F24D
:103EE000F400C2F2000004B0BDE8B04000F0F4BB42
:103EF00049F62343C0F6000301200021002201F00F
:103F000049FA04B0BDE8B04004F098B949F6DE3390
:103F1000C0F6000301200021002201F03BFA04B0AA
:103F2000BDE8B04001F0DEBF49F6BD43C0F6000376
:103F300001200021002201F02DFA04B0BDE8B040BC
:103F400002F034B849F67F53C0F600030120002187
:103F5000002201F01FFA04B0BDE8B04002F054B8EE
:103F600049F6A533C0F6000301200021002201F02C
:103F700011FA04B0BDE8B04002F068B949F6623306
:103F8000C0F6000301200021002201F003FA04B072
:103F9000BDE8B04002F006B949F6E623C0F60003DA
:103FA00001200021002201F0F5F904B0BDE8B04085
:103FB00002F040B949F68433C0F600030120002125
:103FC000002201F0E7F904B0BDE8B04000F020BEE7
:103FD00049F63563C0F6000301200021002201F0FC
:103FE000D9F904B0BDE8B04002F0B2BE49F6417361
:103FF000C0F6000301200021002201F0CBF904B03B
:10400000BDE8B04002F06CBF74A301200021002283
:1040100001F0C0F904B0BDE8B04003F0E9B900BF59
:1040200049F6C663C0F6000301200021002201F01A
:10403000B1F904B0BDE8B04003F064BA49F62173A9
:10404000C0F6000301200021002201F0A3F904B012
:10405000BDE8B04002F058BC49F60473C0F6000356
:1040600001200021002201F095F904B0BDE8B04024
:1040700002F036BC49F66563C0F60003012000215A
:10408000002201F087F904B0BDE8B04003F022BB84
:1040900049F60953C0F6000301200021002201F077
:1040A00079F904B0BDE8B04003F0DCBC49F6C75371
:1040B000C0F6000301200021002201F06BF904B0DA
:1040C000BDE8B04003F05ABD49F6E663C0F6000310
:1040D00001200021002201F05DF904B0BDE8B040EC
:1040E00003F08ABC49F60333C0F600030120002127
:1040F000002201F04FF904B0BDE8B04003F084BBEA
:104100002FA301200021002201F044F904B0BDE8F2
:10411000B04003F025BB00BF21A3012000210022F5
:1041200001F038F904B0BDE8B04003F043BB00BF74
:1041300013A301200021002201F02CF904B0BDE8F6
:10414000B04002F003BE00BF05A301200021002201
:1041500001F020F904B0BDE8B04002F0E1BD00BFBD
:10416000434D4420307842373A20436C65617220D9
:104170006C6F63616C2063617264204442000000D4
:10418000434D4420307842363A205072696E742094
:104190006C6F63616C2063617264204442000000B4
:1041A000434D4420307842353A20456E7465722084
:1041B000636172642064656C657465205549000014
:1041C000434D4420307842343A20456E7465722065
:1041D000636172642061646420554900434D44204A
:1041E000307841323A204F4C454420686F6D65006D
:1041F0004F4646004F4E00007047000080B501F06A
:1042000099FB43F61910C0F6000001F021FCBDE84F
:104210008040FFF7F1BF000010B582B049F61C10D6
:10422000C0F6000001F03CFB40F2F434C2F200049E
:1042300049F6411249F68E13C0F60002C0F600039B
:1042400020468021FCF734F8204601F029FB49F68E
:10425000501249F67113C0F60002C0F60003204662
:104260008021FCF725F8204601F01AFB49F63212AE
:1042700049F68713C0F60002C0F6000320468021ED
:10428000FCF716F8204601F00BFB49F65F120FF21F
:10429000740CC0F600021EA320468021CDF800C099
:1042A000FCF706F8204601F0FBFA1CA21FA32046EB
:1042B0008021FBF7FDFF204601F0F2FA1DA221A3A9
:1042C00020468021FBF7F4FF204601F0E9FAFFF7D2
:1042D000CDF903461FA220468021FBF7E9FF2046C7
:1042E00001F0DEFA1FA2204680214FF4E133FBF7F4
:1042F000DFFF204601F0D4FA24A002B0BDE8104050
:1043000001F0CEBA31333A35313A3433000000008F
:104310004170722032392032303236004175746873
:104320006F7220203A2025730D0A00004B656E74D1
:104330006F00000053747564656E74203A20257315
:104340000D0A0000544F444F5F53545544454E549A
:104350005F494400426F6F74202020203A20256C72
:10436000750D0A0044656275672020203A20555378
:10437000415254322025642C20464620434D44208F
:10438000444154412046460D0A0000003D3D3D3D5C
:104390003D3D3D3D3D3D3D3D3D3D3D3D3D3D3D0D7D
:1043A0000A000000B0B582B0FDF7EAFB044601F058
:1043B0008BFA0DF1070001F04FFA58B90DF107051E
:1043C0009DF80700214601F0C3FA284601F044FA9F
:1043D0000028F5D002B0B0BD2DE9F04186B08020B4
:1043E00004F046F98046822004F042F90546842014
:1043F00004F03EF90646862004F03AF90746882084
:1044000004F036F904468C2004F032F9010901EB7E
:10441000810100F00F0000EB4100632842D8210920
:1044200001EB810104F00F0202EB4101A1F10D0249
:1044300012F10C0F36D33A0902EB820207F00F0398
:1044400003EB4202A2F1200313F11F0F2AD3C6F39C
:10445000011303EB830306F00F0707EB4303172B4E
:1044600020D82F0907EB870705F00F0606EB470753
:104470003B2F17D8C8F3021606EB860608F00F0587
:1044800005EB46063C2E0DD28DE88F000CA30120D3
:10449000002100220596012400F07CFF204606B092
:1044A000BDE8F0814AF20571C0F6000112A30220B6
:1044B000AD2200F06FFF0024204606B0BDE8F08179
:1044C00044533133303220696E69743A204F4B2C9B
:1044D0002074696D653D3230253032752D253032BE
:1044E000752D2530327520253032753A25303275DC
:1044F0003A253032750000004453313330322069A0
:104500006E69743A20494E56414C49445F54494DB6
:10451000450000002DE9F04186B0802004F0A8F8A5
:104520008046822004F0A4F80546842004F0A0F818
:104530000646862004F09CF80746882004F098F888
:1045400004468C2004F094F8010901EB810100F08D
:104550000F0000EB4100632840D8210901EB8101E5
:1045600004F00F0202EB4101A1F10D0212F10C0F58
:1045700034D33A0902EB820207F00F0303EB420245
:10458000A2F1200313F11F0F28D3C6F3011303EB8D
:10459000830306F00F0707EB4303172B1ED82F09E1
:1045A00007EB870705F00F0606EB47063B2E15D8ED
:1045B000C8F3021707EB870708F00F0505EB47075D
:1045C0003C2F0BD28DE84F000AA3012000210022CE
:1045D000059700F0DFFE06B0BDE8F0814AF20571F4
:1045E000C0F600010FA30220BB2206B0BDE8F041D7
:1045F00000F0D0BE4453313330322074696D653AD7
:10460000203230253032752D253032752D2530324F
:104610007520253032753A253032753A253032759D
:10462000000000004453313330322074696D653A24
:1046300020494E56414C49445F54494D45000000C5
:10464000002808BF704710B50446802004F010F819
:10465000C0F3021101EB810100F00F0000EB4100FB
:104660006071822004F004F8010901EB810100F07F
:104670000F0000EB41002071842003F0F9FFC0F32C
:10468000011141EA810100F00F0000EB4100E070F0
:10469000862003F0EDFF010901EB810100F00F001E
:1046A00000EB4100A070882003F0E2FF010901EB5C
:1046B000810100F00F0000EB410060708C2003F0DE
:1046C000D7FF010901EB810100F00F0000EB410071
:1046D0002070BDE8104070472DE9F04186B0B0B1C0
:1046E00004460078632812D860780D3810F10C0F5A
:1046F0000DD3A078203810F11F0F08D3E0781728C9
:1047000005D820793B2802D860793C280ED34AF29C
:104710000571C0F60001A9A30220782200F03AFE3C
:104720000025284606B0BDE8F08100BF40F60046EF
:10473000C4F20106304620210022FDF71BFA304664
:10474000012100220125FDF715FA30462021012222
:10475000FDF710FA8E2004F0C7FA002004F0C4FA26
:10476000304620210022FDF705FA60794FF0CD0890
:10477000C1B201FB08F1C90A01EB8102A0EB4200C2
:1047800040EA0117304620210022FDF7F3F93046B8
:1047900001210022FDF7EEF9304620210122FDF72C
:1047A000E9F9802004F0A0FAF8B204F09DFA30464E
:1047B00020210022FDF7DEF92079C1B201FB08F1CA
:1047C000C90A01EB8102A0EB420040EA0117304622
:1047D00020210022FDF7CEF9304601210022FDF70D
:1047E000C9F9304620210122FDF7C4F9822004F0E6
:1047F0007BFAF8B204F078FA304620210022FDF767
:10480000B9F9E078C1B201FB08F1C90A01EB8102F4
:10481000A0EB420040EA0117304620210022FDF7BC
:10482000A9F9304601210022FDF7A4F930462021E4
:104830000122FDF79FF9842004F056FAF8B204F043
:1048400053FA304620210022FDF794F9A078C1B236
:1048500001FB08F1C90A01EB8102A0EB420040EA2A
:104860000117304620210022FDF784F9304601214E
:104870000022FDF77FF9304620210122FDF77AF969
:10488000862004F031FAF8B204F02EFA30462021E6
:104890000022FDF76FF96078C1B201FB08F1C90A87
:1048A00001EB8102A0EB420040EA011730462021D3
:1048B0000022FDF75FF9304601210022FDF75AF989
:1048C000304620210122FDF755F9882004F00CFA2A
:1048D000F8B204F009FA304620210022FDF74AF927
:1048E0002078C1B201FB08F1C90A01EB8102A0EBFB
:1048F000420040EA0117304620210022FDF73AF934
:10490000304601210022FDF735F9304620210122F1
:10491000FDF730F98C2004F0E7F9F8B204F0E4F97F
:10492000304620210022FDF725F9304620210022C3
:10493000FDF720F9304601210022FDF71BF9304632
:1049400020210122FDF716F98E2004F0CDF98020F8
:1049500004F0CAF9304620210022FDF70BF9207837
:104960006178A278E378667927798DE88F0005A3CE
:10497000012000210022059600F00CFD284606B01B
:10498000BDE8F0814453313330322074696D6520C5
:104990007772697474656E3A203230253032752D25
:1049A000253032752D2530327520253032753A2567
:1049B0003032753A253032750000000044533133EF
:1049C0003032207365742074696D652072656A6584
:1049D000637465643A20696E76616C6964207469F9
:1049E0006D65000080B10146007863280CD84878D6
:1049F0000D3810F10C0F07D38878203810F11F0FF5
:104A000002D3C878172801D90020704708793B28BD
:104A10004FF0000088BF704749793C2938BF01201A
:104A20007047000010B540F60044C4F2010420466F
:104A300020210022FDF79EF8204601210022FDF7EB
:104A400099F8204620210122FDF794F88E2004F0E9
:104A50004BF9002004F048F9204620210022FDF700
:104A600089F8204620210022FDF784F82046012104
:104A70000022FDF77FF8204620210122FDF77AF879
:104A8000802004F031F9002004F02EF92046202186
:104A90000022FDF76FF8204620210022FDF76AF87A
:104AA000204601210022FDF765F820462021012241
:104AB000FDF760F8822004F017F9342004F014F9AF
:104AC000204620210022FDF755F820462021002213
:104AD000FDF750F8204601210022FDF74BF8204653
:104AE00020210122FDF746F8842004F0FDF8122071
:104AF00004F0FAF8204620210022FDF73BF820467A
:104B000020210022FDF736F8204601210022FDF782
:104B100031F8204620210122FDF72CF8862004F0F0
:104B2000E3F8282004F0E0F8204620210022FDF7D9
:104B300021F8204620210022FDF71CF82046012103
:104B40000022FDF717F8204620210122FDF712F878
:104B5000882004F0C9F8042004F0C6F8204620217B
:104B60000022FDF707F8204620210022FDF702F879
:104B7000204601210022FCF7FDFF204620210122D2
:104B8000FCF7F8FF8C2004F0AFF8262004F0ACF816
:104B9000204620210022FCF7EDFF204620210022A4
:104BA000FCF7E8FF204601210022FCF7E3FF204646
:104BB00020210122FCF7DEFF8E2004F095F88020F2
:104BC00004F092F8204620210022FCF7D3FF04A332
:104BD000012000210022BDE8104000F0DBBB00BF37
:104BE00044533133303220746573742074696D65B9
:104BF000207772697474656E3A20323032362D3007
:104C0000342D32382031323A33343A30300000001B
:104C100080B582B040F2A830C2F200000CA1192287
:104C20006423FDF77FFF4AF205014AF2200CC0F62B
:104C30000001C0F6000C002808BF8C460BA3012021
:104C400000210022CDF800C000F0A4FB02B080BD1E
:104C500053544D33325F4D41494E5F4553503332CB
:104C600053335F544553540D0A00000055534152CD
:104C700054332045535033325333207465737420BA
:104C800054583A2025730000B0B592B04AF28F33E1
:104C9000C0F6000301200021002200F07BFB40F25F
:104CA0008C10C2F2000000F005FB40A140A54AF2C2
:104CB0004A63002808BF0D46C0F60003012000210A
:104CC0000022009500F066FB4AF2F733C0F60003BD
:104CD00001200021002200F05DFBFCF751FF44F6AB
:104CE000D351C1F26201A0FB01014AF233638D0985
:104CF000C0F60003012000210022009500F04AFBCD
:104D00002FA04AF27F632BA50090C0F6000301207C
:104D100000210022019500F03DFB00F06BFD02AC8C
:104D200003462AA220464021FBF7C2FA4AF2162582
:104D3000C0F600050120002100222B46009400F05F
:104D400029FB00F083FD034625A220464021FBF706
:104D5000AFFA0120002100222B46009400F01AFB3C
:104D600000F0E2FD034624A220464021FBF7A0FA12
:104D70000120002100222B46009400F00BFB00F0E4
:104D8000CDFD034622A220464021FBF791FA0120E7
:104D9000002100222B46009400F0FCFA22A30120FF
:104DA0000021002200F0F6FA12B0B0BD4F464600D6
:104DB0004F4E000031333A35313A343500000000AF
:104DC000417072203239203230323600525820720F
:104DD000696E6720617661696C20203A2025750034
:104DE0005258206F766572666C6F77202020203ACB
:104DF00020256C750000000054696D656F75742086
:104E000064726F707320203A20256C7500000000DA
:104E10004572726F722064726F7073202020203A86
:104E200020256C75000000003D3D3D3D3D3D3D3D74
:104E30003D3D3D3D3D3D3D3D3D3D3D3D3D3D3D3DA2
:104E40003D3D3D0080B54AF2C763C0F60003012036
:104E50000021002200F09EFA4AF24833C0F6000317
:104E600001200021002200F095FA4AF2F423C0F656
:104E7000000301200021002200F08CFA4AF2966320
:104E8000C0F6000301200021002200F083FA4AF25C
:104E9000CB33C0F6000301200021002200F07AFA93
:104EA0004AF20B53C0F6000301200021002200F05B
:104EB00071FA08A301200021002200F06BFA4AF2E7
:104EC0004141C0F6000110A302204422BDE8804009
:104ED00000F060BA4750494F205374657070657296
:104EE0003A205042382F5042392F504231342F50FF
:104EF000423135206F757470757473206465666116
:104F0000756C74204C4F5700536561742073656E47
:104F1000736F72204750494F3A2070696E73206E4C
:104F20006F7420636F6E6669726D65643B206E6F8F
:104F30007420696E697469616C697A656400000047
:104F4000B0B582B04AF2AB33C0F6000301200021B5
:104F5000002200F01FFA42A301200021002200F0ED
:104F600019FA4AF28243C0F6000301200021002210
:104F700000F010FA4AF2BD43C0F600030120002100
:104F8000002200F007FA4AF29F53C0F60003012006
:104F90000021002200F0FEF94AF24145C0F600056A
:104FA0004AF2E953C0F60003022029464F2200F0DE
:104FB000F1F94AF21743C0F6000301200021002254
:104FC00000F0E8F92CA301200021002200F0E2F912
:104FD00030A301200021002200F0DCF934A30120DD
:104FE0000021002200F0D6F94AF2DB244AF25E6387
:104FF000C0F60004C0F60003012000210022009446
:1050000000F0C8F94AF23B544AF26963C0F6000462
:10501000C0F60003012000210022009400F0BAF93C
:105020004AF2C1244AF27463C0F60004C0F60003D9
:10503000012000210022009400F0ACF94AF26753ED
:10504000C0F6000302202946192200F0A3F920A38C
:1050500001200021002202B0BDE8B04000F09AB962
:105060004D43552020203A2053544D3332463130A1
:1050700033433854360000004F4C4544203A20500A
:1050800042362F50423720736F6674776172652005
:10509000493243004453313330323A205042302FAA
:1050A0005042312F504235204750494F00000000F8
:1050B000537465707065723A205042382F504239EF
:1050C0002F504231342F50423135204750494F0044
:1050D0003D3D3D3D3D3D3D3D3D3D3D3D3D3D3D3D00
:1050E0003D3D3D3D3D3D3D3D3D3D3D3D3D3D3D002D
:1050F0004AF241414AF26243C0F60001C0F60003A1
:105100000220902200F046B980B54AF241414AF2AD
:105110006243C0F60001C0F6000302207D2200F0C9
:1051200039F904A3012000210022BDE8804000F0ED
:1051300031B900BF536574204150505F534541540D
:105140005F53454E534F525F50494E535F434F4E4E
:105150004649524D45443D31206166746572207761
:105160006972696E6720636F6E6669726D6564004F
:1051700080B582B04AF2DB2C4AF25E63C0F6000CC6
:10518000C0F60003012000210022CDF800C000F08D
:1051900001F94AF23B5C4AF26963C0F6000CC0F6C2
:1051A0000003012000210022CDF800C000F0F2F839
:1051B0004AF2C12C4AF27463C0F6000CC0F6000338
:1051C000012000210022CDF800C000F0E3F84AF2EF
:1051D00041414AF26753C0F60001C0F600030220C5
:1051E000192202B0BDE8804000F0D4B880B582B08A
:1051F00040F60000C4F201000121FCF7ADFC0FA154
:105200000FF2400C012808BF8C460FA3012000219B
:105210000022CDF800C000F0BDF840F2A010C2F2AC
:105220000000FEF78DFA84460EA301200021002223
:10523000CDF800C000F0AEF802B080BD4849474844
:10524000000000004C4F5700427574746F6E205080
:10525000413020726177206C6576656C3A20257349
:1052600000000000427574746F6E20504130206C55
:105270006F676963616C20707265737365643A204F
:1052800025750000002808BF704710B504460120AE
:10529000002908BF4FF4FA712072E16000F074FF3A
:1052A0002061BDE81040704700281CBF002101723A
:1052B00070470000002814BFC0790020704700002C
:1052C000002808BF704780B54FF0000E844601608B
:1052D00082808371A0F807E04FF4FA70CCF80C00DC
:1052E000B3FA83F04309084611461A46CCF810E099
:1052F000BDE88040FCF73EBC002808BF704703466D
:1053000080799988B0FA80F0420918684FF0000C53
:10531000A3F807C0FCF72EBC002808BF704703465F
:10532000006899889A794FF0010CA3F807C0FCF740
:1053300021BC0000B0B5B8B10446007AA0B100F0BD
:1053400023FF0546D4E90310490800F01FFF002899
:1053500008BFB0BD2068A188FCF704FCE079256196
:10536000B0FA80F04009E071B0BD0000002808BF2D
:10537000704710B504460068A18800222272FCF72D
:10538000F1FBE079B0FA80F04009E071BDE810402F
:1053900070470000002B08BF7047F0B5D3B058AC81
:1053A00017460D46064633A880211A462346029426
:1053B000FAF760FF032E00F29080DFE806F00305A5
:1053C0000B4300BF54A200E050A203A833ABC0219E
:1053D0007EE000BF002D69D0A81C01E0851C0430D0
:1053E00010F8021C2F2909D05C2907D0002961D0B0
:1053F00010F8011C2F2906D10EE000BF451E10F841
:10540000011C2F2908D05C2906D0002952D0017830
:105410002F2905D10CE000BF054601782F2907D0C0
:105420005C2905D0002945D041782F2904D1D5E742
:10543000451C41782F29D1D05C29CFD00029CED16D
:1054400038E000BFD5B3A81C02E000BF851C0430C3
:1054500010F8021C2F2907D05C2905D091B310F851
:10546000011C2F2905D10BE0451E10F8011C2F2926
:1054700006D05C2904D029B301782F2904D10BE090
:10548000054601782F2907D05C2905D0D1B1417894
:105490002F2905D1DAE700BF451C41782F29D5D047
:1054A0005C29D3D00029D2D10CE000BF49F69D750C
:1054B000C0F60005009510A206E000BF49F69D75F4
:1054C000C0F6000507A2009503A833ABC0210197E1
:1054D000FAF7EEFE03A800F0E3F953B0BDE8F040A0
:1054E000704700BF5B455252205D20257320282560
:1054F000733A2564290D0A005B5741524E5D202501
:1055000073202825733A2564290D0A005B494E460D
:105510004F5D2025730D0A005B444247205D202526
:10552000730D0A0010B500F099FA00F06DF8FEF75F
:1055300053FF00F005FD00F0F5FE4AF23573C0F6AA
:105540000003012000210022FFF724FF4AF25174DA
:10555000C0F6000409A3022021461222FFF71AFF19
:1055600014A3012000210022FFF714FF19A3022039
:1055700021461522BDE81040FFF70CBF5A6967426B
:105580006565206D6F64756C652F6E6574776F72DD
:105590006B207374617475733A2070656E64696E04
:1055A00067207265616C206C696E6B207465737422
:1055B00000000000555341525433204553503332BC
:1055C0005333205541525420696E69743A204F4B31
:1055D000000000004553503332533320706565722C
:1055E000207374617475733A2070656E64696E67B8
:1055F000207265616C206C696E6B20746573740039
:1056000000F036BE02F006BC10B50020AE2102F05C
:1056100029FD04460020202102F024FD0440002042
:10562000102102F01FFD04400020B02102F01AFDFD
:1056300004400020C82102F015FD04400020002194
:1056400002F010FD04400020102102F00BFD044088
:105650000020402102F006FD04400020812102F0DC
:1056600001FD044000207F2102F0FCFC04400020EA
:10567000A12102F0F7FC04400020A62102F0F2FC78
:1056800004400020A82102F0EDFC044000203F214E
:1056900002F0E8FC04400020A42102F0E3FC0440F6
:1056A0000020D32102F0DEFC04400020002102F0A3
:1056B000D9FC04400020D52102F0D4FC0440002095
:1056C000802102F0CFFC04400020D92102F0CAFC66
:1056D00004400020F12102F0C5FC04400020DA2142
:1056E00002F0C0FC04400020122102F0BBFC044088
:1056F0000020DB2102F0B6FC04400020402102F033
:10570000B1FC044000208D2102F0ACFC04400020DC
:10571000142102F0A7FC04400020AF2102F0A2FCFB
:105720002040C00712D002F075FB0CA1012001241B
:1057300002F022FC0CA1032002F01EFC0CA30120AD
:1057400000210022FFF726FE204610BD0CA114A365
:105750000220B122FFF71EFE002010BD53544D332E
:1057600032204D41494E000076302E372E31000058
:105770004F4C454420696E69743A204F4B0000003D
:105780002E2E2F6B746C69622F6B745F6D6F647556
:105790006C65732F6B745F6F6C65642E6300000023
:1057A0004F4C454420696E69743A2041434B5F4633
:1057B00041494C00032888BF704719B14000C0B26E
:1057C00002F0DABB7047000080B5FFF71DFF04A3AD
:1057D000012000210022BDE88040FFF7DBBD00BFB3
:1057E0004F4C45442074657374207465787420733D
:1057F000656E740040F27810C2F20000083000F0CC
:10580000FFBA000010B5006844F20041C4F2000184
:10581000884218BF10BD40F27814C2F2000420463E
:1058200010F8081B00F03AFB10B1606801306060AE
:1058300040F2603040F27811C2F20000C2F2000182
:105840000122BDE81040FDF739B9000040F27810A0
:10585000C2F2000040687047014640F27810C2F280
:105860000000083000F0E6BA10B540F27814C2F239
:10587000000440F2744104F10800C2F200014FF448
:10588000807200F0FBFA002340F26030C2F20000A8
:10589000214601226360BDE81040FDF70FB900000A
:1058A00010B568B10446FAF7BDFE58B182B240F2B5
:1058B0006030C2F2000021466423FDF733F910BDC9
:1058C000012010BD002010BD10B584B040F260145E
:1058D000C2F200042178F9B1E268A0EB020CBCF13D
:1058E000640F19D32079A279CDE9001049F60C2173
:1058F00049F6AD130292C0F60001C0F60003022083
:105900005F22CDF80CC0FFF745FD21690020207013
:105910002071A071481C206104B010BD40F26010DD
:10592000C2F200004069704740F26010C2F200000D
:105930000069704740F26010C2F20000002101705F
:1059400001718171C0E90211C0E9041170470000C2
:1059500010B582B040F26014C2F200042278032A2B
:105960000AD88446DFE802F0020C1620BCF1FF0FD3
:1059700030D002B010BD00BF0020207002B010BDBA
:10598000BCF1FF0F28D084F804C00220207002B0C0
:1059900010BD00BFBCF1FF0F1CD084F806C003206F
:1059A000207002B010BD00BFBCF1FF0F18D049F647
:1059B0000C21C0F6000115A30220AC22CDF800C0D6
:1059C000FFF7E8FC6069013060610020207002B0E0
:1059D00010BD00BF01202070E16002B010BD00BF0B
:1059E000A26812B12079A1799047207994F806C075
:1059F000009010A3012000210022CDF804C0FFF781
:105A0000C9FC0020207002B010BD00BF496E766155
:105A10006C6964206672616D653A206578706563B3
:105A20007465642046462C20676F742030782530DA
:105A3000325800005258204652414D453A204646C1
:105A400020253032582025303258204646000000AC
:105A500040F26011C2F2000188607047B0B582B0B8
:105A600040F60044C4F2010420464FF400510122E4
:105A7000FCF780F80520FBF75DFE20464FF48051CF
:105A80000022FCF777F8022002F00EFC0F2002F053
:105A90000BFC20464FF480510122FCF76BF83220BA
:105AA000FBF748FE20464FF480510022FCF762F8D5
:105AB000542002F0F9FB8D2002F0F6FB20464FF453
:105AC00080510122FCF756F820464FF48051002205
:105AD000FCF750F8562002F0E7FB3E2002F0E4FB12
