:020000040800F2
:10000000F011002035020008452F0008F52C0008EB
:10001000412F0008991500088930000800000000F1
:100020000000000000000000000000004D2F00084C
:100030009D15000800000000492F0008512F0008FE
:100040004F0200084F0200084F0200084F0200084C
:100050004F0200084F0200084F0200084F0200083C
:100060004F0200084F0200084F0200084F0200082C
:100070004F0200084F0200084F0200084F0200081C
:100080004F0200084F0200084F0200084F0200080C
:100090004F0200084F0200084F0200084F020008FC
:1000A0004F0200084F0200084F0200084F020008EC
:1000B0004F0200084F0200084F0200084F020008DC
:1000C0004F0200084F0200084F0200084F020008CC
:1000D0004F02000865300008713000087D300008CC
:1000E0004F0200084F0200084F02000800F002F81B
:1000F00000F090F80AA090E8000C82448344AAF132
:100100000107DA4501D100F085F8AFF2090EBAE82F
:100110000F0013F0010F18BFFB1A43F0010318473B
:1001200008CD000028CD0000103A24BF78C878C15F
:10013000FAD8520724BF30C830C144BF04680C60ED
:10014000704700000023002400250026103A28BF35
:1001500078C1FBD8520728BF30C148BF0B60704739
:100160006E2900F08283702900F08D8166290BF0E2
:10017000878465290BF0848467290BF081846129C9
:100180000BF0808403681B0A28BF41F080016929B5
:1001900000F0FE80642900F0FB80752900F0F880F3
:1001A0006F2900F06B84782900F05981E92900F06B
:1001B0000584E42900F00284F52900F0FF83EF298B
:1001C00000F06884F82900F058810368DB0928BF33
:1001D00041F08001632900F08783732900F08C834C
:1001E000E32901F06F80F32901F07480002070474B
:1001F0001FB501F0C5F80400002000210BF02AFC17
:10020000401C6060002000210BF00EFCE0601FBD70
:1002100010B510BD01F086F81146FFF7E9FF07F0B1
:10022000BDF901F063F903B4FFF7F2FF03BC01F07D
:10023000ABF900000948804709480047FEE7FEE7A0
:10024000FEE7FEE7FEE7FEE7FEE7FEE7FEE7FEE786
:1002500004480549054A064B70470000552F000821
:10026000ED000008F00B0020F0110020F00D002040
:10027000F00D00207CB51D4616460C00009007D0FE
:100280004142A14202D32044401E01E04FF0FF3022
:10029000064B7B442A4669460190304600F0FFFA3F
:1002A000002C02D0009A002111707CBD2F060000A6
:1002B0000FB41CB50C0007AA009007D04142A14220
:1002C00002D32044401E01E04FF0FF30074B7B4437
:1002D00069460190069800F0E2FA0021002C01D056
:1002E000009A11701CBC5DF814FB0000F3050000BF
:1002F00070B5044685690068C10601D5302600E066
:100300002026C00707D070BDD4E9012130469047B0
:10031000206A401C20626D1EF6D570BD70B5044683
:1003200085690078C00707D170BDD4E9012120207C
:100330009047206A401C20626D1EF6D570BD70B5D6
:100340000C460546012A05D02878800600D5EA69C2
:10035000002302E0012305E05B1C934202D2E05C33
:100360000028F9D1A869E618C01AA861286A1844BB
:1003700028622846FFF7BCFF04E0D5E9012114F804
:10038000010B9047B442F8D32846FFF7C7FF70BD72
:100390002DE9F0410646002410687529314616A55E
:1003A00010D000F0F7F9002802DA404213A507E068
:1003B00031688A0701D512A502E0490704D511A5C5
:1003C000012401E000F0EFF900210A2206F12407E0
:1003D00009E0B0FBF2FCB0FBF2F302FB1C00303092
:1003E00078541846491C0028F3D123462A46304643
:1003F000BDE8F04100F0E0B9000000002D00000071
:100400002B00000020000000F0B40D460188090513
:1004100002D5214C7C4402E01F4C7C440E34002168
:1004200000F1240608E002F00F071209E75D42EA36
:1004300003721B097754491C52EA0307F3D102786F
:100440000023120704D5702D06D009B10223113400
:100450002246F0BC00F0B0B901231034F8E770B5C3
:1004600004460D462146106800F09DF902462946D3
:100470002046BDE870400023C6E7D21D22F00703E6
:10048000D3E90023C0E70368126843F02003036048
:100490000823C3610023B7E770B600002DE9F05FC1
:1004A000894604464FF0000ADFF874B1FB44C0F8F7
:1004B00020A02046E1688847002874D0252806D06F
:1004C000D4E901219047206A401C2062F1E7002610
:1004D0005F462046E16888472028054607DB312D26
:1004E00005D2781910F8200C08B10643F1E7B007DF
:1004F00001D526F00406C4F81CA00027C4F818A0F3
:100500002A2D09D028460BF087FA38B304EB870868
:10051000303DC8F8185019E059F8041B204604EB88
:1005200087029161E1688847012F054618D1E0698B
:10053000002820DA26F020061DE0D8F8180000EB8D
:10054000800005EB40003038C8F818002046E1680C
:10055000884705460BF060FA0028EED1012F0AD03B
:100560002E2D08D12046E16888477F1C0546022FC2
:1005700046F02006C4DBA069002803DA404246F0BA
:100580000106A061F00701D026F010066C2D0BD0FB
:10059000682D09D04C2D39D06A2D35D0742D35D029
:1005A0007A2D33D016E038E0E1682F4620468847A0
:1005B000B842054609D16C2F26D04FF48060E1681F
:1005C000064320468847054604E06C2F1AD04FF4B6
:1005D000807006430DB3A5F14100192802D82035DB
:1005E00046F400664A462946204626604E46FFF7F6
:1005F000B7FD80B101280BD0F61D26F0070000F1F1
:10060000080956E74020E4E78020D8E70020D6E735
:1006100006F104094DE7284652E7206ABDE8F09F3D
:1006200000B6000010B5431C02E010F8011B71B1C8
:100630008107FAD14FF0013202C88C1A8C4314EAB8
:10064000C211F9D0C01A0A0603D0C01E10BDC01ACC
:1006500010BD0A0401D0801E10BD0902FCD0401E4E
:1006600010BD032A40F2308010F0030C00F015801A
:1006700011F8013BBCF1020F624498BF11F801CBA5
:1006800000F8013B38BF11F8013BA2F1040298BF0A
:1006900000F801CB38BF00F8013B11F0030300F074
:1006A0000382083AC0F0088051F8043B083A51F838
:1006B00004CBA0E80810F5E7121D5CBF51F8043B1D
:1006C00040F8043BAFF30080D20724BF11F8013B90
:1006D00011F801CB48BF11F8012B24BF00F8013BF2
:1006E00000F801CB48BF00F8012B704702F0FF0370
:1006F00043EA032242EA024200F024B84FF000022B
:100700000429C0F0128010F0030C00F01B80CCF123
:10071000040CBCF1020F18BF00F8012BA8BF20F891
:10072000022BA1EB0C0100F00DB85FEAC17C24BFE5
:1007300000F8012B00F8012B48BF00F8012B70478F
:100740004FF0000200B5134694469646203922BF6A
:10075000A0E80C50A0E80C50B1F12001BFF4F7AFB5
:10076000090728BFA0E80C5048BF0CC05DF804EB97
:10077000890028BF40F8042B08BF704748BF20F805
:10078000022B11F0804F18BF00F8012B7047704703
:100790007047704709684A0501D540B27047C905DE
:1007A000FCD500B2704709684A0501D5C0B2704750
:1007B000C905FCD580B270472DE9F0470D46994632
:1007C0009246044600F124080168880604D5E069D1
:1007D00021F01001216000E00120A84201DD471B4B
:1007E00000E00027A1697A1902EB0900081AA0614C
:1007F0002078C00602D42046FFF77AFD002608E0E4
:10080000D4E901211AF806009047206A401C761CA2
:1008100020624E45F4DB2078C0060AD52046FFF75B
:1008200067FD06E0D4E9012130209047206A401C92
:100830002062381EA7F10107F4DC07E0D4E90121AA
:1008400018F805009047206A401C2062281EA5F178
:100850000105F3DC2046FFF761FD2078000602D594
:100860000220BDE8F0870120FBE711680268006AFA
:10087000530501D508700AE0D30501D5088006E0CC
:10088000130603D5C217C1E9000200E00860012089
:100890007047000001694A1C02610878704700B582
:1008A0008FB0CDE901310021059105497944CDE9A9
:1008B000031011466846FFF7F1FD0FB000BD0000C0
:1008C000E5FFFFFFD1E900239A4202D2531C0B60DF
:1008D0001070704710B5436913B1AFF3008001E0A9
:1008E000FFF72DFD012010BD127800F124010A70E0
:1008F00000224A700122EDE711684FF0FF32E9E76C
:100900002DE9FF5F15468A460446DFF8AC80F844BF
:100910000027D8E900103E46CDE9001010E03AF873
:1009200016106A4602A800F0D9FC411C07D02178B5
:10093000890603D5E269391891420DD80744761C1F
:100940002078800602D5E069B84205DDAE42E6DBDC
:100950003AF816000028E2D1A069C01BA061204629
:10096000FFF7C6FCD8E90010CDE90010002017E021
:100970003AF818106A4602A800F0B0FCB0F1FF3F48
:1009800081460BD000250DF1080B05E0D4E90121CB
:100990001BF8050090476D1C4D45F7D308F1010089
:1009A000B0428046E4DB206A384420622046FFF7EC
:1009B000B5FCBDE8FF9F0000B2B100002DE9F04199
:1009C0008046D21D22F007020025D2E90002F52957
:1009D00015A614D0011E72F1000106DA0023D0EB37
:1009E000030063EB020211A608E0D8F800108B07A1
:1009F00001D50FA602E0490701D50EA60125114633
:100A0000002408F1240704E000F080F830323A5561
:100A1000641C50EA0102F7D12B463246214640467B
:100A2000BDE8F041FFF7C8BE000000002D00000047
:100A30002B0000002000000030B4002100F124044D
:100A400008E002F00705D208303542EA4372DB08BD
:100A50006554491C52EA0305F3D10468002310A22F
:100A6000250708D504F020040C4304D0C4690123F1
:100A70000CA2641EC46130BCFFF79EBE10B50446D4
:100A800021461068FFF78FFE02462046BDE8104061
:100A90000023D1E7D21D22F00701D1E90023CBE7E3
:100AA000000000003000000010B5203AC0F00B80BC
:100AB000B1E81850A0E81850B1E81850A0E8185054
:100AC000203ABFF4F5AF5FEA027C24BFB1E81850CA
:100AD000A0E8185044BF18C918C0BDE810405FEA2C
:100AE000827C24BF51F8043B40F8043B08BF7047A8
:100AF000D20728BF31F8023B48BF11F8012B28BFAD
:100B000020F8023B48BF00F8012B704730B5B0F128
:100B10000A0271F100034FEA900E4EEA817EB0EBBB
:100B20000E0061EB91014FEA101E4EEA017E10EBC0
:100B30000E0041EB11114FEA102E4EEA016E10EB40
:100B40000E0041EB11214FEA104E4EEA014E10EB20
:100B50000E0041EB1141401841F100014FEAD00075
:100B600040EA41704FEAD1014FEA810444EA9074AF
:100B700010EB800544EB01046D1944EB0404521B97
:100B8000A3414FF0000348BF0A3200D530BD401CDE
:100B900041F1000130BD2DE9FF4F0C461E464FF0DC
:100BA000FF378BB0D2E90001DDF860800A908A46F9
:100BB000C1F30A5505B93D46002108464FF0000033
:100BC000BAF1000F00F4400005DA00EB80004FF4AA
:100BD000400101EA50004FEA9059B9F1010F00DDE0
:100BE000B9460A9850EA4A000ED044F61050A5F2D1
:100BF000FF3545432F14B8F1000F1ED07542291E52
:100C00001EDDC9F100021CE0B8F1010F4FF0000039
:100C100001D0302103E0F24305E02154401CB042F2
:100C2000FBDB30460022002121540B99C1F80880DB
:100C3000C1E900200FB0BDE8F08FBD1B6D1CDEE7E1
:100C40004A4600DA694206A800F0DEFB06AB93E8EC
:100C5000070003AB83E8070050460A990AF000FB3F
:100C60008DE80700A0F500501F3800900398002D74
:100C70000ADD42F21F014A460844002303A90390FB
:100C800068460AF069FD09E0A0F500504A461F38A1
:100C9000002303A9039068460AF073FD8DE807005E
:100CA0000004000C03D04FF0FF30410800E0104674
:100CB000B8F1000F03D00022009215461EE0751E09
:100CC00005D4FFF723FF303262556D1EF9D5B346C8
:100CD0000122084302D000227F1C04E02078302843
:100CE00001D100227F1E002A099784D01DE0112D1A
:100CF00007DAFFF70BFF303262556D1C50EA010234
:100D0000F5D1084302D00098C8B10EE00021681E5A
:100D100005E0235C625C63542254401E491C8142FE
:100D2000F7DBAB46A81B401E0990002004F80B001F
:100D30000B98099AC0F80880C0E9002B7AE71126C1
:100D40004FF0000857E72DE9F04F88460446D21DC2
:100D500022F0070191B0D1E90001CDE90A010AF0C2
:100D600047FE02460B98C00F01D02D2007E02068F7
:100D7000810701D52B2002E0202101EAC000032ACF
:100D8000099001D0072A05DB03464146204600F0C2
:100D9000FBFA0BE12078800601D5E06900E006202F
:100DA000B8F1650F814606D0B8F1660F18D0B8F1DA
:100DB000670F70D131E00020B9F1110F009001DB15
:100DC000112301E009F101030AAA01A90CA8FFF708
:100DD000E2FEDDE90C70002609F10105834647E0DB
:100DE00001204B4600904FF000470AAA01A90CA829
:100DF000FFF7D1FEDDE90DB00C995D46002610B974
:100E000009F101000D18B9EB050003D4C0F1FF365C
:100E100009F10105A5EB09002BE0B9F1010F01DA99
:100E20004FF001090020B9F1110F0090484601DD93
:100E3000112300E003460AAA01A90CA8FFF7ABFEA4
:100E4000DDE90C704D4600268346207800070AD461
:100E5000AB4500DA5D4601A8012D04DD411911F80A
:100E6000011C302907D04F4502DA17F1040F04DACC
:100E7000012082460FE06D1EEEE7002F02DCED1B25
:100E80003E4403E0781CA84200DD7D1CB81B00F145
:100E9000010A4FF000472078000703D4AA4501DB80
:100EA0004FF0FF3A0021B7F1004F0DF143088DF8E4
:100EB000431024D002202B23002F01DA7F422D2360
:100EC0000A21021EA0F1010000DC5FB197FBF1FCDA
:100ED00097FBF1F201FB1C7C17460CF1300C08F873
:100EE00001CDEEE7A8F1010003702188090501D5C5
:100EF000452100E06521A0F1010800F8011C0998D6
:100F00000FA9A1EB0807FF1D00B10120411901EB5A
:100F1000EA70A1693844081A401EA0612078C00612
:100F200002D42046FFF7E4F9099828B1D4E9012159
:100F30009047206A401C20622078C00622D52046B7
:100F4000FFF7D6F91EE0002E04DBB34502DD01A851
:100F5000805D00E03020D4E901219047206A401CE8
:100F60002062761CAAF101005FEA000A0AD100F0B3
:100F700007FAC0680168405CD4E901219047206A03
:100F8000401C2062281EA5F10105DCDC07E0D4E945
:100F9000012118F8010B9047206A401C2062381E7E
:100FA000A7F10107F3DC2046FFF7B8F9032011B0E1
:100FB00041E600002DE9F04F04460D46D21D22F017
:100FC000070089B0D0E90097484639460AF010FD7D
:100FD0000246F80F01D02D2307E02068810701D5D4
:100FE0002B2302E0202101EAC0038DF820300BB151
:100FF000012000E00020032A824601D0072A04DBFA
:101000002946204600F0C0F93FE12078800601D44F
:101010000D2500E0E569C7F30A560D2D49DA0021D8
:101020004FEA175B08464FF00000002F00F4400025
:1010300007DA00EB80004FF4400100EBD07001EACA
:1010400060008115012901DD4FF0FF3100224FEAD8
:10105000850CBCF1180F06D31346ACF118004FF005
:101060008052C24003E04FF4801323FA0CF30CF1DA
:101070000C0CBCF1200F04D3ACF1200C09FA0CF0DD
:1010800001E007FA0CF000294FF0004801DD18B923
:101090000FE00ED140450CD319EB02095F4121B995
:1010A000404502D19F4329EA0209BBEB175F00D0FC
:1010B000761C2088000502D57B48784402E07A48F7
:1010C0007844193808AA302302F80A30037C0AF160
:1010D0000101002E0AF1020A53546A4602DC4FF065
:1010E000300101E04FF031014FF001088DF80010A0
:1010F00002D0A6F2FF3603E059EA470100D06B4E5A
:10110000002D02DC2178090704D54FF002082E21BA
:101110008DF80110C44600210BE0C7F303433F01E3
:10112000C35C491C6D1E02F80830052908F101084E
:1011300001DA002DF1DC00210CE000EB1973491CF1
:101140001B786D1E082902F808304FEA091908F1CA
:10115000010801DA002DF0DC21688B0602D516E0CB
:10116000A8F10108E04505DD02EB080313F8013C96
:10117000302BF5D0B8F1000F09DD02EB080313F8AE
:10118000013C2E2B03D1090701D4A8F10108002D41
:1011900005DD3E2102F808106D1E08F10108407CB3
:1011A000002E02F8080008F1010804DA2D2076422A
:1011B00002F8080002E02B2002F808000A214FF490
:1011C0007A70864208F101080BDB96FBF0F33033AE
:1011D00002F8083096FBF0F308F1010800FB1366F3
:1011E00001E0642E0CDB642096FBF0F3303302F850
:1011F000083096FBF0F308F1010800FB136601E0EC
:101200000A2E06DB96FBF1F0303002F8080008F1F8
:10121000010896FBF1F001FB1060303002F8080085
:10122000A16908F1010808EB050202EB0A00081A9F
:10123000A0612078C00602D42046FFF759F8216A41
:1012400008AE01EB0A00206204E0D4E9012116F89F
:10125000010B9047BAF1010AF7D22078C00602D5F7
:101260002046FFF745F86E4609E016F8010B3E28C8
:101270000FD0D4E901219047206A401C2062B8F1C8
:101280000108F2D22046FFF749F809B00320BDE873
:10129000F08F206A2844206203E0D4E90121302045
:1012A00090476D1EEBD3F8E721AA000002FCFFFF78
:1012B00010B5436913B1AFF3008001E0FFF720FBE5
:1012C000012010BD128800F1240182840022C28412
:1012D0000122EDE711684FF0FF32E9E72DE9F04117
:1012E00016460C46054600F043F8036893F80101E2
:1012F000012807D0FF2C12D8185D80B101202C7076
:10130000BDE8F081D3F807013246214603F2071306
:10131000C7182846BC46BDE8F041002360474FF09F
:10132000FF30EDE7754600F0EBF8AE460500694684
:10133000534620F00700854618B020B5FEF788FF19
:10134000BDE820404FF000064FF000074FF00008C6
:101350004FF0000BAC46ACE8C009ACE8C009ACE803
:10136000C009ACE8C00921F007018D4670470000B4
:1013700010B500F005F8001D10BD00BFD9A6000093
:1013800000487047280100202DE9F0411F4604461F
:1013900003260168072A01F4006004DB08B116A5E2
:1013A00005E016A503E008B115A500E015A521F09C
:1013B00010002060A069C01EA0610FB1401EA06196
:1013C0002046FEF795FF4FB1D4E9012138469047FA
:1013D000206A401C2062C01C206206E0206AFAE7F6
:1013E000D4E9012115F8010B9047761EF8D220466A
:1013F000FEF794FFBDE8F0814E414E006E616E0035
:10140000494E4600696E66002DE9F0478146164652
:101410008AB0354878440DC88DE80D0032487844CC
:10142000801C03AC0DC884E80D0041F69B300844D5
:10143000372190FBF1F290FBF1F5A5F1800501FB5E
:1014400012041B3C02D56442012000E00020DFF8BA
:1014500098A080460027FA44AAF1BE0A0EE0E007F1
:101460000AD03246684607EB470101230AEB8101A7
:101470000AF087F98DE8070064107F1C002CEED17C
:10148000194F7F44AE3F19E0E80715D007EB041071
:101490000DF1180A90E80E008AE80E00C068F042CC
:1014A00001D1981908903246012306A903A80AF031
:1014B00068F903AB83E807006D10641C002DE3D1CD
:1014C0004FF0010332466946B8F1000F03A802D07D
:1014D0000AF042F901E00AF054F9C9E90001C9F83B
:1014E00008200AB0BDE8F08758A7000010B50446F0
:1014F000AFF300802046BDE81040FEF794BE000028
:1015000000487047080100204FF0013C50F8042BC0
:1015100051F8043B9A4221D1A2EB0C03934313EA06
:10152000CC1317D150F8042B51F8043B9A4215D133
:10153000A2EB0C03934313EACC130BD150F8042B0A
:1015400051F8043B9A4209D1A2EB0C03934313EAEE
:10155000CC13DBD04FF00000704700BFD01A01BAA7
:10156000B1FA81F101F0180122FA01F0CB40DBB2AF
:10157000C0B2C01AC1F120012CFA01F3D11A914373
:1015800011EAC311E6D1704701491820ABBEFEE74E
:101590002600020070470000FEE7000070470000D0
:1015A000EFF3108072B600BFFEE7000070B542F2A4
:1015B0000C060446C4F2020600F00CFB3168C907B1
:1015C00018D13068800644BF202030603068C006E3
:1015D00007D43069C00704D1306840075CBF0020E1
:1015E00070BD3068C00623D40020316849072BD471
:1015F00034E000BF002C47D00546601C0ED1306897
:10160000C007DED03068C0071CBF30685FEAC0701A
:10161000D7D03068C007F2D1D3E700BF00F0DAFAC4
:10162000401BA04230D83068C007F7D1C9E700BFDF
:1016300040F24060C2F20000C16941F00201C161A4
:1016400010203168490709D540F24061C2F200011B
:10165000CA6940F0040042F00102CA613169C90759
:1016600002D13060012070BD40F24061C2F2000141
:10167000CA6942F00402CA61316921F00101316195
:101680003060012070BD00BF032070BD014690F89E
:101690002100022816D10868D1E90FC3026822F0A0
:1016A0000E020260026822F001020260012000FACC
:1016B00003F2CCF8042081F821000020002281F8F8
:1016C00020207047042088630120002281F8202018
:1016D0007047000080B590F82110022924D10268DB
:1016E000116821F00E0111602F211368C4F202016C
:1016F0008A4240F20401C4F2020123F001031360A4
:1017000016DD3023C4F202039A421DD04423C4F2F2
:1017100002039A421CD05823C4F202039A421DD1FC
:101720004FF4803322E000BF04218163012080BD9B
:101730000823C4F202039A420ED01C23C4F202030F
:101740009A420BD1102311E04FF480730EE000BFDA
:101750004FF480530AE000BF012307E001F1680C59
:101760004FF08073624508BF4FF480130B60012176
:1017700080F82110426B002180F820100AB19047B8
:101780000021084680BD0000B0B5044600F022FAF2
:10179000054640F20000C2F200000078611C18BF4C
:1017A000044400BF00F016FA401BA042FAD3B0BDBB
:1017B0002DE9F04381B040F24066C2F20006327E6D
:1017C000012A03D1022001B0BDE8F08305460120C3
:1017D0002C6830764CF250308846FFF7E7FE022C3A
:1017E0001CD100284ED1002042F21004F061C4F256
:1017F0000204206840F004002060206840F04000AF
:1018000020604CF25030FFF7D1FE216821F0040136
:1018100021600021317601B0BDE8F08390BB4FF02C
:10182000FF30C8F80000D5E9027007EB802087423E
:1018300028D242F21004C4F202044FF0000900BFA3
:10184000C6F81C90206840F00200206067602068A5
:1018500040F0400020604CF25030FFF7A7FE2168B6
:1018600021F00201216098B9D5E9020107F58067EE
:1018700000EB81208742E3D300200021317601B0C4
:10188000BDE8F08301200021317601B0BDE8F0838E
:10189000C8F800700021317601B0BDE8F083000087
:1018A00042F21001C4F20201086840F080020020F8
:1018B0000A6070472DE9F04F81B040F24069C2F2F2
:1018C0000009924699F81820012A03D1022001B09C
:1018D000BDE8F08F8046012089F818004CF25030A6
:1018E0009B460E46FFF762FEA0BB404642F2100741
:1018F000B8F1020F18BF0420C4F20207B8F1010FBB
:1019000008BF404645424FF000080024C4F12001C2
:10191000C9F81C802AFA04F00BFA01F13A6808436E
:10192000B4F1200158BF2BFA01F042F001013960F7
:1019300026F8020B4CF25030FFF738FE39680135BB
:1019400021F0010248F100013A6018B9002904F1C0
:101950001004DBD0002189F8181001B0BDE8F08F29
:1019600042F20400C4F20200C16809065CBF002014
:10197000704740F22311C4F26751016048F6AB1181
:10198000CCF6EF510160C068C0B2C00970470000DA
:101990002DE9F04F82B00E68002E00F0038141F275
:1019A0000042C4F20102042340F2004E904208BFFC
:1019B00003234FF6FF7CC4F2010E009300240123A1
:1019C000C1F2100C4FF0000A4FF0000949E000BFCF
:1019D000012704F00C030F229A402BEA020207FAB7
:1019E00003F34FEA9A051A4346F82520D1F804B0CC
:1019F00040F20C455FEACB22DEF8082054BF22EA11
:101A0000080242EA0802C4F20105CEF808202A685A
:101A10005FEA8B2354BF22EA080242EA08022A60E6
:101A20005FEA8B33DEF8042054BF22EA080242EA60
:101A300008025FEACB33CEF80420DEF800204FF036
:101A4000010354BF22EA080242EA0802CEF800204D
:101A50000E680AF1010A36FA0AF204F1040400F0F1
:101A6000A18003FA0AF816EA080FF1D04E6866451D
:101A700012DC122E56D8DFE806F0350B45495555D5
:101A800055555555555555555555554D510000BF52
:101A9000D1F80C9046E000BF4FF6FF72C1F2210270
:101AA00096420FDC0022C1F2110296421AD00022A7
:101AB000C1F21202964215D00022C1F221029642D2
:101AC00010D02FE00022C1F2220296420AD000225A
:101AD000C1F23102964205D00022C1F23202964292
:101AE00020D100BF8A684AB1012A14BFC0F814800F
:101AF000C0F810804FF0080914E000BF4FF004094F
:101B000010E000BFCA6802F108090BE04FF00009BD
:101B100008E000BFCA6802F1040903E0CA6802F1E4
:101B20000C0900BF22460646BAF1080F24BF203A2E
:101B3000043637680F25954027EA050509FA02F2B1
:101B40002A433260CA79D2067FF582AF41F2180388
:101B5000C4F202031A68AEF57E7642F001021A6002
:101B60001A6802F001020192019A2AF0030256F863
:101B700002B040F60002C4F20102904210D040F6DA
:101B80000042C4F2010290423FF422AF41F200024F
:101B9000C4F20102009F904208BF022719E700BF6C
:101BA000002716E702B0BDE8F08F0000806808400B
:101BB00018BF012070470000C26802EA0103914388
:101BC00041EA034101617047002A08BF090401612D
:101BD0007047000040F68830C2F20000006870478D
:101BE00040F2000040F68831C2F20000C2F200016B
:101BF00000780A68104408607047000080B542F21F
:101C00000000C4F20200016841F0100101600320ED
:101C100000F08EF80F2000F005F800F027F8002003
:101C200080BD000070B540F20006C2F2000640F22E
:101C300008013278C2F200014FF47A730968B3FBED
:101C4000F2F20446B1FBF2F1084600F063FB0F2C00
:101C50004FF0010508D838B94FF0FF302146002277
:101C6000002500F039F87460284670BD82B041F25A
:101C70001800C4F202000168022241F00101016073
:101C8000016801F0010101910199416841F0805121
:101C90004160406800F08050009000980420C4F239
:101CA0000100016862F31A61016002B07047000030
:101CB000002848BF7047C1B200F01F00012202FA9D
:101CC00000F04EF20012CEF2000242EAD10121F001
:101CD000030108607047000010B54EF60C5CCEF2B0
:101CE000000CDCF80030C3F3022E8EF00704042C45
:101CF00028BF0424BEF103034FF0FF3E0EFA04F4A4
:101D000038BF0023A14399400EFA03F39A431143CD
:101D100000F00F0200F160430901043A03F5644347
:101D20006244002848BF02F10C03197010BD000086
:101D30004EF60C51CEF200010A684FF6FF031A402E
:101D400060F30A2242F0806040F0FD700860704746
:101D50002DE9F04381B0002800F0858042F20008B0
:101D6000C4F202080446D8F800000D4600F007004F
:101D700088420CD2D8F8000020F007002843C8F8A9
:101D80000000D8F8000000F00700A8426BD12068DE
:101D900041F204098107C4F2020917D5410705D5AC
:101DA000D9F8001041F4E061C9F80010010705D529
:101DB000D9F8001041F46051C9F80010D9F80010AA
:101DC000A26821F0F0011143C9F80010C00741D109
:101DD000D8F8000000F00700A8420CD9D8F800009D
:101DE00020F007002843C8F80000D8F8000000F0F1
:101DF0000700A84237D12068410707D5D9F800105D
:101E0000E26821F4E0611143C9F80010000708D529
:101E1000D9F80000216920F4605040EAC100C9F8F7
:101E20000000D9F8002002F00C00082841F2002040
:101E3000C0F27A0050D14BF6A233C2F38341C0F610
:101E40000003595CD2033BD440F60010C0F23D00C1
:101E5000484341E0606802280AD001282AD159F895
:101E6000041C890308D4012001B0BDE8F08300BF41
:101E700059F8041C8901F6D5D9F8001021F00301A6
:101E80000843C9F80000FFF7A5FE064641F288376F
:101E9000D9F80000616800F00C00B0EB810F97D01A
:101EA000FFF798FE801BB842F2D9032001B0BDE8CD
:101EB000F08300BF59F8041C8907D4D5DCE700BFC4
:101EC000D9F800204BF6A033C2F34042C0F600031D
:101ED0009A5C4843B0FBF2F0D9F800104BF6883218
:101EE000C1F30311C0F60002515C40F2080220FA6F
:101EF00001F140F20400C2F200000068C2F20002E8
:101F00001160FFF78FFE002001B0BDE8F0830000F4
:101F100040F2080041F20401C2F20000C4F20201E2
:101F2000006809684BF69832C1F30221C0F600023E
:101F3000515CC8407047000040F2080041F20401C3
:101F4000C2F20000C4F20201006809684BF6983240
:101F5000C1F3C221C0F60002515CC84070470000C6
:101F60002DE9F04182B0002868D00446007841F2A3
:101F70000006C007C4F2020625D0706800F00C000D
:101F800004281BD0706800F00C00082802D170688B
:101F9000C00313D46068002800F06881B0F5A02F5A
:101FA00000F07C81B0F5803F00F07C81306820F447
:101FB00080303060306820F4802076E13068800323
:101FC00001D56068D0B32078800718D5706810F00C
:101FD0000C0F07D0706800F00C0008286ED17068F4
:101FE000C0036BD43068800702D52069012825D151
:101FF0003068616920F0F80040EAC1003060207864
:1020000000071FD42078400732D4E56995B1706885
:1020100000F00C00082840F08F80012D0ED0706871
:10202000216A00F480328A4208D1616A00F470109B
:10203000884203D1002002B0BDE8F081012002B047
:10204000BDE8F081A069002862D00020C4F24220DF
:102050000121C0F88014FFF7BDFD0546706A8007B6
:1020600000F18C80FFF7B6FD401B0228F6D92AE16B
:10207000F06910F0805808D1F06940F08050F061AC
:10208000F06900F080500090009847F20007C4F219
:1020900000073868C00529D4386840F4807038607B
:1020A000FFF798FD054600BF3868C0051ED4FFF74E
:1020B00091FD401B6428F7D905E100BF2069002885
:1020C00040F20000C4F2422000F082800121016051
:1020D000FFF780FD054600BF306880073FF588AFF9
:1020E000FFF778FD401B0228F6D9ECE0E0680028F5
:1020F00000F08080052800F09780012800F098808B
:10210000306A20F001003062306A20F0040092E072
:102110000020C4F242200021C0F88014FFF75AFDCD
:10212000054600BF706A80077FF56CAFFFF752FD70
:10213000401B0228F6D9C6E00027C4F2422700203F
:102140003866FFF747FD022D05460BD13068800148
:1021500040F1BE80FFF73EFD401B02284FF0030018
:10216000F4D968E7306880017FF564AFFFF732FD8E
:10217000401B02284FF00300F4D95CE740F208004E
:10218000C2F20000006844F6D351C1F26201A0FB24
:102190000101480A019000BF00BF0198411E0028BC
:1021A00001913FF42FAF00BF0198411E002801911B
:1021B0003FF428AF00BF0198411E002801913FF471
:1021C00021AF00BF0198411E00280191E4D119E719
:1021D00000210160FFF7FEFC054600BF3068800764
:1021E0007FF50DAFFFF7F6FC401B02284FF0030010
:1021F000F4D920E7306A20F001003062306A20F024
:1022000004003062FFF7E6FC054641F2883700BF64
:10221000306A800720D5FFF7DDFC401BB8424FF045
:102220000300F5D907E700BF306A40F004003062D0
:10223000306A40F001003062FFF7CCFC054641F205
:10224000883700BF306A800706D4FFF7C3FC401B05
:10225000B842F7D937E000BFB8F1000F7FF4D5AE30
:10226000F06920F08050F061CFE600BF306820F4C4
:1022700080303060306820F480203060FFF7AAFCA6
:10228000054600BF306880037FF59DAEFFF7A2FCD6
:10229000401B64284FF00300F4D9CCE6306840F4CA
:1022A00080203060306840F480303060FFF792FC6E
:1022B000054600BF306880033FF585AEFFF78AFC16
:1022C000401B6428F6D9032002B0BDE8F08100BFAE
:1022D000206AB0F5803F05D17168A26821F4003111
:1022E000114371607168626A21F4741111430843EB
:1022F000706001203866FFF76DFC0446306880018D
:102300003FF598AEFFF766FC001B02284FF0030074
:10231000F4D990E6411E0020B0EB116F1CBF0120E4
:1023200070474EF21002CEF2000251604EF6235179
:10233000CEF20001F0230B7007219060116070470E
:102340007047000070470000B0B582B004460068D6
:102350000168C368426901F02F05202D03F02005B4
:1023600006D12DB1204602B0BDE8B04000F0FABD64
:102370005FEA017C1EBF02F0010E03F4907212EBC3
:102380000E0253D1226B012A05D111F0100218BFA1
:1023900013F0100236D10A0622D513F080021FD0A6
:1023A00094F8411021293FD1A168B1F5805F03D194
:1023B0002169002900F07082216A4A1C2262097892
:1023C0004160E18C01390A04E1842DD1C16821F01A
:1023D0008001C160C16841F04001C16002B0B0BD80
:1023E000490621D513F040011ED0C16821F04001FB
:1023F000C1602021204684F8411002B0BDE8B04001
:1024000000F076BC002101910168019141680191C1
:1024100001994069400613D4A08DE18DE28D002A18
:1024200018BF884240F0BA8102B0B0BDCA0718BFD9
:1024300013F4807240F0B6804A0700F1B980BEE024
:10244000E06B016849688AB2002AEDD0A38D9A42F8
:10245000EAD2E1858069202800F09C80206850E85D
:10246000030F216820F4807041E80302DAB120688C
:1024700050E8030F216820F4807041E8030292B114
:10248000206850E8030F216820F4807041E80302BF
:102490004AB1206850E8030F216820F4807041E8B9
:1024A0000302002ADAD1206850E8050F216820F0E5
:1024B000010041E80502DAB1206850E8050F216803
:1024C00020F0010041E8050292B1206850E8050FB4
:1024D000216820F0010041E805024AB1206850E877
:1024E000050F216820F0010041E80502002ADAD139
:1024F000206850E8050F216820F0400041E80502FF
:10250000DAB1206850E8050F216820F0400041E86A
:10251000050292B1206850E8050F216820F04000C4
:1025200041E805024AB1206850E8050F216820F013
:10253000400041E80502002ADAD1202084F8420058
:1025400000202063206850E8030F216820F010006D
:1025500041E80302DAB1206850E8030F216820F057
:10256000100041E8030292B1206850E8030F21688F
:1025700020F0100041E803024AB1206850E8030F40
:10258000216820F0100041E80302002ADAD1E06B54
:10259000FFF77CF802206063A08DE18D401A81B2C4
:1025A000204674E1626C42F0010262644A0706D57B
:1025B000BEF1000F03D0626C42F0020262648A072F
:1025C00006D5BEF1000F03D0626C42F004026264D3
:1025D000BCF1000F09D545EA0E02B2FA82F25209A7
:1025E00003D1626C42F008026264626C002A3FF41C
:1025F0001BAF11F0200118BF002D03D0204600F0C2
:10260000B1FC20684069616C00F0400001F00801F5
:10261000401800F0B58000BF206850E8030F216823
:1026200020F4907041E80302BAB3206850E8030F29
:10263000216820F4907041E8030272B3206850E8EA
:10264000030F216820F4907041E803022AB3206848
:1026500050E8030F216820F4907041E80302002A3B
:10266000DAD11AE0206850E8050F216820F0010057
:1026700041E80502DAB1206850E8050F216820F032
:10268000010041E8050292B1206850E8050F216879
:1026900020F0010041E805024AB1206850E8050F2A
:1026A000216820F0010041E80502002ADAD1206B00
:1026B000012824D1206850E8030F216820F0100081
:1026C00041E80302DAB1206850E8030F216820F0E6
:1026D000100041E8030292B1206850E8030F21681E
:1026E00020F0100041E803024AB1206850E8030FCF
:1026F000216820F0100041E80302002ADAD12020EE
:1027000084F84200002020632068406940063FD5DD
:10271000206850E8050F216820F0400041E80502DC
:10272000DAB1206850E8050F216820F0400041E848
:10273000050292B1206850E8050F216820F04000A2
:1027400041E805024AB1206850E8050F216820F0F1
:10275000400041E80502002ADAD1E06BC0B142F640
:102760005971C0F600014163FEF7B4FF00283FF441
:102770005BAEE06B416B02B0BDE8B040084700BF04
:102780002046FFF7DFFD0020606402B0B0BD00BF4F
:10279000204602B0BDE8B040FFF7D4BD401A216822
:1027A00051E8031F226821F4907142E80313DBB162
:1027B000216851E8031F226821F4907142E8031355
:1027C00093B1216851E8031F226821F4907142E817
:1027D00003134BB1216851E8031F226821F4907163
:1027E00042E80313002BDAD1216851E8051F226863
:1027F00021F0010142E80513DBB1216851E8051F12
:10280000226821F0010142E8051393B1216851E8E3
:10281000051F226821F0010142E805134BB1216830
:1028200051E8051F226821F0010142E80513002B41
:10283000DAD1202184F8421000212163216851E877
:10284000031F226821F0100142E80313DBB1216865
:1028500051E8031F226821F0100142E8031393B1ED
:10286000216851E8031F226821F0100142E8031398
:102870004BB1216851E8031F226821F0100142E8A2
:102880000313002BDAD1022281B22046626302B028
:10289000BDE8B040FFF754BD216A31F8022B6FF359
:1028A0005F22426021628CE5002804BF012070474E
:1028B00010B5044690F8410028B9002084F8400083
:1028C000204600F063F8242084F841002068D4E911
:1028D0000212C36823F40053C360036923F4405316
:1028E0001A430261D4E904231143C268194341F237
:1028F0000C639A431143C1604169A26921F440719C
:10290000114343F60002C4F201029042416103D038
:10291000FFF7FEFA02E000BFFFF70EFB6268192125
:1029200048439100B0FBF1F048F21F51C5F2EB11A2
:10293000A0FB01235A094FF69C73C0F6FF7302FBFC
:102940000300322303EB0010A0FB0101F02303EA94
:102950005113206803EB0212C1F34311114481604B
:10296000016921F490410161416921F02A0141612D
:10297000C16841F40051C16000202021606484F8E6
:10298000411084F84210606310BD000070B586B03D
:10299000006844F20041C4F2000100268842059616
:1029A000CDE90366029641D044F60001C4F200016D
:1029B00088426DD043F60001C4F20101884240F024
:1029C000A28041F21800C4F20200016840F600043F
:1029D00041F4804101600168C4F2010401F48041C6
:1029E00001910199016802AD41F0040101600068A4
:1029F000294600F00400019001984FF40070029005
:102A000002200390032005902046FEF7C1FF4FF4FB
:102A1000806002900020CDE9030020462946FEF7A1
:102A2000B7FF252001210022252467E041F218008C
:102A3000C4F20200416840F6000441F400314160F4
:102A40004168C4F2010401F4003101910199016867
:102A500002AD41F0040101600068294600F0040065
:102A60000190019804200290022003900320059019
:102A70002046FEF78DFF0820CDE9020620462946B4
:102A80000496FEF785FF262000210022262435E04B
:102A900041F21800C4F20200416802AD41F4802105
:102AA0004160416801F4802101910199016841F080
:102AB000080101600068294600F0080001900198B3
:102AC0004FF480600290022003900320059040F6AE
:102AD0000000C4F2010000F580642046FEF758FFB4
:102AE0004FF4006002900020CDE903002046294603
:102AF000FEF74EFF2720012101222724FFF7ECF8E3
:102B00002046FFF7D5F806B070BD000090F84230BF
:102B1000202B1CBF0220704700294FF0010318BF73
:102B2000002A01D1184670470023036381622221E5
:102B30008285C285436480F842100169006819B13A
:102B4000C16841F48071C1604169002341F0010115
:102B50004161C16841F02001C16018467047000022
:102B600010B5044604F0CCFC204603F0F9F92046E9
:102B7000BDE8104004F018B82DE9F041044690F883
:102B8000410020281CBF0220BDE8F0810D4600292D
:102B90004FF0010000F0AA801646002A08BFBDE8E9
:102BA000F081002060642120984684F84100FFF7FE
:102BB00011F8A684E684A1680646B1F5805F02D1CB
:102BC0002069002862D02F460025E08C002861D0C3
:102BD00018F1010018D0B8F1000F37D1216808E0D2
:102BE00017F8010B4860E08C0138E084E08C002885
:102BF00051D00868000673D5002FF1D135F8020BCB
:102C000000276FF35F20EDE7216802E00868000607
:102C100009D40868000606D4086800065CBF086886
:102C20005FEA0060F2D51FB117F8010B05E000BFA5
:102C300035F8020B00276FF35F204860E08C013805
:102C4000E084E08C0028E4D125E000BF216800BFCB
:102C50000868000608D4FEF7BDFF801B404541D838
:102C60002168C868F4E700BF17B117F8010B04E04A
:102C700035F8020B00276FF35F204860E08C0138C5
:102C8000E084E08C0028E3D105E000BF0027E08C61
:102C900000289DD12168086840061FD4B8F1000FB4
:102CA0001ED018F101000FD10868400616D408683C
:102CB000400613D40868400610D4086840064FF058
:102CC0000000F1D50FE000BFFEF784FF801B4045F8
:102CD00008D82068C16800684006F5D5002002E0E9
:102CE000FEF778FF0320202184F84110BDE8F08131
:102CF00070470000FEE700002DE9F04F85B041F27B
:102D00001800C4F20200016840F6000941F0100109
:102D1000016001684FF0020801F010010191019972
:102D20000168C4F2010941F020010160016809F560
:102D3000006A01F02001019101990168012241F02E
:102D40000401016001684FF4005601F00401019193
:102D500001990168012541F008010160016801F055
:102D6000080101910199016841F0010101600068C9
:102D700000F00100019001980420C4F201000168F4
:102D800068F31A61016050464FF40051FEF71CFFD2
:102D90004846102100220027FEF716FF4846A021D2
:102DA00000224FF0A00BFEF70FFF09F580642046CC
:102DB0004CF221310022FEF707FF20464FF4435129
:102DC0000122FEF701FFCDE9016501AE5046314613
:102DD000CDE90378FEF7DCFD48463146CDE90157E1
:102DE0000395FEF7D5FD49F60210CDE901074846E7
:102DF00031460395FEF7CCFD1820CDE901072046AA
:102E000031460395FEF7C4FD4FF48040CDE901073C
:102E1000504631460395FEF7BBFD102001A981E81D
:102E2000A10148463146FEF7B3FD4FF0030A48467C
:102E30003146CDE901B50397CDF810A0FEF7A8FD06
:102E40004020CDE90107484631460397FEF7A0FD33
:102E50004FF2213001A981E8A10120463146FEF759
:102E600097FDC0200190112002A981E8210420468D
:102E70003146FEF78DFD20463146CDE901870395A9
:102E8000FEF786FD05B0BDE8F08F000080B540F28A
:102E9000E03043F60001C2F20000C4F20101002359
:102EA0004FF00C0C4FF4E13280E80E00C0E9033320
:102EB000C0E905C3C361FFF7F7FC002808BF80BD68
:102EC000BDE88040FEF76CBB80B540F2284044F27C
:102ED0000041C2F20000C4F2000100234FF00C0CCC
:102EE0004FF4E13280E80E00C0E90333C0E905C3C6
:102EF000C361FFF7D9FC002808BF80BDBDE8804052
:102F0000FEF74EBB80B540F2704044F60001C2F2BD
:102F10000000C4F2000100234FF00C0C4FF4E1322A
:102F200080E80E00C0E90333C0E905C3C361FFF7C1
:102F3000BBFC002808BF80BDBDE88040FEF730BB69
:102F4000FEE70000FEE70000704700007047000049
:102F5000FEF746BE70470000406A0021C185C1846B
:102F6000FFF7F0B981B090F84210222921D183688F
:102F70000246B3F5805F09D152F8281F52F8183C79
:102F8000002B63D003685B680AE000BF52F8281F7B
:102F900013B90369002BF5D003685B6803F07F0366
:102FA0000B70116801311160C18D01390A04C185AE
:102FB00002D001B0704700BF0168CA6822F0200249
:102FC000CA60CA6822F48072CA604A6922F00102AB
:102FD0004A61202180F8421000214163026B012ADE
:102FE0003CD10163016851E8031F026821F0100120
:102FF00042E80313DBB1016851E8031F026821F0C6
:10300000100142E8031393B1016851E8031F0268FD
:1030100021F0100142E803134BB1016851E8031F8E
:10302000026821F0100142E80313002BDAD1016895
:103030000A68D20606D5002200920A680092496802
:1030400000910099818D01B0FFF77AB9026852684A
:103050006FF35F2221F8022B8162A5E701B0FFF731
:103060007FBD000040F2E030C2F20000FFF76CB913
:1030700040F22840C2F20000FFF766B940F270400B
:10308000C2F20000FFF760B9FEE700002DE9F04151
:10309000ADF5836D0DF10408002508F10C004FF427
:1030A0007D71FF22CDF81454CDF81054CDF80C5496
:1030B000CDF80854CDF80454FDF718FB44F24C1039
:1030C000C4F6543001900220029040F2F40040F225
:1030D000FC11C2F20000C2F20001006809880390EE
:1030E000ADF8101004F0F6FE8DF8120008F1100093
:1030F00004F024FF40F2687CC2F2000C5CF805305A
:103100000CEB050208EB05014B641389D2E904704E
:10311000A1F84C30D3898865A1F85230138BD08B3D
:10312000A1F85C30D2F81A30A1F86200C1F85E3024
:10313000D2E9080356684866108D8B66A1F86C00CA
:10314000D08D138FA1F87200506BA1F87C30886786
:10315000D2F83A00D38FC1F87E00A1F88230D2E9CC
:1031600010034F65D2F82A70C1F88400B2F8480005
:10317000D2F80A408E64166BC1F86E70D2F84A70AD
:10318000A1F88C00B2F84E005035B5F5487FC1F873
:103190004E404E67C1F88830C1F88E70A1F8920099
:1031A000ACD14FF60005C0F60005FEF7D9FB0020B4
:1031B000CDF808040120CDF814040DF581600DF25E
:1031C0000441CDF81054FEF7F3FA78B14CF2477190
:1031D000C0F6000115A30220882203F0A3FAFEF72F
:1031E0005FFB0DF5836DBDE8F08100BF002600BFD9
:1031F00058F8062046EA050102200023FEF75AFB94
:1032000020B90436B6F5806FF2D1E8E74CF2477189
:10321000C0F600010CA30220832203F083FAFEF71C
:103220003FFB0DF5836DBDE8F08100BF4143434591
:103230005353204C4F4720464C4153482045524160
:103240005345204641494C00414343455353204C8C
:103250004F4720464C415348205752495445204639
:1032600041494C0070B588B040F2F716C2F2000632
:10327000B17840F20C054B1E0022022B26A3C2F2AD
:10328000000538BF01225B5C6C5C18B19C4238BF02
:10329000621C03E0944288BF631E1A46481C6A54AD
:1032A000D4B200901EA3012000210022019403F05B
:1032B00039FA0220F07003F077FB4CF23161C0F66E
:1032C0000001002003F048FCB0784BF66C41C0F6DA
:1032D000000151F820302E5C4CF2E1620DF10E0439
:1032E000C0F60002204612210096FCF7E1FF012003
:1032F000214603F031FC4CF23F61C0F60001022090
:1033000003F02AFC4CF22061C0F60001032003F018
:1033100023FC08B070BD00BF630C1F173B3B0000CF
:1033200054696D6520536574206669656C64202559
:10333000752076616C7565202530327500000000BF
:10334000B0B582B040F6000440F29415C4F2010416
:10335000C2F2000504F5006128464FF40052002334
:1033600003F076F94FF0140C05F114002146012208
:103370000023CDF800C000F0BBFB05F1280021467A
:103380001022012302B0BDE8B04000F037BC0000BD
:1033900010B540F29414C2F20004204603F092F9F2
:1033A00004F1140000F0BEFB04F12800BDE8104059
:1033B00000F060BCB0B508B340F2FC1CC2F2000CD7
:1033C0009CF8021029B10268DCF80330934200F047
:1033D00099809CF8082000290B4618BF01237AB178
:1033E000D0F800E0DCF80920724500F08F80C3F1CE
:1033F000000E00239CF80E2032B90BE00020B0BD77
:103400009E469CF80E202AB10468DCF80F50A542B5
:1034100000F080800029714618BF0221002B18BFE0
:103420007146002A9CF8142018BF714622B1036827
:10343000DCF815509D4271D062EA010212069CF838
:103440001A2008BF032122B10368DCF81B509D42FB
:1034500068D062EA010212069CF8202008BF04210D
:1034600022B10368DCF821509D425FD062EA01027C
:1034700012069CF8262008BF052122B10368DCF85B
:1034800027509D4256D062EA010212069CF82C2079
:1034900008BF062122B10368DCF82D509D424DD0B3
:1034A00062EA010212069CF8322008BF072122B10D
:1034B0000368DCF833509D4244D062EA01021206F0
:1034C0009CF8382008BF082122B10368DCF8395085
:1034D0009D423BD062EA0102120608BF0921CAB22E
:1034E000FF2A4FF000010BD002EB42020CEB42022C
:1034F000012302F8023F517100681146C2F8010031
:103500000846B0BD0CF10200B0BD00BF0CF10800D0
:10351000B0BD00BF0CF10E00B0BD00BF0CF1140037
:10352000B0BD00BF0CF11A00B0BD00BF0CF120000F
:10353000B0BD00BF0CF12600B0BD00BF0CF12C00E7
:10354000B0BD00BF0CF13200B0BD00BF0CF13800BF
:10355000B0BD00002DE9F04188B040F2F718C2F28A
:103560000008054688F80000471E4CF2F750FAB2F2
:10357000C0F600000C4688F80110072A014608D85A
:10358000C2EBC20140F21402C2F2000202EB81015E
:1035900089684CF2FC524CF25066C0F60002022CD4
:1035A00008BF1046C0F600064CF29B63012C18BF02
:1035B00006460091C0F6000301200021002201967A
:1035C00003F0B0F8012D08BF022C13D0012C40F0FD
:1035D000EF80072F00F2EC80DFE807F004142638B4
:1035E000467E9E5E002088F8040008B0BDE8F041E9
:1035F00007F086BC002088F8030008B0BDE8F04161
:1036000005F066BB98F80300012840F0AB8098F8FD
:103610000410002900F0A680481E88F8040008B0B5
:10362000BDE8F04107F06CBC98F80300012840F0B9
:103630009D8098F80410022900F29880481C88F8B0
:10364000040008B0BDE8F04107F05ABC98F8030048
:10365000022840F0AD8098F80200411E002808BF03
:10366000052188F8021011E098F80300022840F0C4
:103670009F8098F802004AF6AB2101304143890C43
:1036800001EB4101A0EB410088F8020008B0BDE861
:10369000F04107F0A1BC00BF042088F8030003F04C
:1036A00083F94CF28741C0F60001002003F054FA80
:1036B0004CF2EC51C0F60001012003F04DFA4CF23F
:1036C0000A61C0F60001022003F046FA4CF286635C
:1036D000C0F600033EE000BF98F80300013803285D
:1036E00066D8DFE800F0034B5D6300BF98F8040084
:1036F000022861D0012800F07F80002840F0B880C7
:103700006EA301200021002203F00CF805F06AF9F5
:1037100008B0BDE8F08100BF032088F8030003F083
:1037200043F94CF20641C0F60001002003F014FA00
:103730004CF2EC51C0F60001012003F00DFA4CF2FE
:103740000A61C0F60001022003F006FA4CF25E6343
:10375000C0F6000301200021002208B0BDE8F041BE
:1037600002F0E0BF022823D1012002E002281FD18D
:10377000002008B0BDE8F041FFF774BD40F20C0036
:10378000C2F200000188D0F80200ADF80C10CDF8AC
:103790000E0003A805F0AEF908B0BDE8F08100BF47
:1037A00004F0F0FD08B0BDE8F08100BF04F00AFFAE
:1037B00008B0BDE8F08100BF032088F8030003F0E3
:1037C000F3F84CF20641C0F60001002003F0C4F902
:1037D0004CF2EC51C0F60001012003F0BDF94CF2AF
:1037E0000A61C0F60001022003F0B6F94CF25E63F4
:1037F000C0F600035AE000BF4FF40070A8F80200C2
:1038000003F0D2F84CF23161C0F60001002003F061
:10381000A3F998F802004BF66C41C0F6000151F88C
:10382000203040F20C01C2F200010F5C4CF2E16268
:1038300003ACC0F60002204612210097FCF738FDC9
:103840000120214603F088F94CF23F61C0F60001E7
:10385000022003F081F94CF22061C0F60001032040
:1038600003F07AF94CF2BD63C0F600031EE000BF1E
:10387000042088F8030003F097F84CF28741C0F663
:103880000001002003F068F94CF2EC51C0F6000191
:10389000012003F061F94CF20A61C0F60001022038
:1038A00003F05AF94CF28663C0F6000301200021B0
:1038B000002202F037FF08B0BDE8F0814D656E755B
:1038C0003A2043617264205465737400F0B581B08E
:1038D00040F600440546C4F201040026002704E037
:1038E0006D00072F07F1010766D2E8B2C209204632
:1038F0008021FEF769F9204640210122FEF764F994
:103900008DF801609DF801001D2823D89DF8010065
:1039100001308DF801009DF801001D281AD89DF88E
:10392000010001308DF801009DF801001D2811D81B
:103930009DF8010001308DF801009DF801001D285F
:1039400008D89DF8010001308DF801009DF80100B4
:103950001E28DBD3204640210022FEF735F98DF8E2
:1039600002609DF802001D28BAD800BF9DF8020031
:1039700001308DF802009DF802001D28B0D89DF896
:10398000020001308DF802009DF802001D28A7D822
:103990009DF8020001308DF802009DF802001D28FC
:1039A0009ED89DF8020001308DF802009DF80200BB
:1039B0001E28DBD394E700BF204680210122FEF7BA
:1039C00003F9204640210122FEF7FEF800208DF881
:1039D00003009DF803001D2824D800BF9DF80300B4
:1039E00001308DF803009DF803001D281AD89DF8BA
:1039F000030001308DF803009DF803001D2811D845
:103A00009DF8030001308DF803009DF803001D2888
:103A100008D89DF8030001308DF803009DF80300DD
:103A20001E28DBD320468021FEF7C0F8054620463D
:103A300040210022FEF7C8F8B5FA85F0400901B030
:103A4000F0BD000040F2B840C2F2000000687047CC
:103A5000F0B585B04FF60045C0F6000528686968E6
:103A600001264A1C531C144608BF01248A4244F212
:103A70004321C4F6543138BF3446884240F2B8403E
:103A8000C2F200004FF0000718BF01240460029743
:103A90000097FDF765FF01A869460197CDE9035638
:103AA000FDF786FE20B1FDF7FBFE05B0F0BD00BFBF
:103AB00044F24322C4F65432022029460023FDF783
:103AC000F9FE0028EFD1291D022022460023FDF730
:103AD000F1FEFDF7E5FE05B0F0BD0000014600284F
:103AE0004FF0000008BF70474A7A4872104670478E
:103AF000002808BF7047DDF800C001600021828007
:103B00008371BCF1000F08BF4FF0140CA0F8071030
:103B10004172C0E9031C7047002814BFC07900201F
:103B200070470000F0B581B0F0B104460068A1888C
:103B3000FEF73CF8A7790546C01BB0FA80F04609AD
:103B400003F04CFC217AB14210D1D4E9030103F017
:103B500047FC48B1E079B04206D0012803D1BD420C
:103B60001CBF01206072E67101B0F0BD2672E060FA
:103B700001B0F0BD002808BF7047B0B5012504466C
:103B8000002908BF642105720020C4E9031003F076
:103B900025FC60612068A188A279E571BDE8B0408C
:103BA000FEF712B8002808BF7047B0B500294FF0E3
:103BB0000105044608BF6421002A08BF4FF4C872FB
:103BC0000572C0E9031203F009FC60612068A18856
:103BD000A279E571BDE8B040FDF7F6BF002808BF47
:103BE0007047034680799988B0FA80F042091868D6
:103BF0004FF0000CA3F807C0FDF7E6BF002808BF90
:103C0000704710B54FF0000E8446016082808371CA
:103C1000A0F807E064204FF4C874CCE90304B3FAB9
:103C200083F04309084611461A46CCF814E0BDE873
:103C30001040FDF7C9BF0000002808BF70470346C9
:103C400080799988B0FA80F0420918684FF0000C2A
:103C5000A3F807C0FDF7B8BF002808BF70470346A8
:103C6000006899889A794FF0010CA3F807C0FDF716
:103C7000ABBF0000B0B5D0B30446007AB8B303F0D0
:103C8000ADFB2169A1B1E2790546606912B3E16833
:103C900003F0A6FB58B3A1790020E071B1FA81F2DC
:103CA0002068A1885209FDF78FFF6561B0BD00BF94
:103CB000E168606903F094FBC8B1A0790023B0FA11
:103CC00080F042092068A188A4F80730BDE8B04020
:103CD000FDF77ABF03F084FB002808BFB0BD206861
:103CE000A188A2790123E371FDF76EFF6561B0BD84
:103CF000B0B584B0421ED42A8C4600F2D981DFE8E8
:103D000012F0D500E300F5000701150127013B0182
:103D10004D016D017F018F019F01AF01C501D701E9
:103D2000D701D701D701D701D701D701D701D701D3
:103D3000D701D701D701D701D701D701D701D701C3
:103D4000E701F5011B023B0249025702D701D701E7
:103D5000D701D701D701D701D701D701D701D701A3
:103D600065027302D701D701D701D701D701D70167
:103D7000D701D701D701D701D701D701D701D70183
:103D800081028F02D701D701D701D701D701D7010F
:103D9000D701D701D701D701D701D701D701D70163
:103DA0009F02D701D701D701D701D701D701D7018A
:103DB000D701D701D701D701D701D701D701D70143
:103DC000AD02BB02C902CF02D502DB02E102E7026B
:103DD000ED02FF02D701D701D701D701D701D701E3
:103DE0000D031B032903D701D701D701D701D70141
:103DF000D701D701D701D701D701D701D701D70103
:103E0000370345035303D701D701D701D701D701A2
:103E1000D701D701D701D701D701D701D701D701E2
:103E20006103D701D701D701D701D701D701D70146
:103E3000D701D701D701D701D701D701D701D701C2
:103E40006F037D038B039903A703B503C303D70156
:103E5000D701D701D701D701D701D701D701D701A2
:103E6000D103DF03ED03FB03090417042504330426
:103E7000D701D701D701D701D701D701D701D70182
:103E800041044F045D04D701D701D701D701D70101
:103E9000D701D701D701D701D701D701D701D70162
:103EA0006B047904870493049F04AB044CF28513DC
:103EB000C0F6000301200021002202F033FC04B010
:103EC000BDE8B04000F030BC4BF60373C0F6000311
:103ED00001200021002202F025FC40F29410C2F2E1
:103EE000000004B0BDE8B04002F0DEBB4BF66663F4
:103EF000C0F6000301200021002202F013FC40F272
:103F00009410C2F2000004B0BDE8B04002F0BCBBA7
:103F10004CF20233C0F6000301200021002202F01F
:103F200001FC04B0BDE8B04002F076B84BF6F67381
:103F3000C0F6000301200021002202F0F3FB40F252
:103F40009410C2F2000004B0BDE8B04002F0D6BB4D
:103F50004BF6B653C0F6000301200021002202F008
:103F6000E1FB40F29410C2F200004FF4FA7104B089
:103F7000BDE8B04002F04EBB4CF29C13C0F600030B
:103F800001200021002202F0CDFB40F29410C2F289
:103F9000000004B0BDE8B04002F04EBB4CF2041388
:103FA000C0F6000301200021002202F0BBFB40F21A
:103FB000A814C2F200042046FFF7AEFD05462046D5
:103FC000FFF78CFD04464CF2DC330095C0F600038D
:103FD0000120002100220194AAE000BF4BF60F73DC
:103FE000C0F6000301200021002202F09BFB40F2FA
:103FF000BC10C2F2000004B0BDE8B040FFF72CBE18
:104000000FF2F46301200021002202F08BFB40F24A
:10401000BC10C2F2000004B0BDE8B040FFF70CBE17
:104020004CF24423C0F6000301200021002202F0DC
:1040300079FB40F2BC10C2F20000322197E000BFD1
:104040004CF22D23C0F6000301200021002202F0D3
:1040500069FB40F2BC10C2F20000C82187E000BF3B
:104060004BF69053C0F6000301200021002202F01D
:1040700059FB40F2BC10C2F2000064214FF4C87238
:1040800004B0BDE8B040FFF78DBD00BF4CF2B013E7
:10409000C0F6000301200021002202F043FB40F2A1
:1040A000BC10C2F2000004B0BDE8B040FFF796BDFE
:1040B0004BF6C3714BF61E730090C0F60001C0F6BC
:1040C000000302204FF4FE72CDF804C030E000BFC0
:1040D0004CF27523C0F6000301200021002202F0FB
:1040E00021FB04B0BDE8B04002F0F2B84BF6D35368
:1040F000C0F6000301200021002202F013FB40F271
:104100009414C2F20004204602F0F8FA204602F0AD
:1041100099FA0FF2DC510FF2DC554CF2DE13002855
:1041200008BF0D46C0F600030120002100220095C3
:1041300002F0F8FA04B0B0BD4BF6EE53C0F600033F
:1041400001200021002202F0EDFA4BF6C3714CF27F
:104150009903C0F60001C0F60003022040F20512E8
:1041600002F0E0FA40F2BC10C2F20000502104B0AC
:10417000BDE8B040FFF7FEBC4CF2E903C0F6000317
:1041800001200021002202F0CDFA04B0BDE8B040C9
:1041900002F0F4B94CF2F913C0F60003012000213B
:1041A000002202F0BFFA04B0BDE8B04002F0A8B9A6
:1041B0004CF2E723C0F6000301200021002202F0A8
:1041C000B1FA04B0BDE8B04002F004B84CF26C1390
:1041D000C0F6000301200021002202F0A3FA04B07F
:1041E000BDE8B04002F058B94CF2B223C0F600036B
:1041F00001200021002202F095FA04B0BDE8B04091
:1042000002F03EB94CF21433C0F600030120002145
:10421000002202F087FA04B0BDE8B04002F0F0BD21
:104220004BF64D63C0F6000301200021002202F08E
:1042300079FA0DF10B0002F005FF04B0B0BD00BF2C
:104240004CF2C333C0F6000301200021002202F02B
:1042500069FA04B0BDE8B04002F088BC4CF2060335
:10426000C0F6000301200021002202F05BFA04B036
:10427000BDE8B04000F0D6BB4CF26403C0F60003CA
:1042800001200021002202F04DFA04B0BDE8B04048
:1042900000F050BE604604B0BDE8B04006F0F2BD8C
:1042A000604604B0BDE8B04006F06EBD604604B0A4
:1042B000BDE8B04006F0ACBC604604B0BDE8B0401C
:1042C00006F0E6BC604604B0BDE8B04006F01EBD96
:1042D000604604B0BDE8B04006F096BD4CF23F0326
:1042E000C0F6000301200021002202F01BFA40F278
:1042F000F800C2F2000004B0BDE8B04000F074BCA9
:104300004CF22103C0F6000301200021002202F03C
:1043100009FA04B0BDE8B04005F0CABC4BF6DC7346
:10432000C0F6000301200021002202F0FBF904B0D6
:10433000BDE8B04002F000BF4CF2CF03C0F600036E
:1043400001200021002202F0EDF904B0BDE8B040E8
:1043500002F056BF4CF2C713C0F600030120002143
:10436000002202F0DFF904B0BDE8B04002F076BFF1
:104370004BF6A373C0F6000301200021002202F0D7
:10438000D1F904B0BDE8B04003F08AB84BF66073D1
:10439000C0F6000301200021002202F0C3F904B09E
:1043A000BDE8B04003F028B84BF67363C0F60003D5
:1043B00001200021002202F0B5F904B0BDE8B040B0
:1043C00003F062B84BF68273C0F6000301200021AF
:1043D000002202F0A7F904B0BDE8B04001F0E0BD52
:1043E0004CF29823C0F6000301200021002202F0C5
:1043F00099F904B0BDE8B04004F012BA4CF2A4330D
:10440000C0F6000301200021002202F08BF904B065
:10441000BDE8B04004F0E6BA4CF28503C0F60003F4
:1044200001200021002202F07DF904B0BDE8B04077
:1044300004F04EBC4CF22933C0F6000301200021E9
:10444000002202F06FF904B0BDE8B04004F0BABC3D
:104450004CF28433C0F6000301200021002202F058
:1044600061F904B0BDE8B04003F078BF4CF26733A7
:10447000C0F6000301200021002202F053F904B02D
:10448000BDE8B04003F056BF4CF2C823C0F60003AD
:1044900001200021002202F045F904B0BDE8B0403F
:1044A00004F048BE4CF21B13C0F6000301200021AB
:1044B000002202F037F904B0BDE8B04005F00CB8B6
:1044C0004CF20F23C0F6000301200021002202F06D
:1044D00029F904B0BDE8B04005F08AB84CF2493380
:1044E000C0F6000301200021002202F01BF904B0F5
:1044F000BDE8B04004F0BABF4BF6E763C0F6000376
:1045000001200021002202F00DF904B0BDE8B04006
:1045100004F0AABE4BF6AC63C0F6000301200021F4
:10452000002202F0FFF804B0BDE8B04004F048BE3D
:104530004BF6C863C0F6000301200021002202F000
:10454000F1F804B0BDE8B04004F064BE4BF62F6350
:10455000C0F6000301200021002202F0E3F804B0BD
:10456000BDE8B04004F05AB94BF61163C0F6000341
:1045700001200021002202F0D5F804B0BDE8B040CF
:1045800004F020B94CF25113C0F6000301200021C1
:10459000002202F0C7F804B0BDE8B04004F03AB918
:1045A0004CF23613C0F6000301200021002202F075
:1045B000B9F804B0BDE8B04004F0EEB84CF25A23AC
:1045C000C0F6000301200021002202F0ABF804B085
:1045D000BDE8B04004F020B94BF69063C0F600038C
:1045E00001200021002202F09DF804B0BDE8B04097
:1045F00000F0BEBF4BF64673C0F600030120002159
:10460000002202F08FF804B0BDE8B04000F0B2BD67
:1046100030A301200021002202F084F804B0BDE89C
:10462000B04000F0A5BE00BF22A30120002100225F
:1046300002F078F804B0BDE8B04000F07DBF00BFE4
:1046400013A301200021002202F06CF804B0BDE8A1
:10465000B04004F017BA00BF05A3012000210022DA
:1046600002F060F804B0BDE8B04000F031BF00BF18
:10467000434D4420307844353A204553503332205E
:10468000626164204352432074657374000000002B
:10469000434D4420307844343A204553503332203F
:1046A0006C617465737420434152445F4556454EB6
:1046B00054000000434D4420307844333A204553A1
:1046C000503332206D6F636B20434152445F455637
:1046D000454E5400434D4420307844323A204553EF
:1046E000503332206C696E6B207374617475730083
:1046F0004F4646004F4E0000434D443A2042757AE3
:104700007A6572204F4646007047000080B502F07F
:10471000E3FA43F6F140C0F6000002F06BFBBDE89F
:104720008040FFF7F1BF000010B582B04BF6844027
:10473000C0F6000002F086FA40F2BC44C2F2000467
:104740004BF6A9424BF6EF43C0F60002C0F6000359
:1047500020468021FBF7ACFD204602F073FA4BF6B1
:10476000B8424BF6D943C0F60002C0F6000320461B
:104770008021FBF79DFD204602F064FA4BF69A4239
:10478000C0F6000222A320468021FBF791FD2046BF
:1047900002F058FA4BF6C7420FF27C0CC0F600024A
:1047A00020A320468021CDF800C0FBF781FD2046E4
:1047B00002F048FA1EA222A320468021FBF778FDD2
:1047C000204602F03FFA20A223A320468021FBF7D7
:1047D0006FFD204602F036FAFFF734F9034621A2B6
:1047E00020468021FBF764FD204602F02BFA21A22F
:1047F000204680214FF4E133FBF75AFD204602F0BA
:1048000021FA26A002B0BDE8104002F01BBA00BF9A
:1048100076302E382E35000031363A33323A303980
:1048200000000000417072203239203230323600F0
:10483000417574686F7220203A2025730D0A0000BC
:104840004B656E746F00000053747564656E742060
:104850003A2025730D0A00003139313131303234BC
:1048600035000000426F6F74202020203A20256C14
:10487000750D0A0044656275672020203A20555363
:10488000415254322025642C20464620434D44207A
:10489000444154412046460D0A0000003D3D3D3D47
:1048A0003D3D3D3D3D3D3D3D3D3D3D3D3D3D3D0D68
:1048B0000A000000B0B582B0FDF78CF9044602F0A2
:1048C000D5F90DF1070002F099F958B90DF1070576
:1048D0009DF80700214602F00DFA284602F08EF9F5
:1048E0000028F5D002B0B0BD2DE9F04186B080209F
:1048F00005F072FE8046822005F06EFE054684209B
:1049000005F06AFE0646862005F066FE074688200A
:1049100005F062FE04468C2005F05EFE010901EB05
:10492000810100F00F0000EB4100632842D821090B
:1049300001EB810104F00F0202EB4101A1F10D0234
:1049400012F10C0F36D33A0902EB820207F00F0383
:1049500003EB4202A2F1200313F11F0F2AD3C6F387
:10496000011303EB830306F00F0707EB4303172B39
:1049700020D82F0907EB870705F00F0606EB47073E
:104980003B2F17D8C8F3021606EB860608F00F0572
:1049900005EB46063C2E0DD28DE88F000CA30120BE
:1049A000002100220596012401F0BCFE204606B03D
:1049B000BDE8F0814CF62941C0F6000112A30220A7
:1049C000AD2201F0AFFE0024204606B0BDE8F08124
:1049D00044533133303220696E69743A204F4B2C86
:1049E0002074696D653D3230253032752D253032A9
:1049F000752D2530327520253032753A25303275C7
:104A00003A2530327500000044533133303220698A
:104A10006E69743A20494E56414C49445F54494DA1
:104A2000450000002DE9F04186B0802005F0D4FD5E
:104A30008046822005F0D0FD0546842005F0CCFD9F
:104A40000646862005F0C8FD0746882005F0C4FD0F
:104A500004468C2005F0C0FD010901EB810100F046
:104A60000F0000EB4100632840D8210901EB8101D0
:104A700004F00F0202EB4101A1F10D0212F10C0F43
:104A800034D33A0902EB820207F00F0303EB420230
:104A9000A2F1200313F11F0F28D3C6F3011303EB78
:104AA000830306F00F0707EB4303172B1ED82F09CC
:104AB00007EB870705F00F0606EB47063B2E15D8D8
:104AC000C8F3021707EB870708F00F0505EB470748
:104AD0003C2F0BD28DE84F000AA3012000210022B9
:104AE000059701F01FFE06B0BDE8F0814CF62941A4
:104AF000C0F600010FA30220BB2206B0BDE8F041C2
:104B000001F010BE4453313330322074696D653A80
:104B1000203230253032752D253032752D2530323A
:104B20007520253032753A253032753A2530327588
:104B3000000000004453313330322074696D653A0F
:104B400020494E56414C49445F54494D45000000B0
:104B5000002808BF704710B50446802005F03CFDD2
:104B6000C0F3021101EB810100F00F0000EB4100E6
:104B70006071822005F030FD010901EB810100F038
:104B80000F0000EB41002071842005F025FDC0F3EB
:104B9000011141EA810100F00F0000EB4100E070DB
:104BA000862005F019FD010901EB810100F00F00DD
:104BB00000EB4100A070882005F00EFD010901EB1B
:104BC000810100F00F0000EB410060708C2005F0C7
:104BD00003FD010901EB810100F00F0000EB410032
:104BE0002070BDE8104070472DE9F04186B0B0B1AB
:104BF00004460078632812D860780D3810F10C0F45
:104C00000DD3A078203810F11F0F08D3E0781728B3
:104C100005D820793B2802D860793C280ED34CF681
:104C20002941C0F60001A9A30220782201F07AFDF3
:104C30000025284606B0BDE8F08100BF40F60046DA
:104C4000C4F20106304620210022FCF7BDFF3046A9
:104C5000012100220125FCF7B7FF30462021012267
:104C6000FCF7B2FF8E2006F0F3F9002006F0F0F911
:104C7000304620210022FCF7A7FF60794FF0CD08D5
:104C8000C1B201FB08F1C90A01EB8102A0EB4200AD
:104C900040EA0117304620210022FCF795FF3046FC
:104CA00001210022FCF790FF304620210122FCF771
:104CB0008BFF802006F0CCF9F8B206F0C9F9304637
:104CC00020210022FCF780FF2079C1B201FB08F10E
:104CD000C90A01EB8102A0EB420040EA011730460D
:104CE00020210022FCF770FF304601210022FCF752
:104CF0006BFF304620210122FCF766FF822006F080
:104D0000A7F9F8B206F0A4F9304620210022FCF7FA
:104D10005BFFE078C1B201FB08F1C90A01EB810237
:104D2000A0EB420040EA0117304620210022FCF7A8
:104D30004BFF304601210022FCF746FF3046202180
:104D40000122FCF741FF842006F082F9F8B206F058
:104D50007FF9304620210022FCF736FFA078C1B24F
:104D600001FB08F1C90A01EB8102A0EB420040EA15
:104D70000117304620210022FCF726FF3046012192
:104D80000022FCF721FF304620210122FCF71CFF06
:104D9000862006F05DF9F8B206F05AF93046202177
:104DA0000022FCF711FF6078C1B201FB08F1C90ACB
:104DB00001EB8102A0EB420040EA011730462021BE
:104DC0000022FCF701FF304601210022FCF7FCFE27
:104DD000304620210122FCF7F7FE882006F038F942
:104DE000F8B206F035F9304620210022FCF7ECFE3F
:104DF0002078C1B201FB08F1C90A01EB8102A0EBE6
:104E0000420040EA0117304620210022FCF7DCFE78
:104E1000304601210022FCF7D7FE30462021012236
:104E2000FCF7D2FE8C2006F013F9F8B206F010F968
:104E3000304620210022FCF7C7FE30462021002208
:104E4000FCF7C2FE304601210022FCF7BDFE3046D1
:104E500020210122FCF7B8FE8E2006F0F9F8802010
:104E600006F0F6F8304620210022FCF7ADFE20784F
:104E70006178A278E378667927798DE88F0005A3B9
:104E8000012000210022059601F04CFC284606B0C6
:104E9000BDE8F0814453313330322074696D6520B0
:104EA0007772697474656E3A203230253032752D10
:104EB000253032752D2530327520253032753A2552
:104EC0003032753A253032750000000044533133DA
:104ED0003032207365742074696D652072656A656F
:104EE000637465643A20696E76616C6964207469E4
:104EF0006D65000080B10146007863280CD84878C1
:104F00000D3810F10C0F07D38878203810F11F0FDF
:104F100002D3C878172801D90020704708793B28A8
:104F20004FF0000088BF704749793C2938BF012005
:104F30007047000010B540F60044C4F2010420465A
:104F400020210022FCF740FE204601210022FCF730
:104F50003BFE204620210122FCF736FE8E2006F083
:104F600077F8002006F074F8204620210022FCF794
:104F70002BFE204620210022FCF726FE20460121A0
:104F80000022FCF721FE204620210122FCF71CFE16
:104F9000802006F05DF8002006F05AF82046202117
:104FA0000022FCF711FE204620210022FCF70CFE17
:104FB000204601210022FCF707FE20462021012285
:104FC000FCF702FE822006F043F8342006F040F899
:104FD000204620210022FCF7F7FD20462021002258
:104FE000FCF7F2FD204601210022FCF7EDFD2046F2
:104FF00020210122FCF7E8FD842006F029F8122088
:1050000006F026F8204620210022FCF7DDFD204690
:1050100020210022FCF7D8FD204601210022FCF7C8
:10502000D3FD204620210122FCF7CEFD862006F08C
:105030000FF8282006F00CF8204620210022FCF76B
:10504000C3FD204620210022FCF7BEFD20460121A1
:105050000022FCF7B9FD204620210122FCF7B4FD17
:10506000882005F0F5FF042005F0F2FF20462021FE
:105070000022FCF7A9FD204620210022FCF7A4FD18
:10508000204601210022FCF79FFD2046202101221D
:10509000FCF79AFD8C2005F0DBFF262005F0D8FFF9
:1050A000204620210022FCF78FFD204620210022EF
:1050B000FCF78AFD204601210022FCF785FD2046F1
:1050C00020210122FCF780FD8E2005F0C1FF802009
:1050D00005F0BEFF204620210022FCF775FD04A349
:1050E000012000210022BDE8104001F01BBB00BFE1
:1050F00044533133303220746573742074696D65A4
:10510000207772697474656E3A20323032362D30F1
:10511000342D32382031323A33343A303000000006
:10512000B0B540F2A024C2F2000440F68821002568
:1051300004F13C00C2F200014FF48072A4F8075061
:10514000C4F80A50E58101F0C3FF40F270402561C8
:105150002560A58084F84850C4E90555C4E9075581
:10516000A11DC2F2000001226562BDE8B040FDF75A
:10517000CDBC000070B588B040F2A024C2F200049B
:105180002078002800F0348040F2E066C2F2000689
:105190003078C11F11F1020F80F03880411E312993
:1051A00000F24A804BF6A760C0F60000DFE801F08D
:1051B000661A383E44444444444444444444444AC3
:1051C0004444444444444444444444444444445093
:1051D000444444444444444444444444444444567D
:1051E0005C6200BF4CF66B40C0F6000046E000BFBA
:1051F0004CF6B841C0F600013BA3022040F2E91290
:1052000008B0BDE8704001F08DBA00BF3CA301209A
:105210000021002208B0BDE8704001F083BA00BF51
:105220004CF68340C0F6000028E000BF4CF68F40EB
:10523000C0F6000022E000BF4CF68740C0F6000038
:105240001CE000BF4CF6A140C0F6000016E000BF15
:105250004CF6AD40C0F6000010E000BF4CF69340A5
:10526000C0F600000AE000BF4CF65940C0F600004E
:1052700004E000BF4CF67040C0F600007188B588AD
:10528000CDE9000126A3012000210022029501F0B2
:1052900049FA3078102825D122794CF6E6404CF6B0
:1052A000DC41C0F60000C0F6000194F8243094F808
:1052B000256094F82650002A94F8272094F905C018
:1052C00008BF014604F14800CDE90010CDE90236DF
:1052D000CDE904521CA3012000210022CDF818C002
:1052E00001F020FA08B070BD45535033322072658A
:1052F00063656E7420525820656D707479000000EB
:10530000455350333220726563656E742052583AAB
:10531000206E6F2075736572206672616D65000086
:10532000455350333220726563656E742052583A8B
:1053300020747970653D2573207365713D25752056
:105340006C656E3D25750000574946492025732040
:10535000737369643D25732069703D25752E25752D
:105360002E25752E257520727373693D2564000006
:10537000B0B584B040F2A024C2F20004A1786078F5
:105380004CF663422CA3C0F60002002918BF134656
:105390000FF2AC0C002808BF9C464CF60453C0F634
:1053A0000003012000210022CDF800C001F0BAF96D
:1053B000D4F81CC024A3012000210022CDF800C095
:1053C00001F0B0F9256904F13C0001F043FE844688
:1053D00023A30120002100220095CDF804C001F094
:1053E000A1F914F8480F4CF6DC4314F8441C4CF6B1
:1053F000E642C0F60003002923A1C0F6000208BF60
:105400001346002814F9435C18BF2146CDE900314A
:105410001EA3012000210022029501F083F954E926
:10542000070522A30090012000210022019501F030
:1054300079F904B0B0BD00BF50454E44494E470015
:105440004F4E4C494E450000455350333220656F56
:1054500066206572726F72733A20256C75000000C9
:105460004553503332207278206F766572666C6FC8
:10547000773A20256C752072696E672070656E64BE
:10548000696E673A202575002D00000045535033A2
:105490003220776966693A20257320737369643D09
:1054A000257320727373693D2564000045535033A2
:1054B00032206C6173742074783D256C75206D7397
:1054C000206C6173742072783D256C75206D7300BB
:1054D00080B582B042F21120C4F23340019001A99C
:1054E00001200422012305F093F902B080BD0000E1
:1054F000002818BF002B01D1704700BF80B584B0D1
:1055000000688DF804100090002A18BF0122188846
:10551000D3F80210ADF8060000208DF805200291A6
:105520008DF80C00694620200C22002305F070F94C
:1055300004B0BDE88040704780B584B04AF2BF40F7
:10554000C1F6A570009040F20010C0F21A40019020
:1055500040F61D70C0F61E20029000208DF80C0051
:10556000694620200C22002305F052F904B080BDCA
:1055700080B582B001F032FF019001A90120042220
:10558000002305F045F902B080BD00002DE9F04F81
:10559000B5B040F2A029C2F2000909F13C000DF1BA
:1055A00033010B9001F070FD30B399F8030001282E
:1055B0000ED1D9F82800322101F012FF40B140F29B
:1055C0009410C2F2000001F05FF8002089F8030097
:1055D00099F8010001280BD1D9F8200040B142F21E
:1055E000107101F0FDFE00281CBF002089F80100A9
:1055F00035B0BDE8F08F00BF0DACA01D0A900DF1D5
:10560000C5004CF6B84B40F2E0664AF2010A093098
:1056100000250DF13307C0F6000BC2F2000608901A
:1056200016E000BF4CF6EE430220594640F25312FA
:10563000C0F6000301F076F8A9F80750C9F80A503F
:10564000A9F80E500B98394601F01EFD0028ACD188
:1056500099F807000628EFD8B0469DF83360DFE8D8
:1056600000F0050D19394D515D0000BFA52E4646CD
:1056700004BF012089F80700E4E700BFA6F15A0043
:10568000B0FA80F04009400089F8070089F8085016
:105690004646D7E799F80800411CCAB24844062A92
:1056A00080F83460464689F80810CBD399F8341056
:1056B000B9F838000129A9F80C00B3D18128B1D27A
:1056C00000284FF00300A9F80A5008BF042089F809
:1056D0000700B7E7B9F80A00B9F80C30411C8AB2E4
:1056E000A9F80A1040F26061C2F200019A420E5419
:1056F000464624BF042089F80700A3E70520A9F83F
:105700000E6006E0B9F80E0040EA0620A9F80E0087
:10571000062089F80700464694E700BF0D2E27D1E2
:10572000B9F83800B9F80CB0ADF83800D9F8340041
:10573000BBF1000F0D9031D00A9840F26061C2F2C7
:1057400000015A46FAF78DFF0BF1060001044FF6EF
:10575000FF7300F0B98081B2012923D10023002119
:105760004FF6FF7210F0010040F08480ACE000BF03
:10577000D9F81C0059460130C9F81C00022040F23B
:105780006D120FF25073009600F0CCFFA9F807508D
:10579000C9F80A50A9F80E50464653E7062081B2D0
:1057A0000129DBD021F00101BC464A426FF0010122
:1057B0004FF6FF736718BD78FE786B408AEA53078F
:1057C000DD0708BF5F088AEA5703FD0708BF7B08AB
:1057D0008AEA5307DD0708BF5F088AEA5703FD0717
:1057E00008BF7B088AEA5307DD0708BF5F088AEA1B
:1057F0005703FD0708BF7B088AEA5307DD0708BF88
:105800005F088AEA5703FD0708BF7B0873408AEAEE
:105810005307DE0708BF5F088AEA5703FE0708BF81
:105820007B088AEA5307DE0708BF5F088AEA570346
:10583000FE0708BF7B088AEA5307DE0708BF5F0838
:105840008AEA5703FE0708BF7B088AEA5307DE0788
:1058500008BF5F088AEA57030231FE0708BF7B08CA
:1058600057180237A6D102311A460025674610F0B4
:10587000010029D0605C50408AEA5001C20708BF8D
:1058800041088AEA5100CA0708BF48088AEA50015D
:10589000C20708BF41088AEA5100CA0708BF480882
:1058A0008AEA5001C20708BF41088AEA5100CA07C4
:1058B00008BF48088AEA5001C20708BF41088AEABF
:1058C0005103C80708BF4B08B9F80E00834240F0E7
:1058D0006F8099F8366099F8375099F8357046EA34
:1058E00005210120BBF1000F89F8000088F8007045
:1058F0000991A8F80210A8F804B008D040F260613D
:1059000008F10600C2F200015A46FAF7AAFE01F0B9
:1059100065FD791E3129C9F8300000F2C7814BF6C8
:10592000A760C0F60000DFE811F0C50133005100A8
:10593000B30009018F01C101C101C101C101C10150
:10594000C101C101C101C1019501C101C101C10173
:10595000C101C101C101C101C101C101C101C10137
:10596000C101C101C101C101A901C101C101C1013F
:10597000C101C101C101C101C101C101C101C10117
:10598000C101C101C101C101AF01B501BB0100BF2E
:10599000BBF1040F4FF0010089F8010040F2A28131
:1059A00040F26060C2F20000077989F804709BE160
:1059B0004CF6B84BC0F6000B022059464FF4BD72AE
:1059C0000FF22C5300F0AEFE89E100BFBBF1030FD4
:1059D0004FF0010089F80100C0F09C8140F2606046
:1059E000C2F2000081784CF6B84BC81F10F1030FCB
:1059F0004FF000050DF13307C0F6000B46463FF6A9
:105A00001BAE40F26060C2F200000088013931290B
:105A100000F234824BF6A766C0F60006DFE811F00C
:105A200050023200220228022E022E022E022E02E4
:105A30002E022E022E022E022E022E022E023402E0
:105A40002E022E022E022E022E022E022E022E02D6
:105A50002E022E022E022E022E022E022E023A02BA
:105A60002E022E022E022E022E022E022E022E02B6
:105A70002E022E022E022E022E022E022E02400294
:105A800046024C024CF66B46C0F6000618E200BF18
:105A9000BBF1040F4FF0000589F80150C0F04481BC
:105AA00040F26060C2F20000817800884A1E4CF625
:105AB000B84B312AC0F6000B464600F29B814BF6EC
:105AC000A761C0F60001DFE812F0B70133008101E1
:105AD00087018D018F019501950195019501950132
