:020000040800F2
:10000000F03300203502000821310008D12D00080E
:100010009D30000899150008A93400080000000070
:10002000000000000000000000000000A1310008F6
:100030001D160008000000009D310008A5310008D1
:100040004F0200084F0200084F0200084F0200084C
:100050004F0200084F0200084F0200084F0200083C
:100060004F0200084F0200084F0200084F0200082C
:100070004F0200084F0200084F0200084F0200081C
:100080004F0200084F0200084F0200084F0200080C
:100090004F0200084F0200084F0200084F020008FC
:1000A0004F0200084F0200084F0200084F020008EC
:1000B0004F0200084F0200084F0200084F020008DC
:1000C0004F0200084F0200084F0200084F020008CC
:1000D0004F02000885340008913400089D34000860
:1000E0004F0200084F0200084F02000800F002F81B
:1000F00000F090F80AA090E8000C82448344AAF132
:100100000107DA4501D100F085F8AFF2090EBAE82F
:100110000F0013F0010F18BFFB1A43F0010318473B
:1001200034E9000054E90000103A24BF78C878C1CF
:10013000FAD8520724BF30C830C144BF04680C60ED
:10014000704700000023002400250026103A28BF35
:1001500078C1FBD8520728BF30C148BF0B60704739
:100160006E2900F0B483702900F08D8166290DF0AE
:10017000918065290DF08E8067290DF08B806129B3
:100180000DF08A8003681B0A28BF41F080016929AD
:1001900000F0FE80642900F0FB80752900F0F880F3
:1001A0006F2900F09D84782900F05981E92900F039
:1001B0003784E42900F03484F52900F03184EF29F4
:1001C00000F09A84F82900F058810368DB0928BF01
:1001D00041F08001632900F0B983732900F0BE83E8
:1001E000E32901F06F80F32901F07480002070474B
:1001F0001FB501F0C5F80400002000210DF034F80F
:10020000401C6060002000210DF018F8E0601FBD68
:1002100010B510BD01F086F81146FFF7E9FF08F0B0
:100220003FFA01F063F903B4FFF7F2FF03BC01F0FA
:10023000ABF900000948804709480047FEE7FEE7A0
:10024000FEE7FEE7FEE7FEE7FEE7FEE7FEE7FEE786
:1002500004480549054A064B7047000075330008FD
:10026000ED000008F0210020F0330020F0230020F2
:10027000F02300207CB51D4616460C00009007D0E8
:100280004142A14202D32044401E01E04FF0FF3022
:10029000064B7B442A4669460190304600F031FB0C
:1002A000002C02D0009A002111707CBD9306000042
:1002B0000FB41CB50C0007AA009007D04142A14220
:1002C00002D32044401E01E04FF0FF30074B7B4437
:1002D00069460190069800F014FB0021002C01D023
:1002E000009A11701CBC5DF814FB0000570600005A
:1002F00070B5044685690068C10601D5302600E066
:100300002026C00707D070BDD4E9012130469047B0
:10031000206A401C20626D1EF6D570BD70B5044683
:1003200085690078C00707D170BDD4E9012120207C
:100330009047206A401C20626D1EF6D570BD70B5D6
:100340000C460546012A05D02878800600D5EA69C2
:10035000002302E0012305E05B1C934202D2E05C33
:100360000028F9D1A869E618C01AA861286A1844BB
:1003700028622846FFF7BCFF04E0D5E9012114F804
:10038000010B9047B442F8D32846FFF7C7FF70BD72
:100390002DE9F0410646002410687529314616A55E
:1003A00010D000F029FA002802DA404213A507E035
:1003B00031688A0701D512A502E0490704D511A5C5
:1003C000012401E000F021FA00210A2206F12407AD
:1003D00009E0B0FBF2FCB0FBF2F302FB1C00303092
:1003E00078541846491C0028F3D123462A46304643
:1003F000BDE8F04100F012BA000000002D0000003E
:100400002B00000020000000F0B40D460188090513
:1004100002D5214C7C4402E01F4C7C440E34002168
:1004200000F1240608E002F00F071209E75D42EA36
:1004300003721B097754491C52EA0307F3D102786F
:100440000023120704D5702D06D009B10223113400
:100450002246F0BC00F0E2B901231034F8E770B591
:1004600004460D462146106800F0CFF902462946A1
:100470002046BDE870400023C6E7D21D22F00703E6
:10048000D3E90023C0E70368126843F02003036048
:100490000823C3610023B7E784CE00002DE9F05F95
:1004A000894604464FF0000ADFF874B1FB44C0F8F7
:1004B00020A02046E1688847002874D0252806D06F
:1004C000D4E901219047206A401C2062F1E7002610
:1004D0005F462046E16888472028054607DB312D26
:1004E00005D2781910F8200C08B10643F1E7B007DF
:1004F00001D526F00406C4F81CA00027C4F818A0F3
:100500002A2D09D028460CF091FE38B304EB870859
:10051000303DC8F8185019E059F8041B204604EB88
:1005200087029161E1688847012F054618D1E0698B
:10053000002820DA26F020061DE0D8F8180000EB8D
:10054000800005EB40003038C8F818002046E1680C
:10055000884705460CF06AFE0028EED1012F0AD02C
:100560002E2D08D12046E16888477F1C0546022FC2
:1005700046F02006C4DBA069002803DA404246F0BA
:100580000106A061F00701D026F010066C2D0BD0FB
:10059000682D09D04C2D39D06A2D35D0742D35D029
:1005A0007A2D33D016E038E0E1682F4620468847A0
:1005B000B842054609D16C2F26D04FF48060E1681F
:1005C000064320468847054604E06C2F1AD04FF4B6
:1005D000807006430DB3A5F14100192802D82035DB
:1005E00046F400664A462946204626604E46FFF7F6
:1005F000B7FD80B101280BD0F61D26F0070000F1F1
:10060000080956E74020E4E78020D8E70020D6E735
:1006100006F104094DE7284652E7206ABDE8F09F3D
:1006200014CE000010B5431C02E010F8011B71B19C
:100630008107FAD14FF0013202C88C1A8C4314EAB8
:10064000C211F9D0C01A0A0603D0C01E10BDC01ACC
:1006500010BD0A0401D0801E10BD0902FCD0401E4E
:1006600010BD032A40F2308010F0030C00F015801A
:1006700011F8013BBCF1020F624498BF11F801CBA5
:1006800000F8013B38BF11F8013BA2F1040298BF0A
:1006900000F801CB38BF00F8013B11F0030300F074
:1006A0002580083AC0F0088051F8043B083A51F818
:1006B00004CBA0E80810F5E7121D5CBF51F8043B1D
:1006C00040F8043BAFF30080D20724BF11F8013B90
:1006D00011F801CB48BF11F8012B24BF00F8013BF2
:1006E00000F801CB48BF00F8012B704710B5203A45
:1006F000C0F00B80B1E81850A0E81850B1E81850CD
:10070000A0E81850203ABFF4F5AF5FEA027C24BF9E
:10071000B1E81850A0E8185044BF18C918C0BDE887
:1007200010405FEA827C24BF51F8043B40F8043B50
:1007300008BF7047D20728BF31F8023B48BF11F805
:10074000012B28BF20F8023B48BF00F8012B70475F
:1007500002F0FF0343EA032242EA024200F024B817
:100760004FF000020429C0F0128010F0030C00F0DA
:100770001B80CCF1040CBCF1020F18BF00F8012B58
:10078000A8BF20F8022BA1EB0C0100F00DB85FEA26
:10079000C17C24BF00F8012B00F8012B48BF00F8F2
:1007A000012B70474FF0000200B513469446964661
:1007B000203922BFA0E80C50A0E80C50B1F1200174
:1007C000BFF4F7AF090728BFA0E80C5048BF0CC022
:1007D0005DF804EB890028BF40F8042B08BF704780
:1007E00048BF20F8022B11F0804F18BF00F8012BF2
:1007F000704770477047704709684A0501D540B295
:100800007047C905FCD500B2704709684A0501D593
:10081000C0B27047C905FCD580B270472DE9F047DA
:100820000D4699469246044600F124080168880660
:1008300004D5E06921F01001216000E00120A84208
:1008400001DD471B00E00027A1697A1902EB0900CE
:10085000081AA0612078C00602D42046FFF748FDA0
:10086000002608E0D4E901211AF806009047206A22
:10087000401C761C20624E45F4DB2078C0060AD569
:100880002046FFF735FD06E0D4E9012130209047EE
:10089000206A401C2062381EA7F10107F4DC07E043
:1008A000D4E9012118F805009047206A401C206215
:1008B000281EA5F10105F3DC2046FFF72FFD207867
:1008C000000602D50220BDE8F0870120FBE7116891
:1008D0000268006A530501D508700AE0D30501D506
:1008E000088006E0130603D5C217C1E9000200E044
:1008F000086001207047000001694A1C0261087805
:10090000704700B58FB0CDE901310021059105494F
:100910007944CDE9031011466846FFF7BFFD0FB0DB
:1009200000BD0000E5FFFFFFD1E900239A4202D29B
:10093000531C0B601070704710B5436913B1AFF3CF
:10094000008001E0FFF7FBFC012010BD127800F1F0
:1009500024010A7000224A700122EDE711684FF06D
:10096000FF32E9E72DE9FF5F15468A460446DFF8C6
:10097000AC80F8440027D8E900103E46CDE90010CD
:1009800010E03AF816106A4602A800F0A7FC411CD5
:1009900007D02178890603D5E269391891420DD82C
:1009A0000744761C2078800602D5E069B84205DD50
:1009B000AE42E6DB3AF816000028E2D1A069C01B7F
:1009C000A0612046FFF794FCD8E90010CDE90010A3
:1009D000002017E03AF818106A4602A800F07EFCE2
:1009E000B0F1FF3F81460BD000250DF1080B05E06B
:1009F000D4E901211BF8050090476D1C4D45F7D344
:100A000008F10100B0428046E4DB206A38442062ED
:100A10002046FFF783FCBDE8FF9F000062C900008D
:100A20002DE9F0418046D21D22F007020025D2E9CF
:100A30000002F52915A614D0011E72F1000106DA94
:100A40000023D0EB030063EB020211A608E0D8F804
:100A500000108B0701D50FA602E0490701D50EA6AD
:100A600001251146002408F1240704E000F04EF8A7
:100A700030323A55641C50EA0102F7D12B46324617
:100A800021464046BDE8F041FFF7C8BE0000000027
:100A90002D0000002B0000002000000030B40021D9
:100AA00000F1240408E002F00705D208303542EADC
:100AB0004372DB086554491C52EA0305F3D104680C
:100AC000002310A2250708D504F020040C4304D00D
:100AD000C46901230CA2641EC46130BCFFF79EBE32
:100AE00010B5044621461068FFF78FFE02462046E7
:100AF000BDE810400023D1E7D21D22F00701D1E963
:100B00000023CBE7000000003000000030B5B0F15A
:100B10000A0271F100034FEA900E4EEA817EB0EBBB
:100B20000E0061EB91014FEA101E4EEA017E10EBC0
:100B30000E0041EB11114FEA102E4EEA016E10EB40
:100B40000E0041EB11214FEA104E4EEA014E10EB20
:100B50000E0041EB1141401841F100014FEAD00075
:100B600040EA41704FEAD1014FEA810444EA9074AF
:100B700010EB800544EB01046D1944EB0404521B97
:100B8000A3414FF0000348BF0A3200D530BD401CDE
:100B900041F1000130BD2DE9FF4F0C461E464FF0DC
:100BA000FF378BB0D2E90001DDF860800A908A46F9
:100BB000C1F30A5505B93D46002108464FF0000033
:100BC000BAF1000F00F4400005DA00EB80004FF4AA
:100BD000400101EA50004FEA9059B9F1010F00DDE0
:100BE000B9460A9850EA4A000ED044F61050A5F2D1
:100BF000FF3545432F14B8F1000F1ED07542291E52
:100C00001EDDC9F100021CE0B8F1010F4FF0000039
:100C100001D0302103E0F24305E02154401CB042F2
:100C2000FBDB30460022002121540B99C1F80880DB
:100C3000C1E900200FB0BDE8F08FBD1B6D1CDEE7E1
:100C40004A4600DA694206A800F0DEFB06AB93E8EC
:100C5000070003AB83E8070050460A990BF00AFF30
:100C60008DE80700A0F500501F3800900398002D74
:100C70000ADD42F21F014A460844002303A90390FB
:100C800068460CF073F909E0A0F500504A461F3899
:100C9000002303A9039068460CF07DF98DE8070056
:100CA0000004000C03D04FF0FF30410800E0104674
:100CB000B8F1000F03D00022009215461EE0751E09
:100CC00005D4FFF723FF303262556D1EF9D5B346C8
:100CD0000122084302D000227F1C04E02078302843
:100CE00001D100227F1E002A099784D01DE0112D1A
:100CF00007DAFFF70BFF303262556D1C50EA010234
:100D0000F5D1084302D00098C8B10EE00021681E5A
:100D100005E0235C625C63542254401E491C8142FE
:100D2000F7DBAB46A81B401E0990002004F80B001F
:100D30000B98099AC0F80880C0E9002B7AE71126C1
:100D40004FF0000857E72DE9F04F88460446D21DC2
:100D500022F0070191B0D1E90001CDE90A010CF0C0
:100D600051FA02460B98C00F01D02D2007E02068F1
:100D7000810701D52B2002E0202101EAC000032ACF
:100D8000099001D0072A05DB03464146204600F0C2
:100D9000FBFA0BE12078800601D5E06900E006202F
:100DA000B8F1650F814606D0B8F1660F18D0B8F1DA
:100DB000670F70D131E00020B9F1110F009001DB15
:100DC000112301E009F101030AAA01A90CA8FFF708
:100DD000E2FEDDE90C70002609F10105834647E0DB
:100DE00001204B4600904FF000470AAA01A90CA829
:100DF000FFF7D1FEDDE90DB00C995D46002610B974
:100E000009F101000D18B9EB050003D4C0F1FF365C
:100E100009F10105A5EB09002BE0B9F1010F01DA99
:100E20004FF001090020B9F1110F0090484601DD93
:100E3000112300E003460AAA01A90CA8FFF7ABFEA4
:100E4000DDE90C704D4600268346207800070AD461
:100E5000AB4500DA5D4601A8012D04DD411911F80A
:100E6000011C302907D04F4502DA17F1040F04DACC
:100E7000012082460FE06D1EEEE7002F02DCED1B25
:100E80003E4403E0781CA84200DD7D1CB81B00F145
:100E9000010A4FF000472078000703D4AA4501DB80
:100EA0004FF0FF3A0021B7F1004F0DF143088DF8E4
:100EB000431024D002202B23002F01DA7F422D2360
:100EC0000A21021EA0F1010000DC5FB197FBF1FCDA
:100ED00097FBF1F201FB1C7C17460CF1300C08F873
:100EE00001CDEEE7A8F1010003702188090501D5C5
:100EF000452100E06521A0F1010800F8011C0998D6
:100F00000FA9A1EB0807FF1D00B10120411901EB5A
:100F1000EA70A1693844081A401EA0612078C00612
:100F200002D42046FFF7E4F9099828B1D4E9012159
:100F30009047206A401C20622078C00622D52046B7
:100F4000FFF7D6F91EE0002E04DBB34502DD01A851
:100F5000805D00E03020D4E901219047206A401CE8
:100F60002062761CAAF101005FEA000A0AD100F0B3
:100F700007FAC0680168405CD4E901219047206A03
:100F8000401C2062281EA5F10105DCDC07E0D4E945
:100F9000012118F8010B9047206A401C2062381E7E
:100FA000A7F10107F3DC2046FFF7B8F9032011B0E1
:100FB00041E600002DE9F04F04460D46D21D22F017
:100FC000070089B0D0E90097484639460CF01AF975
:100FD0000246F80F01D02D2307E02068810701D5D4
:100FE0002B2302E0202101EAC0038DF820300BB151
:100FF000012000E00020032A824601D0072A04DBFA
:101000002946204600F0C0F93FE12078800601D44F
:101010000D2500E0E569C7F30A560D2D49DA0021D8
:101020004FEA175B08464FF00000002F00F4400025
:1010300007DA00EB80004FF4400100EBD07001EACA
:1010400060008115012901DD4FF0FF3100224FEAD8
:10105000850CBCF1180F06D31346ACF118004FF005
:101060008052C24003E04FF4801323FA0CF30CF1DA
:101070000C0CBCF1200F04D3ACF1200C09FA0CF0DD
:1010800001E007FA0CF000294FF0004801DD18B923
:101090000FE00ED140450CD319EB02095F4121B995
:1010A000404502D19F4329EA0209BBEB175F00D0FC
:1010B000761C2088000502D57B48784402E07A48F7
:1010C0007844193808AA302302F80A30037C0AF160
:1010D0000101002E0AF1020A53546A4602DC4FF065
:1010E000300101E04FF031014FF001088DF80010A0
:1010F00002D0A6F2FF3603E059EA470100D06B4E5A
:10110000002D02DC2178090704D54FF002082E21BA
:101110008DF80110C44600210BE0C7F303433F01E3
:10112000C35C491C6D1E02F80830052908F101084E
:1011300001DA002DF1DC00210CE000EB1973491CF1
:101140001B786D1E082902F808304FEA091908F1CA
:10115000010801DA002DF0DC21688B0602D516E0CB
:10116000A8F10108E04505DD02EB080313F8013C96
:10117000302BF5D0B8F1000F09DD02EB080313F8AE
:10118000013C2E2B03D1090701D4A8F10108002D41
:1011900005DD3E2102F808106D1E08F10108407CB3
:1011A000002E02F8080008F1010804DA2D2076422A
:1011B00002F8080002E02B2002F808000A214FF490
:1011C0007A70864208F101080BDB96FBF0F33033AE
:1011D00002F8083096FBF0F308F1010800FB1366F3
:1011E00001E0642E0CDB642096FBF0F3303302F850
:1011F000083096FBF0F308F1010800FB136601E0EC
:101200000A2E06DB96FBF1F0303002F8080008F1F8
:10121000010896FBF1F001FB1060303002F8080085
:10122000A16908F1010808EB050202EB0A00081A9F
:10123000A0612078C00602D42046FFF759F8216A41
:1012400008AE01EB0A00206204E0D4E9012116F89F
:10125000010B9047BAF1010AF7D22078C00602D5F7
:101260002046FFF745F86E4609E016F8010B3E28C8
:101270000FD0D4E901219047206A401C2062B8F1C8
:101280000108F2D22046FFF749F809B00320BDE873
:10129000F08F206A2844206203E0D4E90121302045
:1012A00090476D1EEBD3F8E735C2000002FCFFFF4C
:1012B00010B5436913B1AFF3008001E0FFF752FBB3
:1012C000012010BD128800F1240182840022C28412
:1012D0000122EDE711684FF0FF32E9E72DE9F04117
:1012E00016460C46054600F043F8036893F80101E2
:1012F000012807D0FF2C12D8185D80B101202C7076
:10130000BDE8F081D3F807013246214603F2071306
:10131000C7182846BC46BDE8F041002360474FF09F
:10132000FF30EDE7754600F0EBF8AE460500694684
:10133000534620F00700854618B020B5FEF788FF19
:10134000BDE820404FF000064FF000074FF00008C6
:101350004FF0000BAC46ACE8C009ACE8C009ACE803
:10136000C009ACE8C00921F007018D4670470000B4
:1013700010B500F005F8001D10BD00BFEDBE000067
:1013800000487047280100202DE9F0411F4604461F
:1013900003260168072A01F4006004DB08B116A5E2
:1013A00005E016A503E008B115A500E015A521F09C
:1013B00010002060A069C01EA0610FB1401EA06196
:1013C0002046FEF795FF4FB1D4E9012138469047FA
:1013D000206A401C2062C01C206206E0206AFAE7F6
:1013E000D4E9012115F8010B9047761EF8D220466A
:1013F000FEF794FFBDE8F0814E414E006E616E0035
:10140000494E4600696E66002DE9F0478146164652
:101410008AB0354878440DC88DE80D0032487844CC
:10142000801C03AC0DC884E80D0041F69B300844D5
:10143000372190FBF1F290FBF1F5A5F1800501FB5E
:1014400012041B3C02D56442012000E00020DFF8BA
:1014500098A080460027FA44AAF1BE0A0EE0E007F1
:101460000AD03246684607EB470101230AEB8101A7
:101470000BF091FD8DE8070064107F1C002CEED16D
:10148000194F7F44AE3F19E0E80715D007EB041071
:101490000DF1180A90E80E008AE80E00C068F042CC
:1014A00001D1981908903246012306A903A80BF030
:1014B00072FD03AB83E807006D10641C002DE3D1BF
:1014C0004FF0010332466946B8F1000F03A802D07D
:1014D0000BF04CFD01E00BF05EFDC9E90001C9F81D
:1014E00008200AB0BDE8F0876CBF000010B50446C4
:1014F000AFF300802046BDE81040FEF794BE000028
:1015000000487047080100204FF0013C50F8042BC0
:1015100051F8043B9A4221D1A2EB0C03934313EA06
:10152000CC1317D150F8042B51F8043B9A4215D133
:10153000A2EB0C03934313EACC130BD150F8042B0A
:1015400051F8043B9A4209D1A2EB0C03934313EAEE
:10155000CC13DBD04FF00000704700BFD01A01BAA7
:10156000B1FA81F101F0180122FA01F0CB40DBB2AF
:10157000C0B2C01AC1F120012CFA01F3D11A914373
:1015800011EAC311E6D1704701491820ABBEFEE74E
:10159000260002007047000082B048F680551CA06B
:1015A000C0F25B0506F04EF940F60004C4F20104F7
:1015B000204610210022002600F0A0FB04F58060E8
:1015C0004FF44341002200F099FB01960198A84294
:1015D0001CD200BF00BF0198013001900198A842C1
:1015E00014D200BF0198013001900198A8420DD299
:1015F00000BF0198013001900198A84206D200BFB7
:101600000198013001900198A842E3D301F0A4FFB2
:101610004255534641554C540000000070470000AD
:101620004DF29840C0F6000006F00CF940F60004B8
:10163000C4F2010420461021002200F05FFB04F5F3
:1016400080604FF44341002200F058FB48F6805080
:10165000C0F25B0000BF00BF00BF00BF00BF00BF03
:1016600000BF00BF00BF00BF00BF00BF00BF00BF82
:1016700000BF00BF00BF00BF00BF00BF00BF00BF72
:1016800000BF00BF00BF00BF00BF00BF00BF00BF62
:1016900000BF00BF00BF00BF00BF00BF00BF00BF52
:1016A00000BF00BF00BF00BF00BF00BF00BF00BF42
:1016B00000BF00BF00BF00BF00BF00BF00BF00BF32
:1016C00000BF00BF00BF00BF00BF00BF00BF00BF22
:1016D00000BF403800BFBDD101F028FF70B542F215
:1016E0000C060446C4F2020600F00EFB3168C9077E
:1016F00018D13068800644BF202030603068C006B2
:1017000007D43069C00704D1306840075CBF0020AF
:1017100070BD3068C00623D40020316849072BD43F
:1017200034E000BF002C47D00546601C0ED1306865
:10173000C007DED03068C0071CBF30685FEAC070E9
:10174000D7D03068C007F2D1D3E700BF00F0DCFA91
:10175000401BA04230D83068C007F7D1C9E700BFAE
:1017600040F64870C2F20000C16941F00201C16157
:1017700010203168490709D540F64871C2F20001CE
:10178000CA6940F0040042F00102CA613169C90728
:1017900002D13060012070BD40F64871C2F20001F4
:1017A000CA6942F00402CA61316921F00101316164
:1017B0003060012070BD00BF032070BD014690F86D
:1017C0002100022816D10868D1E90FC3026822F06F
:1017D0000E020260026822F001020260012000FA9B
:1017E00003F2CCF8042081F821000020002281F8C7
:1017F00020207047042088630120002281F82020E7
:101800007047000080B590F82110022924D10268A9
:10181000116821F00E0111602F211368C4F202013A
:101820008A4240F20401C4F2020123F00103136072
:1018300016DD3023C4F202039A421DD04423C4F2C1
:1018400002039A421CD05823C4F202039A421DD1CB
:101850004FF4803322E000BF04218163012080BD6A
:101860000823C4F202039A420ED01C23C4F20203DE
:101870009A420BD1102311E04FF480730EE000BFA9
:101880004FF480530AE000BF012307E001F1680C28
:101890004FF08073624508BF4FF480130B60012145
:1018A00080F82110426B002180F820100AB1904787
:1018B0000021084680BD0000806B7047B0B504462B
:1018C00000F022FA054640F20000C2F20000007863
:1018D000611C18BF044400BF00F016FA401BA04270
:1018E000FAD3B0BD2DE9F04381B040F64876C2F29C
:1018F0000006327E012A03D1022001B0BDE8F08348
:10190000054601202C6830764CF250308846FFF7AF
:10191000E5FE022C1CD100284ED1002042F210041A
:10192000F061C4F20204206840F0040020602068E6
:1019300040F0400020604CF25030FFF7CFFE2168AD
:1019400021F0040121600021317601B0BDE8F0836F
:1019500090BB4FF0FF30C8F80000D5E9027007EBEC
:101960008020874228D242F21004C4F202044FF0D1
:10197000000900BFC6F81C90206840F002002060FB
:101980006760206840F0400020604CF25030FFF764
:10199000A5FE216821F00201216098B9D5E9020174
:1019A00007F5806700EB81208742E3D30020002108
:1019B000317601B0BDE8F08301200021317601B01D
:1019C000BDE8F083C8F800700021317601B0BDE8B1
:1019D000F083000042F21001C4F20201086840F0F6
:1019E000800200200A6070472DE9F04F81B040F678
:1019F0004879C2F20009924699F81820012A03D1C9
:101A0000022001B0BDE8F08F8046012089F818005F
:101A10004CF250309B460E46FFF760FEA0BB40469E
:101A200042F21007B8F1020F18BF0420C4F20207F7
:101A3000B8F1010F08BF404645424FF000080024AE
:101A4000C4F12001C9F81C802AFA04F00BFA01F154
:101A50003A680843B4F1200158BF2BFA01F042F074
:101A60000101396026F8020B4CF25030FFF736FEC8
:101A70003968013521F0010248F100013A6018B9D6
:101A8000002904F11004DBD0002189F8181001B0FE
:101A9000BDE8F08F42F20400C4F20200C1680906FA
:101AA0005CBF0020704740F22311C4F2675101600F
:101AB00048F6AB11CCF6EF510160C068C0B2C00966
:101AC000704700002DE9F04F82B00E68002E00F044
:101AD000038141F20042C4F20102042340F2004EAD
:101AE000904208BF03234FF6FF7CC4F2010E00931F
:101AF00000240123C1F2100C4FF0000A4FF000093E
:101B000049E000BF012704F00C030F229A402BEAA2
:101B1000020207FA03F34FEA9A051A4346F8252012
:101B2000D1F804B040F20C455FEACB22DEF8082081
:101B300054BF22EA080242EA0802C4F20105CEF8C4
:101B400008202A685FEA8B2354BF22EA080242EA8F
:101B500008022A605FEA8B33DEF8042054BF22EAD1
:101B6000080242EA08025FEACB33CEF80420DEF82E
:101B700000204FF0010354BF22EA080242EA0802A3
:101B8000CEF800200E680AF1010A36FA0AF204F1D2
:101B9000040400F0A18003FA0AF816EA080FF1D055
:101BA0004E68664512DC122E56D8DFE806F0350B7B
:101BB0004549555555555555555555555555554DF9
:101BC000510000BFD1F80C9046E000BF4FF6FF7205
:101BD000C1F2210296420FDC0022C1F211029642AC
:101BE0001AD00022C1F21202964215D00022C1F290
:101BF0002102964210D02FE00022C1F2220296422A
:101C00000AD00022C1F23102964205D00022C1F270
:101C10003202964220D100BF8A684AB1012A14BF1D
:101C2000C0F81480C0F810804FF0080914E000BF1D
:101C30004FF0040910E000BFCA6802F108090BE088
:101C40004FF0000908E000BFCA6802F1040903E090
:101C5000CA6802F10C0900BF22460646BAF1080F15
:101C600024BF203A043637680F25954027EA05053A
:101C700009FA02F22A433260CA79D2067FF582AFAE
:101C800041F21803C4F202031A68AEF57E7642F000
:101C900001021A601A6802F001020192019A2AF008
:101CA000030256F802B040F60002C4F2010290426C
:101CB00010D040F60042C4F2010290423FF422AF3D
:101CC00041F20002C4F20102009F904208BF0227C5
:101CD00019E700BF002716E702B0BDE8F08F00004B
:101CE0008068084018BF012070470000C26802EAFF
:101CF0000103914341EA034101617047002A08BF93
:101D0000090401617047000042F27000C2F2000055
:101D10000068704740F2000042F27001C2F2000019
:101D2000C2F2000100780A681044086070470000A1
:101D300080B542F20000C4F20200016841F01001D7
:101D40000160032000F08EF80F2000F005F800F08D
:101D500027F8002080BD000070B540F20006C2F2F6
:101D6000000640F208013278C2F200014FF47A73A3
:101D70000968B3FBF2F20446B1FBF2F1084600F049
:101D800063FB0F2C4FF0010508D838B94FF0FF3036
:101D900021460022002500F039F87460284670BD05
:101DA00082B041F21800C4F202000168022241F040
:101DB00001010160016801F001010191019941688F
:101DC00041F080514160406800F0805000900098E0
:101DD0000420C4F20100016862F31A61016002B0DC
:101DE00070470000002848BF7047C1B200F01F00D4
:101DF000012202FA00F04EF20012CEF2000242EA94
:101E0000D10121F0030108607047000010B54EF6C3
:101E10000C5CCEF2000CDCF80030C3F3022E8EF026
:101E20000704042C28BF0424BEF103034FF0FF3E37
:101E30000EFA04F438BF0023A14399400EFA03F3CD
:101E40009A43114300F00F0200F160430901043A84
:101E500003F564436244002848BF02F10C03197083
:101E600010BD00004EF60C51CEF200010A684FF68C
:101E7000FF031A4060F30A2242F0806040F0FD70D8
:101E8000086070472DE9F04381B0002800F085809C
:101E900042F20008C4F202080446D8F800000D46D9
:101EA00000F0070088420CD2D8F8000020F00700AC
:101EB0002843C8F80000D8F8000000F00700A84246
:101EC0006BD1206841F204098107C4F2020917D5D9
:101ED000410705D5D9F8001041F4E061C9F80010B8
:101EE000010705D5D9F8001041F46051C9F8001078
:101EF000D9F80010A26821F0F0011143C9F80010D0
:101F0000C00741D1D8F8000000F00700A8420CD962
:101F1000D8F8000020F007002843C8F80000D8F8DF
:101F2000000000F00700A84237D12068410707D51C
:101F3000D9F80010E26821F4E0611143C9F80010FB
:101F4000000708D5D9F80000216920F4605040EA64
:101F5000C100C9F80000D9F8002002F00C000828E0
:101F600041F20020C0F27A0050D14DF2B633C2F3F4
:101F70008341C0F60003595CD2033BD440F6001005
:101F8000C0F23D00484341E0606802280AD00128C1
:101F90002AD159F8041C890308D4012001B0BDE8F6
:101FA000F08300BF59F8041C8901F6D5D9F8001058
:101FB00021F003010843C9F80000FFF7A5FE06461B
:101FC00041F28837D9F80000616800F00C00B0EBEE
:101FD000810F97D0FFF798FE801BB842F2D90320FB
:101FE00001B0BDE8F08300BF59F8041C8907D4D5BF
:101FF000DCE700BFD9F800204DF2B433C2F3404211
:10200000C0F600039A5C4843B0FBF2F0D9F8001028
:102010004DF29C32C1F30311C0F60002515C40F254
:10202000080220FA01F140F20400C2F20000006848
:10203000C2F200021160FFF78FFE002001B0BDE880
:10204000F083000040F2080041F20401C2F20000F7
:10205000C4F20201006809684DF2AC32C1F30221FA
:10206000C0F60002515CC8407047000040F2080012
:1020700041F20401C2F20000C4F2020100680968E2
:102080004DF2AC32C1F3C221C0F60002515CC8402F
:10209000704700002DE9F04182B0002868D0044666
:1020A000007841F20006C007C4F2020625D070682D
:1020B00000F00C0004281BD0706800F00C00082809
:1020C00002D17068C00313D46068002800F06881F2
:1020D000B0F5A02F00F07C81B0F5803F00F07C814E
:1020E000306820F480303060306820F4802076E161
:1020F0003068800301D56068D0B32078800718D598
:10210000706810F00C0F07D0706800F00C00082801
:102110006ED17068C0036BD43068800702D5206927
:10212000012825D13068616920F0F80040EAC1003B
:102130003060207800071FD42078400732D4E5694A
:1021400095B1706800F00C00082840F08F80012DD8
:102150000ED07068216A00F480328A4208D1616A28
:1021600000F47010884203D1002002B0BDE8F08175
:10217000012002B0BDE8F081A069002862D00020F3
:10218000C4F242200121C0F88014FFF7BDFD0546CE
:10219000706A800700F18C80FFF7B6FD401B0228B3
:1021A000F6D92AE1F06910F0805808D1F06940F0C2
:1021B0008050F061F06900F080500090009847F284
:1021C0000007C4F200073868C00529D4386840F415
:1021D00080703860FFF798FD054600BF3868C0057D
:1021E0001ED4FFF791FD401B6428F7D905E100BF1D
:1021F0002069002840F20000C4F2422000F08280F2
:1022000001210160FFF780FD054600BF30688007AF
:102210003FF588AFFFF778FD401B0228F6D9ECE0C8
:10222000E068002800F08080052800F097800128F1
:1022300000F09880306A20F001003062306A20F0AF
:10224000040092E00020C4F242200021C0F8801473
:10225000FFF75AFD054600BF706A80077FF56CAF37
:10226000FFF752FD401B0228F6D9C6E00027C4F252
:10227000422700203866FFF747FD022D05460BD1A7
:102280003068800140F1BE80FFF73EFD401B022810
:102290004FF00300F4D968E7306880017FF564AF40
:1022A000FFF732FD401B02284FF00300F4D95CE732
:1022B00040F20800C2F20000006844F6D351C1F2B7
:1022C0006201A0FB0101480A019000BF00BF019814
:1022D000411E002801913FF42FAF00BF0198411E1D
:1022E000002801913FF428AF00BF0198411E00284B
:1022F00001913FF421AF00BF0198411E00280191D8
:10230000E4D119E700210160FFF7FEFC054600BF9C
:10231000306880077FF50DAFFFF7F6FC401B022801
:102320004FF00300F4D920E7306A20F0010030625A
:10233000306A20F004003062FFF7E6FC054641F207
:10234000883700BF306A800720D5FFF7DDFC401BCF
:10235000B8424FF00300F5D907E700BF306A40F0FC
:1023600004003062306A40F001003062FFF7CCFCBC
:10237000054641F2883700BF306A800706D4FFF770
:10238000C3FC401BB842F7D937E000BFB8F1000FDB
:102390007FF4D5AEF06920F08050F061CFE600BF49
:1023A000306820F480303060306820F48020306065
:1023B000FFF7AAFC054600BF306880037FF59DAE9D
:1023C000FFF7A2FC401B64284FF00300F4D9CCE6D1
:1023D000306840F480203060306840F480303060F5
:1023E000FFF792FC054600BF306880033FF585AEDD
:1023F000FFF78AFC401B6428F6D9032002B0BDE831
:10240000F08100BF206AB0F5803F05D17168A268F5
:1024100021F40031114371607168626A21F4741112
:1024200011430843706001203866FFF76DFC0446D5
:10243000306880013FF598AEFFF766FC001B02286C
:102440004FF00300F4D990E6411E0020B0EB116F6D
:102450001CBF012070474EF21002CEF20002516004
:102460004EF62351CEF20001F0230B70072190604D
:10247000116070477047000010B50446206850E8AE
:10248000030F216820F0C00041E80302DAB12068A0
:1024900050E8030F216820F0C00041E8030292B128
:1024A000206850E8030F216820F0C00041E80302D3
:1024B0004AB1206850E8030F216820F0C00041E8CD
:1024C0000302002ADAD120684069000636D500BF31
:1024D000206850E8050F216820F0800041E80502DF
:1024E000DAB1206850E8050F216820F0800041E84B
:1024F000050292B1206850E8050F216820F08000A5
:1025000041E805024AB1206850E8050F216820F033
:10251000800041E80502002ADAD1A06B70B10021E9
:102520004163FFF74BF948B1A06BFFF7C5F92028CD
:1025300004D110206064032010BD00BF00202021C2
:10254000E08484F8411010BD70470000B0B582B03F
:10255000044600680168C368426901F02F05202D18
:1025600003F0200506D12DB1204602B0BDE8B040F1
:1025700000F008BF5FEA017C1EBF02F0010E03F409
:10258000907212EB0E0253D1226B012A05D111F089
:10259000100218BF13F0100236D10A0622D513F02C
:1025A00080021FD094F8411021293FD1A168B1F5D4
:1025B000805F03D12169002900F07082216A4A1CE2
:1025C000226209784160E18C01390A04E1842DD14D
:1025D000C16821F08001C160C16841F04001C16063
:1025E00002B0B0BD490621D513F040011ED0C1682C
:1025F00021F04001C1602021204684F8411002B042
:10260000BDE8B04000F0D8BB002101910168019104
:102610004168019101994069400613D4A08DE18D74
:10262000E28D002A18BF884240F0BA8102B0B0BDE6
:10263000CA0718BF13F4807240F0B6804A0700F151
:10264000B980BEE0E06B016849688AB2002AEDD02B
:10265000A38D9A42EAD2E1858069202800F09C800F
:10266000206850E8030F216820F4807041E80302DD
:10267000DAB1206850E8030F216820F4807041E847
:10268000030292B1206850E8030F216820F48070A3
:1026900041E803024AB1206850E8030F216820F4A2
:1026A000807041E80302002ADAD1206850E8050F63
:1026B000216820F0010041E80502DAB1206850E805
:1026C000050F216820F0010041E8050292B1206861
:1026D00050E8050F216820F0010041E805024AB1E9
:1026E000206850E8050F216820F0010041E805024C
:1026F000002ADAD1206850E8050F216820F0400058
:1027000041E80502DAB1206850E8050F216820F0A1
:10271000400041E8050292B1206850E8050F2168A9
:1027200020F0400041E805024AB1206850E8050F5A
:10273000216820F0400041E80502002ADAD120207B
:1027400084F8420000202063206850E8030F2168CD
:1027500020F0100041E80302DAB1206850E8030FCE
:10276000216820F0100041E8030292B1206850E88F
:10277000030F216820F0100041E803024AB12068ED
:1027800050E8030F216820F0100041E80302002AFE
:10279000DAD1E06BFFF712F802206063A08DE18DC3
:1027A000401A81B2204674E1626C42F00102626418
:1027B0004A0706D5BEF1000F03D0626C42F0020258
:1027C00062648A0706D5BEF1000F03D0626C42F046
:1027D00004026264BCF1000F09D545EA0E02B2FAA8
:1027E00082F2520903D1626C42F008026264626CA8
:1027F000002A3FF41BAF11F0200118BF002D03D0B9
:10280000204600F0BFFD20684069616C00F0400088
:1028100001F00801401800F0B58000BF206850E8C2
:10282000030F216820F4907041E80302BAB32068D6
:1028300050E8030F216820F4907041E8030272B35E
:10284000206850E8030F216820F4907041E80302EB
:102850002AB3206850E8030F216820F4907041E803
:102860000302002ADAD11AE0206850E8050F216837
:1028700020F0010041E80502DAB1206850E8050FB8
:10288000216820F0010041E8050292B1206850E87B
:10289000050F216820F0010041E805024AB12068D7
:1028A00050E8050F216820F0010041E80502002AE8
:1028B000DAD1206B012824D1206850E8030F216869
:1028C00020F0100041E80302DAB1206850E8030F5D
:1028D000216820F0100041E8030292B1206850E81E
:1028E000030F216820F0100041E803024AB120687C
:1028F00050E8030F216820F0100041E80302002A8D
:10290000DAD1202084F8420000202063206840694A
:1029100040063FD5206850E8050F216820F04000B0
:1029200041E80502DAB1206850E8050F216820F07F
:10293000400041E8050292B1206850E8050F216887
:1029400020F0400041E805024AB1206850E8050F38
:10295000216820F0400041E80502002ADAD1E06B4E
:10296000C0B143F27931C0F600014163FEF74AFF7E
:1029700000283FF45BAEE06B416B02B0BDE8B040B5
:10298000084700BF2046FFF7DFFD0020606402B06B
:10299000B0BD00BF204602B0BDE8B040FFF7D4BDD7
:1029A000401A216851E8031F226821F4907142E81F
:1029B0000313DBB1216851E8031F226821F49071F1
:1029C00042E8031393B1216851E8031F226821F400
:1029D000907142E803134BB1216851E8031F22684C
:1029E00021F4907142E80313002BDAD1216851E8F9
:1029F000051F226821F0010142E80513DBB12168BF
:102A000051E8051F226821F0010142E8051393B146
:102A1000216851E8051F226821F0010142E80513F1
:102A20004BB1216851E8051F226821F0010142E8FD
:102A30000513002BDAD1202184F8421000212163F4
:102A4000216851E8031F226821F0100142E80313B6
:102A5000DBB1216851E8031F226821F0100142E830
:102A6000031393B1216851E8031F226821F010017C
:102A700042E803134BB1216851E8031F226821F09B
:102A8000100142E80313002BDAD1022281B2204662
:102A9000626302B0BDE8B040FFF7ECBC216A31F8D8
:102AA000022B6FF35F22426021628CE5002804BF95
:102AB0000120704710B5044690F8410028B9002065
:102AC00084F84000204600F063F8242084F8410098
:102AD0002068D4E90212C36823F40053C360036979
:102AE00023F440531A430261D4E904231143C2681A
:102AF000194341F20C639A431143C1604169A269D1
:102B000021F44071114343F60002C4F201029042E5
:102B1000416103D0FFF796FA02E000BFFFF7A6FA83
:102B20006268192148439100B0FBF1F048F21F514F
:102B3000C5F2EB11A0FB01235A094FF69C73C0F6B6
:102B4000FF7302FB0300322303EB0010A0FB010123
:102B5000F02303EA5113206803EB0212C1F343117F
:102B600011448160016921F490410161416921F0C2
:102B70002A014161C16841F40051C1600020202157
:102B8000606484F8411084F84210606310BD000056
:102B900070B586B0006844F20041C4F2000100261E
:102BA00088420596CDE90366029643D044F60001BB
:102BB000C4F2000188426FD043F60001C4F2010163
:102BC000884240F0A48041F21800C4F2020001687B
:102BD00040F6000441F4804101600168C4F2010440
:102BE00001F4804101910199016802AD41F00401B5
:102BF00001600068294600F00400019001984FF43C
:102C00000070029002200390032005902046FEF7FA
:102C100059FF4FF48060029000200390012004903F
:102C200020462946FEF74EFF2520012100222524BB
:102C300068E000BF41F21800C4F20200416840F6AB
:102C4000000441F4003141604168C4F2010401F420
:102C5000003101910199016802AD41F00401016068
:102C60000068294600F004000190019804200290B9
:102C700002200390032005902046FEF723FF082042
:102C8000CDE90206204629460496FEF71BFF2620C2
:102C900000210022262435E041F21800C4F202008F
:102CA000416802AD41F480214160416801F4802116
:102CB00001910199016841F008010160006829460D
:102CC00000F00800019001984FF48060029002200B
:102CD00003900320059040F60000C4F2010000F5C7
:102CE00080642046FEF7EEFE4FF400600290002064
:102CF000CDE9030020462946FEF7E4FE2720012106
:102D000001222724FFF782F82046FFF76BF806B070
:102D100070BD000090F84230202B1CBF022070478D
:102D200000294FF0010318BF002A01D1184670474F
:102D300000230363816222218285C285436480F877
:102D400042100169006819B1C16841F48071C16025
:102D50004169002341F001014161C16841F0200156
:102D6000C16018467047000010B5044605F044FCE9
:102D7000204603F00FFA2046BDE8104004F01AB8D0
:102D8000034690F8410020281CBF0220704700290C
:102D90004FF0010018BF002A00D1704719620020CF
:102DA00021219A84DA84586483F841101968CA682A
:102DB00042F08002CA60704710B5044605F0D8FBA7
:102DC000204603F009FA2046BDE8104004F044B85C
:102DD00082B048F680551CA0C0F25B0504F032FDBD
:102DE00040F60004C4F2010420461021002200260F
:102DF000FEF784FF04F580604FF443410022FEF7A4
:102E00007DFF01960198A8421CD200BF00BF019827
:102E1000013001900198A84214D200BF01980130FE
:102E200001900198A8420DD200BF01980130019095
:102E30000198A84206D200BF019801300190019884
:102E4000A842E3D300F088FB484152444641554C28
:102E5000540000002DE9F04F85B041F21800C4F293
:102E60000200016840F6000941F0100101600168AC
:102E70004FF0020801F01001019101990168C4F2BC
:102E8000010941F020010160016809F5006A01F0C3
:102E90002001019101990168012241F004010160C2
:102EA00001684FF4005601F0040101910199016895
:102EB000012541F008010160016801F0080101915C
:102EC0000199016841F001010160006800F0010012
:102ED000019001980420C4F20100016868F31A61AE
:102EE000016050464FF40051FEF708FF484610219C
:102EF00000220027FEF702FF4846A02100224FF0E3
:102F0000A00BFEF7FBFE09F5806420464CF2213150
:102F10000022FEF7F3FE20464FF443510122FEF754
:102F2000EDFECDE9016501AE50463146CDE90378AD
:102F3000FEF7C8FD48463146CDE901570395FEF737
:102F4000C1FD49F60210CDE9010748463146039517
:102F5000FEF7B8FD1820CDE901072046314603955C
:102F6000FEF7B0FD4FF48040CDE9010750463146F1
:102F70000395FEF7A7FD102001A981E8A1014846AD
:102F80003146FEF79FFD4FF0030A48463146CDE932
:102F900001B50397CDF810A0FEF794FD4020CDE9D0
:102FA0000107484631460397FEF78CFD4FF221306A
:102FB00001A981E8A10120463146FEF783FDC0202A
:102FC0000190112002A981E8210420463146FEF734
:102FD00079FD20463146CDE901870395FEF772FD64
:102FE00005B0BDE8F08F000080B540F69C0043F6C8
:102FF0000001C2F20000C4F2010100234FF00C0CEA
:103000004FF4164280E80E00C0E90333C0E905C35F
:10301000C361FFF74BFD002808BF80BDBDE88040BD
:10302000FEF7FEBA80B540F6E40044F20041C2F279
:103030000000C4F2000100234FF00C0C4FF4E13209
:1030400080E80E00C0E90333C0E905C3C361FFF7A0
:103050002DFD002808BF80BDBDE88040FEF7E0BA26
:1030600080B540F62C1044F60001C2F20000C4F214
:10307000000100234FF00C0C4FF4E13280E80E0009
:10308000C0E90333C0E905C3C361FFF70FFD0028A2
:1030900008BF80BDBDE88040FEF7C2BA82B048F6E6
:1030A00080551CA0C0F25B0504F0CCFB40F6000488
:1030B000C4F201042046102100220026FEF71EFE65
:1030C00004F580604FF443410022FEF717FE01969D
:1030D0000198A8421CD200BF00BF019801300190A6
:1030E0000198A84214D200BF0198013001900198C4
:1030F000A8420DD200BF0198013001900198A8426A
:1031000006D200BF0198013001900198A842E3D394
:1031100000F022FA4D454D4641554C540000000048
:1031200082B048F680551CA0C0F25B0504F08AFB13
:1031300040F60004C4F201042046102100220026BB
:10314000FEF7DCFD04F580604FF443410022FEF7FA
:10315000D5FD01960198A8421CD200BF00BF01987E
:10316000013001900198A84214D200BF01980130AB
:1031700001900198A8420DD200BF01980130019042
:103180000198A84206D200BF019801300190019831
:10319000A842E3D300F0E0F94E4D4900704700002B
:1031A00070470000FEF7B6BDB0B590B00024012016
:1031B000CDE90B44CDE9094406900A904FF4E010A4
:1031C0004FF4803102250F9006A8CDE90714CDE910
:1031D0000D51FEF75FFF00286ED10F20CDE90105EC
:1031E0004FF48060CDE9040401A802210394FEF7A6
:1031F00049FE002804BF10B0B0BD4DF2984048F61B
:103200008055C0F60000C0F25B0504F01BFB40F6E1
:103210000004C4F20104204610210022FEF76EFDD6
:1032200004F580604FF443410022FEF767FD00BFC4
:1032300000BF00BF00BF00BF00BF00BF00BF00BF96
:1032400000BF00BF00BF00BF00BF00BF00BF00BF86
:1032500000BF00BF00BF00BF00BF00BF00BF00BF76
:1032600000BF00BF00BF00BF00BF00BF00BF00BF66
:1032700000BF00BF00BF00BF00BF00BF00BF00BF56
:1032800000BF00BF00BF00BF00BF00BF00BF00BF46
:1032900000BF00BF00BF00BF00BF00BF00BF00BF36
:1032A00000BF00BF00BF00BF00BF00BF00BF403D68
:1032B00000BFBDD100F03AF94DF2984048F6805574
:1032C000C0F60000C0F25B0504F0BCFA40F6000452
:1032D000C4F20104204610210022FEF70FFD04F580
:1032E00080604FF443410022FEF708FD00BF00BF9D
:1032F00000BF00BF00BF00BF00BF00BF00BF00BFD6
:1033000000BF00BF00BF00BF00BF00BF00BF00BFC5
:1033100000BF00BF00BF00BF00BF00BF00BF00BFB5
:1033200000BF00BF00BF00BF00BF00BF00BF00BFA5
:1033300000BF00BF00BF00BF00BF00BF00BF00BF95
:1033400000BF00BF00BF00BF00BF00BF00BF00BF85
:1033500000BF00BF00BF00BF00BF00BF00BF00BF75
:1033600000BF00BF00BF00BF00BF403D00BFBDD1D8
:10337000A0E7000070470000406A0021C185C184B9
:10338000FFF7E2B881B090F84210222921D183687A
:103390000246B3F5805F09D152F8281F52F8183C55
:1033A000002B63D003685B680AE000BF52F8281F57
:1033B00013B90369002BF5D003685B6803F07F0342
:1033C0000B70116801311160C18D01390A04C1858A
:1033D00002D001B0704700BF0168CA6822F0200225
:1033E000CA60CA6822F48072CA604A6922F0010287
:1033F0004A61202180F8421000214163026B012ABA
:103400003CD10163016851E8031F026821F01001FB
:1034100042E80313DBB1016851E8031F026821F0A1
:10342000100142E8031393B1016851E8031F0268D9
:1034300021F0100142E803134BB1016851E8031F6A
:10344000026821F0100142E80313002BDAD1016871
:103450000A68D20606D5002200920A6800924968DE
:1034600000910099818D01B0FFF704B8026852689D
:103470006FF35F2221F8022B8162A5E701B0FFF70D
:1034800073BC000040F69C00C2F20000FFF75EB87B
:1034900040F6E400C2F20000FFF758B840F62C10E6
:1034A000C2F20000FFF752B882B048F680551CA067
:1034B000C0F25B0504F0C6F940F60004C4F2010452
:1034C0002046102100220026FEF718FC04F580603B
:1034D0004FF443410022FEF711FC01960198A842E7
:1034E0001CD200BF00BF0198013001900198A84292
:1034F00014D200BF0198013001900198A8420DD26A
:1035000000BF0198013001900198A84206D200BF87
:103510000198013001900198A842E3D300F01CF813
:1035200055534147454641554C5400004EF60C500A
:10353000BFF34F8FCEF200000168042201F4E06176
:10354000C0F2FA5211430160BFF34F8F00BF00BFBA
:1035500000BF00BFFAE700004EF60C50BFF34F8FDC
:10356000CEF200000168042201F4E061C0F2FA52D8
:1035700011430160BFF34F8F00BF00BF00BF00BF0A
:10358000FAE7000070B588B040F23326C2F20006B8
:10359000B17840F20C054B1E0022022B26A3C2F28A
:1035A000000538BF01225B5C6C5C18B19C4238BFDF
:1035B000621C03E0944288BF631E1A46481C6A548A
:1035C000D4B200901EA3012000210022019403F038
:1035D000B3F90220F07003F0EDFA4DF6F471C0F685
:1035E0000001002003F0BEFBB0784DF28041C0F630
:1035F000000151F820302E5C4EF2A4020DF10E04B1
:10360000C0F60002204612210096FCF751FE012070
:10361000214603F0A7FB4EF20201C0F60001022092
:1036200003F0A0FB4DF6E371C0F60001032003F0A8
:1036300099FB08B070BD00BF630C1F173B3B000037
:1036400054696D6520536574206669656C64202536
:10365000752076616C75652025303275000000009C
:10366000B0B582B040F6000440F2C415C4F20104C3
:10367000C2F2000504F5006128464FF40052002311
:1036800003F0F0F84FF0140C05F11400214601226C
:103690000023CDF800C000F0FFFB05F12800214613
:1036A0001022012302B0BDE8B04000F07BBC000056
:1036B00010B540F2C414C2F20004204603F00CF925
:1036C00004F1140000F002FC04F12800BDE81040F1
:1036D00000F0A4BC80B5017847F65103C7F65D033E
:1036E000594042784B0183EA9101514090F802E041
:1036F0004A0182EA910181EA0E0190F803C04A0171
:1037000082EA910181EA0C014A01037982EA91017E
:1037100059404A01437982EA910159404A0183792B
:1037200082EA910159404A01C37982EA91015940E4
:103730004A01037A82EA910159404A01437A82EAB6
:10374000910159404A01837A82EA910159404A0124
:10375000C37A82EA910159404A01037B82EA9101CE
:1037600059404A01437B82EA910159404A01837BD7
:1037700082EA910159404A01C37B82EA9101594092
:103780004A01037C82EA910159404A01437C82EA62
:10379000910159404A01837C82EA910159404A01D2
:1037A000C37C82EA910159404A01037D82EA91017A
:1037B00059404A01437D82EA910159404A01837D83
:1037C00082EA910159404A01C37D82EA9101594040
:1037D0004A01037E82EA910159404A01437E82EA0E
:1037E000910159404A01837E82EA910159404A0180
:1037F000C37E82EA910159404A01037F82EA910126
:1038000059404A01437F82EA910159404A01837F2E
:1038100082EA910159404A01C37F82EA91015940ED
:103820004A0190F8203082EA910159404A0190F80B
:10383000213082EA910159404A0190F8223082EA0F
:10384000910159404A0190F8233082EA9101594090
:103850004A0190F8243082EA910159404A0190F8D7
:10386000253082EA910159404A0190F8263082EAD7
:10387000910159404A0190F8273082EA910159405C
:103880004A0190F8283082EA910159404A0190F8A3
:10389000293082EA910159404A0190F82A3082EA9F
:1038A000910159404A0190F82B3082EA9101594028
:1038B0004A0190F82C3082EA910159404A0190F86F
:1038C0002D3082EA910159404A0190F82E3082EA67
:1038D000910159404A0190F82F3082EA91015940F4
:1038E0004A0190F8303082EA910159404A0190F83B
:1038F000310082EA9101484080BD00002DE9F0418D
:1039000088B040F23328C2F20008054688F800006B
:10391000471E4DF6BA70FAB2C0F600000C4688F8A1
:103920000110072A014608D8C2EBC20140F2140276
:10393000C2F2000202EB810189684DF6BF724EF2BD
:103940001306C0F60002022C08BF1046C0F600069F
:103950004EF25E03012C18BF06460091C0F600032C
:10396000012000210022019602F0E6FF012D08BF90
:10397000022C13D0012C40F0EF80072F00F2EC80D6
:10398000DFE807F004142638467E9E5E002088F8A3
:10399000040008B0BDE8F04108F056BE002088F8E9
:1039A000030008B0BDE8F04106F02EBC98F8030013
:1039B000012840F0AB8098F80410002900F0A680A0
:1039C000481E88F8040008B0BDE8F04108F03CBE8D
:1039D00098F80300012840F09D8098F8041002290F
:1039E00000F29880481C88F8040008B0BDE8F04157
:1039F00008F02ABE98F80300022840F0AD8098F83D
:103A00000200411E002808BF052188F8021011E0BD
:103A100098F80300022840F09F8098F802004AF6C8
:103A2000AB2101304143890C01EB4101A0EB410086
:103A300088F8020008B0BDE8F04108F071BE00BF90
:103A4000042088F8030003F0B5F84DF65861C0F67D
:103A50000001002003F086F94DF6AF71C0F60001B9
:103A6000012003F07FF94DF6CD71C0F60001022070
:103A700003F078F94EF24903C0F600033EE000BFC0
:103A800098F803000138032866D8DFE800F0034BFC
:103A90005D6300BF98F80400022861D0012800F09F
:103AA0007F80002840F0B8806EA301200021002212
:103AB00002F042FF06F01CFA08B0BDE8F08100BF3A
:103AC000032088F8030003F075F84DF6D751C0F6CF
:103AD0000001002003F046F94DF6AF71C0F6000179
:103AE000012003F03FF94DF6CD71C0F60001022030
:103AF00003F038F94EF22103C0F600030120002143
:103B0000002208B0BDE8F04102F016BF022823D120
:103B1000012002E002281FD1002008B0BDE8F041DA
:103B2000FFF730BD40F20C00C2F200000188D0F86F
:103B30000200ADF80C10CDF80E0003A806F06AFAEA
:103B400008B0BDE8F08100BF05F04AFE08B0BDE84E
:103B5000F08100BF05F076FF08B0BDE8F08100BF3E
:103B6000032088F8030003F025F84DF6D751C0F67E
:103B70000001002003F0F6F84DF6AF71C0F6000129
:103B8000012003F0EFF84DF6CD71C0F600010220E0
:103B900003F0E8F84EF22103C0F600035AE000BF3C
:103BA0004FF40070A8F8020003F004F84DF6F47129
:103BB000C0F60001002003F0D5F898F802004DF29D
:103BC0008041C0F6000151F8203040F20C01C2F2F1
:103BD00000010F5C4EF2A40203ACC0F600022046C6
:103BE00012210097FCF764FB0120214603F0BAF88C
:103BF0004EF20201C0F60001022003F0B3F84DF6C8
:103C0000E371C0F60001032003F0ACF84EF280032C
:103C1000C0F600031EE000BF042088F8030002F095
:103C2000C9FF4DF65861C0F60001002003F09AF874
:103C30004DF6AF71C0F60001012003F093F84DF688
:103C4000CD71C0F60001022003F08CF84EF249035A
:103C5000C0F6000301200021002202F06DFE08B032
:103C6000BDE8F0814D656E753A2043617264205461
:103C700065737400F0B581B040F600440546C4F2A7
:103C800001040026002704E06D00072F07F101075B
:103C900066D2E8B2C20920468021FEF72FF82046FE
:103CA00040210122FEF72AF88DF801609DF80100FD
:103CB0001D2823D89DF8010001308DF801009DF8E2
:103CC00001001D281AD89DF8010001308DF801006F
:103CD0009DF801001D2811D89DF8010001308DF8D4
:103CE00001009DF801001D2808D89DF80100013051
:103CF0008DF801009DF801001E28DBD320464021ED
:103D00000022FDF7FBFF8DF802609DF802001D28E0
:103D1000BAD800BF9DF8020001308DF802009DF86E
:103D200002001D28B0D89DF8020001308DF8020075
:103D30009DF802001D28A7D89DF8020001308DF8DB
:103D400002009DF802001D289ED89DF80200013057
:103D50008DF802009DF802001E28DBD394E700BF17
:103D6000204680210122FDF7C9FF20464021012283
:103D7000FDF7C4FF00208DF803009DF803001D2807
:103D800024D800BF9DF8030001308DF803009DF892
:103D900003001D281AD89DF8030001308DF8030098
:103DA0009DF803001D2811D89DF8030001308DF8FF
:103DB00003009DF803001D2808D89DF8030001307A
:103DC0008DF803009DF803001E28DBD320468021D8
:103DD000FDF786FF0546204640210022FDF78EFFB5
:103DE000B5FA85F0400901B0F0BD000040F674104E
:103DF000C2F2000000687047F0B585B04FF600458C
:103E0000C0F600052868696801264A1C531C144640
:103E100008BF01248A4244F24321C4F6543138BF1A
:103E20003446884240F67410C2F200004FF000079A
:103E300018BF0124046002970097FDF72BFE01A82C
:103E400069460197CDE90356FDF74CFD20B1FDF71A
:103E5000C1FD05B0F0BD00BF44F24322C4F65432A8
:103E6000022029460023FDF7BFFD0028EFD1291DC0
:103E7000022022460023FDF7B7FDFDF7ABFD05B09C
:103E8000F0BD0000014600284FF0000008BF704759
:103E90004A7A487210467047002808BF7047DDF81C
:103EA00000C00160002182808371BCF1000F08BF57
:103EB0004FF0140CA0F807104172C0E9031C7047C2
:103EC000002814BFC079002070470000F0B581B011
:103ED000F0B104460068A188FDF702FFA779054606
:103EE000C01BB0FA80F0460903F0ECFE217AB14223
:103EF00010D1D4E9030103F0E7FE48B1E079B04204
:103F000006D0012803D1BD421CBF01206072E671BA
:103F100001B0F0BD2672E06001B0F0BD002808BF1E
:103F20007047B0B501250446002908BF6421057219
:103F30000020C4E9031003F0C5FE60612068A18879
:103F4000A279E571BDE8B040FDF7D8BE002808BFF2
:103F50007047B0B500294FF00105044608BF642141
:103F6000002A08BF4FF4C8720572C0E9031203F0BB
:103F7000A9FE60612068A188A279E571BDE8B04022
:103F8000FDF7BCBE002808BF7047034680799988BA
:103F9000B0FA80F0420918684FF0000CA3F807C08F
:103FA000FDF7ACBE002808BF704710B54FF0000EFB
:103FB0008446016082808371A0F807E064204FF49A
:103FC000C874CCE90304B3FA83F0430908461146E8
:103FD0001A46CCF814E0BDE81040FDF78FBE000093
:103FE000002808BF7047034680799988B0FA80F0AE
:103FF000420918684FF0000CA3F807C0FDF77EBE19
:10400000002808BF70470346006899889A794FF0E6
:10401000010CA3F807C0FDF771BE0000B0B5D0B326
:104020000446007AB8B303F04DFE2169A1B1E279EC
:104030000546606912B3E16803F046FE58B3A17902
:104040000020E071B1FA81F22068A1885209FDF7E1
:1040500055FE6561B0BD00BFE168606903F034FEE4
:10406000C8B1A0790023B0FA80F042092068A18885
:10407000A4F80730BDE8B040FDF740BE03F024FED1
:10408000002808BFB0BD2068A188A2790123E37190
:10409000FDF734FE6561B0BDB0B584B0421EDF2AC5
:1040A0008C4600F2F184DFE812F0E100EF0001013C
:1040B0001301210133014701590179018B019D0150
:1040C000AD01BD01D301EF04EF04EF04EF04EF04F1
:1040D000EF04EF04EF04EF04EF04EF04EF04EF0448
:1040E000EF04EF04EF04EF04E501F30117023702D8
:1040F00045025302EF04EF04EF04EF04EF04EF0472
:10410000EF04EF04EF04EF0461026F02EF04EF0429
:10411000EF04EF04EF04EF04EF04EF04EF04EF0407
:10412000EF04EF04EF04EF047D028B02EF04EF04D1
:10413000EF04EF04EF04EF04EF04EF04EF04EF04E7
:10414000EF04EF04EF04EF049B02EF04EF04EF042D
:10415000EF04EF04EF04EF04EF04EF04EF04EF04C7
:10416000EF04EF04EF04EF04A902B702C502CB028B
:10417000D102D702DD02E302E902FB02EF04EF0401
:10418000EF04EF04EF04EF04090317032503EF0422
:10419000EF04EF04EF04EF04EF04EF04EF04EF0487
:1041A000EF04EF04EF04EF04330341034F0355031F
:1041B00061036F037D03EF04EF04EF04EF04EF04EA
:1041C000EF04EF04EF04EF048B03EF04EF04EF04BC
:1041D000EF04EF04EF04EF04EF04EF04EF04EF0447
:1041E000EF04EF04EF04EF049903A703B503C3033F
:1041F000D103DF03ED03EF04EF04EF04EF04EF045A
:10420000EF04EF04EF04EF04FB0309041704250493
:10421000330441044F045D04EF04EF04EF04EF04A2
:10422000EF04EF04EF04EF046B0479048704EF0458
:10423000EF04EF04EF04EF04EF04EF04EF04EF04E6
:10424000EF04EF04EF04EF049504A304B104BF04EA
:10425000CB04D704EF04EF04EF04EF04EF04EF0402
:10426000EF04EF04EF04EF04E30400BF4DF6F8138E
:10427000C0F6000301200021002202F05DFB04B023
:10428000BDE8B04000F06EBC4DF25973C0F60003BB
:1042900001200021002202F04FFB40F2C410C2F2C4
:1042A000000004B0BDE8B04002F008BB4DF28863E6
:1042B000C0F6000301200021002202F03DFB40F285
:1042C000C410C2F2000004B0BDE8B04002F0E6BA8B
:1042D0004DF6E133C0F6000301200021002202F078
:1042E0002BFB04B0BDE8B04001F0A0BF4DF64C037D
:1042F000C0F6000301200021002202F01DFB40F265
:10430000C410C2F2000004B0BDE8B04002F000BB2F
:104310004DF2D853C0F6000301200021002202F024
:104320000BFB40F2C410C2F200004FF4FA7104B06B
:10433000BDE8B04002F078BA4DF60F23C0F6000396
:1043400001200021002202F0F7FA40F2C410C2F26C
:10435000000004B0BDE8B04002F078BA4DF6461354
:10436000C0F6000301200021002202F0E5FA40F22D
:10437000D814C2F200042046FFF7A2FD05462046ED
:10438000FFF780FD04464DF6BB430095C0F60003E1
:10439000012000210022019484E300BF4DF26573E7
:1043A000C0F6000301200021002202F0C5FA40F20D
:1043B000EC10C2F2000004B0BDE8B040FFF720BE30
:1043C0004DF29563C0F6000301200021002202F0A7
:1043D000B3FA40F2EC10C2F2000004B0BDE8B04005
:1043E000FFF7FEBD4DF60333C0F6000301200021A8
:1043F000002202F0A1FA40F2EC10C2F200003221D9
:1044000085E000BF4DF6EC23C0F60003012000213B
:10441000002202F091FA40F2EC10C2F20000C82132
:1044200075E000BF4DF2B253C0F600030120002139
:10443000002202F081FA40F2EC10C2F20000642186
:104440004FF4C87204B0BDE8B040FFF77FBD00BFB5
:104450004DF62323C0F6000301200021002202F0C4
:104460006BFA40F2EC10C2F2000004B0BDE8B040BC
:10447000FFF788BD4DF63833C0F600030120002158
:10448000002202F059FA04B0BDE8B04002F02AB8A8
:104490004DF2F553C0F6000301200021002202F086
:1044A0004BFA40F2C414C2F20004204602F030FA83
:1044B000204602F0D1F90FF284610FF284654DF6C7
:1044C0005123002808BF0D46C0F60003012000213B
:1044D00000220095E6E200BF4DF21063C0F6000333
:1044E00001200021002202F027FA4DF619014DF6B5
:1044F000DB03C0F60001C0F6000302204FF4837214
:1045000002F01AFA40F2EC10C2F20000502104B09E
:10451000BDE8B040FFF702BD4DF62B13C0F6000317
:1045200001200021002202F007FA04B0BDE8B040EB
:1045300002F02EB94DF6B823C0F600030120002189
:10454000002202F0F9F904B0BDE8B04002F0E2B890
:104550004DF6C633C0F6000301200021002202F010
:10456000EBF904B0BDE8B04001F03EBF4DF6DF13FB
:10457000C0F6000301200021002202F0DDF904B0A2
:10458000BDE8B04002F092B84DF69133C0F600039A
:1045900001200021002202F0CFF904B0BDE8B040B4
:1045A00002F078B84DF6F333C0F600030120002185
:1045B000002202F0C1F904B0BDE8B04002F0C0BD75
:1045C0004DF26F63C0F6000301200021002202F0CB
:1045D000B3F90DF10B0002F0D5FE04B0B0BD00BF81
:1045E0004DF6A243C0F6000301200021002202F094
:1045F000A3F904B0BDE8B04002F0BEBB4DF65C03C9
:10460000C0F6000301200021002202F095F904B059
:10461000BDE8B04000F024BC4DF6BA03C0F600037C
:1046200001200021002202F087F904B0BDE8B0406B
:1046300000F09EBE604604B0BDE8B04007F0C6BFC3
:10464000604604B0BDE8B04007F042BF604604B029
:10465000BDE8B04007F080BE604604B0BDE8B040A1
:1046600007F0BABE604604B0BDE8B04007F0F2BE45
:10467000604604B0BDE8B04007F06ABF4DF6950350
:10468000C0F6000301200021002202F055F940F29B
:10469000F800C2F2000004B0BDE8B04000F0C2BCB7
:1046A0004DF67703C0F6000301200021002202F03E
:1046B00043F904B0BDE8B04006F09CBF4DF63203AC
:1046C000C0F6000301200021002202F035F904B0F9
:1046D000BDE8B04002F0D0BE4DF61113C0F60003A5
:1046E00001200021002202F027F904B0BDE8B0400B
:1046F00002F026BF4DF63A23C0F600030120002148
:10470000002202F019F904B0BDE8B04002F09EBFEB
:104710004DF2F973C0F6000301200021002202F0DF
:104720000BF904B0BDE8B04003F0DCBD4DF2B67348
:10473000C0F6000301200021002202F0FDF804B0C1
:10474000BDE8B04003F00EBD4DF2A563C0F6000316
:104750002CE000BF4DF65D13C0F6000301200021E0
:10476000002202F0E9F803F079FB24E04DF66C2317
:10477000C0F6000301200021002202F0DDF804B0A1
:10478000BDE8B04003F06ABB4DF68F23C0F60003CE
:1047900001200021002202F0CFF804B0BDE8B040B3
:1047A00003F020BB4DF2DE63C0F6000301200021C0
:1047B000002202F0C1F804B0BDE8B04003F01EBD15
:1047C0004DF2D873C0F6000301200021002202F050
:1047D000B3F804B0BDE8B04001F01ABD4DF6773330
:1047E000C0F6000301200021002202F0A5F804B069
:1047F000BDE8B04005F084BA4DF68343C0F600032F
:1048000001200021002202F097F804B0BDE8B0407A
:1048100005F06EBBC4A301200021002202F08CF839
:1048200006F0B2FB04B0BDE8B04005F0EDBC00BF3F
:104830004DF60843C0F6000301200021002202F0DB
:104840007BF804B0BDE8B04005F070BD4DF66343A1
:10485000C0F6000301200021002202F06DF804B030
:10486000BDE8B04004F0AEBF4DF64643C0F60003CD
:1048700001200021002202F05FF804B0BDE8B04042
:1048800004F084BF4DF6A733C0F6000301200021D9
:10489000002202F051F804B0BDE8B04005F06CBF52
:1048A0004DF68613C0F6000301200021002202F01D
:1048B00043F804B0BDE8B04006F01ABA4DF6CE2376
:1048C000C0F6000301200021002202F035F804B0F8
:1048D000BDE8B04006F098BA4DF62843C0F6000394
:1048E00001200021002202F027F804B0BDE8B0400A
:1048F00006F0C8B94DF23D73C0F600030120002157
:10490000002202F019F804B0BDE8B04006F0B8B8D3
:104910004DF20273C0F6000301200021002202F0D4
:104920000BF804B0BDE8B04006F056B84DF21E7367
:10493000C0F6000301200021002201F0FDFF04B0B9
:10494000BDE8B04006F072B84DF25163C0F6000306
:1049500001200021002201F0EFFF04B0BDE8B040CB
:1049600005F0CCB94DF23363C0F6000301200021FD
:10497000002201F0E1FF04B0BDE8B04005F06CB9E1
:104980004DF6C013C0F6000301200021002201F003
:10499000D3FF04B0BDE8B04005F0ACB94DF6A113AB
:1049A000C0F6000301200021002201F0C5FF04B081
:1049B000BDE8B04005F03AB94DF61933C0F6000332
:1049C00001200021002201F0B7FF04B0BDE8B04093
:1049D00005F092B94DF2C263C0F600030120002138
:1049E000002201F0A9FF04B0BDE8B04000F0CCBF48
:1049F0004DF29C73C0F6000301200021002201F05B
:104A00009BFF04B0BDE8B04000F0E4BD4DF65B3361
:104A1000C0F6000301200021002201F08DFF04B048
:104A2000BDE8B04000F080BE37A301200021002285
:104A300001F082FF04B0BDE8B04000F089BF00BFC4
:104A400028A301200021002201F076FF04B0BDE878
:104A5000B04005F0A7BA00BF1AA301200021002230
:104A600001F06AFF04B0BDE8B04000F035BF00BF00
:104A70000EA301200021002201F05EFF04B0BDE87A
:104A8000B04002F011BF00BF4DF619014DF2747332
:104A90000090C0F60001C0F6000302204FF4067239
:104AA000CDF804C001F048FF04B0B0BD434D442030
:104AB000307845303A2053797374656D20686561AC
:104AC0006C746800434D4420307844353A20455397
:104AD0005033322062616420435243207465737402
:104AE00000000000434D4420307844343A204553C0
:104AF000503332206C617465737420434152445FBB
:104B00004556454E54000000434D44203078443310
:104B10003A204553503332206D6F636B204341522E
:104B2000445F4556454E5400434D44203078413251
:104B30003A204F4C454420686F6D65004F46460053
:104B40004F4E00007047000080B502F065FA44F255
:104B50009900C0F6000002F0EDFABDE88040FFF7D2
:104B6000F1BF000010B582B04DF2A640C0F60000C3
:104B700002F0ACF940F67814C2F200044DF2CB42D8
:104B80004DF21153C0F60002C0F60003204680210A
:104B9000FBF78EFB204602F099F94DF2DA424DF216
:104BA000FB43C0F60002C0F6000320468021FBF75D
:104BB0007FFB204602F08AF94DF2BC42C0F60002AB
:104BC00022A320468021FBF773FB204602F07EF9EA
:104BD0004DF2E9420FF27C0CC0F6000220A3204601
:104BE0008021CDF800C0FBF763FB204602F06EF990
:104BF0001EA222A320468021FBF75AFB204602F08A
:104C000065F920A223A320468021FBF751FB204613
:104C100002F05CF9FFF7EAF8034621A22046802162
:104C2000FBF746FB204602F051F921A220468021E5
:104C30004FF4E133FBF73CFB204602F047F926A096
:104C400002B0BDE8104002F041B900BF76302E3806
:104C50002E35000031343A35313A33360000000049
:104C60004D61792020382032303236004175746829
:104C70006F7220203A2025730D0A00004B656E7478
:104C80006F00000053747564656E74203A202573BC
:104C90000D0A000031393131313032343500000035
:104CA000426F6F74202020203A20256C750D0A0079
:104CB00044656275672020203A2055534152543292
:104CC0002025642C20464620434D44204441544135
:104CD0002046460D0A0000003D3D3D3D3D3D3D3D29
:104CE0003D3D3D3D3D3D3D3D3D3D3D0D0A0000000E
:104CF000B0B582B0FDF708F8044602F057F90DF19F
:104D0000070002F081F858B90DF107059DF807007A
:104D1000214602F08FF9284602F076F80028F5D0F7
:104D200002B0B0BD2DE9F04186B0802007F004F953
:104D30008046822007F000F90546842007F0FCF841
:104D40000646862007F0F8F80746882007F0F4F8B2
:104D500004468C2007F0F0F8010901EB810100F016
:104D60000F0000EB4100632842D8210901EB8101CB
:104D700004F00F0202EB4101A1F10D0212F10C0F40
:104D800036D33A0902EB820207F00F0303EB42022B
:104D9000A2F1200313F11F0F2AD3C6F3011303EB73
:104DA000830306F00F0707EB4303172B20D82F09C7
:104DB00007EB870705F00F0606EB47073B2F17D8D1
:104DC000C8F3021606EB860608F00F0505EB46064B
:104DD0003C2E0DD28DE88F000CA301200021002273
:104DE0000596012401F0A8FD204606B0BDE8F0813B
:104DF0004EF24C61C0F6000112A30220AD2201F078
:104E00009BFD0024204606B0BDE8F08144533133B9
:104E1000303220696E69743A204F4B2C2074696DD2
:104E2000653D3230253032752D253032752D2530D7
:104E3000327520253032753A253032753A253032B8
:104E40007500000044533133303220696E69743A82
:104E500020494E56414C49445F54494D450000009D
:104E60002DE9F04186B0802007F066F88046822068
:104E700007F062F80546842007F05EF806468620B3
:104E800007F05AF80746882007F056F804468C20A9
:104E900007F052F8010901EB810100F00F0000EB6F
:104EA0004100632840D8210901EB810104F00F0281
:104EB00002EB4101A1F10D0212F10C0F34D33A09BA
:104EC00002EB820207F00F0303EB4202A2F1200380
:104ED00013F11F0F28D3C6F3011303EB830306F06E
:104EE0000F0707EB4303172B1ED82F0907EB870784
:104EF00005F00F0606EB47063B2E15D8C8F3021740
:104F000007EB870708F00F0505EB47073C2F0BD28F
:104F10008DE84F000AA3012000210022059701F02F
:104F20000BFD06B0BDE8F0814EF24C61C0F6000109
:104F30000FA30220BB2206B0BDE8F04101F0FCBC8B
:104F40004453313330322074696D653A2032302554
:104F50003032752D253032752D25303275202530B3
:104F600032753A253032753A25303275000000002E
:104F70004453313330322074696D653A20494E56BE
:104F8000414C49445F54494D45000000002808BF8A
:104F9000704710B50446802006F0CEFFC0F3021122
:104FA00001EB810100F00F0000EB410060718220F5
:104FB00006F0C2FF010901EB810100F00F0000EBD8
:104FC00041002071842006F0B7FFC0F3011141EACF
:104FD000810100F00F0000EB4100E070862006F038
:104FE000ABFF010901EB810100F00F0000EB410074
:104FF000A070882006F0A0FF010901EB810100F0FC
:105000000F0000EB410060708C2006F095FF010955
:1050100001EB810100F00F0000EB41002070BDE8C2
:10502000104070472DE9F04186B0B0B104460078D9
:10503000632812D860780D3810F10C0F0DD3A078CA
:10504000203810F11F0F08D3E078172805D82079F1
:105050003B2802D860793C280ED34EF24C61C0F652
:105060000001A9A30220782201F066FC0025284651
:1050700006B0BDE8F08100BF40F60046C4F201066C
:10508000304620210022FCF739FE30460121002263
:105090000125FCF733FE304620210122FCF72EFECD
:1050A0008E2007F079FB002007F076FB30462021A8
:1050B0000022FCF723FE60794FF0CD08C1B201FB5E
:1050C00008F1C90A01EB8102A0EB420040EA011796
:1050D000304620210022FCF711FE3046012100223B
:1050E000FCF70CFE304620210122FCF707FE802051
:1050F00007F052FBF8B207F04FFB304620210022A8
:10510000FCF7FCFD2079C1B201FB08F1C90A01EBF3
:105110008102A0EB420040EA011730462021002224
:10512000FCF7ECFD304601210022FCF7E7FD30469C
:1051300020210122FCF7E2FD822007F02DFBF8B2CE
:1051400007F02AFB304620210022FCF7D7FDE0784B
:10515000C1B201FB08F1C90A01EB8102A0EB4200D8
:1051600040EA0117304620210022FCF7C7FD3046F7
:1051700001210022FCF7C2FD304620210122FCF76C
:10518000BDFD842007F008FBF8B207F005FB3046B0
:1051900020210022FCF7B2FDA078C1B201FB08F18A
:1051A000C90A01EB8102A0EB420040EA0117304638
:1051B00020210022FCF7A2FD304601210022FCF74D
:1051C0009DFD304620210122FCF798FD862007F046
:1051D000E3FAF8B207F0E0FA304620210022FCF7AB
:1051E0008DFD6078C1B201FB08F1C90A01EB8102B3
:1051F000A0EB420040EA0117304620210022FCF7D4
:105200007DFD304601210022FCF778FD304620214B
:105210000122FCF773FD882007F0BEFAF8B207F010
:10522000BBFA304620210022FCF768FD2078C1B28D
:1052300001FB08F1C90A01EB8102A0EB420040EA40
:105240000117304620210022FCF758FD304601218D
:105250000022FCF753FD304620210122FCF74EFDD1
:105260008C2007F099FAF8B207F096FA3046202120
:105270000022FCF743FD304620210022FCF73EFDD2
:10528000304601210022FCF739FD30462021012261
:10529000FCF734FD8E2007F07FFA802007F07CFABF
:1052A000304620210022FCF729FD20786178A27881
:1052B000E378667927798DE88F0005A30120002126
:1052C0000022059601F038FB284606B0BDE8F081C3
:1052D0004453313330322074696D652077726974BC
:1052E00074656E3A203230253032752D2530327596
:1052F0002D2530327520253032753A253032753AF9
:1053000025303275000000004453313330322073B1
:1053100065742074696D652072656A65637465647F
:105320003A20696E76616C69642074696D6500006D
:1053300080B10146007863280CD848780D3810F108
:105340000C0F07D38878203810F11F0F02D3C878CC
:10535000172801D90020704708793B284FF000003A
:1053600088BF704749793C2938BF01207047000049
:1053700010B540F60044C4F201042046202100226A
:10538000FCF7BCFC204601210022FCF7B7FC2046BC
:1053900020210122FCF7B2FC8E2007F0FDF900204D
:1053A00007F0FAF9204620210022FCF7A7FC20464E
:1053B00020210022FCF7A2FC204601210022FCF75C
:1053C0009DFC204620210122FCF798FC802007F05C
:1053D000E3F9002007F0E0F9204620210022FCF745
:1053E0008DFC204620210022FCF788FC204601216C
:1053F0000022FCF783FC204620210122FCF77EFCE2
:10540000822007F0C9F9342007F0C6F92046202190
:105410000022FCF773FC204620210022FCF76EFCE2
:10542000204601210022FCF769FC204620210122B0
:10543000FCF764FC842007F0AFF9122007F0ACF908
:10544000204620210022FCF759FC20462021002282
:10545000FCF754FC204601210022FCF74FFC2046BB
:1054600020210122FCF74AFC862007F095F928202C
:1054700007F092F9204620210022FCF73FFC20464D
:1054800020210022FCF73AFC204601210022FCF7F3
:1054900035FC204620210122FCF730FC882007F053
:1054A0007BF9042007F078F9204620210022FCF740
:1054B00025FC204620210022FCF720FC204601216B
:1054C0000022FCF71BFC204620210122FCF716FCE1
:1054D0008C2007F061F9262007F05EF92046202194
:1054E0000022FCF70BFC204620210022FCF706FCE2
:1054F000204601210022FCF701FC20462021012248
:10550000FCF7FCFB8E2007F047F9802007F044F9F8
:10551000204620210022FCF7F1FB04A301200021FA
:105520000022BDE8104001F007BA00BF44533133F8
:10553000303220746573742074696D6520777269E8
:105540007474656E3A20323032362D30342D323854
:105550002031323A33343A3030000000B0B540F2F6
:105560009034C2F2000441F21641002504F15C00BF
:10557000C2F200014FF48072E581C4F81250E58256
:1055800001F046FF42F27800C2F20000A5616570AA
:10559000A570E5702571057040F62C102582C4F8C1
:1055A00005506572C4E90755C4E90955C4E90B55AE
:1055B000C4E90D55A572A4F80B50C4E90F556564F4
:1055C00004F10D01C2F2000001222570BDE8B040D7
:1055D000FDF7A0BBB0B588B040F29034C2F2000431
:1055E000E079002844D040F6E875C2F2000528783A
:1055F000C11FC9B2FE2949D205F05AFD6988B5F824
:1056000004C0CDE9000134A3012000210022CDF81F
:1056100008C001F091F92878102826D14EF6911C87
:105620004EF68711E27AC0F6000CC0F6000194F83D
:10563000403094F8415094F84200002A94F84320F6
:1056400094F90C4008BF614642F2780CC2F2000C9B
:10565000CDE9001CCDE90235CDE9040228A30120E3
:1056600000210022069401F067F908B0B0BD00BF28
:105670004EF64411C0F6000109A3022040F20A329E
:1056800008B0BDE8B04001F057B900BF0AA301203F
:105690000021002208B0BDE8B04001F04DB900BFC4
:1056A000455350333220726563656E742052582022
:1056B000656D707479000000455350333220726577
:1056C00063656E742052583A206E6F207573657250
:1056D000206672616D65000045535033322072655B
:1056E00063656E742052583A20747970653D257355
:1056F000207365713D2575206C656E3D2575000034
:105700005749464920257320737369643D257320EA
:1057100069703D25752E25752E25752E25752072EF
:105720007373693D25640000B0B586B04EF6201352
:10573000C0F6000301200021002201F0FDF840F234
:105740009035C2F20005697A4EF61313287A4EF6A8
:105750003C12C0F60003C0F60002002918BF134631
:1057600039A4002808BF1C464EF69913C0F6000362
:10577000012000210022009401F0DEF86C6B4EF64F
:10578000FE13C0F60003012000210022009401F066
:10579000D3F8AC6905F15C0001F0FCFD4EF6AB13EB
:1057A0008446C0F600030120002100220094CDF8B9
:1057B00004C001F0C1F8E87A4EF691114EF6871256
:1057C000002842F27800C0F60001C0F60002C2F2E2
:1057D000000008BF0A4601781DA3002995F90C4076
:1057E00018BF0346CDE900234EF66813C0F6000348
:1057F000012000210022029401F09EF8A86C2C6D7B
:10580000009014A3012000210022019401F094F8DB
:10581000E87805F11C0429791CCC8DE80F0016A34B
:10582000012000210022049401F086F8687905F037
:105830003FFCAD79009020A30120002100220195BA
:1058400001F07AF806B0B0BD5345454E00000000A7
:105850002D0000004553503332206C617374207466
:10586000783D256C75206D73206C6173742072789F
:105870003D256C75206D730045535033322074788C
:105880002071756575653A2070656E64696E673D57
:105890002575206163746976653D25752064726F96
:1058A000703D256C7520627573793D256C75206699
:1058B00061696C3D256C75004553503332206C6135
:1058C000737420747820747970653D257320726537
:1058D00073756C743D25640080B582B042F211206E
:1058E000C4F23340019001A901200422012306F0F3
:1058F000C5FB02B080BD0000002818BF002B01D1FD
:10590000704700BF80B584B000688DF80410009027
:10591000002A18BF01221888D3F80210ADF806003B
:1059200000208DF8052002918DF80C00694620209A
:105930000C22002306F0A2FB04B0BDE880407047B3
:1059400040F29030C2F20000012101707047000067
:1059500080B584B04AF2BF40C1F6A570009040F215
:105960000010C0F21A40019040F61D70C0F61E20D3
:10597000029000208DF80C00694620200C220023A4
:1059800006F07CFB04B080BD80B582B002F09AF9CD
:10599000019001A901200422002306F06FFB02B050
:1059A00080BD00002DE9F04F91B040F2903BC2F273
:1059B000000B4FF080080BF15C0A0DF12704002565
:1059C0004FF004094AF2010711E000BFDBF8340090
:1059D0000130CBF83400ABF80E50CBF81250ABF8D6
:1059E0001650A8F101085FEA086000F0598250469D
:1059F000214601F0E9FC002840F052829BF80E108D
:105A00000629E8D89DF82700DFE801F0040A1838D5
:105A10004A505A00A52804BF01208BF80E00E0E789
:105A2000A0F1A501B1FA81F149095A2808BF022164
:105A30008BF80E108BF80F50D3E700BF9BF80F10B8
:105A40004A1CD3B25944062B8BF80F2081F854001E
:105A5000C7D39BF85410BBF858000129ABF81400C9
:105A6000B9D18128B7D200284FF00300ABF812500B
:105A700008BF04208BF80E00B3E700BFBBF812107C
:105A8000BBF814604A1C93B2ABF8122040F668725F
:105A9000C2F20002B342505428BF8BF80E90A0E728
:105AA000ABF8160005208BF80E009AE7BBF816102D
:105AB00041EA0020ABF8160006208BF80E0090E7B4
:105AC0000D287FF483AFBBF8580041F29034C2F246
:105AD0000004BBF81490A080DBF854004FF6FF766A
