:020000040800F2
:10000000C80B002035020008A12E0008512C000862
:100010009D2E0008F5140008D92F000800000000EC
:10002000000000000000000000000000A92E0008F1
:10003000F914000800000000A52E0008AD2E0008ED
:100040004F0200084F0200084F0200084F0200084C
:100050004F0200084F0200084F0200084F0200083C
:100060004F0200084F0200084F0200084F0200082C
:100070004F0200084F0200084F0200084F0200081C
:100080004F0200084F0200084F0200084F0200080C
:100090004F0200084F0200084F0200084F020008FC
:1000A0004F0200084F0200084F0200084F020008EC
:1000B0004F0200084F0200084F0200084F020008DC
:1000C0004F0200084F0200084F0200084F020008CC
:1000D0004F020008C12F0008CD2F00084F02000872
:1000E0004F0200084F0200084F02000800F002F81B
:1000F00000F090F80AA090E8000C82448344AAF132
:100100000107DA4501D100F085F8AFF2090EBAE82F
:100110000F0013F0010F18BFFB1A43F0010318473B
:10012000F097000010980000103A24BF78C878C1FA
:10013000FAD8520724BF30C830C144BF04680C60ED
:10014000704700000023002400250026103A28BF35
:1001500078C1FBD8520728BF30C148BF0B60704739
:100160006E2900F03183702900F08D81662908F036
:100170007383652908F07083672908F06D8361290E
:1001800008F06C8303681B0A28BF41F080016929CD
:1001900000F0FE80642900F0FB80752900F0F880F3
:1001A0006F2900F01984782900F05981E92900F0BD
:1001B000B383E42900F0B083F52900F0AD83EF2983
:1001C00000F01684F82900F058810368DB0928BF85
:1001D00041F08001632900F03583732900F03A83F0
:1001E000E32901F01D80F32901F0228000207047EF
:1001F0001FB501F073F804000020002108F016FB81
:10020000401C60600020002108F0FAFAE0601FBD89
:1002100010B510BD01F034F81146FFF7E9FF06F004
:10022000C3F801F011F903B4FFF7F2FF03BC01F0CA
:1002300059F900000948804709480047FEE7FEE7F2
:10024000FEE7FEE7FEE7FEE7FEE7FEE7FEE7FEE786
:1002500004480549054A064B70470000B12E0008C6
:10026000ED000008C8050020C80B0020C8070020CA
:10027000C80700207CB51D4616460C00009007D02C
:100280004142A14202D32044401E01E04FF0FF3022
:10029000064B7B442A4669460190304600F0ADFA91
:1002A000002C02D0009A002111707CBD8B0500004B
:1002B0000FB41CB50C0007AA009007D04142A14220
:1002C00002D32044401E01E04FF0FF30074B7B4437
:1002D00069460190069800F090FA0021002C01D0A8
:1002E000009A11701CBC5DF814FB00004F05000063
:1002F00070B5044685690068C10601D5302600E066
:100300002026C00707D070BDD4E9012130469047B0
:10031000206A401C20626D1EF6D570BD70B5044683
:1003200085690078C00707D170BDD4E9012120207C
:100330009047206A401C20626D1EF6D570BD70B5D6
:100340000C460546012A05D02878800600D5EA69C2
:10035000002302E0012305E05B1C934202D2E05C33
:100360000028F9D1A869E618C01AA861286A1844BB
:1003700028622846FFF7BCFF04E0D5E9012114F804
:10038000010B9047B442F8D32846FFF7C7FF70BD72
:100390002DE9F0410646002410687529314616A55E
:1003A00010D000F0A6F9002802DA404213A507E0B9
:1003B00031688A0701D512A502E0490704D511A5C5
:1003C000012401E000F09EF900210A2206F1240731
:1003D00009E0B0FBF2FCB0FBF2F302FB1C00303092
:1003E00078541846491C0028F3D123462A46304643
:1003F000BDE8F04100F08FB9000000002D000000C2
:100400002B00000020000000F0B40D460188090513
:1004100002D5214C7C4402E01F4C7C440E34002168
:1004200000F1240608E002F00F071209E75D42EA36
:1004300003721B097754491C52EA0307F3D102786F
:100440000023120704D5702D06D009B10223113400
:100450002246F0BC00F05FB901231034F8E770B514
:1004600004460D462146106800F04CF90246294624
:100470002046BDE870400023C6E7D21D22F00703E6
:10048000D3E90023C0E70368126843F02003036048
:100490000823C3610023B7E7488400002DE9F05F1B
:1004A000894604464FF0000ADFF874B1FB44C0F8F7
:1004B00020A02046E1688847002874D0252806D06F
:1004C000D4E901219047206A401C2062F1E7002610
:1004D0005F462046E16888472028054607DB312D26
:1004E00005D2781910F8200C08B10643F1E7B007DF
:1004F00001D526F00406C4F81CA00027C4F818A0F3
:100500002A2D09D0284608F073F938B304EB870880
:10051000303DC8F8185019E059F8041B204604EB88
:1005200087029161E1688847012F054618D1E0698B
:10053000002820DA26F020061DE0D8F8180000EB8D
:10054000800005EB40003038C8F818002046E1680C
:100550008847054608F04CF90028EED1012F0AD053
:100560002E2D08D12046E16888477F1C0546022FC2
:1005700046F02006C4DBA069002803DA404246F0BA
:100580000106A061F00701D026F010066C2D0BD0FB
:10059000682D09D04C2D39D06A2D35D0742D35D029
:1005A0007A2D33D016E038E0E1682F4620468847A0
:1005B000B842054609D16C2F26D04FF48060E1681F
:1005C000064320468847054604E06C2F1AD04FF4B6
:1005D000807006430DB3A5F14100192802D82035DB
:1005E00046F400664A462946204626604E46FFF7F6
:1005F000B7FD80B101280BD0F61D26F0070000F1F1
:10060000080956E74020E4E78020D8E70020D6E735
:1006100006F104094DE7284652E7206ABDE8F09F3D
:10062000D883000010B5431C02E010F8011B71B123
:100630008107FAD14FF0013202C88C1A8C4314EAB8
:10064000C211F9D0C01A0A0603D0C01E10BDC01ACC
:1006500010BD0A0401D0801E10BD0902FCD0401E4E
:1006600010BD032A40F2308010F0030C00F015801A
:1006700011F8013BBCF1020F624498BF11F801CBA5
:1006800000F8013B38BF11F8013BA2F1040298BF0A
:1006900000F801CB38BF00F8013B11F0030300F074
:1006A000B181083AC0F0088051F8043B083A51F88B
:1006B00004CBA0E80810F5E7121D5CBF51F8043B1D
:1006C00040F8043BAFF30080D20724BF11F8013B90
:1006D00011F801CB48BF11F8012B24BF00F8013BF2
:1006E00000F801CB48BF00F8012B704770477047F6
:1006F000704709684A0501D540B27047C905FCD565
:1007000000B2704709684A0501D5C0B27047C905F3
:10071000FCD580B270472DE9F0470D4699469246C8
:10072000044600F124080168880604D5E06921F038
:100730001001216000E00120A84201DD471B00E01C
:100740000027A1697A1902EB0900081AA061207834
:10075000C00602D42046FFF7CBFD002608E0D4E90E
:1007600001211AF806009047206A401C761C20627E
:100770004E45F4DB2078C0060AD52046FFF7B8FDC9
:1007800006E0D4E9012130209047206A401C206215
:10079000381EA7F10107F4DC07E0D4E9012118F8BD
:1007A00005009047206A401C2062281EA5F1010523
:1007B000F3DC2046FFF7B2FD2078000602D50220C8
:1007C000BDE8F0870120FBE711680268006A530565
:1007D00001D508700AE0D30501D5088006E01306AC
:1007E00003D5C217C1E9000200E00860012070478C
:1007F00001694A1C02610878704700B58FB0CDE9E5
:1008000001310021059105497944CDE903101146D4
:100810006846FFF743FE0FB000BD0000E5FFFFFF95
:10082000D1E900239A4202D2531C0B60107070472A
:1008300010B5436913B1AFF3008001E0FFF77FFD0E
:10084000012010BD127800F124010A7000224A70C4
:100850000122EDE711684FF0FF32E9E72DE9FF5F74
:1008600015468A460446DFF8AC80F8440027D8E9EC
:1008700000103E46CDE9001010E03AF816106A4626
:1008800002A800F0D9FC411C07D02178890603D5C5
:10089000E269391891420DD80744761C2078800609
:1008A00002D5E069B84205DDAE42E6DB3AF8160053
:1008B0000028E2D1A069C01BA0612046FFF718FD07
:1008C000D8E90010CDE90010002017E03AF8181020
:1008D0006A4602A800F0B0FCB0F1FF3F81460BD0A1
:1008E00000250DF1080B05E0D4E901211BF80500F6
:1008F00090476D1C4D45F7D308F10100B04280468A
:10090000E4DB206A384420622046FFF707FDBDE89B
:10091000FF9F00002E8000002DE9F0418046D21D8F
:1009200022F007020025D2E90002F52915A614D00D
:10093000011E72F1000106DA0023D0EB030063EB25
:10094000020211A608E0D8F800108B0701D50FA607
:1009500002E0490701D50EA601251146002408F141
:10096000240704E000F080F830323A55641C50EA65
:100970000102F7D12B46324621464046BDE8F04100
:10098000FFF7C9BE000000002D0000002B00000092
:100990002000000030B4002100F1240408E002F03F
:1009A0000705D208303542EA4372DB086554491C1A
:1009B00052EA0305F3D10468002310A2250708D5E5
:1009C00004F020040C4304D0C46901230CA2641E6B
:1009D000C46130BCFFF79FBE10B5044621461068C5
:1009E000FFF790FE02462046BDE810400023D1E705
:1009F000D21D22F00701D1E90023CBE7000000005F
:100A00003000000010B5203AC0F00B80B1E818505B
:100A1000A0E81850B1E81850A0E81850203ABFF4E8
:100A2000F5AF5FEA027C24BFB1E81850A0E8185087
:100A300044BF18C918C0BDE810405FEA827C24BFDB
:100A400051F8043B40F8043B08BF7047D20728BF69
:100A500031F8023B48BF11F8012B28BF20F8023BB8
:100A600048BF00F8012B704730B5B0F10A0271F1B0
:100A700000034FEA900E4EEA817EB0EB0E0061EB70
:100A800091014FEA101E4EEA017E10EB0E0041EB81
:100A900011114FEA102E4EEA016E10EB0E0041EBE1
:100AA00011214FEA104E4EEA014E10EB0E0041EBC1
:100AB0001141401841F100014FEAD00040EA417075
:100AC0004FEAD1014FEA810444EA907410EB8005AB
:100AD00044EB01046D1944EB0404521BA3414FF095
:100AE000000348BF0A3200D530BD401C41F100016F
:100AF00030BD2DE9FF4F0C461E464FF0FF378BB03F
:100B0000D2E90001DDF860800A908A46C1F30A55F7
:100B100005B93D46002108464FF00000BAF1000F2C
:100B200000F4400005DA00EB80004FF4400101EAD8
:100B300050004FEA9059B9F1010F00DDB9460A980B
:100B400050EA4A000ED044F61050A5F2FF35454356
:100B50002F14B8F1000F1ED07542291E1EDDC9F1F9
:100B600000021CE0B8F1010F4FF0000001D030216D
:100B700003E0F24305E02154401CB042FBDB304669
:100B80000022002121540B99C1F80880C1E90020FE
:100B90000FB0BDE8F08FBD1B6D1CDEE74A4600DAE2
:100BA000694206A800F0DEFB06AB93E8070003AB42
:100BB00083E8070050460A9907F03EFA8DE80700DF
:100BC000A0F500501F3800900398002D0ADD42F276
:100BD0001F014A460844002303A90390684607F012
:100BE000A7FC09E0A0F500504A461F38002303A9DE
:100BF0000390684607F0B1FC8DE807000004000C84
:100C000003D04FF0FF30410800E01046B8F1000F6C
:100C100003D00022009215461EE0751E05D4FFF792
:100C200023FF303262556D1EF9D5B34601220843C9
:100C300002D000227F1C04E02078302801D100225D
:100C40007F1E002A099784D01DE0112D07DAFFF7D7
:100C50000BFF303262556D1C50EA0102F5D108439A
:100C600002D00098C8B10EE00021681E05E0235CA8
:100C7000625C63542254401E491C8142F7DBAB4640
:100C8000A81B401E0990002004F80B000B98099A3D
:100C9000C0F80880C0E9002B7AE711264FF0000861
:100CA00057E72DE9F04F88460446D21D22F0070190
:100CB00091B0D1E90001CDE90A0107F085FD0246B6
:100CC0000B98C00F01D02D2007E02068810701D5C7
:100CD0002B2002E0202101EAC000032A099001D064
:100CE000072A05DB03464146204600F0FBFA0BE1EC
:100CF0002078800601D5E06900E00620B8F1650F94
:100D0000814606D0B8F1660F18D0B8F1670F70D1E0
:100D100031E00020B9F1110F009001DB112301E057
:100D200009F101030AAA01A90CA8FFF7E2FEDDE917
:100D30000C70002609F10105834647E001204B466F
:100D400000904FF000470AAA01A90CA8FFF7D1FEB6
:100D5000DDE90DB00C995D46002610B909F10100DE
:100D60000D18B9EB050003D4C0F1FF3609F10105F8
:100D7000A5EB09002BE0B9F1010F01DA4FF00109F1
:100D80000020B9F1110F0090484601DD112300E069
:100D900003460AAA01A90CA8FFF7ABFEDDE90C7017
:100DA0004D4600268346207800070AD4AB4500DA7A
:100DB0005D4601A8012D04DD411911F8011C3029FF
:100DC00007D04F4502DA17F1040F04DA01208246FA
:100DD0000FE06D1EEEE7002F02DCED1B3E4403E04A
:100DE000781CA84200DD7D1CB81B00F1010A4FF001
:100DF00000472078000703D4AA4501DB4FF0FF3AF3
:100E00000021B7F1004F0DF143088DF8431024D0B5
:100E100002202B23002F01DA7F422D230A21021EFC
:100E2000A0F1010000DC5FB197FBF1FC97FBF1F250
:100E300001FB1C7C17460CF1300C08F801CDEEE7E5
:100E4000A8F1010003702188090501D5452100E0C2
:100E50006521A0F1010800F8011C09980FA9A1EB78
:100E60000807FF1D00B10120411901EBEA70A169DB
:100E70003844081A401EA0612078C00602D42046DB
:100E8000FFF736FA099828B1D4E901219047206A82
:100E9000401C20622078C00622D52046FFF728FAA1
:100EA0001EE0002E04DBB34502DD01A8805D00E0FA
:100EB0003020D4E901219047206A401C2062761C32
:100EC000AAF101005FEA000A0AD100F007FAC0683F
:100ED0000168405CD4E901219047206A401C2062EF
:100EE000281EA5F10105DCDC07E0D4E9012118F892
:100EF000010B9047206A401C2062381EA7F10107B1
:100F0000F3DC2046FFF70AFA032011B041E60000A7
:100F10002DE9F04F04460D46D21D22F0070089B09E
:100F2000D0E900974846394607F04EFC0246F80FD4
:100F300001D02D2307E02068810701D52B2302E093
:100F4000202101EAC0038DF820300BB1012000E020
:100F50000020032A824601D0072A04DB29462046C6
:100F600000F0C0F93FE12078800601D40D2500E0B3
:100F7000E569C7F30A560D2D49DA00214FEA175BE0
:100F800008464FF00000002F00F4400007DA00EBA5
:100F900080004FF4400100EBD07001EA6000811541
:100FA000012901DD4FF0FF3100224FEA850CBCF131
:100FB000180F06D31346ACF118004FF08052C24010
:100FC00003E04FF4801323FA0CF30CF10C0CBCF18A
:100FD000200F04D3ACF1200C09FA0CF001E007FA61
:100FE0000CF000294FF0004801DD18B90FE00ED1D8
:100FF00040450CD319EB02095F4121B9404502D1AC
:101000009F4329EA0209BBEB175F00D0761C2088BA
:10101000000502D57B48784402E07A4878441938C4
:1010200008AA302302F80A30037C0AF10101002EDD
:101030000AF1020A53546A4602DC4FF0300101E023
:101040004FF031014FF001088DF8001002D0A6F2E8
:10105000FF3603E059EA470100D06B4E002D02DC59
:101060002178090704D54FF002082E218DF80110D0
:10107000C44600210BE0C7F303433F01C35C491C96
:101080006D1E02F80830052908F1010801DA002D6B
:10109000F1DC00210CE000EB1973491C1B786D1E7C
:1010A000082902F808304FEA091908F1010801DAA5
:1010B000002DF0DC21688B0602D516E0A8F10108AE
:1010C000E04505DD02EB080313F8013C302BF5D0B9
:1010D000B8F1000F09DD02EB080313F8013C2E2BD9
:1010E00003D1090701D4A8F10108002D05DD3E2137
:1010F00002F808106D1E08F10108407C002E02F86D
:10110000080008F1010804DA2D20764202F80800F0
:1011100002E02B2002F808000A214FF47A70864280
:1011200008F101080BDB96FBF0F3303302F80830CE
:1011300096FBF0F308F1010800FB136601E0642E52
:101140000CDB642096FBF0F3303302F8083096FB9A
:10115000F0F308F1010800FB136601E00A2E06DB3C
:1011600096FBF1F0303002F8080008F1010896FB18
:10117000F1F001FB1060303002F80800A16908F1BD
:10118000010808EB050202EB0A00081AA0612078AA
:10119000C00602D42046FFF7ABF8216A08AE01EB87
:1011A0000A00206204E0D4E9012116F8010B9047FF
:1011B000BAF1010AF7D22078C00602D52046FFF71F
:1011C00097F86E4609E016F8010B3E280FD0D4E9D7
:1011D00001219047206A401C2062B8F10108F2D238
:1011E0002046FFF79BF809B00320BDE8F08F206A86
:1011F0002844206203E0D4E90121302090476D1E8D
:10120000EBD3F8E79D78000002FCFFFF10B54369BF
:1012100013B1AFF3008001E0FFF720FB012010BD08
:10122000128800F1240182840022C2840122EDE7A9
:1012300011684FF0FF32E9E72DE9F04116460C4600
:10124000054600F043F8036893F80101012807D030
:10125000FF2C12D8185D80B101202C70BDE8F08100
:10126000D3F807013246214603F20713C718284670
:10127000BC46BDE8F041002360474FF0FF30EDE78A
:10128000754600F0EBF8AE4605006946534620F07F
:101290000700854618B020B5FEF7DAFFBDE820400C
:1012A0004FF000064FF000074FF000084FF0000B22
:1012B000AC46ACE8C009ACE8C009ACE8C009ACE891
:1012C000C00921F007018D467047000010B500F0FD
:1012D00005F8001D10BD00BF55750000004870479F
:1012E000200100202DE9F0411F4604460326016835
:1012F000072A01F4006004DB08B116A505E016A575
:1013000003E008B115A500E015A521F0100020604C
:10131000A069C01EA0610FB1401EA0612046FEF76B
:10132000E7FF4FB1D4E9012138469047206A401CBD
:101330002062C01C206206E0206AFAE7D4E901219D
:1013400015F8010B9047761EF8D22046FEF7E6FF0F
:10135000BDE8F0814E414E006E616E00494E460080
:10136000696E66002DE9F047814616468AB0354819
:1013700078440DC88DE80D0032487844801C03ACD9
:101380000DC884E80D0041F69B300844372190FBDE
:10139000F1F290FBF1F5A5F1800501FB12041B3C75
:1013A00002D56442012000E00020DFF898A08046CA
:1013B0000027FA44AAF1BE0A0EE0E0070AD032463E
:1013C000684607EB470101230AEB810107F0C5F8E6
:1013D0008DE8070064107F1C002CEED1194F7F446C
:1013E000AE3F19E0E80715D007EB04100DF1180A1D
:1013F00090E80E008AE80E00C068F04201D198190A
:1014000008903246012306A903A807F0A6F803AB0B
:1014100083E807006D10641C002DE3D14FF0010339
:1014200032466946B8F1000F03A802D007F080F8F1
:1014300001E007F092F8C9E90001C9F808200AB0F4
:10144000BDE8F087D475000010B50446AFF3008006
:101450002046BDE81040FEF7E6BE00000048704799
:10146000000100204FF0013C50F8042B51F8043BE0
:101470009A4221D1A2EB0C03934313EACC1317D168
:1014800050F8042B51F8043B9A4215D1A2EB0C03FF
:10149000934313EACC130BD150F8042B51F8043BBF
:1014A0009A4209D1A2EB0C03934313EACC13DBD08D
:1014B0004FF00000704700BFD01A01BAB1FA81F1B5
:1014C00001F0180122FA01F0CB40DBB2C0B2C01A21
:1014D000C1F120012CFA01F3D11A914311EAC31191
:1014E000E6D1704701491820ABBEFEE72600020096
:1014F00070470000FEE7000070470000EFF3108027
:1015000072B600BFFEE7000070B542F20C0604465A
:10151000C4F2020600F00CFB3168C90718D130682C
:10152000800644BF202030603068C00607D4306990
:10153000C00704D1306840075CBF002070BD306830
:10154000C00623D40020316849072BD434E000BF03
:10155000002C47D00546601C0ED13068C007DED095
:101560003068C0071CBF30685FEAC070D7D03068F1
:10157000C007F2D1D3E700BF00F0DAFA401BA04267
:1015800030D83068C007F7D1C9E700BF40F24050FB
:10159000C2F20000C16941F00201C161102031684E
:1015A000490709D540F24051C2F20001CA6940F032
:1015B000040042F00102CA613169C90702D13060FA
:1015C000012070BD40F24051C2F20001CA6942F0F0
:1015D0000402CA61316921F00101316130600120EA
:1015E00070BD00BF032070BD014690F821000228A5
:1015F00016D10868D1E90FC3026822F00E0202601A
:10160000026822F001020260012000FA03F2CCF825
:10161000042081F821000020002281F8202070475A
:10162000042088630120002281F8202070470000F8
:1016300080B590F82110022924D10268116821F0A8
:101640000E0111602F211368C4F202018A4240F298
:101650000401C4F2020123F00103136016DD3023FC
:10166000C4F202039A421DD04423C4F202039A42F8
:101670001CD05823C4F202039A421DD14FF4803388
:1016800022E000BF04218163012080BD0823C4F251
:1016900002039A420ED01C23C4F202039A420BD1D9
:1016A000102311E04FF480730EE000BF4FF480531D
:1016B0000AE000BF012307E001F1680C4FF08073DE
:1016C000624508BF4FF480130B60012180F82110A0
:1016D000426B002180F820100AB190470021084693
:1016E00080BD0000B0B5044600F022FA054640F285
:1016F0000000C2F200000078611C18BF044400BF63
:1017000000F016FA401BA042FAD3B0BD2DE9F04319
:1017100081B040F24056C2F20006327E012A03D167
:10172000022001B0BDE8F083054601202C68307628
:101730004CF250308846FFF7E7FE022C1CD10028FF
:101740004ED1002042F21004F061C4F2020420687D
:1017500040F004002060206840F0400020604CF21F
:101760005030FFF7D1FE216821F0040121600021F3
:10177000317601B0BDE8F08390BB4FF0FF30C8F880
:101780000000D5E9027007EB8020874228D242F2A0
:101790001004C4F202044FF0000900BFC6F81C9008
:1017A000206840F0020020606760206840F0400040
:1017B00020604CF25030FFF7A7FE216821F00201B3
:1017C000216098B9D5E9020107F5806700EB812017
:1017D0008742E3D300200021317601B0BDE8F083D9
:1017E00001200021317601B0BDE8F083C8F8007017
:1017F0000021317601B0BDE8F083000042F2100113
:10180000C4F20201086840F0800200200A607047BC
:101810002DE9F04F81B040F24059C2F200099246E2
:1018200099F81820012A03D1022001B0BDE8F08FF9
:101830008046012089F818004CF250309B460E4635
:10184000FFF762FEA0BB404642F21007B8F1020F5C
:1018500018BF0420C4F20207B8F1010F08BF4046C8
:1018600045424FF000080024C4F12001C9F81C8053
:101870002AFA04F00BFA01F13A680843B4F12001A6
:1018800058BF2BFA01F042F00101396026F8020B33
:101890004CF25030FFF738FE3968013521F0010273
:1018A00048F100013A6018B9002904F11004DBD0B6
:1018B000002189F8181001B0BDE8F08F42F2040051
:1018C000C4F20200C16809065CBF0020704740F204
:1018D0002311C4F26751016048F6AB11CCF6EF5109
:1018E0000160C068C0B2C009704700002DE9F04F28
:1018F00082B00E68002E00F0038141F20042C4F273
:101900000102042340F2004E904208BF03234FF629
:10191000FF7CC4F2010E009300240123C1F2100CDD
:101920004FF0000A4FF0000949E000BF012704F022
:101930000C030F229A402BEA020207FA03F34FEA44
:101940009A051A4346F82520D1F804B040F20C4518
:101950005FEACB22DEF8082054BF22EA080242EAFE
:101960000802C4F20105CEF808202A685FEA8B233A
:1019700054BF22EA080242EA08022A605FEA8B3377
:10198000DEF8042054BF22EA080242EA08025FEAB5
:10199000CB33CEF80420DEF800204FF0010354BF13
:1019A00022EA080242EA0802CEF800200E680AF194
:1019B000010A36FA0AF204F1040400F0A18003FAE5
:1019C0000AF816EA080FF1D04E68664512DC122EAE
:1019D00056D8DFE806F0350B454955555555555550
:1019E000555555555555554D510000BFD1F80C90E2
:1019F00046E000BF4FF6FF72C1F2210296420FDCB3
:101A00000022C1F2110296421AD00022C1F2120243
:101A1000964215D00022C1F22102964210D02FE04A
:101A20000022C1F2220296420AD00022C1F2310203
:101A3000964205D00022C1F23202964220D100BF68
:101A40008A684AB1012A14BFC0F81480C0F8108017
:101A50004FF0080914E000BF4FF0040910E000BF88
:101A6000CA6802F108090BE04FF0000908E000BF66
:101A7000CA6802F1040903E0CA6802F10C0900BF58
:101A800022460646BAF1080F24BF203A04363768CA
:101A90000F25954027EA050509FA02F22A4332602C
:101AA000CA79D2067FF582AF41F21803C4F202036D
:101AB0001A68AEF57E7642F001021A601A6802F0EA
:101AC00001020192019A2AF0030256F802B040F690
:101AD0000002C4F20102904210D040F60042C4F26B
:101AE000010290423FF422AF41F20002C4F201022F
:101AF000009F904208BF022719E700BF002716E7A2
:101B000002B0BDE8F08F00008068084018BF0120D7
:101B100070470000C26802EA0103914341EA0341B1
:101B200001617047002A08BF090401617047000085
:101B300040F26050C2F200000068704740F20000BE
:101B400040F26051C2F20000C2F2000100780A685F
:101B5000104408607047000080B542F20000C4F2F3
:101B60000200016841F010010160032000F08EF8CE
:101B70000F2000F005F800F027F8002080BD0000DD
:101B800070B540F20006C2F2000640F20801327859
:101B9000C2F200014FF47A730968B3FBF2F2044613
:101BA000B1FBF2F1084600F063FB0F2C4FF001058A
:101BB00008D838B94FF0FF3021460022002500F048
:101BC00039F87460284670BD82B041F21800C4F242
:101BD00002000168022241F001010160016801F088
:101BE000010101910199416841F0805141604068D3
:101BF00000F08050009000980420C4F201000168B9
:101C000062F31A61016002B070470000002848BF0B
:101C10007047C1B200F01F00012202FA00F04EF23C
:101C20000012CEF2000242EAD10121F00301086065
:101C30007047000010B54EF60C5CCEF2000CDCF8DC
:101C40000030C3F3022E8EF00704042C28BF0424B6
:101C5000BEF103034FF0FF3E0EFA04F438BF002339
:101C6000A14399400EFA03F39A43114300F00F0287
:101C700000F160430901043A03F56443624400281B
:101C800048BF02F10C03197010BD00004EF60C5154
:101C9000CEF200010A684FF6FF031A4060F30A22F1
:101CA00042F0806040F0FD70086070472DE9F0431D
:101CB00081B0002800F0858042F20008C4F20208DA
:101CC0000446D8F800000D4600F0070088420CD208
:101CD000D8F8000020F007002843C8F80000D8F822
:101CE000000000F00700A8426BD1206841F204090F
:101CF0008107C4F2020917D5410705D5D9F80010AC
:101D000041F4E061C9F80010010705D5D9F80010C9
:101D100041F46051C9F80010D9F80010A26821F010
:101D2000F0011143C9F80010C00741D1D8F80000F4
:101D300000F00700A8420CD9D8F8000020F00700F6
:101D40002843C8F80000D8F8000000F00700A842B7
:101D500037D12068410707D5D9F80010E26821F48F
:101D6000E0611143C9F80010000708D5D9F8000058
:101D7000216920F4605040EAC100C9F80000D9F898
:101D8000002002F00C00082841F20020C0F27A0086
:101D900050D148F67A13C2F38341C0F60003595C70
:101DA000D2033BD440F60010C0F23D00484341E06E
:101DB000606802280AD001282AD159F8041C890336
:101DC00008D4012001B0BDE8F08300BF59F8041C1D
:101DD0008901F6D5D9F8001021F003010843C9F8AC
:101DE0000000FFF7A5FE064641F28837D9F800004B
:101DF000616800F00C00B0EB810F97D0FFF798FE00
:101E0000801BB842F2D9032001B0BDE8F08300BFC7
:101E100059F8041C8907D4D5DCE700BFD9F80020A5
:101E200048F67813C2F34042C0F600039A5C484378
:101E3000B0FBF2F0D9F8001048F66012C1F30311BC
:101E4000C0F60002515C40F2080220FA01F140F2B3
:101E50000400C2F200000068C2F200021160FFF745
:101E60008FFE002001B0BDE8F083000040F20800C2
:101E700041F20401C2F20000C4F2020100680968E4
:101E800048F67012C1F30221C0F60002515CC8404E
:101E90007047000040F2080041F20401C2F2000065
:101EA000C4F202010068096848F67012C1F3C22149
:101EB000C0F60002515CC840704700002DE9F041B7
:101EC00082B0002868D00446007841F20006C007BE
:101ED000C4F2020625D0706800F00C0004281BD064
:101EE000706800F00C00082802D17068C00313D499
:101EF0006068002800F06881B0F5A02F00F07C81B8
:101F0000B0F5803F00F07C81306820F48030306094
:101F1000306820F4802076E13068800301D5606865
:101F2000D0B32078800718D5706810F00C0F07D058
:101F3000706800F00C0008286ED17068C0036BD484
:101F40003068800702D52069012825D13068616991
:101F500020F0F80040EAC1003060207800071FD46C
:101F60002078400732D4E56995B1706800F00C0024
:101F7000082840F08F80012D0ED07068216A00F48F
:101F800080328A4208D1616A00F47010884203D11D
:101F9000002002B0BDE8F081012002B0BDE8F08170
:101FA000A069002862D00020C4F242200121C0F8BC
:101FB0008014FFF7BDFD0546706A800700F18C8034
:101FC000FFF7B6FD401B0228F6D92AE1F06910F0B0
:101FD000805808D1F06940F08050F061F06900F05D
:101FE00080500090009847F20007C4F2000738685C
:101FF000C00529D4386840F480703860FFF798FD38
:10200000054600BF3868C0051ED4FFF791FD401B90
:102010006428F7D905E100BF2069002840F20000DC
:10202000C4F2422000F0828001210160FFF780FDB0
:10203000054600BF306880073FF588AFFFF778FDA1
:10204000401B0228F6D9ECE0E068002800F0808010
:10205000052800F09780012800F09880306A20F071
:1020600001003062306A20F0040092E00020C4F2E7
:1020700042200021C0F88014FFF75AFD054600BF3A
:10208000706A80077FF56CAFFFF752FD401B022896
:10209000F6D9C6E00027C4F2422700203866FFF7D1
:1020A00047FD022D05460BD13068800140F1BE800E
:1020B000FFF73EFD401B02284FF00300F4D968E70C
:1020C000306880017FF564AFFFF732FD401B0228C6
:1020D0004FF00300F4D95CE740F20800C2F20000C0
:1020E000006844F6D351C1F26201A0FB0101480A25
:1020F000019000BF00BF0198411E002801913FF4EC
:102100002FAF00BF0198411E002801913FF428AF76
:1021100000BF0198411E002801913FF421AF00BF8C
:102120000198411E00280191E4D119E700210160C6
:10213000FFF7FEFC054600BF306880077FF50DAF56
:10214000FFF7F6FC401B02284FF00300F4D920E70C
:10215000306A20F001003062306A20F00400306202
:10216000FFF7E6FC054641F2883700BF306A80077A
:1021700020D5FFF7DDFC401BB8424FF00300F5D936
:1021800007E700BF306A40F004003062306A40F078
:1021900001003062FFF7CCFC054641F2883700BFF2
:1021A000306A800706D4FFF7C3FC401BB842F7D95A
:1021B00037E000BFB8F1000F7FF4D5AEF06920F032
:1021C0008050F061CFE600BF306820F4803030608E
:1021D000306820F480203060FFF7AAFC054600BF7D
:1021E000306880037FF59DAEFFF7A2FC401B64289A
:1021F0004FF00300F4D9CCE6306840F48020306022
:10220000306840F480303060FFF792FC054600BF34
:10221000306880033FF585AEFFF78AFC401B6428D9
:10222000F6D9032002B0BDE8F08100BF206AB0F506
:10223000803F05D17168A26821F4003111437160BB
:102240007168626A21F474111143084370600120BF
:102250003866FFF76DFC0446306880013FF598AEA4
:10226000FFF766FC001B02284FF00300F4D990E64C
:10227000411E0020B0EB116F1CBF012070474EF2D1
:102280001002CEF2000251604EF62351CEF2000150
:10229000F0230B70072190601160704770470000B9
:1022A00070470000B0B582B0044600680168C3689A
:1022B000426901F02F05202D03F0200506D12DB134
:1022C000204602B0BDE8B04000F0FABD5FEA017CF4
:1022D0001EBF02F0010E03F4907212EB0E0253D1F6
:1022E000226B012A05D111F0100218BF13F0100261
:1022F00036D10A0622D513F080021FD094F841107F
:1023000021293FD1A168B1F5805F03D1216900295E
:1023100000F07082216A4A1C226209784160E18CD7
:1023200001390A04E1842DD1C16821F08001C16026
:10233000C16841F04001C16002B0B0BD490621D57D
:1023400013F040011ED0C16821F04001C16020217E
:10235000204684F8411002B0BDE8B04000F076BCE1
:102360000021019101680191416801910199406941
:10237000400613D4A08DE18DE28D002A18BF88425B
:1023800040F0BA8102B0B0BDCA0718BF13F4807222
:1023900040F0B6804A0700F1B980BEE0E06B01680A
:1023A00049688AB2002AEDD0A38D9A42EAD2E1852B
:1023B0008069202800F09C80206850E8030F216885
:1023C00020F4807041E80302DAB1206850E8030F7E
:1023D000216820F4807041E8030292B1206850E83F
:1023E000030F216820F4807041E803024AB120689D
:1023F00050E8030F216820F4807041E80302002AAE
:10240000DAD1206850E8050F216820F0010041E88A
:102410000502DAB1206850E8050F216820F00100BC
:1024200041E8050292B1206850E8050F216820F0CC
:10243000010041E805024AB1206850E8050F216813
:1024400020F0010041E80502002ADAD1206850E8B6
:10245000050F216820F0400041E80502DAB120684C
:1024600050E8050F216820F0400041E8050292B1D4
:10247000206850E8050F216820F0400041E805027F
:102480004AB1206850E8050F216820F0400041E87B
:102490000502002ADAD1202084F8420000202063BF
:1024A000206850E8030F216820F0100041E8030283
:1024B000DAB1206850E8030F216820F0100041E8ED
:1024C000030292B1206850E8030F216820F0100049
:1024D00041E803024AB1206850E8030F216820F068
:1024E000100041E80302002ADAD1E06BFFF77CF824
:1024F00002206063A08DE18D401A81B2204674E114
:10250000626C42F0010262644A0706D5BEF1000F18
:1025100003D0626C42F0020262648A0706D5BEF103
:10252000000F03D0626C42F004026264BCF1000F41
:1025300009D545EA0E02B2FA82F2520903D1626C61
:1025400042F008026264626C002A3FF41BAF11F093
:10255000200118BF002D03D0204600F0B1FC2068F8
:102560004069616C00F0400001F00801401800F083
:10257000B58000BF206850E8030F216820F49070F8
:1025800041E80302BAB3206850E8030F216820F441
:10259000907041E8030272B3206850E8030F21688D
:1025A00020F4907041E803022AB3206850E8030F3A
:1025B000216820F4907041E80302002ADAD11AE081
:1025C000206850E8050F216820F0010041E805026D
:1025D000DAB1206850E8050F216820F0010041E8D9
:1025E000050292B1206850E8050F216820F0010033
:1025F00041E805024AB1206850E8050F216820F043
:10260000010041E80502002ADAD1206B012824D11B
:10261000206850E8030F216820F0100041E8030211
:10262000DAB1206850E8030F216820F0100041E87B
:10263000030292B1206850E8030F216820F01000D7
:1026400041E803024AB1206850E8030F216820F0F6
:10265000100041E80302002ADAD1202084F8420069
:10266000002020632068406940063FD5206850E87C
:10267000050F216820F0400041E80502DAB120682A
:1026800050E8050F216820F0400041E8050292B1B2
:10269000206850E8050F216820F0400041E805025D
:1026A0004AB1206850E8050F216820F0400041E859
:1026B0000502002ADAD1E06BC0B142F6B561C0F67E
:1026C00000014163FEF7B4FF00283FF45BAEE06B0E
:1026D000416B02B0BDE8B040084700BF2046FFF79D
:1026E000DFFD0020606402B0B0BD00BF204602B034
:1026F000BDE8B040FFF7D4BD401A216851E8031F80
:10270000226821F4907142E80313DBB1216851E89B
:10271000031F226821F4907142E8031393B12168EA
:1027200051E8031F226821F4907142E803134BB172
:10273000216851E8031F226821F4907142E80313D5
:10274000002BDAD1216851E8051F226821F0010130
:1027500042E80513DBB1216851E8051F226821F02A
:10276000010142E8051393B1216851E8051F226871
:1027700021F0010142E805134BB1216851E8051F22
:10278000226821F0010142E80513002BDAD1202153
:1027900084F8421000212163216851E8031F226858
:1027A00021F0100142E80313DBB1216851E8031F57
:1027B000226821F0100142E8031393B1216851E827
:1027C000031F226821F0100142E803134BB1216876
:1027D00051E8031F226821F0100142E80313002B87
:1027E000DAD1022281B22046626302B0BDE8B04075
:1027F000FFF754BD216A31F8022B6FF35F2242606C
:1028000021628CE5002804BF0120704710B5044602
:1028100090F8410028B9002084F84000204600F0DC
:1028200063F8242084F841002068D4E90212C368C8
:1028300023F40053C360036923F440531A43026135
:10284000D4E904231143C268194341F20C639A434B
:102850001143C1604169A26921F44071114343F6FB
:102860000002C4F201029042416103D0FFF7FEFA78
:1028700002E000BFFFF70EFB626819214843910098
:10288000B0FBF1F048F21F51C5F2EB11A0FB0123A0
:102890005A094FF69C73C0F6FF7302FB0300322304
:1028A00003EB0010A0FB0101F02303EA51132068A1
:1028B00003EB0212C1F3431111448160016921F459
:1028C00090410161416921F02A014161C16841F4EF
:1028D0000051C16000202021606484F8411084F818
:1028E0004210606310BD000070B586B0006844F20D
:1028F0000041C4F20001002688420596CDE9036636
:10290000029647D044F60001C4F20001884279D013
:1029100043F60001C4F20101884240F0A58041F273
:102920001800C4F20200016840F6000441F480413E
:1029300001600168C4F2010401F480410191019930
:10294000016802AD41F0040101600068294600F011
:102950000400019001984FF400700290022003904F
:10296000032005902046FEF7C1FF4FF480600290DF
:102970000020CDE9030020462946FEF7B7FF2520B9
:1029800001210022FFF756F92520FFF73FF906B095
:1029900070BD00BF41F21800C4F20200416840F669
:1029A000000441F4003141604168C4F2010401F4C3
:1029B000003101910199016802AD41F0040101600B
:1029C0000068294600F0040001900198042002905C
:1029D00002200390032005902046FEF787FF082081
:1029E000CDE90206204629460496FEF77FFF262001
:1029F00000210022FFF71EF92620FFF707F906B095
:102A000070BD00BF41F21800C4F20200416802AD7F
:102A100041F480214160416801F4802101910199D4
:102A2000016841F0080101600068294600F00800D3
:102A3000019001984FF480600290022003900320DF
:102A4000059040F60000C4F2010000F580642046C5
:102A5000FEF74CFF4FF4006002900020CDE9030028
:102A600020462946FEF742FF06B070BD90F842307E
:102A7000202B1CBF0220704700294FF0010318BF14
:102A8000002A01D118467047002303638162222186
:102A90008285C285436480F842100169006819B1DB
:102AA000C16841F48071C1604169002341F00101B6
:102AB0004161C16841F02001C160184670470000C3
:102AC00010B5044603F022FC2046BDE8104002F099
:102AD000C9BE00002DE9F041044690F841002028CD
:102AE0001CBF0220BDE8F0810D4600294FF0010017
:102AF00000F0AA801646002A08BFBDE8F081002039
:102B000060642120984684F84100FFF711F8A684FC
:102B1000E684A1680646B1F5805F02D120690028ED
:102B200062D02F460025E08C002861D018F101000A
:102B300018D0B8F1000F37D1216808E017F8010B61
:102B40004860E08C0138E084E08C002851D00868AF
:102B5000000673D5002FF1D135F8020B00276FF373
:102B60005F20EDE7216802E00868000609D40868E4
:102B7000000606D4086800065CBF08685FEA0060CB
:102B8000F2D51FB117F8010B05E000BF35F8020BB5
:102B900000276FF35F204860E08C0138E084E08C10
:102BA0000028E4D125E000BF216800BF08680006C6
:102BB00008D4FEF7BDFF801B404541D82168C86896
:102BC000F4E700BF17B117F8010B04E035F8020B6A
:102BD00000276FF35F204860E08C0138E084E08CD0
:102BE0000028E3D105E000BF0027E08C00289DD13C
:102BF0002168086840061FD4B8F1000F1ED018F1F4
:102C000001000FD10868400616D40868400613D4A6
:102C10000868400610D4086840064FF00000F1D55F
:102C20000FE000BFFEF784FF801B404508D82068F6
:102C3000C16800684006F5D5002002E0FEF778FF85
:102C40000320202184F84110BDE8F0817047000086
:102C5000FEE700002DE9F04F85B041F21800C4F204
:102C60000200016840F6000941F0100101600168AE
:102C70004FF0020801F01001019101990168C4F2BE
:102C8000010941F020010160016809F5006A01F0C5
:102C90002001019101990168012241F004010160C4
:102CA00001684FF4005601F0040101910199016897
:102CB000012541F008010160016801F0080101915E
:102CC0000199016841F001010160006800F0010014
:102CD000019001980420C4F20100016868F31A61B0
:102CE000016050464FF40051FEF71CFF484610218A
:102CF00000220027FEF716FF4846A02100224FF0D1
:102D0000A00BFEF70FFF09F5806420464CF221313D
:102D10000022FEF707FF20464FF443510122FEF741
:102D200001FFCDE9016501AE50463146CDE903789A
:102D3000FEF7DCFD48463146CDE901570395FEF725
:102D4000D5FD49F60210CDE9010748463146039505
:102D5000FEF7CCFD1820CDE901072046314603954A
:102D6000FEF7C4FD4FF48040CDE9010750463146DF
:102D70000395FEF7BBFD102001A981E8A10148469B
:102D80003146FEF7B3FD4FF0030A48463146CDE920
:102D900001B50397CDF810A0FEF7A8FD4020CDE9BE
:102DA0000107484631460397FEF7A0FD4FF2213058
:102DB00001A981E8A10120463146FEF797FDC02018
:102DC0000190112002A981E8210420463146FEF736
:102DD0008DFD20463146CDE901870395FEF786FD3E
:102DE00005B0BDE8F08F000080B540F2E42043F666
:102DF0000001C2F20000C4F2010100234FF00C0CEC
:102E00004FF4E13280E80E00C0E90333C0E905C3A6
:102E1000C361FFF7F7FC002808BF80BDBDE8804014
:102E2000FEF76CBB80B540F22C3044F20041C2F298
:102E30000000C4F2000100234FF00C0C4FF4E1320B
:102E400080E80E00C0E90333C0E905C3C361FFF7A2
:102E5000D9FC002808BF80BDBDE88040FEF74EBB0E
:102E600080B540F2743044F60001C2F20000C4F2B2
:102E7000000100234FF00C0C4FF4E13280E80E000B
:102E8000C0E90333C0E905C3C361FFF7BBFC0028F9
:102E900008BF80BDBDE88040FEF730BBFEE7000004
:102EA000FEE700007047000070470000FEF746BED6
:102EB00070470000406A0021C185C184FFF7F0B966
:102EC00081B090F84210222921D183680246B3F5DF
:102ED000805F09D152F8281F52F8183C002B63D0AC
:102EE00003685B680AE000BF52F8281F13B9036942
:102EF000002BF5D003685B6803F07F030B7011684B
:102F000001311160C18D01390A04C18502D001B0BF
:102F1000704700BF0168CA6822F02002CA60CA6810
:102F200022F48072CA604A6922F001024A612021BB
:102F300080F8421000214163026B012A3CD10163F9
:102F4000016851E8031F026821F0100142E80313F1
:102F5000DBB1016851E8031F026821F0100142E86B
:102F6000031393B1016851E8031F026821F01001B7
:102F700042E803134BB1016851E8031F026821F0D6
:102F8000100142E80313002BDAD101680A68D20667
:102F900006D5002200920A680092496800910099C3
:102FA000818D01B0FFF77AB9026852686FF35F2232
:102FB00021F8022B8162A5E701B0FFF781BD000077
:102FC00040F2E420C2F20000FFF76CB940F22C306E
:102FD000C2F20000FFF766B9FEE7000070B588B0E6
:102FE00040F2DA16C2F20006B17840F20C054B1E30
:102FF0000022022B26A3C2F2000538BF01225B5C2F
:103000006C5C18B19C4238BF621C03E0944288BFDC
:10301000631E1A46481C6A54D4B200901EA30120B5
:1030200000210022019402F0E5F90220F07002F084
:1030300019FB49F25731C0F60001002002F0EAFB0B
:10304000B07848F64421C0F6000151F820302E5CDB
:1030500049F207420DF10E04C0F60002204612218B
:103060000096FDF725F90120214602F0D3FB49F235
:103070006531C0F60001022002F0CCFB49F2463176
:10308000C0F60001032002F0C5FB08B070BD00BF10
:10309000630C1F173B3B000054696D65205365743A
:1030A000206669656C642025752076616C756520E5
:1030B0002530327500000000B0B582B040F6000443
:1030C00040F28C15C4F20104C2F2000504F500615F
:1030D00028464FF40052002302F022F94FF0140C5E
:1030E00005F11400214601220023CDF800C000F0B4
:1030F000C1FA05F1280021461022012302B0BDE8E3
:10310000B04000F03DBB000010B540F28C14C2F29C
:103110000004204602F03EF904F1140000F0C4FA65
:1031200004F12800BDE8104000F066BB2DE9F04135
:1031300088B040F2DA18C2F20008054688F80000AC
:10314000471E49F21430FAB2C0F600000C4688F867
:103150000110072A014608D8C2EBC20140F214024E
:10316000C2F2000202EB8101896849F2193249F288
:103170007636C0F60002022C08BF1046C0F60006E4
:1031800049F2C133012C18BF06460091C0F6000376
:10319000012000210022019602F02CF9012D08BF28
:1031A000022C13D0012C40F01781072F00F214815C
:1031B000DFE807F0043A144C265E7A9A002088F87B
:1031C000040008B0BDE8F04104F086BD002088F896
:1031D000030008B0BDE8F04103F07EBB98F803009F
:1031E000012840F0A78098F80410022900F2A2807C
:1031F000481C88F8040008B0BDE8F04104F06CBD3C
:1032000098F80300022840F0E78098F802004AF698
:10321000AB2101304143890C01EB4101A0EB41009E
:1032200088F802001FE000BF98F80300012840F072
:10323000858098F80410002900F08080481E88F8E6
:10324000040008B0BDE8F04104F046BD98F8030062
:10325000022840F0C18098F80200411E002808BFF3
:10326000052188F8021008B0BDE8F04104F0A0BDC7
:1032700098F803000138032800F2AE80DFE800F080
:103280000266686A98F8040002280DD0012863D00D
:1032900050BB6BA301200021002202F0ABF808B064
:1032A000BDE8F04103F0CCB9032088F8030002F038
:1032B000D9F949F20031C0F60001002002F0AAFA63
:1032C00049F20931C0F60001012002F0A3FA49F2E7
:1032D0003031C0F60001022002F09CFA49F284333A
:1032E000C0F600031EE000BF042088F8030002F0CF
:1032F000B9F949F22431C0F60001002002F08AFA3F
:1033000049F20931C0F60001012002F083FA49F2C6
:103310003031C0F60001022002F07CFA49F2AC33F1
:10332000C0F6000301200021002208B0BDE8F041F2
:1033300002F060B802284FD1002002E002284BD1F1
:10334000012008B0BDE8F041FFF748BE34A3E9E72B
:103350002BA3E7E722A3E5E74FF40070A8F80200EB
:1033600002F080F949F25731C0F60001002002F066
:1033700051FA98F8020048F64421C0F6000151F8CD
:10338000203040F20C01C2F200010F5C49F207420A
:103390000DF10E04C0F60002204612210097FCF742
:1033A00087FF0120214602F035FA49F26531C0F667
:1033B0000001022002F02EFA49F24631C0F6000167
:1033C000032002F027FA49F2E333C0F6000301209C
:1033D0000021002202F00EF808B0BDE8F08100BF25
:1033E000436172642044656C20636F6E6669726D20
:1033F00020706C616365686F6C646572000000002A
:10340000436172642041646420636F6E6669726D0B
:1034100020706C616365686F6C6465720000000009
:1034200054696D652053657420636F6E6669726DB3
:1034300020706C616365686F6C64657200000000E9
:103440004D656E753A204361726420546573740053
:10345000F0B581B040F600440546C4F201040026F0
:10346000002704E06D00072F07F1010766D2E8B2DC
:10347000C20920468021FEF755FB2046402101224B
:10348000FEF750FB8DF801609DF801001D2823D840
:103490009DF8010001308DF801009DF801001D2804
:1034A0001AD89DF8010001308DF801009DF8010047
:1034B0001D2811D89DF8010001308DF801009DF8FC
:1034C00001001D2808D89DF8010001308DF8010089
:1034D0009DF801001E28DBD3204640210022FEF784
:1034E00021FB8DF802609DF802001D28BAD800BFAC
:1034F0009DF8020001308DF802009DF802001D28A1
:10350000B0D89DF8020001308DF802009DF802004D
:103510001D28A7D89DF8020001308DF802009DF803
:1035200002001D289ED89DF8020001308DF802008F
:103530009DF802001E28DBD394E700BF20468021BF
:103540000122FEF7EFFA204640210122FEF7EAFAB7
:1035500000208DF803009DF803001D2824D800BF2B
:103560009DF8030001308DF803009DF803001D282D
:103570001AD89DF8030001308DF803009DF8030070
:103580001D2811D89DF8030001308DF803009DF827
:1035900003001D2808D89DF8030001308DF80300B2
:1035A0009DF803001E28DBD320468021FEF7ACFAED
:1035B0000546204640210022FEF7B4FAB5FA85F010
:1035C000400901B0F0BD000040F2BC30C2F2000082
:1035D00000687047F0B585B04FF60045C0F60005AD
:1035E0002868696801264A1C531C144608BF012438
:1035F0008A4244F24321C4F6543138BF34468842EB
:1036000040F2BC30C2F200004FF0000718BF0124A6
:10361000046002970097FEF751F901A869460197E7
:10362000CDE90356FEF772F820B1FEF7E7F805B0D2
:10363000F0BD00BF44F24322C4F6543202202946B2
:103640000023FEF7E5F80028EFD1291D02202246CD
:103650000023FEF7DDF8FEF7D1F805B0F0BD00005D
:10366000014600284FF0000008BF70474A7A4872B0
:1036700010467047002808BF7047DDF800C00160A1
:10368000002182808371BCF1000F08BF4FF0140C41
:10369000A0F807104172C0E9031C7047002814BF4E
:1036A000C079002070470000F0B581B0F0B1044649
:1036B0000068A188FEF728FAA7790546C01BB0FA72
:1036C00080F0460902F090FD217AB14210D1D4E990
:1036D000030102F08BFD48B1E079B04206D0012829
:1036E00003D1BD421CBF01206072E67101B0F0BD84
:1036F0002672E06001B0F0BD002808BF7047B0B589
:1037000001250446002908BF642105720020C4E990
:10371000031002F069FD60612068A188A279E5715B
:10372000BDE8B040FEF7FEB9002808BF7047B0B54D
:1037300000294FF00105044608BF6421002A08BF94
:103740004FF4C8720572C0E9031202F04DFD6061CA
:103750002068A188A279E571BDE8B040FEF7E2B922
:10376000002808BF7047034680799988B0FA80F036
:10377000420918684FF0000CA3F807C0FEF7D2B951
:10378000002808BF704710B54FF0000E8446016056
:1037900082808371A0F807E064204FF4C874CCE9FC
:1037A0000304B3FA83F04309084611461A46CCF8DD
:1037B00014E0BDE81040FEF7B5B90000002808BFCE
:1037C0007047034680799988B0FA80F042091868FA
:1037D0004FF0000CA3F807C0FEF7A4B9002808BFFB
:1037E00070470346006899889A794FF0010CA3F856
:1037F00007C0FEF797B90000B0B5D0B30446007A11
:10380000B8B302F0F1FC2169A1B1E2790546606923
:1038100012B3E16802F0EAFC58B3A1790020E0712C
:10382000B1FA81F22068A1885209FEF77BF965613F
:10383000B0BD00BFE168606902F0D8FCC8B1A079F2
:103840000023B0FA80F042092068A188A4F807306C
:10385000BDE8B040FEF766B902F0C8FC002808BF1A
:10386000B0BD2068A188A2790123E371FEF75AF95F
:103870006561B0BDB0B588B0421EB42A8C4600F276
:10388000BB81DFE812F0B500C300D500E700F5000A
:1038900007011B012D014D015F01710181019101A2
:1038A000A701B901B901B901B901B901B901B9015A
:1038B000B901B901B901B901B901B901B901B90138
:1038C000B901B901C901D701FB011B022902370265
:1038D000B901B901B901B901B901B901B901B90118
:1038E000B901B90145025302B901B901B901B901E0
:1038F000B901B901B901B901B901B901B901B901F8
:10390000B901B90161026F02B901B901B901B90187
:10391000B901B901B901B901B901B901B901B901D7
:10392000B901B9017F02B901B901B901B901B90100
:10393000B901B901B901B901B901B901B901B901B7
:10394000B901B9018D029B02A902B902CB02DD02C5
:10395000ED02FD020D031F03B901B901B901B9015F
:10396000B901B90141034F035D03B901B901B901BF
:10397000B901B901B901B901B901B901B901B90177
:10398000B901B9016B0379038703B901B901B90121
:10399000B901B901B901B901B901B901B901B90157
:1039A000B901B9019503B901B901B901B901B90169
:1039B000B901B901B901B901B901B901B901B90137
:1039C000B901B901A3032704B103BD03CB03350437
:1039D000D903B901B901B901B901B901B901B901F5
:1039E000B901B901E703F503430403040F041B0401
:1039F00048F60173C0F6000301200021002201F007
:103A0000F9FC08B0BDE8B04000F036BC48F64343CE
:103A1000C0F6000301200021002201F0EBFC40F27F
:103A20008C10C2F2000008B0BDE8B04001F0A4BCA8
:103A300048F60943C0F6000301200021002201F0EE
:103A4000D9FC40F28C10C2F2000008B0BDE8B040D2
:103A500001F082BC49F26303C0F60003012000219B
:103A6000002201F0C7FC08B0BDE8B04001F03CB94D
:103A700048F6BC53C0F6000301200021002201F0EB
:103A8000B9FC40F28C10C2F2000008B0BDE8B040B2
:103A900001F09CBC48F69533C0F6000301200021DC
:103AA000002201F0A7FC40F28C10C2F200004FF49B
:103AB000FA7108B0BDE8B04001F014BC48F61873C4
:103AC000C0F6000301200021002201F093FC40F227
:103AD0008C10C2F2000008B0BDE8B04001F014BC88
:103AE00048F6B663C0F6000301200021002201F071
:103AF00081FC40F2A014C2F200042046FFF7CEFD84
:103B000005462046FFF7ACFD044649F21F13009519
:103B1000C0F6000301200021002201944DE300BF04
:103B200048F64F43C0F6000301200021002201F0B7
:103B300061FC40F2B410C2F2000008B0BDE8B04031
:103B4000FFF74CBE48F61643C0F6000301200021E3
:103B5000002201F04FFC40F2B410C2F2000008B0A5
:103B6000BDE8B040FFF72ABE48F6C073C0F60003B8
:103B700001200021002201F03DFC40F2B410C2F20D
:103B80000000322194E000BF48F6A973C0F600039C
:103B900001200021002201F02DFC40F2B410C2F2FD
:103BA0000000C82184E000BF48F66F33C0F6000370
:103BB00001200021002201F01DFC40F2B410C2F2ED
:103BC000000064214FF4C87208B0BDE8B040FFF7B0
:103BD000ABBD00BF48F62C73C0F6000301200021E6
:103BE000002201F007FC40F2B410C2F2000008B05D
:103BF000BDE8B040FFF7B4BD48F6895148F6FE4332
:103C00000090C0F60001C0F60003022040F2B91295
:103C1000CDF804C0D1E200BF48F6D673C0F6000369
:103C200001200021002201F0E5FB08B0BDE8B04012
:103C300001F0B6B948F6B233C0F600030120002106
:103C4000002201F0D7FB40F28C14C2F2000420469F
:103C500001F0BCFB204601F05DFB0FF2F4510FF2C6
:103C6000F45548F65A73002808BF0D46C0F6000305
:103C700001200021002200959FE200BF48F6CD33CD
:103C8000C0F6000301200021002201F0B3FB48F63A
:103C9000895148F64B63C0F60001C0F600030220CC
:103CA000F92201F0A7FB40F2B410C2F2000050214B
:103CB00008B0BDE8B040FFF71FBD00BF48F69B63EA
:103CC000C0F6000301200021002201F093FB08B0A0
:103CD000BDE8B04001F0BABA48F67573C0F600030B
:103CE00001200021002201F085FB08B0BDE8B040B2
:103CF00001F06EBA49F24803C0F60003012000212A
:103D0000002201F077FB08B0BDE8B04001F0CAB86E
:103D100048F6E863C0F6000301200021002201F00C
:103D200069FB08B0BDE8B04001F01EBA49F21303C8
:103D3000C0F6000301200021002201F05BFB08B067
:103D4000BDE8B04001F004BA49F27503C0F60003C3
:103D500001200021002201F04DFB08B0BDE8B04079
:103D600001F0ACBE48F6F033C0F60003012000219C
:103D7000002201F03FFB0DF11B0001F0C1FF08B074
:103D8000B0BD00BF49F20613C0F6000301200021B8
:103D9000002201F02FFB08B0BDE8B04001F044BDA7
:103DA00048F6CC53C0F6000301200021002201F0A8
:103DB00021FB08B0BDE8B04000F0DCBB48F62A6348
:103DC000C0F6000301200021002201F013FB08B01F
:103DD000BDE8B04000F056BEBCF1640FC0F0A28157
:103DE00048F6895148F6B143C0F60001C0F6000319
:103DF00002202122DFE100BFACF10D0010F10D0F18
:103E000000F29C8148F6895148F69643C0F60001BD
:103E1000C0F6000302202B22CDE100BFACF1200050
:103E200010F1200F00F2968148F6895148F6E543DB
:103E3000C0F60001C0F6000302203522BBE100BF3E
:103E4000BCF1180FC0F0928148F6895148F6CB4377
:103E5000C0F60001C0F6000302203F22ABE100BF24
:103E6000BCF13C0FC0F08E8148F6895148F67A4388
:103E7000C0F60001C0F60003022049229BE100BF0A
:103E8000BCF13C0FC0F08A8148F6895148F65E4388
:103E9000C0F60001C0F60003022053228BE100BFF0
:103EA00048F60563C0F6000301200021002201F05E
:103EB000A1FA40F2F400C2F2000008B0BDE8B04040
:103EC00000F03ABC48F6E753C0F600030120002199
:103ED000002201F08FFA40F2F400C2F200000178F3
:103EE0008378047990F805C04278C5788DE82E0073
:103EF00049F2E5130494C0F60003012000210022DA
:103F0000CDF814C059E100BF48F6A253C0F6000333
:103F100001200021002201F06DFA08B0BDE8B04098
:103F200002F010B848F68163C0F6000301200021BA
:103F3000002201F05FFA08B0BDE8B04002F066B8B8
:103F400048F64373C0F6000301200021002201F06F
:103F500051FA08B0BDE8B04002F086B848F669539F
:103F6000C0F6000301200021002201F043FA08B04E
:103F7000BDE8B04002F09AB948F62653C0F60003F7
:103F800001200021002201F035FA08B0BDE8B04060
:103F900002F038B948F62643C0F60003012000219C
:103FA000002201F027FA08B0BDE8B04002F072B973
:103FB00048F64853C0F6000301200021002201F01A
:103FC00019FA08B0BDE8B04000F052BE48F6F973E7
:103FD000C0F6000301200021002201F00BFA08B016
:103FE000BDE8B04002F082BA94A301200021002273
:103FF00001F000FA08B0BDE8B04002F06DBC00BFAF
:1040000049F28A03C0F6000301200021002201F0DA
:10401000F1F908B0BDE8B04002F0E8BC49F2C703CE
:10402000C0F6000301200021002201F0E3F908B0EE
:10403000BDE8B04002F046BA49F22903C0F60003D9
:1040400001200021002201F0D5F908B0BDE8B04000
:1040500002F08EBD48F6CD63C0F6000301200021BA
:10406000002201F0C7F908B0BDE8B04002F048BF37
:1040700048F68B73C0F6000301200021002201F0F6
:10408000B9F908B0BDE8B04002F0C6BF5CA301209A
:104090000021002201F0AEF908B0BDE8B04002F006
:1040A00001BE00BF4FA301200021002201F0A2F9B0
:1040B00008B0BDE8B04002F0A1BD00BF41A301209F
:1040C0000021002201F096F908B0BDE8B04002F0EE
:1040D000BFBD00BF49F2E703C0F600030120002185
:1040E000002201F087F908B0BDE8B04002F0A8BA9C
:1040F00049F2AA03C0F6000301200021002201F0CA
:1041000079F908B0BDE8B04002F0C8B943A3012076
:104110000021002201F06EF908B0BDE8B04002F0C5
:10412000B9BE00BF40F2F40049F2C913C2F2000068
:10413000C0F6000380F800C03AE000BF40F2F4008F
:10414000C2F2000049F27B1380F801C0C0F6000300
:104150002EE000BF40F2F400C2F2000049F2B013BA
:1041600080F802C0C0F6000322E000BF40F2F40075
:10417000C2F2000049F2961380F803C0C0F60003B3
:1041800016E000BF40F2F400C2F2000049F25F13F3
:1041900080F804C0C0F600030AE000BF40F2F4005B
:1041A000C2F2000049F2431380F805C0C0F60003D4
:1041B000012000210022CDF800C001F01BF908B059
:1041C000B0BD00BF434D4420307842353A20456EA3
:1041D00074657220636172642064656C6574652027
:1041E00055490000434D4420307842343A20456E12
:1041F00074657220636172642061646420554900B3
:10420000434D4420307842333A20456E7465722025
:1042100074696D652073657420554900434D4420D1
:10422000307842323A204C617374206D61696E209F
:104230006B6579206576656E74000000434D4420FF
:10424000307841323A204F4C454420686F6D65000C
:104250004F4646004F4E00007047000080B501F009
:1042600099FB43F67500C0F6000001F021FCBDE8A3
:104270008040FFF7F1BF000010B582B048F65C2027
:10428000C0F6000001F03CFB40F2C034C2F2000472
:1042900048F6812248F6CE23C0F60002C0F600039D
:1042A00020468021FCF704F8204601F029FB48F65F
:1042B000902248F6B123C0F60002C0F60003204663
:1042C0008021FBF7F5FF204601F01AFB48F6722229
:1042D00048F6C723C0F60002C0F60003204680213E
:1042E000FBF7E6FF204601F00BFB48F69F220FF29A
:1042F000740CC0F600021EA320468021CDF800C039
:10430000FBF7D6FF204601F0FBFA1CA21FA32046B4
:104310008021FBF7CDFF204601F0F2FA1DA221A378
:1043200020468021FBF7C4FF204601F0E9FAFFF7A1
:104330004BF903461FA220468021FBF7B9FF204618
:1043400001F0DEFA1FA2204680214FF4E133FBF793
:10435000AFFF204601F0D4FA24A002B0BDE810401F
:1043600001F0CEBA31323A30343A34350000000030
:104370004170722032392032303236004175746813
:104380006F7220203A2025730D0A00004B656E7471
:104390006F00000053747564656E74203A202573B5
:1043A0000D0A0000544F444F5F53545544454E543A
:1043B0005F494400426F6F74202020203A20256C12
:1043C000750D0A0044656275672020203A20555318
:1043D000415254322025642C20464620434D44202F
:1043E000444154412046460D0A0000003D3D3D3DFC
:1043F0003D3D3D3D3D3D3D3D3D3D3D3D3D3D3D0D1D
:104400000A000000B0B582B0FDF792FB044601F04F
:104410008BFA0DF1070001F04FFA58B90DF10705BD
:104420009DF80700214601F0C3FA284601F044FA3E
:104430000028F5D002B0B0BD2DE9F04186B0802053
:1044400003F02EFB8046822003F02AFB05468420E1
:1044500003F026FB0646862003F022FB0746882051
:1044600003F01EFB04468C2003F01AFB010901EB4C
:10447000810100F00F0000EB4100632842D82109C0
:1044800001EB810104F00F0202EB4101A1F10D02E9
:1044900012F10C0F36D33A0902EB820207F00F0338
:1044A00003EB4202A2F1200313F11F0F2AD3C6F33C
:1044B000011303EB830306F00F0707EB4303172BEE
:1044C00020D82F0907EB870705F00F0606EB4707F3
:1044D0003B2F17D8C8F3021606EB860608F00F0527
:1044E00005EB46063C2E0DD28DE88F000CA3012073
:1044F000002100220596012400F07CFF204606B032
:10450000BDE8F08149F6A001C0F6000112A3022027
:10451000AD2200F06FFF0024204606B0BDE8F08118
:1045200044533133303220696E69743A204F4B2C3A
:104530002074696D653D3230253032752D2530325D
:10454000752D2530327520253032753A253032757B
:104550003A2530327500000044533133303220693F
:104560006E69743A20494E56414C49445F54494D56
:10457000450000002DE9F04186B0802003F090FA5C
:104580008046822003F08CFA0546842003F088FAE6
:104590000646862003F084FA0746882003F080FA56
:1045A00004468C2003F07CFA010901EB810100F044
:1045B0000F0000EB4100632840D8210901EB810185
:1045C00004F00F0202EB4101A1F10D0212F10C0FF8
:1045D00034D33A0902EB820207F00F0303EB4202E5
:1045E000A2F1200313F11F0F28D3C6F3011303EB2D
:1045F000830306F00F0707EB4303172B1ED82F0981
:1046000007EB870705F00F0606EB47063B2E15D88C
:10461000C8F3021707EB870708F00F0505EB4707FC
:104620003C2F0BD28DE84F000AA30120002100226D
:10463000059700F0DFFE06B0BDE8F08149F6A00165
:10464000C0F600010FA30220BB2206B0BDE8F04176
:1046500000F0D0BE4453313330322074696D653A76
:10466000203230253032752D253032752D253032EF
:104670007520253032753A253032753A253032753D
:10468000000000004453313330322074696D653AC4
:1046900020494E56414C49445F54494D4500000065
:1046A000002808BF704710B50446802003F0F8F9D1
:1046B000C0F3021101EB810100F00F0000EB41009B
:1046C0006071822003F0ECF9010901EB810100F037
:1046D0000F0000EB41002071842003F0E1F9C0F3EA
:1046E000011141EA810100F00F0000EB4100E07090
:1046F000862003F0D5F9010901EB810100F00F00DC
:1047000000EB4100A070882003F0CAF9010901EB19
:10471000810100F00F0000EB410060708C2003F07D
:10472000BFF9010901EB810100F00F0000EB41002E
:104730002070BDE8104070472DE9F04186B0B0B15F
:1047400004460078632812D860780D3810F10C0FF9
:104750000DD3A078203810F11F0F08D3E078172868
:1047600005D820793B2802D860793C280ED349F639
:10477000A001C0F60001A9A30220782200F03AFEB1
:104780000025284606B0BDE8F08100BF40F600468F
:10479000C4F20106304620210022FDF7C3F930465D
:1047A000012100220125FDF7BDF93046202101221B
:1047B000FDF7B8F98E2003F037FB002003F034FB3F
:1047C000304620210022FDF7ADF960794FF0CD0889
:1047D000C1B201FB08F1C90A01EB8102A0EB420062
:1047E00040EA0117304620210022FDF79BF93046B0
:1047F00001210022FDF796F9304620210122FDF724
:1048000091F9802003F010FBF8B203F00DFB304665
:1048100020210022FDF786F92079C1B201FB08F1C1
:10482000C90A01EB8102A0EB420040EA01173046C1
:1048300020210022FDF776F9304601210022FDF704
:1048400071F9304620210122FDF76CF9822003F036
:10485000EBFAF8B203F0E8FA304620210022FDF727
:1048600061F9E078C1B201FB08F1C90A01EB8102EC
:10487000A0EB420040EA0117304620210022FDF75C
:1048800051F9304601210022FDF74CF93046202134
:104890000122FDF747F9842003F0C6FAF8B203F0CD
:1048A000C3FA304620210022FDF73CF9A078C1B2BE
:1048B00001FB08F1C90A01EB8102A0EB420040EACA
:1048C0000117304620210022FDF72CF93046012146
:1048D0000022FDF727F9304620210122FDF722F9B9
:1048E000862003F0A1FAF8B203F09EFA30462021A8
:1048F0000022FDF717F96078C1B201FB08F1C90A7F
:1049000001EB8102A0EB420040EA01173046202172
:104910000022FDF707F9304601210022FDF702F9D8
:10492000304620210122FDF7FDF8882003F07CFAB3
:10493000F8B203F079FA304620210022FDF7F2F8B0
:104940002078C1B201FB08F1C90A01EB8102A0EB9A
:10495000420040EA0117304620210022FDF7E2F82C
:10496000304601210022FDF7DDF8304620210122EA
:10497000FDF7D8F88C2003F057FAF8B203F054FA98
:10498000304620210022FDF7CDF8304620210022BC
:10499000FDF7C8F8304601210022FDF7C3F8304684
:1049A00020210122FDF7BEF88E2003F03DFA802081
:1049B00003F03AFA304620210022FDF7B3F82078C0
:1049C0006178A278E378667927798DE88F0005A36E
:1049D000012000210022059600F00CFD284606B0BB
:1049E000BDE8F0814453313330322074696D652065
:1049F0007772697474656E3A203230253032752DC5
:104A0000253032752D2530327520253032753A2506
:104A10003032753A2530327500000000445331338E
:104A20003032207365742074696D652072656A6523
:104A3000637465643A20696E76616C696420746998
:104A40006D65000080B10146007863280CD8487875
:104A50000D3810F10C0F07D38878203810F11F0F94
:104A600002D3C878172801D90020704708793B285D
:104A70004FF0000088BF704749793C2938BF0120BA
:104A80007047000010B540F60044C4F2010420460F
:104A900020210022FDF746F8204601210022FDF7E3
:104AA00041F8204620210122FDF73CF88E2003F03A
:104AB000BBF9002003F0B8F9204620210022FDF7C1
:104AC00031F8204620210022FDF72CF82046012154
:104AD0000022FDF727F8204620210122FDF722F8C9
:104AE000802003F0A1F9002003F09EF92046202148
:104AF0000022FDF717F8204620210022FDF712F8CA
:104B0000204601210022FDF70DF820462021012238
:104B1000FDF708F8822003F087F9342003F084F9C8
:104B2000204620210022FCF7FDFF20462021002204
:104B3000FCF7F8FF204601210022FCF7F3FF204696
:104B400020210122FCF7EEFF842003F06DF91220F2
:104B500003F06AF9204620210022FCF7E3FF2046FB
:104B600020210022FCF7DEFF204601210022FCF775
:104B7000D9FF204620210122FCF7D4FF862003F034
:104B800053F9282003F050F9204620210022FCF799
:104B9000C9FF204620210022FCF7C4FF2046012146
:104BA0000022FCF7BFFF204620210122FCF7BAFFBC
:104BB000882003F039F9042003F036F9204620213B
:104BC0000022FCF7AFFF204620210022FCF7AAFFBD
:104BD000204601210022FCF7A5FF204620210122CA
:104BE000FCF7A0FF8C2003F01FF9262003F01CF92E
:104BF000204620210022FCF795FF2046202100229C
:104C0000FCF790FF204601210022FCF78BFF204695
:104C100020210122FCF786FF8E2003F005F9802079
:104C200003F002F9204620210022FCF77BFF04A3B9
:104C3000012000210022BDE8104000F0DBBB00BFD6
:104C400044533133303220746573742074696D6558
:104C5000207772697474656E3A20323032362D30A6
:104C6000342D32382031323A33343A3030000000BB
:104C700080B582B040F27430C2F200000CA119225B
:104C80006423FDF727FF49F23B2149F2432CC0F68C
:104C90000001C0F6000C002808BF8C460BA30120C1
:104CA00000210022CDF800C000F0A4FB02B080BDBE
:104CB00053544D33325F4D41494E5F45535033326B
:104CC00053335F544553540D0A000000555341526D
:104CD000543320455350333253332074657374205A
:104CE00054583A2025730000B0B592B049F22A53C7
:104CF000C0F6000301200021002200F07BFB40F2FF
:104D00008C10C2F2000000F005FB40A140A549F262
:104D1000E573002808BF0D46C0F6000301200021FE
:104D20000022009500F066FB49F29253C0F60003A2
:104D300001200021002200F05DFBFCF7F9FE44F6A3
:104D4000D351C1F26201A0FB010149F2CE738D097A
:104D5000C0F60003012000210022009500F04AFB6C
:104D60002FA049F61A032BA50090C0F600030120DE
:104D700000210022019500F03DFB00F06BFD02AC2C
:104D800003462AA220464021FBF792FA49F2CE358B
:104D9000C0F600050120002100222B46009400F0FF
:104DA00029FB00F083FD034625A220464021FBF7A6
:104DB0007FFA0120002100222B46009400F01AFB0C
:104DC00000F0E2FD034624A220464021FBF770FAE2
:104DD0000120002100222B46009400F00BFB00F084
:104DE000CDFD034622A220464021FBF761FA0120B7
:104DF000002100222B46009400F0FCFA22A301209F
:104E00000021002200F0F6FA12B0B0BD4F46460075
:104E10004F4E000031323A30343A34360000000050
:104E200041707220323920323032360052582072AE
:104E3000696E6720617661696C20203A20257500D3
:104E40005258206F766572666C6F77202020203A6A
:104E500020256C750000000054696D656F75742025
:104E600064726F707320203A20256C75000000007A
:104E70004572726F722064726F7073202020203A26
:104E800020256C75000000003D3D3D3D3D3D3D3D14
:104E90003D3D3D3D3D3D3D3D3D3D3D3D3D3D3D3D42
:104EA0003D3D3D0080B549F66203C0F60003012098
:104EB0000021002200F09EFA49F2E343C0F600030D
:104EC00001200021002200F095FA49F28F43C0F63C
:104ED000000301200021002200F08CFA49F6310382
:104EE000C0F6000301200021002200F083FA49F2FD
:104EF0006653C0F6000301200021002200F07AFA78
:104F000049F2A663C0F6000301200021002200F050
:104F100071FA08A301200021002200F06BFA49F287
:104F2000DC51C0F6000110A302204422BDE88040FD
:104F300000F060BA4750494F205374657070657235
:104F40003A205042382F5042392F504231342F509E
:104F5000423135206F7574707574732064656661B5
:104F6000756C74204C4F5700536561742073656EE7
:104F7000736F72204750494F3A2070696E73206EEC
:104F80006F7420636F6E6669726D65643B206E6F2F
:104F90007420696E697469616C697A6564000000E7
:104FA000B0B582B049F24653C0F60003012000219B
:104FB000002200F01FFA42A301200021002200F08D
:104FC00019FA49F21D63C0F60003012000210022F6
:104FD00000F010FA49F25863C0F6000301200021E6
:104FE000002200F007FA49F23A73C0F600030120EC
:104FF0000021002200F0FEF949F2DC55C0F6000560
:1050000049F28473C0F60003022029464F2200F0C3
:10501000F1F949F2B253C0F6000301200021002249
:1050200000F0E8F92CA301200021002200F0E2F9B1
:1050300030A301200021002200F0DCF934A301207C
:105040000021002200F0D6F949F2764449F2F973C2
:10505000C0F60004C0F600030120002100220094E5
:1050600000F0C8F949F2D66449F60403C0F600041A
:10507000C0F60003012000210022009400F0BAF9DC
:1050800049F25C4449F60F03C0F60004C0F6000381
:10509000012000210022009400F0ACF949F20273D3
:1050A000C0F6000302202946192200F0A3F920A32C
:1050B00001200021002202B0BDE8B04000F09AB902
:1050C0004D43552020203A2053544D333246313041
:1050D00033433854360000004F4C4544203A2050AA
:1050E00042362F50423720736F66747761726520A5
:1050F000493243004453313330323A205042302F4A
:105100005042312F504235204750494F0000000097
:10511000537465707065723A205042382F5042398E
:105120002F504231342F50423135204750494F00E3
:105130003D3D3D3D3D3D3D3D3D3D3D3D3D3D3D3D9F
:105140003D3D3D3D3D3D3D3D3D3D3D3D3D3D3D00CC
:1051500049F2DC5149F2FD53C0F60001C0F60003EC
:105160000220902200F046B980B549F2DC5149F2A4
:10517000FD53C0F60001C0F6000302207D2200F0BE
:1051800039F904A3012000210022BDE8804000F08D
:1051900031B900BF536574204150505F53454154AD
:1051A0005F53454E534F525F50494E535F434F4EEE
:1051B0004649524D45443D31206166746572207701
:1051C0006972696E6720636F6E6669726D656400EF
:1051D00080B582B049F2764C49F2F973C0F6000C02
:1051E000C0F60003012000210022CDF800C000F02D
:1051F00001F949F2D66C49F60403C0F6000CC0F67A
:105200000003012000210022CDF800C000F0F2F8D8
:1052100049F25C4C49F60F03C0F6000CC0F60003DF
:10522000012000210022CDF800C000F0E3F849F28F
:10523000DC5149F20273C0F60001C0F600030220FF
:10524000192202B0BDE8804000F0D4B880B582B029
:1052500040F60000C4F201000121FCF755FC0FA14B
:105260000FF2400C012808BF8C460FA3012000213B
:105270000022CDF800C000F0BDF840F2A010C2F24C
:105280000000FEF70BFA84460EA301200021002245
:10529000CDF800C000F0AEF802B080BD48494748E4
:1052A000000000004C4F5700427574746F6E205020
:1052B000413020726177206C6576656C3A202573E9
:1052C00000000000427574746F6E20504130206CF5
:1052D0006F676963616C20707265737365643A20EF
:1052E00025750000002808BF704710B5044601204E
:1052F000002908BF4FF4FA712072E16000F074FFDA
:105300002061BDE81040704700281CBF00210172D9
:1053100070470000002814BFC079002070470000CB
:10532000002808BF704780B54FF0000E844601602A
:1053300082808371A0F807E04FF4FA70CCF80C007B
:10534000B3FA83F04309084611461A46CCF810E038
:10535000BDE88040FCF7E6BB002808BF7047034665
:1053600080799988B0FA80F0420918684FF0000CF3
:10537000A3F807C0FCF7D6BB002808BF7047034658
:10538000006899889A794FF0010CA3F807C0FCF7E0
:10539000C9BB0000B0B5B8B10446007AA0B100F0B6
:1053A00023FF0546D4E90310490800F01FFF002839
:1053B00008BFB0BD2068A188FCF7ACFBE07925618F
:1053C000B0FA80F04009E071B0BD0000002808BFCD
:1053D000704710B504460068A18800222272FCF7CD
:1053E00099FBE079B0FA80F04009E071BDE8104027
:1053F00070470000002B08BF7047F0B5D3B058AC21
:1054000017460D46064633A880211A4623460294C5
:10541000FAF730FF032E00F29080DFE806F0030574
:105420000B4300BF54A200E050A203A833ABC0213D
:105430007EE000BF002D69D0A81C01E0851C04306F
:1054400010F8021C2F2909D05C2907D0002961D04F
:1054500010F8011C2F2906D10EE000BF451E10F8E0
:10546000011C2F2908D05C2906D0002952D00178D0
:105470002F2905D10CE000BF054601782F2907D060
:105480005C2905D0002945D041782F2904D1D5E7E2
:10549000451C41782F29D1D05C29CFD00029CED10D
:1054A00038E000BFD5B3A81C02E000BF851C043063
:1054B00010F8021C2F2907D05C2905D091B310F8F1
:1054C000011C2F2905D10BE0451E10F8011C2F29C6
:1054D00006D05C2904D029B301782F2904D10BE030
:1054E000054601782F2907D05C2905D0D1B1417834
:1054F0002F2905D1DAE700BF451C41782F29D5D0E7
:105500005C29D3D00029D2D10CE000BF49F21A2582
:10551000C0F60005009510A206E000BF49F21A256A
:10552000C0F6000507A2009503A833ABC021019780
:10553000FAF7BEFE03A800F0E3F953B0BDE8F0406F
:10554000704700BF5B455252205D202573202825FF
:10555000733A2564290D0A005B5741524E5D2025A0
:1055600073202825733A2564290D0A005B494E46AD
:105570004F5D2025730D0A005B444247205D2025C6
:10558000730D0A0010B500F099FA00F06DF8FEF7FF
:1055900053FF00F005FD00F0F5FE49F6D003C0F61C
:1055A0000003012000210022FFF724FF49F6EC044C
:1055B000C0F6000409A3022021461222FFF71AFFB9
:1055C00014A3012000210022FFF714FF19A30220D9
:1055D00021461522BDE81040FFF70CBF5A6967420B
:1055E0006565206D6F64756C652F6E6574776F727D
:1055F0006B207374617475733A2070656E64696EA4
:1056000067207265616C206C696E6B2074657374C1
:10561000000000005553415254332045535033325B
:105620005333205541525420696E69743A204F4BD0
:1056300000000000455350333253332070656572CB
:10564000207374617475733A2070656E64696E6757
:10565000207265616C206C696E6B207465737400D8
:1056600000F036BE01F024BE10B50020AE2101F0DE
:1056700047FF04460020202101F042FF04400020A3
:10568000102101F03DFF04400020B02101F038FF5F
:1056900004400020C82101F033FF04400020002115
:1056A00001F02EFF04400020102101F029FF0440EA
:1056B0000020402101F024FF04400020812101F05E
:1056C0001FFF044000207F2101F01AFF044000204A
:1056D000A12101F015FF04400020A62101F010FFD8
:1056E00004400020A82101F00BFF044000203F21CE
:1056F00001F006FF04400020A42101F001FF044056
:105700000020D32101F0FCFE04400020002101F024
:10571000F7FE04400020D52101F0F2FE04400020F5
:10572000802101F0EDFE04400020D92101F0E8FEC7
:1057300004400020F12101F0E3FE04400020DA21C2
:1057400001F0DEFE04400020122101F0D9FE0440E9
:105750000020DB2101F0D4FE04400020402101F0B4
:10576000CFFE044000208D2101F0CAFE044000203D
:10577000142101F0C5FE04400020AF2101F0C0FE5D
:105780002040C00712D001F093FD0CA1012001249C
:1057900001F040FE0CA1032001F03CFE0CA301200F
:1057A00000210022FFF726FE204610BD0CA114A305
:1057B0000220B122FFF71EFE002010BD53544D33CE
:1057C00032204D41494E000076302E372E310000F8
:1057D0004F4C454420696E69743A204F4B000000DD
:1057E0002E2E2F6B746C69622F6B745F6D6F6475F6
:1057F0006C65732F6B745F6F6C65642E63000000C3
:105800004F4C454420696E69743A2041434B5F46D2
:1058100041494C00032888BF704719B14000C0B20D
:1058200001F0F8BD7047000080B5FFF71DFF04A32D
:10583000012000210022BDE88040FFF7DBBD00BF52
:105840004F4C4544207465737420746578742073DC
:10585000656E740040F27810C2F20000083000F06B
:10586000FFBA000010B5006844F20041C4F2000124
:10587000884218BF10BD40F27814C2F200042046DE
:1058800010F8081B00F03AFB10B16068013060604E
:1058900040F22C3040F27811C2F20000C2F2000156
:1058A0000122BDE81040FDF7E1B8000040F2781099
:1058B000C2F2000040687047014640F27810C2F220
:1058C0000000083000F0E6BA10B540F27814C2F2D9
:1058D000000440F2404104F10800C2F200014FF41C
:1058E000807200F0FBFA002340F22C30C2F200007C
:1058F000214601226360BDE81040FDF7B7B8000003
:1059000010B568B10446FAF78DFE58B182B240F284
:105910002C30C2F2000021466423FDF7DBF810BDF5
:10592000012010BD002010BD10B584B040F26014FD
:10593000C2F200042178F9B1E268A0EB020CBCF1DC
:10594000640F19D32079A279CDE9001048F64C31C3
:1059500048F6ED230292C0F60001C0F600030220D3
:105960005F22CDF80CC0FFF745FD216900202070B3
:105970002071A071481C206104B010BD40F260107D
:10598000C2F200004069704740F26010C2F20000AD
:105990000069704740F26010C2F2000000210170FF
:1059A00001718171C0E90211C0E904117047000062
:1059B00010B582B040F26014C2F200042278032ACB
:1059C0000AD88446DFE802F0020C1620BCF1FF0F73
:1059D00030D002B010BD00BF0020207002B010BD5A
:1059E000BCF1FF0F28D084F804C00220207002B060
:1059F00010BD00BFBCF1FF0F1CD084F806C003200F
:105A0000207002B010BD00BFBCF1FF0F18D048F6E7
:105A10004C31C0F6000115A30220AC22CDF800C025
:105A2000FFF7E8FC6069013060610020207002B07F
:105A300010BD00BF01202070E16002B010BD00BFAA
:105A4000A26812B12079A1799047207994F806C014
:105A5000009010A3012000210022CDF804C0FFF720
:105A6000C9FC0020207002B010BD00BF496E7661F5
:105A70006C6964206672616D653A20657870656353
:105A80007465642046462C20676F7420307825307A
:105A9000325800005258204652414D453A20464661
:105AA000202530325820253032582046460000004C
:105AB00040F26011C2F2000188607047B0B582B058
:105AC00040F60044C4F2010420464FF40051012284
:105AD000FCF728F80520FBF705FE20464FF480511F
