:020000040800F2
:10000000080A002035020008492D0008452B000889
:10001000452D000809140008752E00080000000096
:10002000000000000000000000000000512D00084A
:100030000D140008000000004D2D0008552D00088B
:100040004F0200084F0200084F0200084F0200084C
:100050004F0200084F0200084F0200084F0200083C
:100060004F0200084F0200084F0200084F0200082C
:100070004F0200084F0200084F0200084F0200081C
:100080004F0200084F0200084F0200084F0200080C
:100090004F0200084F0200084F0200084F020008FC
:1000A0004F0200084F0200084F0200084F020008EC
:1000B0004F0200084F0200084F0200084F020008DC
:1000C0004F0200084F0200084F0200084F020008CC
:1000D0004F0200084F020008692E00084F02000876
:1000E0004F0200084F0200084F02000800F002F81B
:1000F00000F090F80AA090E8000C82448344AAF132
:100100000107DA4501D100F085F8AFF2090EBAE82F
:100110000F0013F0010F18BFFB1A43F0010318473B
:10012000C06E0000E06E0000103A24BF78C878C1AD
:10013000FAD8520724BF30C830C144BF04680C60ED
:10014000704700000023002400250026103A28BF35
:1001500078C1FBD8520728BF30C148BF0B60704739
:100160006E2900F0EC82702900F08D81662906F07E
:10017000DB81652906F0D881672906F0D5816129E0
:1001800006F0D48103681B0A28BF41F08001692969
:1001900000F0FE80642900F0FB80752900F0F880F3
:1001A0006F2900F0D583782900F05981E92900F002
:1001B0006F83E42900F06C83F52900F06983EF294F
:1001C00000F0D283F82900F058810368DB0928BFCA
:1001D00041F08001632900F0F182732900F0F6827A
:1001E000E32900F0A787F32900F0AC8700207047CF
:1001F0001FB500F0FDFF04000020002106F07EF98D
:10020000401C60600020002106F062F9E0601FBD24
:1002100010B510BD00F0BEFF1146FFF7E9FF05F075
:100220004FF801F09BF803B4FFF7F2FF03BC01F0B5
:10023000E3F800000948804709480047FEE7FEE769
:10024000FEE7FEE7FEE7FEE7FEE7FEE7FEE7FEE786
:1002500004480549054A064B70470000592D00081F
:10026000ED00000808040020080A0020080600200D
:10027000080600207CB51D4616460C00009007D0ED
:100280004142A14202D32044401E01E04FF0FF3022
:10029000064B7B442A4669460190304600F069FAD5
:1002A000002C02D0009A002111707CBD03050000D3
:1002B0000FB41CB50C0007AA009007D04142A14220
:1002C00002D32044401E01E04FF0FF30074B7B4437
:1002D00069460190069800F04CFA0021002C01D0EC
:1002E000009A11701CBC5DF814FB0000C7040000EC
:1002F00070B5044685690068C10601D5302600E066
:100300002026C00707D070BDD4E9012130469047B0
:10031000206A401C20626D1EF6D570BD70B5044683
:1003200085690078C00707D170BDD4E9012120207C
:100330009047206A401C20626D1EF6D570BD70B5D6
:100340000C460546012A05D02878800600D5EA69C2
:10035000002302E0012305E05B1C934202D2E05C33
:100360000028F9D1A869E618C01AA861286A1844BB
:1003700028622846FFF7BCFF04E0D5E9012114F804
:10038000010B9047B442F8D32846FFF7C7FF70BD72
:100390002DE9F0410646002410687529314616A55E
:1003A00010D000F061F9002802DA404213A507E0FE
:1003B00031688A0701D512A502E0490704D511A5C5
:1003C000012401E000F059F900210A2206F1240776
:1003D00009E0B0FBF2FCB0FBF2F302FB1C00303092
:1003E00078541846491C0028F3D123462A46304643
:1003F000BDE8F04100F04AB9000000002D00000007
:100400002B00000020000000F0B40D460188090513
:1004100002D5214C7C4402E01F4C7C440E34002168
:1004200000F1240608E002F00F071209E75D42EA36
:1004300003721B097754491C52EA0307F3D102786F
:100440000023120704D5702D06D009B10223113400
:100450002246F0BC00F01AB901231034F8E770B559
:1004600004460D462146106800F007F90246294669
:100470002046BDE870400023C6E7D21D22F00703E6
:10048000D3E90023C0E70368126843F02003036048
:100490000823C3610023B7E7186100002DE9F05F6E
:1004A000894604464FF0000ADFF874B1FB44C0F8F7
:1004B00020A02046E1688847002874D0252806D06F
:1004C000D4E901219047206A401C2062F1E7002610
:1004D0005F462046E16888472028054607DB312D26
:1004E00005D2781910F8200C08B10643F1E7B007DF
:1004F00001D526F00406C4F81CA00027C4F818A0F3
:100500002A2D09D0284605F0DBFF38B304EB870815
:10051000303DC8F8185019E059F8041B204604EB88
:1005200087029161E1688847012F054618D1E0698B
:10053000002820DA26F020061DE0D8F8180000EB8D
:10054000800005EB40003038C8F818002046E1680C
:100550008847054605F0B4FF0028EED1012F0AD0E8
:100560002E2D08D12046E16888477F1C0546022FC2
:1005700046F02006C4DBA069002803DA404246F0BA
:100580000106A061F00701D026F010066C2D0BD0FB
:10059000682D09D04C2D39D06A2D35D0742D35D029
:1005A0007A2D33D016E038E0E1682F4620468847A0
:1005B000B842054609D16C2F26D04FF48060E1681F
:1005C000064320468847054604E06C2F1AD04FF4B6
:1005D000807006430DB3A5F14100192802D82035DB
:1005E00046F400664A462946204626604E46FFF7F6
:1005F000B7FD80B101280BD0F61D26F0070000F1F1
:10060000080956E74020E4E78020D8E70020D6E735
:1006100006F104094DE7284652E7206ABDE8F09F3D
:10062000A860000010B5431C02E010F8011B71B176
:100630008107FAD14FF0013202C88C1A8C4314EAB8
:10064000C211F9D0C01A0A0603D0C01E10BDC01ACC
:1006500010BD0A0401D0801E10BD0902FCD0401E4E
:1006600010BD70477047704709684A0501D540B210
:100670007047C905FCD500B2704709684A0501D525
:10068000C0B27047C905FCD580B270472DE9F0476C
:100690000D4699469246044600F1240801688806F2
:1006A00004D5E06921F01001216000E00120A8429A
:1006B00001DD471B00E00027A1697A1902EB090060
:1006C000081AA0612078C00602D42046FFF710FE69
:1006D000002608E0D4E901211AF806009047206AB4
:1006E000401C761C20624E45F4DB2078C0060AD5FB
:1006F0002046FFF7FDFD06E0D4E9012130209047B8
:10070000206A401C2062381EA7F10107F4DC07E0D4
:10071000D4E9012118F805009047206A401C2062A6
:10072000281EA5F10105F3DC2046FFF7F7FD207830
:10073000000602D50220BDE8F0870120FBE7116822
:100740000268006A530501D508700AE0D30501D597
:10075000088006E0130603D5C217C1E9000200E0D5
:10076000086001207047000001694A1C0261087896
:10077000704700B58FB0CDE90131002105910549E1
:100780007944CDE9031011466846FFF787FE0FB0A4
:1007900000BD0000E5FFFFFFD1E900239A4202D22D
:1007A000531C0B601070704710B5436913B1AFF361
:1007B000008001E0FFF7C3FD012010BD127800F1B9
:1007C00024010A7000224A700122EDE711684FF0FF
:1007D000FF32E9E72DE9FF5F15468A460446DFF858
:1007E000AC80F8440027D8E900103E46CDE900105F
:1007F00010E03AF816106A4602A800F0A7FC411C67
:1008000007D02178890603D5E269391891420DD8BD
:100810000744761C2078800602D5E069B84205DDE1
:10082000AE42E6DB3AF816000028E2D1A069C01B10
:10083000A0612046FFF75CFDD8E90010CDE900106B
:10084000002017E03AF818106A4602A800F07EFC73
:10085000B0F1FF3F81460BD000250DF1080B05E0FC
:10086000D4E901211BF8050090476D1C4D45F7D3D5
:1008700008F10100B0428046E4DB206A384420627F
:100880002046FFF74BFDBDE8FF9F0000865D00009E
:100890002DE9F0418046D21D22F007020025D2E961
:1008A0000002F52915A614D0011E72F1000106DA26
:1008B0000023D0EB030063EB020211A608E0D8F896
:1008C00000108B0701D50FA602E0490701D50EA63F
:1008D00001251146002408F1240704E000F04EF839
:1008E00030323A55641C50EA0102F7D12B463246A9
:1008F00021464046BDE8F041FFF7C8BE00000000B9
:100900002D0000002B0000002000000030B400216A
:1009100000F1240408E002F00705D208303542EA6D
:100920004372DB086554491C52EA0305F3D104689D
:10093000002310A2250708D504F020040C4304D09E
:10094000C46901230CA2641EC46130BCFFF79EBEC3
:1009500010B5044621461068FFF78FFE0246204678
:10096000BDE810400023D1E7D21D22F00701D1E9F4
:100970000023CBE7000000003000000030B5B0F1EC
:100980000A0271F100034FEA900E4EEA817EB0EB4D
:100990000E0061EB91014FEA101E4EEA017E10EB52
:1009A0000E0041EB11114FEA102E4EEA016E10EBD2
:1009B0000E0041EB11214FEA104E4EEA014E10EBB2
:1009C0000E0041EB1141401841F100014FEAD00007
:1009D00040EA41704FEAD1014FEA810444EA907441
:1009E00010EB800544EB01046D1944EB0404521B29
:1009F000A3414FF0000348BF0A3200D530BD401C70
:100A000041F1000130BD2DE9FF4F0C461E464FF06D
:100A1000FF378BB0D2E90001DDF860800A908A468A
:100A2000C1F30A5505B93D46002108464FF00000C4
:100A3000BAF1000F00F4400005DA00EB80004FF43B
:100A4000400101EA50004FEA9059B9F1010F00DD71
:100A5000B9460A9850EA4A000ED044F61050A5F262
:100A6000FF3545432F14B8F1000F1ED07542291EE3
:100A70001EDDC9F100021CE0B8F1010F4FF00000CB
:100A800001D0302103E0F24305E02154401CB04284
:100A9000FBDB30460022002121540B99C1F808806D
:100AA000C1E900200FB0BDE8F08FBD1B6D1CDEE773
:100AB0004A4600DA694206A800F0DEFB06AB93E87E
:100AC000070003AB83E8070050460A9905F01CF9BC
:100AD0008DE80700A0F500501F3800900398002D06
:100AE0000ADD42F21F014A460844002303A903908D
:100AF000684605F085FB09E0A0F500504A461F381E
:100B0000002303A90390684605F08FFB8DE80700DA
:100B10000004000C03D04FF0FF30410800E0104605
:100B2000B8F1000F03D00022009215461EE0751E9A
:100B300005D4FFF723FF303262556D1EF9D5B34659
:100B40000122084302D000227F1C04E020783028D4
:100B500001D100227F1E002A099784D01DE0112DAB
:100B600007DAFFF70BFF303262556D1C50EA0102C5
:100B7000F5D1084302D00098C8B10EE00021681EEC
:100B800005E0235C625C63542254401E491C814290
:100B9000F7DBAB46A81B401E0990002004F80B00B1
:100BA0000B98099AC0F80880C0E9002B7AE7112653
:100BB0004FF0000857E72DE9F04F88460446D21D54
:100BC00022F0070191B0D1E90001CDE90A0105F059
:100BD00063FC02460B98C00F01D02D2007E020686F
:100BE000810701D52B2002E0202101EAC000032A61
:100BF000099001D0072A05DB03464146204600F054
:100C0000FBFA0BE12078800601D5E06900E00620C0
:100C1000B8F1650F814606D0B8F1660F18D0B8F16B
:100C2000670F70D131E00020B9F1110F009001DBA6
:100C3000112301E009F101030AAA01A90CA8FFF799
:100C4000E2FEDDE90C70002609F10105834647E06C
:100C500001204B4600904FF000470AAA01A90CA8BA
:100C6000FFF7D1FEDDE90DB00C995D46002610B905
:100C700009F101000D18B9EB050003D4C0F1FF36EE
:100C800009F10105A5EB09002BE0B9F1010F01DA2B
:100C90004FF001090020B9F1110F0090484601DD25
:100CA000112300E003460AAA01A90CA8FFF7ABFE36
:100CB000DDE90C704D4600268346207800070AD4F3
:100CC000AB4500DA5D4601A8012D04DD411911F89C
:100CD000011C302907D04F4502DA17F1040F04DA5E
:100CE000012082460FE06D1EEEE7002F02DCED1BB7
:100CF0003E4403E0781CA84200DD7D1CB81B00F1D7
:100D0000010A4FF000472078000703D4AA4501DB11
:100D10004FF0FF3A0021B7F1004F0DF143088DF875
:100D2000431024D002202B23002F01DA7F422D23F1
:100D30000A21021EA0F1010000DC5FB197FBF1FC6B
:100D400097FBF1F201FB1C7C17460CF1300C08F804
:100D500001CDEEE7A8F1010003702188090501D556
:100D6000452100E06521A0F1010800F8011C099867
:100D70000FA9A1EB0807FF1D00B10120411901EBEC
:100D8000EA70A1693844081A401EA0612078C006A4
:100D900002D42046FFF7ACFA099828B1D4E9012122
:100DA0009047206A401C20622078C00622D5204649
:100DB000FFF79EFA1EE0002E04DBB34502DD01A81A
:100DC000805D00E03020D4E901219047206A401C7A
:100DD0002062761CAAF101005FEA000A0AD100F045
:100DE00007FAC0680168405CD4E901219047206A95
:100DF000401C2062281EA5F10105DCDC07E0D4E9D7
:100E0000012118F8010B9047206A401C2062381E0F
:100E1000A7F10107F3DC2046FFF780FA032011B0A9
:100E200041E600002DE9F04F04460D46D21D22F0A8
:100E3000070089B0D0E900974846394605F02CFBF9
:100E40000246F80F01D02D2307E02068810701D565
:100E50002B2302E0202101EAC0038DF820300BB1E2
:100E6000012000E00020032A824601D0072A04DB8B
:100E70002946204600F0C0F93FE12078800601D4E1
:100E80000D2500E0E569C7F30A560D2D49DA00216A
:100E90004FEA175B08464FF00000002F00F44000B7
:100EA00007DA00EB80004FF4400100EBD07001EA5C
:100EB00060008115012901DD4FF0FF3100224FEA6A
:100EC000850CBCF1180F06D31346ACF118004FF097
:100ED0008052C24003E04FF4801323FA0CF30CF16C
:100EE0000C0CBCF1200F04D3ACF1200C09FA0CF06F
:100EF00001E007FA0CF000294FF0004801DD18B9B5
:100F00000FE00ED140450CD319EB02095F4121B926
:100F1000404502D19F4329EA0209BBEB175F00D08D
:100F2000761C2088000502D57B48784402E07A4888
:100F30007844193808AA302302F80A30037C0AF1F1
:100F40000101002E0AF1020A53546A4602DC4FF0F6
:100F5000300101E04FF031014FF001088DF8001031
:100F600002D0A6F2FF3603E059EA470100D06B4EEB
:100F7000002D02DC2178090704D54FF002082E214C
:100F80008DF80110C44600210BE0C7F303433F0175
:100F9000C35C491C6D1E02F80830052908F10108E0
:100FA00001DA002DF1DC00210CE000EB1973491C83
:100FB0001B786D1E082902F808304FEA091908F15C
:100FC000010801DA002DF0DC21688B0602D516E05D
:100FD000A8F10108E04505DD02EB080313F8013C28
:100FE000302BF5D0B8F1000F09DD02EB080313F840
:100FF000013C2E2B03D1090701D4A8F10108002DD3
:1010000005DD3E2102F808106D1E08F10108407C44
:10101000002E02F8080008F1010804DA2D207642BB
:1010200002F8080002E02B2002F808000A214FF421
:101030007A70864208F101080BDB96FBF0F330333F
:1010400002F8083096FBF0F308F1010800FB136684
:1010500001E0642E0CDB642096FBF0F3303302F8E1
:10106000083096FBF0F308F1010800FB136601E07D
:101070000A2E06DB96FBF1F0303002F8080008F18A
:10108000010896FBF1F001FB1060303002F8080017
:10109000A16908F1010808EB050202EB0A00081A31
:1010A000A0612078C00602D42046FFF721F9216A0A
:1010B00008AE01EB0A00206204E0D4E9012116F831
:1010C000010B9047BAF1010AF7D22078C00602D589
:1010D0002046FFF70DF96E4609E016F8010B3E2891
:1010E0000FD0D4E901219047206A401C2062B8F15A
:1010F0000108F2D22046FFF711F909B00320BDE83C
:10110000F08F206A2844206203E0D4E901213020D6
:1011100090476D1EEBD3F8E75956000002FCFFFF25
:1011200010B5436913B1AFF3008001E0FFF752FB44
:10113000012010BD128800F1240182840022C284A3
:101140000122EDE711684FF0FF32E9E72DE9F041A8
:1011500016460C46054600F043F8036893F8010173
:10116000012807D0FF2C12D8185D80B101202C7007
:10117000BDE8F081D3F807013246214603F2071398
:10118000C7182846BC46BDE8F041002360474FF031
:10119000FF30EDE7754600F0EBF8AE460500694616
:1011A000534620F00700854618B020B5FFF750F8E9
:1011B000BDE820404FF000064FF000074FF0000858
:1011C0004FF0000BAC46ACE8C009ACE8C009ACE895
:1011D000C009ACE8C00921F007018D467047000046
:1011E00010B500F005F8001D10BD00BF1153000040
:1011F00000487047300000202DE9F0411F460446AA
:1012000003260168072A01F4006004DB08B116A573
:1012100005E016A503E008B115A500E015A521F02D
:1012200010002060A069C01EA0610FB1401EA06127
:101230002046FFF75DF84FB1D4E9012138469047C9
:10124000206A401C2062C01C206206E0206AFAE787
:10125000D4E9012115F8010B9047761EF8D22046FB
:10126000FFF75CF8BDE8F0814E414E006E616E0004
:10127000494E4600696E66002DE9F04781461646E4
:101280008AB0354878440DC88DE80D00324878445E
:10129000801C03AC0DC884E80D0041F69B30084467
:1012A000372190FBF1F290FBF1F5A5F1800501FBF0
:1012B00012041B3C02D56442012000E00020DFF84C
:1012C00098A080460027FA44AAF1BE0A0EE0E00783
:1012D0000AD03246684607EB470101230AEB810139
:1012E00004F0A3FF8DE8070064107F1C002CEED1F2
:1012F000194F7F44AE3F19E0E80715D007EB041003
:101300000DF1180A90E80E008AE80E00C068F0425D
:1013100001D1981908903246012306A903A804F0C8
:1013200084FF03AB83E807006D10641C002DE3D13C
:101330004FF0010332466946B8F1000F03A802D00E
:1013400004F05EFF01E004F070FFC9E90001C9F894
:1013500008200AB0BDE8F0879053000010B504469D
:10136000AFF300802046BDE81040FEF75CBF0000F0
:1013700000487047100000204FF0013C50F8042B4B
:1013800051F8043B9A4221D1A2EB0C03934313EA98
:10139000CC1317D150F8042B51F8043B9A4215D1C5
:1013A000A2EB0C03934313EACC130BD150F8042B9C
:1013B00051F8043B9A4209D1A2EB0C03934313EA80
:1013C000CC13DBD04FF00000704700BFD01A01BA39
:1013D000B1FA81F101F0180122FA01F0CB40DBB241
:1013E000C0B2C01AC1F120012CFA01F3D11A914305
:1013F00011EAC311E6D1704701491820ABBEFEE7E0
:101400002600020070470000FEE700007047000061
:10141000EFF3108072B600BFFEE7000070B542F235
:101420000C060446C4F2020600F00CFB3168C90742
:1014300018D13068800644BF202030603068C00674
:1014400007D43069C00704D1306840075CBF002072
:1014500070BD3068C00623D40020316849072BD402
:1014600034E000BF002C47D00546601C0ED1306828
:10147000C007DED03068C0071CBF30685FEAC070AC
:10148000D7D03068C007F2D1D3E700BF00F0DAFA56
:10149000401BA04230D83068C007F7D1C9E700BF71
:1014A00040F2E030C2F20000C16941F00201C161C6
:1014B00010203168490709D540F2E031C2F200013D
:1014C000CA6940F0040042F00102CA613169C907EB
:1014D00002D13060012070BD40F2E031C2F2000163
:1014E000CA6942F00402CA61316921F00101316127
:1014F0003060012070BD00BF032070BD014690F830
:101500002100022816D10868D1E90FC3026822F031
:101510000E020260026822F001020260012000FA5D
:1015200003F2CCF8042081F821000020002281F889
:1015300020207047042088630120002281F82020A9
:101540007047000080B590F82110022924D102686C
:10155000116821F00E0111602F211368C4F20201FD
:101560008A4240F20401C4F2020123F00103136035
:1015700016DD3023C4F202039A421DD04423C4F284
:1015800002039A421CD05823C4F202039A421DD18E
:101590004FF4803322E000BF04218163012080BD2D
:1015A0000823C4F202039A420ED01C23C4F20203A1
:1015B0009A420BD1102311E04FF480730EE000BF6C
:1015C0004FF480530AE000BF012307E001F1680CEB
:1015D0004FF08073624508BF4FF480130B60012108
:1015E00080F82110426B002180F820100AB190474A
:1015F0000021084680BD0000B0B5044600F022FA84
:10160000054640F20000C2F200000078611C18BFDD
:10161000044400BF00F016FA401BA042FAD3B0BD4C
:101620002DE9F04381B040F2E036C2F20006327E8E
:10163000012A03D1022001B0BDE8F0830546012054
:101640002C6830764CF250308846FFF7E7FE022CCB
:101650001CD100284ED1002042F21004F061C4F2E7
:101660000204206840F004002060206840F0400040
:1016700020604CF25030FFF7D1FE216821F00401C8
:1016800021600021317601B0BDE8F08390BB4FF0BE
:10169000FF30C8F80000D5E9027007EB80208742D0
:1016A00028D242F21004C4F202044FF0000900BF35
:1016B000C6F81C90206840F0020020606760206837
:1016C00040F0400020604CF25030FFF7A7FE216848
:1016D00021F00201216098B9D5E9020107F5806780
:1016E00000EB81208742E3D300200021317601B056
:1016F000BDE8F08301200021317601B0BDE8F08320
:10170000C8F800700021317601B0BDE8F083000018
:1017100042F21001C4F20201086840F08002002089
:101720000A6070472DE9F04F81B040F2E039C2F213
:101730000009924699F81820012A03D1022001B02D
:10174000BDE8F08F8046012089F818004CF2503037
:101750009B460E46FFF762FEA0BB404642F21007D2
:10176000B8F1020F18BF0420C4F20207B8F1010F4C
:1017700008BF404645424FF000080024C4F1200154
:10178000C9F81C802AFA04F00BFA01F13A68084300
:10179000B4F1200158BF2BFA01F042F00101396089
:1017A00026F8020B4CF25030FFF738FE396801354D
:1017B00021F0010248F100013A6018B9002904F152
:1017C0001004DBD0002189F8181001B0BDE8F08FBB
:1017D00042F20400C4F20200C16809065CBF0020A6
:1017E000704740F22311C4F26751016048F6AB1113
:1017F000CCF6EF510160C068C0B2C009704700006C
:101800002DE9F04F82B00E68002E00F0038141F206
:101810000042C4F20102042340F2004E904208BF8D
:1018200003234FF6FF7CC4F2010E00930024012332
:10183000C1F2100C4FF0000A4FF0000949E000BF60
:10184000012704F00C030F229A402BEA020207FA48
:1018500003F34FEA9A051A4346F82520D1F804B05D
:1018600040F20C455FEACB22DEF8082054BF22EAA2
:10187000080242EA0802C4F20105CEF808202A68EC
:101880005FEA8B2354BF22EA080242EA08022A6078
:101890005FEA8B33DEF8042054BF22EA080242EAF2
:1018A00008025FEACB33CEF80420DEF800204FF0C8
:1018B000010354BF22EA080242EA0802CEF80020DF
:1018C0000E680AF1010A36FA0AF204F1040400F083
:1018D000A18003FA0AF816EA080FF1D04E686645AF
:1018E00012DC122E56D8DFE806F0350B4549555567
:1018F00055555555555555555555554D510000BFE4
:10190000D1F80C9046E000BF4FF6FF72C1F2210201
:1019100096420FDC0022C1F2110296421AD0002238
:10192000C1F21202964215D00022C1F22102964263
:1019300010D02FE00022C1F2220296420AD00022EB
:10194000C1F23102964205D00022C1F23202964223
:1019500020D100BF8A684AB1012A14BFC0F81480A0
:10196000C0F810804FF0080914E000BF4FF00409E0
:1019700010E000BFCA6802F108090BE04FF000094F
:1019800008E000BFCA6802F1040903E0CA6802F176
:101990000C0900BF22460646BAF1080F24BF203AC0
:1019A000043637680F25954027EA050509FA02F243
:1019B0002A433260CA79D2067FF582AF41F218031A
:1019C000C4F202031A68AEF57E7642F001021A6094
:1019D0001A6802F001020192019A2AF0030256F8F5
:1019E00002B040F60002C4F20102904210D040F66C
:1019F0000042C4F2010290423FF422AF41F20002E1
:101A0000C4F20102009F904208BF022719E700BFFD
:101A1000002716E702B0BDE8F08F0000806808409C
:101A200018BF012070470000C26802EA0103914319
:101A300041EA034101617047002A08BF09040161BE
:101A40007047000040F20040C2F20000006870479A
:101A500040F2000040F20041C2F20000C2F2000178
:101A600000780A68104408607047000080B542F2B0
:101A70000000C4F20200016841F01001016003207F
:101A800000F08EF80F2000F005F800F027F8002095
:101A900080BD000070B540F20006C2F2000640F2C0
:101AA00008013278C2F200014FF47A730968B3FB7F
:101AB000F2F20446B1FBF2F1084600F063FB0F2C92
:101AC0004FF0010508D838B94FF0FF302146002209
:101AD000002500F039F87460284670BD82B041F2EC
:101AE0001800C4F202000168022241F00101016005
:101AF000016801F0010101910199416841F08051B3
:101B00004160406800F08050009000980420C4F2CA
:101B10000100016862F31A61016002B070470000C1
:101B2000002848BF7047C1B200F01F00012202FA2E
:101B300000F04EF20012CEF2000242EAD10121F092
:101B4000030108607047000010B54EF60C5CCEF241
:101B5000000CDCF80030C3F3022E8EF00704042CD6
:101B600028BF0424BEF103034FF0FF3E0EFA04F435
:101B700038BF0023A14399400EFA03F39A4311435F
:101B800000F00F0200F160430901043A03F56443D9
:101B90006244002848BF02F10C03197010BD000018
:101BA0004EF60C51CEF200010A684FF6FF031A40C0
:101BB00060F30A2242F0806040F0FD7008607047D8
:101BC0002DE9F04381B0002800F0858042F2000842
:101BD000C4F202080446D8F800000D4600F00700E1
:101BE00088420CD2D8F8000020F007002843C8F83B
:101BF0000000D8F8000000F00700A8426BD1206870
:101C000041F204098107C4F2020917D5410705D53D
:101C1000D9F8001041F4E061C9F80010010705D5BA
:101C2000D9F8001041F46051C9F80010D9F800103B
:101C3000A26821F0F0011143C9F80010C00741D19A
:101C4000D8F8000000F00700A8420CD9D8F800002E
:101C500020F007002843C8F80000D8F8000000F082
:101C60000700A84237D12068410707D5D9F80010EE
:101C7000E26821F4E0611143C9F80010000708D5BB
:101C8000D9F80000216920F4605040EAC100C9F889
:101C90000000D9F8002002F00C00082841F20020D2
:101CA000C0F27A0050D146F24A63C2F38341C0F6D3
:101CB0000003595CD2033BD440F60010C0F23D0053
:101CC000484341E0606802280AD001282AD159F827
:101CD000041C890308D4012001B0BDE8F08300BFD3
:101CE00059F8041C8901F6D5D9F8001021F0030138
:101CF0000843C9F80000FFF7A5FE064641F2883701
:101D0000D9F80000616800F00C00B0EB810F97D0AB
:101D1000FFF798FE801BB842F2D9032001B0BDE85E
:101D2000F08300BF59F8041C8907D4D5DCE700BF55
:101D3000D9F8002046F24863C2F34042C0F60003DF
:101D40009A5C4843B0FBF2F0D9F8001046F23062DA
:101D5000C1F30311C0F60002515C40F2080220FA00
:101D600001F140F20400C2F200000068C2F2000279
:101D70001160FFF78FFE002001B0BDE8F083000086
:101D800040F2080041F20401C2F20000C4F2020174
:101D90000068096846F24062C1F30221C0F6000201
:101DA000515CC8407047000040F2080041F2040155
:101DB000C2F20000C4F202010068096846F2406203
:101DC000C1F3C221C0F60002515CC8407047000058
:101DD0002DE9F04182B0002868D00446007841F235
:101DE0000006C007C4F2020625D0706800F00C009F
:101DF00004281BD0706800F00C00082802D170681D
:101E0000C00313D46068002800F06881B0F5A02FEB
:101E100000F07C81B0F5803F00F07C81306820F4D8
:101E200080303060306820F4802076E130688003B4
:101E300001D56068D0B32078800718D5706810F09D
:101E40000C0F07D0706800F00C0008286ED1706885
:101E5000C0036BD43068800702D52069012825D1E2
:101E60003068616920F0F80040EAC10030602078F5
:101E700000071FD42078400732D4E56995B1706817
:101E800000F00C00082840F08F80012D0ED0706803
:101E9000216A00F480328A4208D1616A00F470102D
:101EA000884203D1002002B0BDE8F081012002B0D9
:101EB000BDE8F081A069002862D00020C4F2422071
:101EC0000121C0F88014FFF7BDFD0546706A800748
:101ED00000F18C80FFF7B6FD401B0228F6D92AE1FD
:101EE000F06910F0805808D1F06940F08050F0613E
:101EF000F06900F080500090009847F20007C4F2AB
:101F000000073868C00529D4386840F4807038600C
:101F1000FFF798FD054600BF3868C0051ED4FFF7DF
:101F200091FD401B6428F7D905E100BF2069002816
:101F300040F20000C4F2422000F0828001210160E2
:101F4000FFF780FD054600BF306880073FF588AF8A
:101F5000FFF778FD401B0228F6D9ECE0E068002886
:101F600000F08080052800F09780012800F098801C
:101F7000306A20F001003062306A20F0040092E004
:101F80000020C4F242200021C0F88014FFF75AFD5F
:101F9000054600BF706A80077FF56CAFFFF752FD02
:101FA000401B0228F6D9C6E00027C4F242270020D1
:101FB0003866FFF747FD022D05460BD130688001DA
:101FC00040F1BE80FFF73EFD401B02284FF00300AA
:101FD000F4D968E7306880017FF564AFFFF732FD20
:101FE000401B02284FF00300F4D95CE740F20800E0
:101FF000C2F20000006844F6D351C1F26201A0FBB6
:102000000101480A019000BF00BF0198411E00284D
:1020100001913FF42FAF00BF0198411E00280191AC
:102020003FF428AF00BF0198411E002801913FF402
:1020300021AF00BF0198411E00280191E4D119E7AA
:1020400000210160FFF7FEFC054600BF30688007F5
:102050007FF50DAFFFF7F6FC401B02284FF00300A1
:10206000F4D920E7306A20F001003062306A20F0B5
:1020700004003062FFF7E6FC054641F2883700BFF6
:10208000306A800720D5FFF7DDFC401BB8424FF0D7
:102090000300F5D907E700BF306A40F00400306262
:1020A000306A40F001003062FFF7CCFC054641F297
:1020B000883700BF306A800706D4FFF7C3FC401B97
:1020C000B842F7D937E000BFB8F1000F7FF4D5AEC2
:1020D000F06920F08050F061CFE600BF306820F456
:1020E00080303060306820F480203060FFF7AAFC38
:1020F000054600BF306880037FF59DAEFFF7A2FC68
:10210000401B64284FF00300F4D9CCE6306840F45B
:1021100080203060306840F480303060FFF792FCFF
:10212000054600BF306880033FF585AEFFF78AFCA7
:10213000401B6428F6D9032002B0BDE8F08100BF3F
:10214000206AB0F5803F05D17168A26821F40031A2
:10215000114371607168626A21F47411114308437C
:10216000706001203866FFF76DFC0446306880011E
:102170003FF598AEFFF766FC001B02284FF0030006
:10218000F4D990E6411E0020B0EB116F1CBF012076
:1021900070474EF21002CEF2000251604EF623510B
:1021A000CEF20001F0230B700721906011607047A0
:1021B0007047000070470000B0B582B00446006868
:1021C0000168C368426901F02F05202D03F0200546
:1021D00006D12DB1204602B0BDE8B04000F0C4BD2C
:1021E0005FEA017C1EBF02F0010E03F4907212EB55
:1021F0000E0253D1226B012A05D111F0100218BF33
:1022000013F0100236D10A0622D513F080021FD037
:1022100094F8411021293FD1A168B1F5805F03D125
:102220002169002900F07082216A4A1C2262097823
:102230004160E18C01390A04E1842DD1C16821F0AB
:102240008001C160C16841F04001C16002B0B0BD11
:10225000490621D513F040011ED0C16821F040018C
:10226000C1602021204684F8411002B0BDE8B04092
:1022700000F066BC00210191016801914168019163
:1022800001994069400613D4A08DE18DE28D002AAA
:1022900018BF884240F0BA8102B0B0BDCA0718BF6B
:1022A00013F4807240F0B6804A0700F1B980BEE0B6
:1022B000E06B016849688AB2002AEDD0A38D9A428A
:1022C000EAD2E1858069202800F09C80206850E8EF
:1022D000030F216820F4807041E80302DAB120681E
:1022E00050E8030F216820F4807041E8030292B1A6
:1022F000206850E8030F216820F4807041E8030251
:102300004AB1206850E8030F216820F4807041E84A
:102310000302002ADAD1206850E8050F216820F076
:10232000010041E80502DAB1206850E8050F216894
:1023300020F0010041E8050292B1206850E8050F45
:10234000216820F0010041E805024AB1206850E808
:10235000050F216820F0010041E80502002ADAD1CA
:10236000206850E8050F216820F0400041E8050290
:10237000DAB1206850E8050F216820F0400041E8FC
:10238000050292B1206850E8050F216820F0400056
:1023900041E805024AB1206850E8050F216820F0A5
:1023A000400041E80502002ADAD1202084F84200EA
:1023B00000202063206850E8030F216820F01000FF
:1023C00041E80302DAB1206850E8030F216820F0E9
:1023D000100041E8030292B1206850E8030F216821
:1023E00020F0100041E803024AB1206850E8030FD2
:1023F000216820F0100041E80302002ADAD1E06BE6
:10240000FFF77CF802206063A08DE18D401A81B255
:10241000204674E1626C42F0010262644A0706D50C
:10242000BEF1000F03D0626C42F0020262648A07C0
:1024300006D5BEF1000F03D0626C42F00402626464
:10244000BCF1000F09D545EA0E02B2FA82F2520938
:1024500003D1626C42F008026264626C002A3FF4AD
:102460001BAF11F0200118BF002D03D0204600F053
:102470007BFC20684069616C00F0400001F00801BD
:10248000401800F0B58000BF206850E8030F2168B5
:1024900020F4907041E80302BAB3206850E8030FBB
:1024A000216820F4907041E8030272B3206850E87C
:1024B000030F216820F4907041E803022AB32068DA
:1024C00050E8030F216820F4907041E80302002ACD
:1024D000DAD11AE0206850E8050F216820F00100E9
:1024E00041E80502DAB1206850E8050F216820F0C4
:1024F000010041E8050292B1206850E8050F21680B
:1025000020F0010041E805024AB1206850E8050FBB
:10251000216820F0010041E80502002ADAD1206B91
:10252000012824D1206850E8030F216820F0100012
:1025300041E80302DAB1206850E8030F216820F077
:10254000100041E8030292B1206850E8030F2168AF
:1025500020F0100041E803024AB1206850E8030F60
:10256000216820F0100041E80302002ADAD120207F
:1025700084F84200002020632068406940063FD56F
:10258000206850E8050F216820F0400041E805026E
:10259000DAB1206850E8050F216820F0400041E8DA
:1025A000050292B1206850E8050F216820F0400034
:1025B00041E805024AB1206850E8050F216820F083
:1025C000400041E80502002ADAD1E06BC0B142F6D2
:1025D0005D51C0F600014163FEF7B4FF00283FF4EF
:1025E0005BAEE06B416B02B0BDE8B040084700BF96
:1025F0002046FFF7DFFD0020606402B0B0BD00BFE1
:10260000204602B0BDE8B040FFF7D4BD401A2168B3
:1026100051E8031F226821F4907142E80313DBB1F3
:10262000216851E8031F226821F4907142E80313E6
:1026300093B1216851E8031F226821F4907142E8A8
:1026400003134BB1216851E8031F226821F49071F4
:1026500042E80313002BDAD1216851E8051F2268F4
:1026600021F0010142E80513DBB1216851E8051FA3
:10267000226821F0010142E8051393B1216851E875
:10268000051F226821F0010142E805134BB12168C2
:1026900051E8051F226821F0010142E80513002BD3
:1026A000DAD1202184F8421000212163216851E809
:1026B000031F226821F0100142E80313DBB12168F7
:1026C00051E8031F226821F0100142E8031393B17F
:1026D000216851E8031F226821F0100142E803132A
:1026E0004BB1216851E8031F226821F0100142E834
:1026F0000313002BDAD1022281B22046626302B0BA
:10270000BDE8B040FFF754BD216A31F8022B6FF3EA
:102710005F22426021628CE5002804BF01207047DF
:1027200010B5044690F8410028B9002084F8400014
:10273000204600F063F8242084F841002068D4E9A2
:102740000212C36823F40053C360036923F44053A7
:102750001A430261D4E904231143C268194341F2C8
:102760000C639A431143C1604169A26921F440712D
:10277000114343F60002C4F201029042416103D0CA
:10278000FFF7FEFA02E000BFFFF70EFB62681921B7
:1027900048439100B0FBF1F048F21F51C5F2EB1134
:1027A000A0FB01235A094FF69C73C0F6FF7302FB8E
:1027B0000300322303EB0010A0FB0101F02303EA26
:1027C0005113206803EB0212C1F3431111448160DD
:1027D000016921F490410161416921F02A014161BF
:1027E000C16841F40051C16000202021606484F878
:1027F000411084F84210606310BD000070B586B0CF
:10280000006844F20041C4F20001002688420596A7
:10281000CDE9036602963FD044F60001C4F2000100
:10282000884271D043F60001C4F20101884240F0B1
:102830009D8041F21800C4F20200016840F60004D5
:1028400041F4804101600168C4F2010401F4804157
:1028500001910199016802AD41F004010160006835
:10286000294600F00400019001984FF40070029096
:1028700002200390032005902046FEF7C1FF4FF48D
:10288000806002900020CDE9030020462946FEF733
:10289000B7FF06B070BD00BF41F21800C4F20200DD
:1028A000416840F6000441F4003141604168C4F2DF
:1028B000010401F4003101910199016802AD41F078
:1028C000040101600068294600F0040001900198AD
:1028D0000420029002200390032005902046FEF77A
:1028E0008FFF0820CDE90206204629460496FEF710
:1028F00087FF262000210022FFF726F92620FFF778
:102900000FF906B070BD00BF41F21800C4F202001A
:10291000416802AD41F480214160416801F48021A9
:1029200001910199016841F00801016000682946A0
:1029300000F00800019001984FF48060029002209E
:1029400003900320059040F60000C4F2010000F55A
:1029500080642046FEF754FF4FF400600290002090
:10296000CDE9030020462946FEF74AFF06B070BDB8
:1029700090F84230202B1CBF0220704700294FF0F6
:10298000010318BF002A01D11846704700230363D2
:10299000816222218285C285436480F842100169E8
:1029A000006819B1C16841F48071C16041690023B8
:1029B00041F001014161C16841F02001C160184648
:1029C0007047000001F0EABF2DE9F041044690F89D
:1029D000410020281CBF0220BDE8F0810D460029DF
:1029E0004FF0010000F0AA801646002A08BFBDE89B
:1029F000F081002060642120984684F84100FFF7B0
:102A000021F8A684E684A1680646B1F5805F02D16C
:102A10002069002862D02F460025E08C002861D074
:102A200018F1010018D0B8F1000F37D1216808E083
:102A300017F8010B4860E08C0138E084E08C002836
:102A400051D00868000673D5002FF1D135F8020B7C
:102A500000276FF35F20EDE7216802E008680006B9
:102A600009D40868000606D4086800065CBF086838
:102A70005FEA0060F2D51FB117F8010B05E000BF57
:102A800035F8020B00276FF35F204860E08C0138B7
:102A9000E084E08C0028E4D125E000BF216800BF7D
:102AA0000868000608D4FEF7CDFF801B404541D8DA
:102AB0002168C868F4E700BF17B117F8010B04E0FC
:102AC00035F8020B00276FF35F204860E08C013877
:102AD000E084E08C0028E3D105E000BF0027E08C13
:102AE00000289DD12168086840061FD4B8F1000F66
:102AF0001ED018F101000FD10868400616D40868EE
:102B0000400613D40868400610D4086840064FF009
:102B10000000F1D50FE000BFFEF794FF801B404599
:102B200008D82068C16800684006F5D5002002E09A
:102B3000FEF788FF0320202184F84110BDE8F081D2
:102B400070470000FEE700002DE9F04F85B041F22C
:102B50001800C4F20200016840F6000541F01001BF
:102B600001600168C4F2010501F0100101910199B1
:102B7000016805F5006741F020010160016801224C
:102B800001F020010191019901684FF4005641F0D4
:102B90000401016001684FF0010801F00401019196
:102BA0000199016841F00801016000684FF400518B
:102BB00000F00800019001983846FEF73DFF2846D6
:102BC000102100224FF00009FEF736FF2846A02111
:102BD00000224FF0A00BFEF72FFF05F58064204682
:102BE0004CF221310022FEF727FF20464FF44351DB
:102BF0000122FEF721FF01A880E8400301AE4FF05B
:102C0000020A38463146CDF810A0FEF7F9FD2846F5
:102C10003146CDE90189CDF80C80FEF7F1FD102099
:102C200001A981E8010728463146FEF7E9FD03279F
:102C300028463146CDE901B8CDF80C900497FEF74F
:102C4000DFFD4020CDE9010928463146CDF80C9042
:102C5000FEF7D6FD4FF2213001A981E80107204699
:102C60003146FEF7CDFDC02001901120CDE90208CC
:102C7000204631460497FEF7C3FD20463146CDE994
:102C800001A9CDF80C80FEF7BBFD05B0BDE8F08FC3
:102C900080B540F2801043F60001C2F20000C4F299
:102CA000010100234FF00C0C4FF4E13280E80E00DC
:102CB000C0E90333C0E905C3C361FFF72DFD002858
:102CC00008BF80BDBDE88040FEF7A2BB80B540F2E2
:102CD000C81044F20041C2F20000C4F20001002317
:102CE0004FF00C0C4FF4E13280E80E00C0E90333E2
:102CF000C0E905C3C361FFF70FFD002808BF80BD11
:102D0000BDE88040FEF784BB80B540F2102044F659
:102D10000001C2F20000C4F2000100234FF00C0CCD
:102D20004FF4E13280E80E00C0E90333C0E905C387
:102D3000C361FFF7F1FC002808BF80BDBDE88040FB
:102D4000FEF766BBFEE70000FEE7000070470000EC
:102D500070470000FEF77CBE70470000406A00210B
:102D6000C185C184FFF726BA81B090F842102229AC
:102D700021D183680246B3F5805F09D152F8281F3C
:102D800052F8183C002B63D003685B680AE000BF70
:102D900052F8281F13B90369002BF5D003685B684C
:102DA00003F07F030B70116801311160C18D01398F
:102DB0000A04C18502D001B0704700BF0168CA682B
:102DC00022F02002CA60CA6822F48072CA604A698E
:102DD00022F001024A61202180F842100021416363
:102DE000026B012A3CD10163016851E8031F0268AC
:102DF00021F0100142E80313DBB1016851E8031F21
:102E0000026821F0100142E8031393B1016851E810
:102E1000031F026821F0100142E803134BB101685F
:102E200051E8031F026821F0100142E80313002B50
:102E3000DAD101680A68D20606D5002200920A6833
:102E40000092496800910099818D01B0FFF7B0B9F7
:102E5000026852686FF35F2221F8022B8162A5E7B6
:102E600001B0FFF7AFBD000040F2C810C2F2000091
:102E7000FFF7A2B9FEE70000B0B582B040F600044B
:102E800040F29C05C4F20104C2F2000504F50061A1
:102E900028464FF40052002301F0FEFA4FF0140CC4
:102EA00005F11400214601220023CDF800C000F0F6
:102EB00027F905F1280021461022012302B0BDE8C0
:102EC000B04000F0A3B9000010B540F29C04C2F27B
:102ED0000004204601F01AFB04F1140000F02AF966
:102EE00004F12800BDE8104000F0CCB9F0B581B085
:102EF00040F600440546C4F201040026002704E021
:102F00006D00072F07F1010766D2E8B2C20920461B
:102F10008021FEF791FD204640210122FEF78CFD25
:102F20008DF801609DF801001D2823D89DF801004F
:102F300001308DF801009DF801001D281AD89DF878
:102F4000010001308DF801009DF801001D2811D805
:102F50009DF8010001308DF801009DF801001D2849
:102F600008D89DF8010001308DF801009DF801009E
:102F70001E28DBD3204640210022FEF75DFD8DF8A0
:102F800002609DF802001D28BAD800BF9DF802001B
:102F900001308DF802009DF802001D28B0D89DF880
:102FA000020001308DF802009DF802001D28A7D80C
:102FB0009DF8020001308DF802009DF802001D28E6
:102FC0009ED89DF8020001308DF802009DF80200A5
:102FD0001E28DBD394E700BF204680210122FEF7A4
:102FE0002BFD204640210122FEF726FD00208DF812
:102FF00003009DF803001D2824D800BF9DF803009E
:1030000001308DF803009DF803001D281AD89DF8A3
:10301000030001308DF803009DF803001D2811D82E
:103020009DF8030001308DF803009DF803001D2872
:1030300008D89DF8030001308DF803009DF80300C7
:103040001E28DBD320464021002201B0BDE8F0401D
:10305000FEF7F2BC40F25820C2F200000068704750
:10306000F0B585B04FF60045C0F6000528686968E0
:1030700001264A1C531C144608BF01248A4244F20C
:103080004321C4F6543138BF3446884240F25820B8
:10309000C2F200004FF0000718BF0124046002973D
:1030A0000097FEF795FB01A869460197CDE9035605
:1030B000FEF7B6FA20B1FEF72BFB05B0F0BD00BF5E
:1030C00044F24322C4F65432022029460023FEF77C
:1030D00029FB0028EFD1291D022022460023FEF7FC
:1030E00021FBFEF715FB05B0F0BD000001460028EE
:1030F0004FF0000008BF70474A7A48721046704788
:10310000002808BF7047DDF800C001600021828000
:103110008371BCF1000F08BF4FF0140CA0F807102A
:103120004172C0E9031C7047002814BFC079002019
:1031300070470000F0B581B0F0B104460068A18886
:10314000FEF76CFCA7790546C01BB0FA80F0460973
:1031500002F06CF8217AB14210D1D4E9030102F0F7
:1031600067F848B1E079B04206D0012803D1BD42EA
:103170001CBF01206072E67101B0F0BD2672E060F4
:1031800001B0F0BD002808BF7047B0B50125044666
:10319000002908BF642105720020C4E9031002F071
:1031A00045F860612068A188A279E571BDE8B0406A
:1031B000FEF742BC002808BF7047B0B500294FF0A9
:1031C0000105044608BF6421002A08BF4FF4C872F5
:1031D0000572C0E9031202F029F860612068A18835
:1031E000A279E571BDE8B040FEF726BC002808BF13
:1031F0007047034680799988B0FA80F042091868D0
:103200004FF0000CA3F807C0FEF716BC002808BF5B
:10321000704710B54FF0000E8446016082808371C4
:10322000A0F807E064204FF4C874CCE90304B3FAB3
:1032300083F04309084611461A46CCF814E0BDE86D
:103240001040FEF7F9BB0000002808BF7047034696
:1032500080799988B0FA80F0420918684FF0000C24
:10326000A3F807C0FEF7E8BB002808BF7047034675
:10327000006899889A794FF0010CA3F807C0FEF70F
:10328000DBBB0000B0B5D0B30446007AB8B301F0A0
:10329000CDFF2169A1B1E2790546606912B3E16809
:1032A00001F0C6FF58B3A1790020E071B1FA81F2B4
:1032B0002068A1885209FEF7BFFB6561B0BD00BF61
:1032C000E168606901F0B4FFC8B1A0790023B0FAE9
:1032D00080F042092068A188A4F80730BDE8B0401A
:1032E000FEF7AABB01F0A4FF002808BFB0BD20680C
:1032F000A188A2790123E371FEF79EFB6561B0BD51
:10330000B0B584B0421E8F2A8C4600F2A181DFE85E
:1033100012F091009F00B100C300D100E300F7005C
:1033200009012B013D014F01630177018D019F01CF
:103330009F019F019F019F019F019F019F019F018D
:103340009F019F019F019F019F019F019F019F017D
:10335000B101BF01E301030211021F029F019F019E
:103360009F019F019F019F019F019F019F019F015D
:103370002D023B029F019F019F019F019F019F0121
:103380009F019F019F019F019F019F019F019F013D
:10339000490255029F019F019F019F019F019F01CB
:1033A0009F019F019F019F019F019F019F019F011D
:1033B00065029F019F019F019F019F019F019F0146
:1033C0009F019F019F019F019F019F019F019F01FD
:1033D000730281029F019F019F019F019F019F0135
:1033E0009F019F019F019F019F019F019F019F01DD
:1033F0008F029D02A9029F019F019F019F019F01D2
:103400009F019F019F019F019F019F019F019F01BC
:10341000B5029F019F019F019F019F019F019F0195
:103420009F019F019F019F019F019F019F019F019C
:10343000C10200BF46F61E23C0F600030120002192
:10344000002201F093F804B0BDE8B04000F08ABA61
:1034500046F6DB03C0F6000301200021002201F044
:1034600085F840F29C00C2F2000004B0BDE8B04014
:1034700001F03EB846F6BE03C0F60003012000216D
:10348000002201F073F840F29C00C2F2000004B088
:10349000BDE8B04001F01CB846F61233C0F6000398
:1034A00001200021002201F061F804B0BDE8B04025
:1034B00000F0D6BC46F65113C0F6000301200021EF
:1034C000002201F053F840F29C00C2F2000004B068
:1034D000BDE8B04001F036B846F64A03C0F6000336
:1034E00001200021002201F041F840F29C00C2F2CC
:1034F00000004FF4FA7104B0BDE8B04000F0AEBF78
:1035000046F63523C0F6000301200021002201F019
:103510002DF840F29C00C2F2000004B0BDE8B040BB
:1035200000F0AEBF46F6EE13C0F600030120002106
:10353000002201F01BF840F2B004C2F20004204661
:10354000FFF7F2FD05462046FFF7D0FD044646F69C
:103550003D330095C0F600030120002100220194B4
:1035600001F004F804B0B0BD46F6E703C0F600036E
:1035700001200021002200F0F9FF40F2C400C2F255
:10358000000004B0BDE8B040FFF76EBE46F6CB03C6
:10359000C0F6000301200021002200F0E7FF40F206
:1035A000C400C2F2000004B0BDE8B040FFF74CBE5A
:1035B00046F6A823C0F6000301200021002200F0F7
:1035C000D5FF40F2C400C2F20000322104B0BDE8D1
:1035D000B040FFF7D7BD00BF46F69123C0F6000309
:1035E00001200021002200F0C1FF40F2C400C2F21D
:1035F0000000C82104B0BDE8B040FFF7C3BD00BF64
:1036000046F62403C0F6000301200021002200F04A
:10361000ADFF40F2C400C2F2000064214FF4C87252
:1036200004B0BDE8B040FFF7C5BD00BF46F6492372
:10363000C0F6000301200021002200F097FF40F2B5
:10364000C400C2F2000004B0BDE8B040FFF7CEBD38
:1036500046F61E1146F6F6030090C0F60001C0F6CD
:1036600000030220EA22CDF804C000F07FFF04B07E
:10367000B0BD00BF46F6BE23C0F600030120002106
:10368000002200F073FF04B0BDE8B04000F044BD7C
:1036900046F66703C0F6000301200021002200F077
:1036A00065FF40F29C04C2F20004204600F04AFF8D
:1036B000204600F0EBFEA1A1A1A546F6602300285C
:1036C00008BF0D46C0F6000301200021002200952E
:1036D00000F04CFF04B0B0BD46F68203C0F6000314
:1036E00001200021002200F041FF46F61E1146F69F
:1036F0009D13C0F60001C0F600030220972200F0DF
:1037000035FF40F2C400C2F20000502104B0BDE811
:10371000B040FFF737BD00BF46F6D313C0F6000335
:1037200001200021002200F021FF04B0BDE8B040DC
:1037300000F048BE46F67B23C0F6000301200021BE
:10374000002200F013FF04B0BDE8B04000F0FCBD63
:1037500046F6F723C0F6000301200021002200F006
:1037600005FF04B0BDE8B04000F058BC46F60523A4
:10377000C0F6000301200021002200F0F7FE04B093
:10378000BDE8B04000F0ACBD46F6E123C0F6000352
:1037900001200021002200F0E9FE04B0BDE8B040A5
:1037A00000F092BD5FA301200021002200F0DEFEA8
:1037B00004B0BDE8B04001F01DBA00BF46F6A50355
:1037C000C0F6000301200021002200F0CFFE0DF121
:1037D0000B0001F0EDFA04B0B0BD00BF46F6243393
:1037E000C0F6000301200021002200F0BFFE04B05B
:1037F000BDE8B04000F082BF46F66113C0F600039A
:1038000001200021002200F0B1FE04B0BDE8B0406C
:1038100000F088B946F67C13C0F6000301200021B1
:10382000002200F0A3FE04B0BDE8B04000F0E6B90D
:1038300046F63713C0F6000301200021002200F0F5
:1038400095FE04B0BDE8B04001F0D4BB2EA301202A
:103850000021002200F08AFE04B0BDE8B04001F073
:10386000F7BB00BF22A301200021002200F07EFE52
:1038700004B0BDE8B04001F019BC00BF14A30120A2
:103880000021002200F072FE04B0BDE8B04001F05B
:10389000DBBC00BF05A301200021002200F066FE72
:1038A00004B0BDE8B04000F09FBA00BF434D4420D3
:1038B000307839303A2055534152543320455350D3
:1038C0003332533320746573742054580000000061
:1038D000434D4420307838303A20555341525431CA
:1038E000205A6967426565207465737420545800D6
:1038F000434D4420307837323A20537465707065F8
:10390000722073746F700000434D4420307837315B
:103910003A205374657070657220726576657273B3
:1039200065000000434D4420307834303A20524343
:1039300035323220696E6974000000004F4646003F
:103940004F4E00007047000080B501F0BFF843F211
:103950000130C0F6000001F047F9BDE88040FFF7F4
:10396000F1BF000010B582B046F21370C0F600003F
:1039700001F062F840F25C24C2F2000446F23872B0
:1039800046F28373C0F60002C0F600032046802191
:10399000FCF78EFC204601F04FF846F2477246F2E3
:1039A0006873C0F60002C0F6000320468021FCF7D1
:1039B0007FFC204601F040F846F2297246F27E7301
:1039C000C0F60002C0F6000320468021FCF770FC20
:1039D000204601F031F846F256720FF2740CC0F630
:1039E00000021EA320468021CDF800C0FCF760FC39
:1039F000204601F021F81CA21FA320468021FCF7DD
:103A000057FC204601F018F81DA221A32046802172
:103A1000FCF74EFC204601F00FF8FFF71BFB0346B6
:103A20001FA220468021FCF743FC204601F004F849
:103A30001FA2204680214FF4E133FCF739FC2046D9
:103A400000F0FAFF24A002B0BDE8104000F0F4BF7F
:103A500031373A35383A3231000000004170722077
:103A60003238203230323600417574686F7220204F
:103A70003A2025730D0A00004B656E746F0000003C
:103A800053747564656E74203A2025730D0A000026
:103A9000544F444F5F53545544454E545F4944007E
:103AA000426F6F74202020203A20256C750D0A008B
:103AB00044656275672020203A20555341525432A4
:103AC0002025642C20464620434D44204441544147
:103AD0002046460D0A0000003D3D3D3D3D3D3D3D3B
:103AE0003D3D3D3D3D3D3D3D3D3D3D0D0A00000020
:103AF000B0B582B0FDF7A6FF044600F0B1FF0DF1AE
:103B0000070000F075FF58B90DF107059DF8070093
:103B1000214600F0E9FF284600F06AFF0028F5D0B2
:103B200002B0B0BD2DE9F04186B0802001F04CFF1D
:103B3000C0F3021101EB810100F00F0000EB41081E
:103B4000822001F041FF010901EB810100F00F002B
:103B500000EB4105842001F037FFC0F3011141EA79
:103B6000810100F00F0000EB4106862001F02CFFE0
:103B7000010901EB810100F00F0000EB41078820F3
:103B800001F022FF010901EB810100F00F0000EBC1
:103B900041048C2001F018FF010901EB810100F0C4
:103BA0000F0000EB4100C0B2E1B2FAB2EBB28DE817
:103BB0004700049305A3012000210022CDF81480C2
:103BC00000F0D4FC06B0BDE8F08100BF44533133AF
:103BD00030322074696D653A203230253032752DCF
:103BE000253032752D2530327520253032753A2535
:103BF0003032753A253032750000000010B540F6BD
:103C00000044C4F20104204620210022FDF714FFE5
:103C1000204601210022FDF70FFF2046202101222E
:103C2000FDF70AFF8E2001F0EBFF002001F0E8FF16
:103C3000204620210022FDF7FFFE20462021002201
:103C4000FDF7FAFE204601210022FDF7F5FE204691
:103C500020210122FDF7F0FE802001F0D1FF00209D
:103C600001F0CEFF204620210022FDF7E5FE204690
:103C700020210022FDF7E0FE204601210022FDF771
:103C8000DBFE204620210122FDF7D6FE822001F036
:103C9000B7FF342001F0B4FF204620210022FDF7B9
:103CA000CBFE204620210022FDF7C6FE2046012142
:103CB0000022FDF7C1FE204620210122FDF7BCFEB7
:103CC000842001F09DFF122001F09AFF2046202160
:103CD0000022FDF7B1FE204620210022FDF7ACFEB8
:103CE000204601210022FDF7A7FE204620210122C7
:103CF000FDF7A2FE862001F083FF282001F080FF5F
:103D0000204620210022FDF797FE20462021002298
:103D1000FDF792FE204601210022FDF78DFE204690
:103D200020210122FDF788FE882001F069FF042090
:103D300001F066FF204620210022FDF77DFE20468F
:103D400020210022FDF778FE204601210022FDF708
:103D500073FE204620210122FDF76EFE8C2001F02B
:103D60004FFF262001F04CFF204620210022FDF7C6
:103D700063FE204620210022FDF75EFE2046012141
:103D80000022FDF759FE204620210122FDF754FEB6
:103D90008E2001F035FF802001F032FF20462021E7
:103DA0000022FDF749FE04A3012000210022BDE806
:103DB000104000F0DBBB00BF44533133303220747D
:103DC0006573742074696D65207772697474656EAB
:103DD0003A20323032362D30342D32382031323ADA
:103DE00033343A303000000080B582B040F2102009
:103DF000C2F200000CA119226423FEF7E5FD46F68D
:103E0000D67146F6D97CC0F60001C0F6000C002839
:103E100008BF8C460BA3012000210022CDF800C072
:103E200000F0A4FB02B080BD53544D33325F4D41CE
:103E3000494E5F455350333253335F544553540D0D
:103E40000A00000055534152543320455350333239
:103E5000533320746573742054583A20257300003E
:103E6000B0B592B046F65043C0F6000301200021E1
:103E7000002200F07BFB40F29C00C2F2000000F048
:103E800005FB40A140A546F60B73002808BF0D4670
:103E9000C0F60003012000210022009500F066FB1F
:103EA00046F6B843C0F6000301200021002200F0CE
:103EB0005DFBFDF7C7FD44F6D351C1F26201A0FBE3
:103EC000010146F6F4638D09C0F6000301200021CC
:103ED0000022009500F04AFB2FA046F640732BA568
:103EE0000090C0F60003012000210022019500F09F
:103EF0003DFB00F04BFD02AC03462AA220464021C8
:103F0000FCF7D6F946F65475C0F6000501200021ED
:103F100000222B46009400F029FB00F063FD0346CD
:103F200025A220464021FCF7C3F9012000210022F0
:103F30002B46009400F01AFB00F0C2FD034624A2B9
:103F400020464021FCF7B4F90120002100222B4635
:103F5000009400F00BFB00F0ADFD034622A22046CA
:103F60004021FCF7A5F90120002100222B460094F6
:103F700000F0FCFA22A301200021002200F0F6FA52
:103F800012B0B0BD4F4646004F4E000031373A35B3
:103F9000383A32330000000041707220323820324B
:103FA0003032360052582072696E6720617661693E
:103FB0006C20203A202575005258206F7665726675
:103FC0006C6F77202020203A20256C7500000000BF
:103FD00054696D656F75742064726F707320203A38
:103FE00020256C75000000004572726F72206472AB
:103FF0006F7073202020203A20256C75000000008F
:104000003D3D3D3D3D3D3D3D3D3D3D3D3D3D3D3DE0
:104010003D3D3D3D3D3D3D3D3D3D3D0080B546F690
:104020008873C0F6000301200021002200F09EFAF0
:1040300046F60943C0F6000301200021002200F0EB
:1040400095FA46F6B533C0F60003012000210022A0
:1040500000F08CFA46F65773C0F6000301200021E9
:10406000002200F083FA46F68C43C0F600030120DC
:104070000021002200F07AFA46F6CC53C0F6000385
:1040800001200021002200F071FA08A30120002184
:10409000002200F06BFA46F60251C0F6000110A3B0
:1040A00002204422BDE8804000F060BA4750494FEA
:1040B00020537465707065723A205042382F504218
:1040C000392F504231342F50423135206F75747082
:1040D0007574732064656661756C74204C4F57006D
:1040E000536561742073656E736F72204750494F3A
:1040F0003A2070696E73206E6F7420636F6E66690C
:10410000726D65643B206E6F7420696E69746961BD
:104110006C697A6564000000B0B582B046F66C4305
:10412000C0F6000301200021002200F01FFA42A384
:1041300001200021002200F019FA46F64353C0F690
:10414000000301200021002200F010FA46F67E5301
:10415000C0F6000301200021002200F007FA46F615
:104160006063C0F6000301200021002200F0FEF988
:1041700046F60255C0F6000546F6AA63C0F60003EF
:10418000022029464F2200F0F1F946F6D843C0F646
:10419000000301200021002200F0E8F92CA30120F7
:1041A0000021002200F0E2F930A3012000210022CA
:1041B00000F0DCF934A301200021002200F0D6F940
:1041C00046F69C3446F61F73C0F60004C0F60003A2
:1041D000012000210022009400F0C8F946F6FC54AA
:1041E00046F62A73C0F60004C0F600030120002141
:1041F0000022009400F0BAF946F6823446F6357390
:10420000C0F60004C0F60003012000210022009443
:1042100000F0ACF946F62863C0F6000302202946F8
:10422000192200F0A3F920A301200021002202B0EE
:10423000BDE8B04000F09AB94D43552020203A2007
:1042400053544D3332463130334338543600000036
:104250004F4C4544203A205042362F50423720736D
:104260006F6674776172652049324300445331337D
:1042700030323A205042302F5042312F50423520B8
:104280004750494F00000000537465707065723AE2
:10429000205042382F5042392F504231342F504253
:1042A0003135204750494F003D3D3D3D3D3D3D3D71
:1042B0003D3D3D3D3D3D3D3D3D3D3D3D3D3D3D3D2E
:1042C0003D3D3D3D3D3D3D0046F6025146F6235302
:1042D000C0F60001C0F600030220902200F046B9AB
:1042E00080B546F6025146F62353C0F60001C0F6EB
:1042F000000302207D2200F039F904A301200021EF
:104300000022BDE8804000F031B900BF5365742041
:104310004150505F534541545F53454E534F525F98
:1043200050494E535F434F4E4649524D45443D31EF
:1043300020616674657220776972696E6720636FA9
:104340006E6669726D65640080B582B046F69C3C0D
:1043500046F61F73C0F6000CC0F6000301200021D2
:104360000022CDF800C000F001F946F6FC5C46F6EC
:104370002A73C0F6000CC0F60003012000210022C1
:10438000CDF800C000F0F2F846F6823C46F63573F0
:10439000C0F6000CC0F60003012000210022CDF879
:1043A00000C000F0E3F846F6025146F62863C0F676
:1043B0000001C0F600030220192202B0BDE88040CF
:1043C00000F0D4B880B582B040F60000C4F201001D
:1043D0000121FDF723FB0FA10FF2400C012808BFBC
:1043E0008C460FA3012000210022CDF800C000F070
:1043F000BDF840F2B000C2F20000FEF795FE844620
:104400000EA3012000210022CDF800C000F0AEF87C
:1044100002B080BD48494748000000004C4F57009B
:10442000427574746F6E2050413020726177206C39
:104430006576656C3A20257300000000427574743F
:104440006F6E20504130206C6F676963616C207023
:104450007265737365643A2025750000002808BFF3
:10446000704710B504460120002908BF4FF4FA71C7
:104470002072E16000F0DAFE2061BDE81040704774
:1044800000281CBF0021017270470000002814BFE3
:10449000C079002070470000002808BF704780B531
:1044A0004FF0000E8446016082808371A0F807E01F
:1044B0004FF4FA70CCF80C00B3FA83F043090846C5
:1044C00011461A46CCF810E0BDE88040FDF7B4BABA
:1044D000002808BF7047034680799988B0FA80F0B9
:1044E000420918684FF0000CA3F807C0FDF7A4BA02
:1044F000002808BF70470346006899889A794FF0F2
:10450000010CA3F807C0FDF797BA0000B0B5B8B129
:104510000446007AA0B100F089FE0546D4E90310F4
:10452000490800F085FE002808BFB0BD2068A188BA
:10453000FDF77AFAE0792561B0FA80F04009E07180
:10454000B0BD0000002808BF704710B504460068E1
:10455000A18800222272FDF767FAE079B0FA80F0B4
:104560004009E071BDE8104070470000002B08BF13
:104570007047F0B5D3B058AC17460D46064633A881
:1045800080211A4623460294FBF774FE032E00F2A4
:104590009080DFE806F003050B4300BF54A200E063
:1045A00050A203A833ABC0217EE000BF002D69D02C
:1045B000A81C01E0851C043010F8021C2F2909D02A
:1045C0005C2907D0002961D010F8011C2F2906D1E1
:1045D0000EE000BF451E10F8011C2F2908D05C29F1
:1045E00006D0002952D001782F2905D10CE000BF58
:1045F000054601782F2907D05C2905D0002945D030
:1046000041782F2904D1D5E7451C41782F29D1D0F5
:104610005C29CFD00029CED138E000BFD5B3A81C8B
:1046200002E000BF851C043010F8021C2F2907D0BF
:104630005C2905D091B310F8011C2F2905D10BE09E
:10464000451E10F8011C2F2906D05C2904D029B37F
:1046500001782F2904D10BE0054601782F2907D0D6
:104660005C2905D0D1B141782F2905D1DAE700BF07
:10467000451C41782F29D5D05C29D3D00029D2D12F
:104680000CE000BF46F66135C0F60005009510A2AB
:1046900006E000BF46F66135C0F6000507A20095AA
:1046A00003A833ABC0210197FBF702FE03A800F07B
:1046B000C3F953B0BDE8F040704700BF5B455252AC
:1046C000205D202573202825733A2564290D0A00D2
:1046D0005B5741524E5D202573202825733A25648F
:1046E000290D0A005B494E464F5D2025730D0A00D7
:1046F0005B444247205D2025730D0A0010B5002061
:10470000AE21002400F098FE0020202100F094FE4D
:104710000020102100F090FE0020B02100F08CFE5F
:104720000020C82100F088FE0020002100F084FE57
:104730000020102100F080FE0020402100F07CFECF
:104740000020812100F078FE00207F2100F074FE1F
:104750000020A12100F070FE0020A62100F06CFED8
:104760000020A82100F068FE00203F2100F064FE38
:104770000020A42100F060FE0020D32100F05CFEA8
:104780000020002100F058FE0020D52100F054FE4A
:104790000020802100F050FE0020D92100F04CFEC6
:1047A0000020F12100F048FE0020DA2100F044FE54
:1047B0000020122100F040FE0020DB2100F03CFE32
:1047C0000020402100F038FE00208D2100F034FE52
:1047D0000020142100F030FE0020AF2100F02CFE5C
:1047E0000020B02100F028FE0020002100F024FE6F
:1047F0000020102100F020FE4020002100F01CFECF
:10480000601C44B2B4F1FF3FF6DC0020B12100246B
:1048100000F012FE0020002100F00EFE002010210A
:1048200000F00AFE4020002100F006FE601C44B2A9
:10483000B4F1FF3FF6DC0020B221002400F0FCFDC3
:104840000020002100F0F8FD0020102100F0F4FD10
:104850004020002100F0F0FD601C44B2B4F1FF3FA5
:10486000F6DC0020B321002400F0E6FD002000214A
:1048700000F0E2FD0020102100F0DEFD40200021CC
:1048800000F0DAFD601C44B2B4F1FF3FF6DC00201A
:10489000B421002400F0D0FD0020002100F0CCFD68
:1048A0000020102100F0C8FD4020002100F0C4FDD0
:1048B000601C44B2B4F1FF3FF6DC0020B5210024B7
:1048C00000F0BAFD0020002100F0B6FD002010210C
:1048D00000F0B2FD4020002100F0AEFD601C44B2AB
:1048E000B4F1FF3FF6DC0020B621002400F0A4FD67
:1048F0000020002100F0A0FD0020102100F09CFD10
:104900004020002100F098FD601C44B2B4F1FF3F4C
:10491000F6DC0020B721002400F08EFD00200021ED
:1049200000F08AFD0020102100F086FD40200021CB
:1049300000F082FD601C44B2B4F1FF3FF6DC08A138
:10494000012000F023FD09A1032000F01FFD0AA3B0
:10495000012000210022BDE81040FFF707BE00BF84
:1049600053544D3332204D41494E000056303720CC
:104970004F4C4544000000004F4C45442074657383
:104980007420746578742073656E740040F288003A
:10499000C2F20000083000F0BBBA000010B5006899
:1049A00044F20041C4F20001884218BF10BD40F239
:1049B0008804C2F20004204610F8081B00F0F6FA42
:1049C00010B160680130606040F2C81040F28801A8
:1049D000C2F20000C2F200010122BDE81040FDF762
:1049E000C7BF000040F28800C2F200004068704774
:1049F000014640F28800C2F20000083000F0A2BA7E
:104A000010B540F28804C2F2000440F2DC2104F147
:104A10000800C2F200014FF4807200F0B7FA0023E0
:104A200040F2C810C2F20000214601226360BDE8D6
:104A30001040FDF79DBF000010B568B10446FBF7BC
:104A4000F1FD58B182B240F2C810C2F20000214616
:104A50006423FDF7B9FF10BD012010BD002010BD7B
:104A600010B584B040F27004C2F200042178F9B1AC
:104A7000E268A0EB020CBCF1640F19D32079A27993
:104A8000CDE9001046F6010146F2A2730292C0F68B
:104A90000001C0F6000302205F22CDF80CC0FFF732
:104AA00065FD2169002020702071A071481C2061E3
:104AB00004B010BD40F27000C2F2000040697047BF
:104AC00040F27000C2F200000069704740F27000CE
:104AD000C2F200000021017001718171C0E9021170
:104AE000C0E904117047000010B582B040F27004B4
:104AF000C2F200042278032A0AD88446DFE802F0D2
:104B0000020C1620BCF1FF0F30D002B010BD00BF68
:104B10000020207002B010BDBCF1FF0F28D084F837
:104B200004C00220207002B010BD00BFBCF1FF0F16
:104B30001CD084F806C00320207002B010BD00BF56
:104B4000BCF1FF0F18D046F60101C0F6000115A315
:104B50000220AC22CDF800C0FFF708FD60690130EB
:104B600060610020207002B010BD00BF01202070E5
:104B7000E16002B010BD00BFA26812B12079A17936
:104B80009047207994F806C0009010A301200021DE
:104B90000022CDF804C0FFF7E9FC0020207002B02D
:104BA00010BD00BF496E76616C6964206672616DEC
:104BB000653A2065787065637465642046462C20EC
:104BC000676F7420307825303258000052582046E4
:104BD00052414D453A204646202530325820253056
:104BE000325820464600000040F27001C2F2000137
:104BF00088607047B0B540F60044C4F20104204616
:104C00004FF400510122FCF717FF0520FCF7F4FCDC
:104C100020464FF480510022FCF70EFF022000F0E6
:104C2000EFFC0F2000F0ECFC20464FF480510122F5
:104C3000FCF702FF3220FCF7DFFC20464FF48051E6
:104C40000022FCF7F9FE542000F0DAFC8D2000F081
:104C5000D7FC20464FF480510122FCF7EDFE2046A0
:104C60004FF480510022FCF7E7FE562000F0C8FC0C
:104C70003E2000F0C5FC20464FF480510122FCF795
:104C8000DBFE20464FF480510022FCF7D5FE5A206F
:104C900000F0B6FC1E2000F0B3FC20464FF480511B
:104CA0000122FCF7C9FE20464FF480510022FCF798
:104CB000C3FE582000F0A4FC002000F0A1FC204618
:104CC0004FF480510122FCF7B7FE20464FF480518B
:104CD0000022FCF7B1FE2A2000F092FC402000F0F8
:104CE0008FFC20464FF480510122FCF7A5FE2046A0
:104CF0004FF480510022FCF79FFE222000F080FC40
:104D00003D2000F07DFC20464FF480510122FCF74D
:104D100093FE20464FF480510022FCF78DFEA82020
:104D200000F06EFC002000F06BFC054620464FF4BE
:104D300080510122FCF780FEA80726D120464FF4BF
:104D400080510022FCF778FEA82000F059FC0020DA
:104D500000F056FC054620464FF480510122FCF736
:104D60006BFE20464FF48051002245F00305FCF70E
:104D700063FE282000F044FC284600F041FC204659
:104D80004FF480510122FCF757FE04A301200021BB
:104D90000022BDE8B040FFF7E9BB00BF5243353207
:104DA0003220696E697469616C697A65640000001B
:104DB000F0B589B00446262040F600458DF8230062
:104DC00042F29300C4F20105ADF820000020CDE9C5
:104DD0000600082728464FF4805100228DF81770EE
:104DE000FCF72AFE1A2000F00BFC072000F008FC5C
:104DF00028464FF480510122FCF71EFE0DF11606E5
:104E00000DF1230006AA0DF117030121009600F011
:104E10007FFCD8B328464FF4805100228DF81770DC
:104E2000FCF70AFE1A2000F0EBFB002000F0E8FB84
:104E300028464FF480510122FCF7FEFD08A806AA7F
:104E40000DF117030221009600F062FC30B39DF8CB
:104E50001700042822D99DF818009DF819109DF814
:104E60001A209DF81B309DF81C7020706170A27094
:104E7000E37027718DE88F000FA30120002100222D
:104E80000124FFF773FB204609B0F0BD46F66331FD
:104E9000C0F6000118A30220A92206E046F66331FD
:104EA000C0F600010EA30220B022FFF75FFB002432
:104EB000204609B0F0BD00BF52433532322055497B
:104EC000443A2025303258202530325820253032BF
:104ED000582025303258204243433D253032580077
:104EE0005243353232205549442072656164206650
:104EF00061696C65640000005243353232206E6F88
:104F00002063617264206465746563746564000085
:104F100020B1016811B18188022903D2002080B23A
:104F2000704700BFC28803899A4205D20289C088AF
:104F3000891A084480B27047C1880089081A80B273
:104F40007047000070B1D0F800C0BCF1000F09D06C
:104F50004FF0FF32C1B18388022B15D3C288038979
:104F60009A4203D14FF0FF30704700BF02891CF80E
:104F700002200A700189838801311FFA81FC002216
:104F80009C4528BF1146018110467047002818BF74
:104F9000002901D1704700BF022A38BF7047016065
:104FA00000218280C18001817047000080B5A8B1D6
:104FB000D0F800E0BEF1000F10D08388022B0DD393
:104FC000C28802F1010C1FFA8CF29A4228BF4FF0FE
:104FD000000C02891FFA8CF3934203D14FF0FF308B
:104FE00080BD00BFC2880EF80210A0F806C00020E5
:104FF00080BD000080B508A3012000210022FFF73A
:10500000B5FA002000F082FD0AA301200021002251
:10501000BDE88040FFF7AABA5374657070657220CE
:10502000666F727761726420746573742073746143
:10503000727400005374657070657220666F7277C9
:10504000617264207465737420646F6E6500000083
:1050500080B508A3012000210022FFF787FA012074
:1050600000F054FD0AA3012000210022BDE8804089
:10507000FFF77CBA5374657070657220726576654F
:1050800072736520746573742073746172740000A8
:1050900053746570706572207265766572736520F1
:1050A0007465737420646F6E6500000010B540F67F
:1050B0000044C4F2010420464FF480710022FCF742
:1050C000BBFC20464FF400710022FCF7B5FC2046E3
:1050D0004FF480410022FCF7AFFC20464FF4004122
:1050E0000022FCF7A9FC46F6C673C0F600030120B7
:1050F00000210022BDE81040FFF738BA40F2DC0181
:10510000C2F200010020087040F2E001C2F200018A
:10511000C1E90000C1E902000874C1E90500C1E964
:10512000070081F82400C1E90A00C1E90C0081F8F8
:105130003800C1E90F00C1E9110081F84C0081F885
:105140006000C1E91400C1E91600C1E91900C1E914
:105150001B0081F87400C1E91E00C1E9200081F83C
:105160008800C1E92300C1E9250081F89C0070474F
:1051700070B500294FF0FF3318BF002A02D118463E
:1051800070BD00BF40F2DC04C2F200042378072B9C
:1051900084BF4FF0FF3070BD40F2E00603EB8303A5
:1051A000C2F2000606EB830546F82300C5E90112AA
:1051B00000F03CF82178002301EB810206EB82022B
:1051C000D06001201074481C2070184670BD00008B
:1051D000F0B581B040F2DC05C2F20005287818B3C2
:1051E00040F2E000C2F2000000F10806002705E0EE
:1051F00028780137874206F1140615D2307A002844
:10520000F6D056F8040C0028F2D000F00FF8D6E9DA
:1052100000120446104600F00BF80028E8D056F8BB
:10522000040C74608047E3E701B0F0BDFCF70ABCF2
:10523000B0B50C460546FCF705FC411B0020A14219
:1052400028BF0120B0BD000080B582B040F28010C0
:10525000C2F200000CA118226423FDF7B5FB46F64C
:10526000D67146F6D97CC0F60001C0F6000C0028C5
:1052700008BF8C460BA3012000210022CDF800C0FE
:10528000FFF774F902B080BD53544D33325F4D4186
:10529000494E5F5A49474245455F544553540D0AAC
:1052A00000000000555341525431205A696742654D
:1052B0006520746573742054583A202573000000EB
:1052C00090B0FCF7D3FB00240120CDE90B44CDE9DD
:1052D000094406900A904FF4E0104FF48031022503
:1052E0000F9006A8CDE90714CDE90D51FCF770FD2C
:1052F00020B1EFF3108072B6FEE700BF0F20CDE9BA
:1053000001054FF48060CDE9040401A80221039453
:10531000FCF756FC20B1EFF3108072B6FEE700BF39
:10532000FDF712FCFDF7B4FCFDF7D0FCFDF7ECFC3B
:10533000FDF796FEFEF708FBFEF714FBFFF760FB98
:10534000FDF79AFD40F29C00C2F20000FFF7C0F8A2
:10535000FFF7D4FE43F6F12108A0C0F600010122B8
:10536000FFF706FF42F6C96106A0C0F600010A2257
:10537000FFF7FEFEFFF72CFFFCE700BF64656275D8
:10538000670000006170705F696F000070B5503891
:105390000C46C1B2002000F04FF80020002100F0C0
:1053A0004BF80020102100F047F82078002808BFB3
:1053B00070BD46F25A650134C0F6000520E000BF1A
:1053C00000EB80002844A0F5A0763178402000F062
:1053D00033F87178402000F02FF8B178402000F0C9
:1053E0002BF8F178402000F027F83179402000F0C8
:1053F00023F84020002100F01FF814F8010BC8B179
:10540000A0F141011929DBD9A0F16101192905D8C1
:1054100000EB80002844A0F5F076D6E7A0F130013B
:105420002E4609299EBF00EB80002844A0F16906A2
:10543000CBE700BF70BD0000F0B581B040F600447E
:10544000C4F201040D460646204680210122FCF7E5
:10545000F3FA204640210122FCF7EEFA00278DF8EE
:1054600000709DF800001D2824D800BF9DF80000A2
:1054700001308DF800009DF800001D281AD89DF815
:10548000000001308DF800009DF800001D2811D8A3
:105490009DF8000001308DF800009DF800001D28E7
:1054A00008D89DF8000001308DF800009DF800003C
:1054B0001E28DBD3204680210022FCF7BDFA8DF8A0
:1054C00001709DF801001D2824D800BF9DF801003F
:1054D00001308DF801009DF801001D281AD89DF8B3
:1054E000010001308DF801009DF801001D2811D840
:1054F0009DF8010001308DF801009DF801001D2884
:1055000008D89DF8010001308DF801009DF80100D8
:105510001E28DBD32046402100220027FCF78CFA0E
:105520007820FDF7E3FC3046FDF7E0FC2846FDF768
:10553000DDFC204680210022FCF77EFA2046402137
:105540000122FCF779FA8DF802709DF802001D28FF
:1055500024D800BF9DF8020001308DF802009DF8AC
:1055600002001D281AD89DF8020001308DF80200B3
:105570009DF802001D2811D89DF8020001308DF819
:1055800002009DF802001D2808D89DF80200013095
:105590008DF802009DF802001E28DBD320468021F2
:1055A0000122FCF749FA8DF803709DF803001D28CD
:1055B00024D800BF9DF8030001308DF803009DF84A
:1055C00003001D281AD89DF8030001308DF8030050
:1055D0009DF803001D2811D89DF8030001308DF8B7
:1055E00003009DF803001D2808D89DF80300013032
:1055F0008DF803009DF803001E28DBD301B0F0BD39
:105600002DE9F04381B040F600090446C4F20109D7
:105610004FF00008002500270BE000BF701EB0FA15
:1056200080F04009640040EA4707072D05F10105B5
:105630006AD2E0B2C20948468021FCF7FDF948462B
:1056400020210122FCF7F8F98DF802809DF8020074
:10565000132823D89DF8020001308DF802009DF830
:10566000020013281AD89DF8020001308DF80200BC
:105670009DF80200132811D89DF8020001308DF822
:1056800002009DF80200132808D89DF8020001309E
:105690008DF802009DF802001428DBD34846402113
:1056A000FCF7BCF90646484620210022FCF7C4F965
:1056B0008DF803809DF803001328AFD89DF80300F0
:1056C00001308DF803009DF803001328A6D89DF83B
:1056D000030001308DF803009DF8030013289DD8C6
:1056E0009DF8030001308DF803009DF80300132896
:1056F00094D89DF8030001308DF803009DF8030055
:105700001428DBD38AE700BFF8B201B0BDE8F0830C
:105710002DE9F04F81B040F60044C4F201049046F8
:105720000F46064620464FF4805100229946FCF76A
:1057300083F90220FFF764FF0020FFF761FF204696
:105740004FF480510122FCF777F920464FF4805145
:105750000022FCF771F90820FFF752FF7F20FFF7C6
:105760004FFF20464FF480510122FCF765F9204697
:105770004FF480510022FCF75FF99420FFF740FFBF
:105780000020FFF73DFF054620464FF480510122DF
:10579000FCF752F920464FF48051002245F0800575
:1057A000FCF74AF91420FFF72BFF2846FFF728FFE4
:1057B00020464FF480510122FCF73EF9B7B1013E7B
:1057C00016F8015F20464FF480510022FCF734F9AF
:1057D0001220FFF715FF2846FFF712FF20464FF46F
:1057E00080510122FCF728F9013FE9D1DDF828A01A
:1057F00020464FF480510022FCF71EF90220FFF7EB
:10580000FFFE0C20FFF7FCFE20464FF480510122E2
:10581000FCF712F920464FF480510022FCF70CF9F6
:105820009A20FFF7EDFE0020FFF7EAFE054620462E
:105830004FF480510122FCF7FFF820464FF48051CD
:10584000002245F08005FCF7F7F81A20FFF7D8FE94
:105850002846FFF7D5FE20464FF480510122FCF781
:10586000EBF84FF4FA6500BF20464FF48051002258
:10587000FCF7E2F88820FFF7C3FE0020FFF7C0FE28
:10588000064620464FF480510122FCF7D5F8013D31
:105890002F0402D016F03000E6D020464FF480519D
:1058A00000220026FCF7C8F89A20FFF7A9FE002086
:1058B000FFF7A6FE054620464FF480510122FCF773
:1058C000BBF820464FF480510022FCF7B5F81A20AF
:1058D000FFF796FE05F07F00FFF792FE20464FF49B
:1058E00080510122FCF7A8F8B7B120464FF480514F
:1058F00000220026FCF7A0F88C20FFF781FE002094
:10590000FFF77EFE054620464FF480510122FCF74A
:1059100093F815F01B0F03D0304601B0BDE8F08FAF
:1059200020464FF480510022FCF786F89420FFF7C0
:1059300067FE0020FFF764FE054620464FF48051C5
:105940000122FCF779F899F800B05D4538BFAB4605
:10595000BBF1000F19D0A8F101075E4620464FF4B5
:1059600080510022FCF768F89220FFF749FE0020E2
:10597000FFF746FE054620464FF480510122FCF712
:105980005BF8013E07F8015FE8D120464FF48051F3
:10599000002289F800B0FCF74FF89820FFF730FE9E
:1059A0000020FFF72DFE054620464FF480510122CE
:1059B0000126FCF741F805F007008AF800003046A0
:1059C00001B0BDE8F08F00002DE9F04184B040F651
:1059D0000044C4F20104054620462021002200268E
:1059E000FCF72AF82046012100224FF00108FCF7BD
:1059F00023F8204620210122FCF71EF845F0010083
:105A000000F0FEF802208DE8410169462046039629
:105A1000FBF7F6FE0027002503E000BF0137082F43
:105A20006AD020460221FBF7F9FF08FA07F10128A6
:105A300008BF0D43204601210122FBF7FDFF8DF831
:105A400000609DF80000132824D800BF9DF80000D6
:105A500001308DF800009DF8000013281AD89DF839
:105A6000000001308DF800009DF80000132811D8C7
:105A70009DF8000001308DF800009DF8000013280B
:105A800008D89DF8000001308DF800009DF8000056
:105A90001428DBD3204601210022FBF7CDFF8DF82F
:105AA00000609DF800001328B8D800BF9DF80000E2
:105AB00001308DF800009DF800001328AED89DF845
:105AC000000001308DF800009DF800001328A5D8D3
:105AD0009DF8000001308DF800009DF800001328AB
